:020000040000fa
:080000000002040000000000f2
:020000040000fa
:04000800f4030000fd
:020000040000fa
:04000c00f4030000f9
:020000040000fa
:04001000f4030000f5
:020000040000fa
:04001400f4030000f1
:020000040000fa
:04001800f4030000ed
:020000040000fa
:04001c00f4030000e9
:020000040000fa
:04002000f4030000e5
:020000040000fa
:04002400f4030000e1
:020000040000fa
:04002800f4030000dd
:020000040000fa
:04002c00f4030000d9
:020000040000fa
:04003000f4030000d5
:020000040000fa
:04003400fa020000cc
:020000040000fa
:04003800f4030000cd
:020000040000fa
:04003c00f4030000c9
:020000040000fa
:04004000f4030000c5
:020000040000fa
:04004400f4030000c1
:020000040000fa
:040048004e03000063
:020000040000fa
:04004c00f4030000b9
:020000040000fa
:04005000f4030000b5
:020000040000fa
:04005400aa030000fb
:020000040000fa
:040058007e03000023
:020000040000fa
:04005c005803000045
:020000040000fa
:04006000f4030000a5
:020000040000fa
:04006400f4030000a1
:020000040000fa
:04006800f40300009d
:020000040000fa
:04006c00f403000099
:020000040000fa
:04007000f403000095
:020000040000fa
:04007400f403000091
:020000040000fa
:04007800f40300008d
:020000040000fa
:04007c00f403000089
:020000040000fa
:04008000f403000085
:020000040000fa
:04008400f403000081
:020000040000fa
:04008800f40300007d
:020000040000fa
:04008c00f403000079
:020000040000fa
:04009000f403000075
:020000040000fa
:040094003403000031
:020000040000fa
:04009800f40300006d
:020000040000fa
:04009c00f403000069
:020000040000fa
:0400a000f403000065
:020000040000fa
:0400a400f403000061
:020000040000fa
:0400a800f40300005d
:020000040000fa
:0400ac00f403000059
:020000040000fa
:0400b000f403000055
:020000040000fa
:0400b400f403000051
:020000040000fa
:0400b800f40300004d
:020000040000fa
:0400bc00f403000049
:020000040000fa
:0400c000f403000045
:020000040000fa
:0400c400f403000041
:020000040000fa
:0400c800f40300003d
:020000040000fa
:0400cc00f403000039
:020000040000fa
:0400d000f403000035
:020000040000fa
:0400d400f403000031
:020000040000fa
:0400d800f40300002d
:020000040000fa
:0400dc00f403000029
:020000040000fa
:0400e000f403000025
:020000040000fa
:0400e400f403000021
:020000040000fa
:0400e800f40300001d
:020000040000fa
:0400ec00f403000019
:020000040000fa
:0400f000f403000015
:020000040000fa
:0400f400f403000011
:020000040000fa
:0400f800f40300000d
:020000040000fa
:0400fc00f403000009
:020000040000fa
:04010000f403000004
:020000040000fa
:04010400f403000000
:020000040000fa
:04010800f4030000fc
:020000040000fa
:04010c00f4030000f8
:020000040000fa
:04011000f4030000f4
:020000040000fa
:04011400f4030000f0
:020000040000fa
:04011800f4030000ec
:020000040000fa
:04011c00f4030000e8
:020000040000fa
:04012000f4030000e4
:020000040000fa
:04012400f4030000e0
:020000040000fa
:04012800f4030000dc
:020000040000fa
:04012c00f4030000d8
:020000040000fa
:04013000f4030000d4
:020000040000fa
:04013400f4030000d0
:020000040000fa
:04013800f4030000cc
:020000040000fa
:04013c00f4030000c8
:020000040000fa
:04014000f4030000c4
:020000040000fa
:04014400f4030000c0
:020000040000fa
:04014800f4030000bc
:020000040000fa
:04014c00f4030000b8
:020000040000fa
:04015000f4030000b4
:020000040000fa
:04015400f4030000b0
:020000040000fa
:04015800f4030000ac
:020000040000fa
:04015c00f4030000a8
:020000040000fa
:04016000f4030000a4
:020000040000fa
:04016400f4030000a0
:020000040000fa
:04016800f40300009c
:020000040000fa
:04016c00f403000098
:020000040000fa
:04017000f403000094
:020000040000fa
:04017400f403000090
:020000040000fa
:04017800f40300008c
:020000040000fa
:04017c00f403000088
:020000040000fa
:04018000f403000084
:020000040000fa
:04018400f403000080
:020000040000fa
:04018800f40300007c
:020000040000fa
:04018c00f403000078
:020000040000fa
:04019000f403000074
:020000040000fa
:04019400f403000070
:020000040000fa
:04019800f40300006c
:020000040000fa
:04019c00f403000068
:020000040000fa
:0401a000f403000064
:020000040000fa
:0401a400f403000060
:020000040000fa
:0401a800f40300005c
:020000040000fa
:0401ac00f403000058
:020000040000fa
:0401b000f403000054
:020000040000fa
:0401b400f403000050
:020000040000fa
:0401b800f40300004c
:020000040000fa
:0401bc00f403000048
:020000040000fa
:0401c000f403000044
:020000040000fa
:0401c400f403000040
:020000040000fa
:0401c800f40300003c
:020000040000fa
:0401cc00f403000038
:020000040000fa
:0401d000f403000034
:020000040000fa
:0401d400f403000030
:020000040000fa
:0401d800f40300002c
:020000040000fa
:0401dc00f403000028
:020000040000fa
:0401e000f403000024
:020000040000fa
:0401e400f403000020
:020000040000fa
:0401e800f40300001c
:020000040000fa
:0401ec00f403000018
:020000040000fa
:0401f000f403000014
:020000040000fa
:0401f400f403000010
:020000040000fa
:0401f800f40300000c
:020000040000fa
:0401fc00f403000008
:020000040000fa
:04020000f403000003
:020000040000fa
:04020400f4030000ff
:020000040000fa
:04020800f4030000fb
:020000040000fa
:04020c00f4030000f7
:020000040000fa
:04021000f4030000f3
:020000040000fa
:04021400f4030000ef
:020000040000fa
:04021800f4030000eb
:020000040000fa
:04021c00f4030000e7
:020000040000fa
:04022000f4030000e3
:020000040000fa
:04022400f4030000df
:020000040000fa
:04022800f4030000db
:020000040000fa
:04022c00f4030000d7
:020000040000fa
:04023000f4030000d3
:020000040000fa
:04023400f4030000cf
:020000040000fa
:04023800f4030000cb
:020000040000fa
:04023c00f4030000c7
:020000040000fa
:04024000f4030000c3
:020000040000fa
:04024400f4030000bf
:020000040000fa
:04024800f4030000bb
:020000040000fa
:04024c00f4030000b7
:020000040000fa
:04025000f4030000b3
:020000040000fa
:04025400f4030000af
:020000040000fa
:04025800f4030000ab
:020000040000fa
:04025c00f4030000a7
:020000040000fa
:04026000f4030000a3
:020000040000fa
:04026400f40300009f
:020000040000fa
:100400002f4221000eff27000e018800000000008f
:10041000000020000000e000020032000001200087
:100420002002880014000700f10007000000e0002f
:1004300003003a0040f422000100200002003700cf
:100440000000200001002000810f70000100320038
:100450000f000700000020000000e0000200320052
:1004600000000200000000006a110200000000000d
:100470000040da000000fe00200020000000e00044
:1004800002003200100020009001880000000600e9
:10049000a1028800800478000000eb001f003700f4
:1004a000e284440054a0b4009905ba00e2844400f8
:1004b00054a0b4009906ba00e284440054a0b400e9
:1004c0000006eb00476fde00fd07b200ae018800ba
:1004d000636ce10003003a000ad801000000eb0061
:1004e0000e003700606ce10008003a00004deb00a0
:1004f0000a05e800020039003420ec000af0a000f0
:100500008b05e900f9ff3e00040037006168e10057
:10051000010032000086eb000b00070019c7ba008b
:100520000e04e0001905ba0003003a000a00e000da
:10053000dbff3a0000000600fe07b200ae028800b2
:100540008a047800f5ff37000cd0a300e20f4d00bd
:100550001c003b0089027800354dba000a05e8000e
:10056000020039003420ec000af0a0008b05e900fd
:100570000f003200254dba000a05e80002003900dc
:100580003420ec000af0a0008b05e90008003200de
:100590000c00e0000600320015cdba000a05e800a4
:1005a000020039003420ec000af0a0008b05e900bd
:1005b0008984e80054a0b4000b00e000e2ff3a0098
:1005c000000006009902ba00055d78008b05e9007d
:1005d000f7ff3200c82ade00055d78008b05e900d0
:1005e000f3ff32000c00e000f1ff320019ddba0029
:1005f000eeff37003600f800809fbe00829fbe00ed
:10060000849fbe00869fbe000000fa000068a9001b
:10061000eb0a070092120700890d07003515070045
:10062000008080000000e8000080880001808000d9
:10063000301f2000808f5000030034000030ef0096
:10064000520d0700450c0700000000000080fa0072
:100650004f03be004f02be004f01be004f00be0060
:100660003600f90000400600809fbe000000fa003e
:100670000368a90010808000218080006100400094
:10068000e080480010808800218088000000000081
:100690000080fa004f00be00004006000000fa0093
:1006a0000108a900000000000080fa0000400600d8
:1006b000801f78000000fa0001a8a900001880003f
:1006c000b0a0880010188000c0a08800201880000a
:1006d000d0a0880030188000e0a08800401880007a
:1006e000f0a0880010c0b3004df0b700000000007b
:1006f0000080fa004f007800004006003600f80045
:10070000809fbe00829fbe00849fbe00869fbe0069
:100710000000fa000188a900218280001082800078
:10072000808f5000020032002514070001003700be
:100730004670ef00000000000080fa004f03be008a
:100740004f02be004f01be004f00be003600f90050
:10075000004006003600f800809fbe00829fbe0069
:10076000849fbe00869fbe000200fa000168a900b7
:10077000101180004200de00614060000004e000d3
:10078000010032002242a900101180000000d100b7
:10079000614060000004e000060032002222a9004f
:1007a0000400370030118000004f78001e407800b0
:1007b0006414070010118000004078006140600060
:1007c000e14f5000f7ff3200000000000080fa0007
:1007d0004f03be004f02be004f01be004f00be00df
:1007e0003600f900004006000040da000000fe007c
:1007f0000000050014002000ad033700f4ff2f00b7
:10080000ab0337000001be003f0007000470a700e3
:1008100003f0a1006509b100160032000d0035009b
:100820006828e10006003500f0ff2f00f1ff2700e7
:100830000300e00013003b00010028000000050059
:1008400000004000818048008502e900fcff3a007a
:1008500008003700f88f420002003c008000eb00e7
:10086000000005008100d1000080d3008502e8006f
:10087000fcff3a000300e00002003b0060001000b3
:10088000e0801800000006000001be001e00070006
:100890000470a70003f0a10003f8a30013003a00be
:1008a0006509b10010003200090035006928e10037
:1008b0000200350001002800000005000000400093
:1008c000818048008502e900fcff3a000000060034
:1008d000f88f4200050035008100d1000080d30070
:1008e0008502e800fcff3a00000006008000eb00f3
:1008f000000005004f89de00820178008703370081
:100900006011b80095033700c70ade00f107b20096
:10091000f50fb20008003200e1cf420002003200c1
:100920000170a00024000500810f7000010032005a
:100930000408050044000500810f700002003a0021
:10094000140005008502e9000000400081c0480055
:10095000fcff3b000170a0002400050007f8270001
:10096000078361000638e10004003a00f707200021
:10097000878361008703710001003a0003f0a20041
:10098000889fbe008a9fbe008c9fbe00470ade0083
:100990000480a100c71ade000580a100070028001e
:1009a0000785600087856100f70f20000720e100c0
:1009b0009e0032000728e1009c003200010678000a
:1009c0000400e000b4003200f707200087806000d8
:1009d0000170a0000500e000c0003200f707200011
:1009e000878161000370a000050652000f003a00e5
:1009f0000b50e1000b0032000308e10002003a0056
:100a00000200e1007e00320002045000838458009e
:100a1000040031000001fd008101fd008402fd00a1
:100a20008a05fd006044b800210037000520e10080
:100a300005003d000001fd008101fd008402fd0074
:100a40008a05fd00050652007a60e10005003500c8
:100a50000170a1004722dd00848070008a80700050
:100a6000630037006044b800ef02660007ff2f0004
:100a7000070666000500e00006003400f08312005f
:100a80008714dd000511de00071bdd000601710083
:100a90008519de007060e10005003500090478006a
:100aa00082047800030178008001eb007006560094
:100ab0000b50e10003003a00020040008380480030
:100ac0000400370060041400e0841c000200580099
:100ad000838058000188a300060032008100d10005
:100ae0000080d3008984d3000884d3000402e80086
:100af000270037000178a30025003a000100e0003c
:100b0000030032008186cf00698656000a00370054
:100b10008c0020000000e00004003a00090078008a
:100b2000880478000004eb00700252008086cf0039
:100b30000d0646000c06e9007060e1000600350075
:100b40008000780009007800880478000004eb0039
:100b500070065600700252000c00e0000c003400d9
:100b60008c08dd00f00316000703de0086807000ad
:100b70000c00dd00074bde00060070008c4cdd0031
:100b80000743de00868474000c44dd000c02520032
:100b90006120e100200035006101600007002800ad
:100ba00087816400f7ff27008783640007037400d0
:100bb0000300e000060032008203730004003200ec
:100bc0000000e800e08048000188a3000e003a0021
:100bd000f70f20000720e1004a003d000170a1004e
:100be0004722dd00810072008a8070000000be0094
:100bf0004f06be004f05be004f04be0000000600b9
:100c00006000b800faff37008100d1000080d300f7
:100c10000402e800eeff3700040178008901740047
:100c2000a10107008a807000f1ff3700f70107007b
:100c3000070278000001fd008101fd00f3010700bb
:100c400087027800850372000778a3000400320051
:100c50000001fd008101fd0006020700e4ff3700ee
:100c6000850362000768a300080032000b50e10012
:100c700003003200f0ff2f00f1ff2700dcff3700f8
:100c80000001fd008101fd00d9ff37000468a300c9
:100c9000d7ff3200faff3700f8ff27008883600093
:100ca0000b003a000000e00009003a0083036400f2
:100cb00082837300020032000200be00ccff3700c6
:100cc0000b50e100ceff3a000200be00c8ff370023
:100cd00014002000810064003eff3700f8ff270069
:100ce0008883610004003a000200e00002003a003c
:100cf0008c007800beff37001500200083016400df
:100d000039ff370001f8270000002000810075003e
:100d1000b7ff3700889fbe008a9fbe008c9fbe0031
:100d20001b0020000202be000586680006002800a5
:100d3000060666004709de00f20fb20082003200ac
:100d40000243e80080003200c729de00f30fb20042
:100d50007d0032000343e8007b003200f107b2005f
:100d60000170a000f507b2000570a000c708dd0003
:100d70004903de00868070004700dd00c72add00e1
:100d80004923de00868272004722dd000305510000
:100d90000403500085835800030031000000400028
:100da000818048000a05e9008c1f78008a9fbe00f8
:100db00004005000858058000402420085824a00e9
:100dc00000004000818048000005eb000004be00e8
:100dd0006033b8000406be000d48e1005600310043
:100de000110009004dccd8000c01b8000d02b8006c
:100df0008481410060824a008283530003045c00c6
:100e000084845c0060055d000a00e00025003a0073
:100e1000800578000d40e10049003100880078002d
:100e200007007800110009004d88d8000c01b800b7
:100e30000d02b8008481410060824a006003110005
:100e400083835b0004045c00e0845c000900e00034
:100e500021003a004f01be000300e0002b003200e9
:100e6000e3016000070673008c817100010032000d
:100e7000640070004200de004e5edd000c00700079
:100e8000c258de0001e0a00083010700cf01780016
:100e9000818071004f06be004f05be004f04be00aa
:100ea000000006008c8343000d044c00e0844c00dd
:100eb00060054d000000e9000a00e000d4ff3200a8
:100ec0008c8343000d044c00e0844c0060054d0011
:100ed0000000e900ceff37000c0343008d834b0078
:100ee00060044c00e0844c000000e9000900e000d0
:100ef000d8ff32000c0343008d834b0060044c008c
:100f0000e0844c000000e900d2ff37004200de0020
:100f10004e5edd000c007000c258de0001e0a00053
:100f2000cf0178000300e000daff3200600010001b
:100f3000e0801800d7ff3700f0ff2f00aaff37002e
:100f4000f0ff2f00b9ff37000404be002f01070097
:100f5000870678000004fd008104fd002b010700d6
:100f6000078366000678a300030032000960a7002b
:100f70000800be002c0037000d78a30002003200ec
:100f80000800be00280037000778a30026003a00ba
:100f900001f0a10009f0a1000668a30003003200df
:100fa000f1ff2700f0ff2f00baff37000d68a30004
:100fb000030032000800be008c807000b5ff3700cf
:100fc0000768a30007003a000648a30003003200a8
:100fd000f1ff2700f0ff2f00aeff37000d48a30000
:100fe000030032006000b8008c807000a9ff370059
:100ff0000748a3000400320001f827000000200089
:101000008c807000a3ff3700760107000004fd000c
:101010008104fd0002057800720107000802be008d
:101020008a01780059ff37000160a00012022000f9
:101030007282880097ff37000100e0001200320042
:101040000500e00010003200889fbe008a9fbe00ad
:101050008c9fbe000006eb0001f8a30003003200e5
:1010600060001000e08018000cf0a00005f8a3005c
:101070000300320060021200e0821a000cf0a200ad
:101080008005eb0041ff37006000b800020005005a
:10109000038368000700280007036300470ade0097
:1010a0000480a100c71ade000580a100f70f200010
:1010b0000720e100420032000728e1004000320032
:1010c000889fbe008a9fbe008c1f7800f107b20087
:1010d000f307b2000400e000640032000170a000d9
:1010e0000500e000680032000370a00085054200a2
:1010f000eb07b1000204b8000302b8008484440086
:1011000060854a00020ab800848444000a854a00c7
:10111000030ab80004054500040033000804d000a9
:101120008984d2000a85d2008b05e9006158e1006c
:101130003d00350002102000090161000308200075
:1011400089816100f70720008783640008867300a7
:10115000c84cde00c853dd00878474004855de00ab
:101160000300e00006003200820376000400320033
:101170008904e80060054d000a88a3000c003a00cd
:10118000f70f20000758e10044003d000a70a1005d
:10119000c75ddd000a8575008a00730009007800cc
:1011a0004f0678004f05be004f04be000000060049
:1011b0000a05d1008984d3008b05e800f0ff3700d1
:1011c000881f780006047800900007000702780066
:1011d0000001fd008101fd008c00070087027800fe
:1011e000850372000778a300050032000001fd00ae
:1011f0008101fd009f0007004f04780000000600f9
:10120000850372000748a30003003200f0ff2f009f
:10121000f1ff2700f8ff37000000200001f8270049
:1012200088807000f4ff3700880178004848dd00ae
:10123000808171004848de00c850dd000100700068
:10124000c850de00060478000b0178001600070085
:1012500088807000d2ff37000500e00005003200f2
:10126000170020003a0007009dff3700810370003f
:10127000f9ff3a00860078004f0678004f05be005f
:101280004f04be000000050083037100f9ff320027
:10129000270020002e00070094ff370001f82700e8
:1012a00086807000f4ff37000100e0002600320065
:1012b000610111007810e10023003c006022b800b9
:1012c0007010e10004003500800278000100780011
:1012d0008000eb00700151000200e00009003400c2
:1012e00070031100062add00822ade008603dd007d
:1012f000878272000200de00860bdd0007007000ae
:101300008208de0084817100f4ff270004826200fd
:101310008481710004002800848262006102600000
:1013200005f0a600000006000482710007003200ec
:101330000000e800e0804800000006000002be0057
:101340006000b800efff37006000b8000000060042
:10135000889fbe000004eb006138e10016003a00ef
:101360000100e00008003a00c800de004800dd008f
:10137000880020000100e00003003a00c800de0001
:101380004800dd00680444008184cf00e9845400f3
:10139000060034008908dd00f08314008703de00b6
:1013a000878070000900dd00090444006102140018
:1013b0004f04be00000006000300e00008003a00f1
:1013c000c811de004811dd00880020000300e000a5
:1013d00003003a00c811de004811dd006804440033
:1013e0008384cf00e9845400060034008919dd00ad
:1013f000f08314008713de00878171000911dd007e
:1014000009044400e1021400e9ff3700270020002e
:1014100001f0a70017002000470bde00f60fb20016
:10142000040032000643e8000a0032004702b3001d
:101430000000060001037800f607b2000603700002
:1014400002003a000703b300000006008702b30061
:101450000000060001037800f607b20006037000e2
:10146000020032000770a000000006000760a00024
:10147000000006000478a300040032000578a300f1
:10148000030032000168a30001003a000200be0020
:101490000160a000000006008101700027003200fa
:1014a0008002eb0001f8a30003003200600010008e
:1014b000e080180015002000f4072000020242001e
:1014c00020003400f703200087036000060420009a
:1014d0000003630002082000000161004700de00f5
:1014e000c909dd0000807100c708de000600e000c9
:1014f0000800320087037100060032001000b000bf
:101500000180b0000188a30002003200c108de00a3
:101510000402e800f107b200f30f20000320e1000d
:1015200003003d004722dd008100720029003700e2
:1015300001f827000000eb00260037006000b8002b
:1015400000000600680212007f20e1000200340063
:101550006000b8001f0037006011b8007020e10083
:101560000400350080017800010078008000eb0065
:10157000700252000400e00009003400f003120081
:101580000719dd008419de000703dd008681710084
:101590000400de00070bdd00060070008408de009a
:1015a000f7ff27008383630087037100060028008c
:1015b00003036300070032000700e00003003a0065
:1015c0006101600002817300020032001000b0006f
:1015d0000180b0000500a6000000060001f0a00098
:1015e000000006004f0ade004709de00f107b200e6
:1015f000f20fb2000b003200f207b1000170a00040
:10160000c708dd00c901de00838070004700dd00ef
:101610000400a6000000060060001000e080180032
:1016200000000600810f700001003a000000060073
:101630008182cf000500e00010003e008082cf00d4
:10164000ee8242007028e1000400390007003e00ed
:10165000800078000000eb000e003700708312005d
:101660008600de000500dd000a00370070835200ae
:101670008600dd000000eb0006003700e282520029
:101680008508dd00708312000603de00868070008e
:101690000500dd007507b0000501ea000400a600a2
:1016a0000000060060001000e08018000000060046
:1016b000889fbe008a9fbe00841f78007c000700c0
:1016c0004f00780011003300f0ff2f00838f6c0073
:1016d00006003b00040565000a00a700080037006b
:1016e00009f0a6001000200008003700820f540007
:1016f000838f5c00030039001000200001003e00d1
:101700000000200009f0a7000000ea004f05be001d
:101710004f04be000000e00000000600881f7800b3
:10172000030478000300e00007003d0060001000a3
:10173000e080180060011900e081190002003b0000
:1017400001f02d00030037000400070008f0a70097
:1017500001f0a0004f04780000000600889fbe0042
:101760008a9fbe0000827000040271000482710032
:10177000260032000004be000200be006011b80066
:101780006b092000950220000182cf000a00390079
:101790000541b1000082cf00070039000541b100ca
:1017a0000982cf00040039000541b1000882cf0052
:1017b000010039000541b10005425200120032001b
:1017c0000a003b0082817100610164008100d10048
:1017d0000080d3008984d3000884d3008b05e800ff
:1017e0000442e800f7ff3a0007003700080444000d
:1017f00089844c0000004800818048008b05e90086
:101800000442e900f9ff3a00030007004f05be005b
:101810004f04be00000006008100200061805500da
:101820000b003d000b00200061fe2f000100e100d5
:101830001d00340082817100610164008904d100bf
:101840000884d3000000e800faff3a00710020008d
:1018500061006400030070000200600009003200b3
:1018600061044400e0844c000988a50005003200b2
:101870008b05e8006808e10002003a008904d10005
:101880000884d300f20f20000258e10005003d005b
:10189000c75ddd00f907b200898075000800780097
:1018a000000006000bf827008b0078000000050000
:1018b0000004be0014fc07000003be000405be00c7
:1018c0000200be0010fc0700844f750000000600f7
:1018d0000400fa00000178008101780003f0a10003
:1018e000a4fd200095f42300840f5100858f59003a
:1018f0000e003e00f4ff2f00f5972300840f5100e7
:10190000858f59003a003e000200200003b82700ee
:101910001bfc0700e0bf9f00f1bf9f0000002000fc
:1019200001f823000080fa00000006004f0ade00e4
:1019300005002000163d2500b7072400860f510042
:10194000878f59001b003e0036be2c006701240023
:10195000860f5100878f59000a003600b2fd200023
:10196000930424000400e0000400320004fc07009b
:101970005b01070001f0a200eaff3700f7fb070058
:10198000fbff37000400e00005003200b2fd20003c
:1019900093fc2300fafb0700dc010700e1ff37009e
:1019a0000001be00b0fd200091fc2300ebfb07000e
:1019b000f9ff3700561d2300270e2400860f510023
:1019c000878f590014003e00f6dd2e00f70a240030
:1019d000860f5100878f590009003600b2fd2000a4
:1019e000930c24000400e00003003200e4fb070035
:1019f0003b010700cbff3700d8fb0700fcff370097
:101a00000400e0000100320001f0a20042be2c0000
:101a100063092400e5ff3700f4ff2f00f5f72700e6
:101a2000840f5100858f5900040036000001be006c
:101a30000200be00c9fb0700baff370064815700ef
:101a40005b010700630160006fb89700ffb8970063
:101a5000e10f510005003200e20f5100c4ff3200d7
:101a60000200e000ccff3a00e1ff370001f0a200e5
:101a7000c9ff37000400fa00889fbe008a9fbe009d
:101a80000203410083834900e00f5300e08f5b00b5
:101a900010003200020278008302780005f0a100f5
:101aa0000800200009f82700880f5200898f5a008b
:101ab00008003e00a0bf9f00b1bf9f00470dde00a1
:101ac0000b002000f40f20000a056200840f55006f
:101ad00007003a006efd07000001be008dfc070004
:101ae0004f05be004f04be000080fa000000060053
:101af0000002400081824800840f5300858f5b0004
:101b000006003900840f5300858f5b00f4ff3a0014
:101b10006011b8005efd0700f1ff37000a00e00029
:101b20004c003a002fbb9700bfbb9700493add003d
:101b3000c732de00850272004932dd00e00f52003c
:101b4000e08f5a003f003d00610215002fbb970057
:101b5000bfbb9700040478000804e90003003300c9
:101b60000603430087834b00fbff37000602be00dd
:101b7000471bde00070020000683fb000600e00094
:101b80003d003a00491cdd00c714de0089047400e2
:101b90004914dd00e00f5400e08f5c0032003d008e
:101ba000e10313000204be008703e90003003300d1
:101bb0000804440089844c00fbff370008015200f0
:101bc00089815a00860f55002f003c00e00f51001c
:101bd000e08f590004003500e00f5100e08f5900fc
:101be000cbff32000202be004728de0001002000c9
:101bf000e00f5000e08f58002e0032000a00e00095
:101c0000300034000000200001f82f0004024000e2
:101c1000858248006150b900c700dd000000200047
:101c200004007000858070006022b8000200280067
:101c3000bfb99700830261000000720081807200ca
:101c4000a7ff37000a05e9000402420085824a0026
:101c5000baff37002fba9700bfba9700f507b20056
:101c60000570a000c2ff37000603e9000804440025
:101c700089844c00c7ff37000204be00f907b20098
:101c80000970a000cdff3700e00f5100e08f590030
:101c900004003500e00f5100e08f59009cff320036
:101ca0000202be000402420085824a000a05e900e1
:101cb000c2ff37000402420085824a000a05e9009b
:101cc000c9ff3700610515000400be000a05e900e0
:101cd000030033008100d1000080d300fbff3700f8
:101ce000d1ff37000400fa00889fbe000004be0048
:101cf0008900780001f0a100a4fd200095f42300e4
:101d0000840f5000858f58001e003e00f4ff2f0006
:101d1000f5972300840f5000858f580016003e0071
:101d20006000b80003f8270089806100e00f5000d0
:101d3000e08f58000b003a0002002000033820001a
:101d40000800be00d2fc07000001be00c2bf9f0019
:101d5000d3bf9f000800be004f04be000080fa0001
:101d6000000006000200200003b827000800be00a3
:101d700003fb0700f4ff37000800be00e300070084
:101d8000180037004f49de0003002000143d2500f5
:101d9000b5072400840f5000858f58001d003e00b9
:101da00034be2c0065012400840f5000858f58003c
:101db0000e003e000800be000200e000b2fd200060
:101dc00093fc230005003200edfa070044000700f1
:101dd0000004be0009f0a200deff3700dffa0700b2
:101de0003f0007000004be00daff37000800be0015
:101df0000200e000b2fd2000930424000300320042
:101e0000dffa070001f0a200dcff3700d3fa070079
:101e1000fcff3700541d2300250e2400840f5000c2
:101e2000858f580017003e00f4dd2e00f50a2400cf
:101e3000840f5000858f580009003e000800be0046
:101e40000200e00042be2c006309240002003200c0
:101e5000cbfa0700e2ff3700c0fa0700dbff3700cc
:101e60000800be000200e000b2fd2000930c240038
:101e700002003200c2fa0700c0ff3700b7fa0700bd
:101e8000beff3700f2ff2f00f3f72700820f50004c
:101e9000838f5800050036000801be000800be0010
:101ea000aefa07000004be00aaff370068815700a1
:101eb0000800be003e000700630160004fb89700b5
:101ec000dfb89700e10f5100c5ff3200e20f51006b
:101ed000ccff32000200e000bcff3a00a7ff370051
:101ee0000400fa00889fbe008a9fbe008c9fbe003f
:101ef0000001be0066fc07000004be000001be0039
:101f000063fc07000005be000200200003f02b0068
:101f10000800be005efc07000200200003f823005a
:101f200097fa07000006be00f2a92a00a3d22300f8
:101f30000a00be0056fc07000001be000c00be00f7
:101f40008ffa07000002be0072a12900c37c2300a3
:101f50000800be0084bf9f0095bf9f004cfc070097
:101f6000f243200063ab23007cfa07000006be00aa
:101f70000a01be000800be0045fc07000001be00cb
:101f80000c00be0042fc07000001be000fba970023
:101f90009fba97000400be0079fa07004f06be0002
:101fa0004f05be004f04be000080fa00000006008e
:101fb0000400fa00889fbe008a9fbe008c9fbe006e
:101fc00000067800810478008206780001f0a10004
:101fd000a2fd200093dc2400820f5000838f580064
:101fe00023003e0032982f0023f22300890078005e
:101ff00027fc07000200200003b4240060fa070059
:102000000200200003b4240054fa07000005be00bb
:10201000fcf9070000047800a2fd200093fc2300d7
:102020000a00be001afc07000001be000c00780088
:102030008900780049fa07000002be00325a2800e1
:10204000832823000a00be0084bf9f0095bf9f0025
:102050000ffc07000001be000fba97009fba97005f
:102060000400be003dfa0700808ebe000b00370062
:10207000f2ff2f00f3f72700820f5000838f5800e4
:102080000c00360000017800890178008900780092
:1020900032fa0700808ebe000004eb0008007800d2
:1020a0004f06be004f05be004f04be000080fa0080
:1020b00000000600890078004c0007000005be0003
:1020c00032982f0023f22300f1fb070002002000ca
:1020d00003f023002afa07005500070000047800e7
:1020e0008efd070032982f0023f2230009fb070022
:1020f0000001be000a00be0018fa07006000b80028
:10210000a0069800b1069800d7ff37000400fa0037
:10211000889fbe008a9fbe008c9fbe000006be0046
:102120000001be00dafb07000004be000001be0093
:102130000c00be00d6fb07000005be000801be0073
:102140000800be00d2fb07000a01be00d0fb07005a
:102150000002be00c2c32600636323000800be0065
:1021600084bf9f0095bf9f00c9fb0700f27c200041
:1021700003952300f9f907000001be000fba97008c
:102180009fba97000400be00c1fb07000002be001a
:102190004288280083c023000800be0084bf9f003f
:1021a00095bf9f00bafb0700b2aa2a00a3e2230052
:1021b000eaf907000a01be00b5fb07000c01be00ea
:1021c000eff907000001be000fba97009fba970011
:1021d0000400be00eaf907004f06be004f05be002e
:1021e0004f04be000080fa00000006000400fa0060
:1021f0006011b800e2bf9f00f3bf9f006fbb970064
:10220000ffbb97000002be00f0ff2f00f1ff2f0080
:10221000f2ff2f00f3ff27000000620081806200c0
:1022200002016300838163000080fa000000060061
:102230000003be00b4f907006011b8000470a700e5
:1022400007f0a1006509b1001b0032001200350043
:10225000860220000628e10008003500f3ff270071
:10226000f2ff2f006110b9000700e00018003b00ea
:10227000030028006000b8000200050000004000d4
:102280008180480002014900838149008502e900fc
:10229000faff3a0008003700f88f420002003c00c5
:1022a0008000eb00000005008100d1000080d30019
:1022b0008502e800fcff3a000700e00004003b0054
:1022c00060001000e080180060011900e081190032
:0422d0000000060004
:020000040000fa
:1022d4000e00fa00180e0700650e0700b00e070086
:1022e400830807006a080700750807000a05070045
:1022f40011050700c10d0700fb0207004606200078
:1023040045062000440620008001eb000001eb009c
:102314008000eb00602e21000d0a07004606200015
:1023240045062000440620008001eb000001eb007c
:102334008000eb00602b2100050a07006000b80054
:1023440090928800a19288006000b800f092880002
:10235400019388006000b800b0928800c1928800a0
:102364006000b8001093880021938800040ea80030
:10237400052ea80095eea800054ea800746ea800ce
:1023840004003700870d0700004f78001e407800d6
:10239400440907004c0d07000004e000f9ff3a006f
:1023a40086030700db0d0700e14f5000f9ff3a00f8
:1023b400dc0d0700d30d0700100798001e009000e5
:1023c40010007800008188000e80e8001080e8008a
:1023d40010007800108188000e80e8004100200081
:1023e4001080400010007800208188000e80e800f2
:1023f4006200200010004100100078003081880045
:102404000e80e80081002000108040001000780059
:10241400408188000e80e8001080e80010007800f9
:102424008000eb0035f90700323323003305240024
:1024340016fb070000017800010078008202780092
:1024440000027800020020000358240005007800f0
:10245400840078000000be002dfa070020079800d1
:10246400310798002e019000be019000000020006a
:102474008120240026fa070000017800010078007a
:10248400820278000002780002002000030a24007f
:1024940005007800840078000000be002ef90700d3
:1024a4008001780001017800030078008200780040
:1024b4000000be0090938800a19388000e80e8007d
:1024c4004200200010004100100078008000eb0062
:1024d4000af907003233230033052400ebfa07001e
:1024e4000001780001007800820278000002780080
:1024f40002002000035824000500780084007800be
:102504000000be0002fa0700200798003107980077
:102514002e019000be0190000000200081202400c4
:10252400fbf90700000178000100780082027800be
:102534000002780002002000030a2400050078004d
:10254400840078000000be0003f9070080017800d1
:102554000101780003007800820078000000be00ca
:1025640070938800819388000e80e8006100200049
:1025740010804000100078008000eb00dff80700b6
:102584003233230033052400c0fa07000001780029
:102594000100780082027800000278000200200026
:1025a4000358240005007800840078000000be0071
:1025b400d7f9070020079800310798002e019000f2
:1025c400be0190000000200081202400d0f9070003
:1025d400000178000100780082027800000278008f
:1025e40002002000030a240005007800840078001b
:1025f4000000be00d8f807008001780001017800cf
:1026040003007800820078000000be005093880028
:10261400619388001e009000100078008000eb0099
:10262400b6f80700323323003305240097fa070075
:10263400000178000100780082027800000278002e
:10264400020020000358240005007800840078006c
:102654000000be00aef9070020079800310798007b
:102664002e019000be019000000020008120240073
:10267400a7f90700000178000100780082027800c1
:102684000002780002002000030a240005007800fc
:10269400840078000000be00aff8070080017800d5
:1026a4000101780003007800820078000000be0079
:1026b400b0938800c19388000e80e8008200200057
:1026c40010004100100078008000eb008bf8070038
:1026d40032332300330524006cfa0700000178002c
:1026e40001007800820278000002780002002000d5
:1026f4000358240005007800840078000000be0020
:1027040083f9070020079800310798002e019000f4
:10271400be01900000002000812024007cf9070005
:10272400000178000100780082027800000278003d
:1027340002002000030a24000500780084007800c9
:102744000000be0084f807008001780001017800d1
:1027540003007800820078000000be00d093880057
:10276400e193880050938000619380000200200070
:10277400031f24001ef807000000e00002003c00d4
:10278400856ea80001003700856ea9007093800053
:102794008193800002002000031f240014f8070026
:1027a4000000e00002003c00848ea8000100370015
:1027b400848ea90090938000a193800002002000e1
:1027c400031f24000af807000000e00002003c0098
:1027d40084aea8000100370084aea900b093800045
:1027e400c193800002002000031f240000f80700aa
:1027f4000000e00002003c0084cea8000100370085
:1028040084cea900d0938000e193800002002000d0
:10281400031f2400f6f707000000e00002003c005c
:10282400754ea80001003700754ea9005081800044
:102834008000e80051818800a10020000101780097
:10284400110009000200d8008000fd000000e00033
:10285400d0fe3a0090938000a193800009f807000d
:102864008040780080002000017778007093800019
:102874008193800003f807008040780080002000e6
:102884000000e80001777800509380006193800095
:10289400fcf7070080407800800020000080e800fa
:1028a40001777800680047000001780031002000bb
:1028b4000003200082070700b0928000c1928000cc
:1028c400f0f7070080407800b0002000017778001e
:1028d4001093800021938000eaf70700804078007d
:1028e400b00020000000e800017778006b0047008a
:1028f4000001780021002000000420007007070078
:10290400a4fe37000000fa002cd0bf000080fb00ba
:102914006100b900b200200003002000820f5000c3
:10292400838f58007d003e00000601000b00370035
:1029340016003700220037002d0037003100370021
:102944003d003700410037004d003700510037008b
:102954005c003700600037006b0037000230ef0086
:102964000430ef006011b8006000b80011030700e4
:1029740010c0b3002cf0b7001080800021808000cc
:102984000001be000040eb00290707002ed0bf0065
:10299400e14f500063003a001280800023808000e1
:1029a400803e200001002000800f5100818f5900db
:1029b4005c00360020c0b3002cf0b700590037008b
:1029c400c2f02500532d2c006000b800f902070066
:1029d40010808000218080000001be0020c0b30070
:1029e4001307070030c0b3002cf0b70058003700bd
:1029f4002ed0bf00e14f50004c003a0057000700b2
:102a04004a00370092bf2e00831b2c0000002000d8
:102a1400010d2c00e7020700108080002180800057
:102a24000001be0040c0b3000107070050c0b3005e
:102a34002cf0b700460037002ed0bf00e14f500005
:102a44003c003a00450007003a00370092bf2e00d0
:102a5400831b2c0000002000010d2400d502070078
:102a640010808000218080000001be0060c0b3009f
:102a7400ef06070070c0b3002cf0b7003400370035
:102a84002ed0bf00e14f50002c003a003300070065
:102a94002a0037006011b80000002000011524004e
:102aa400c402070010808000218080000001be0065
:102ab40080c0b300de06070090c0b3002cf0b7005e
:102ac400230037002ed0bf00e14f50001d003a0014
:102ad400220007001b0037006011b800000020002e
:102ae40001152c00b30207001080800021808000b3
:102af4000001be00a0c0b300cd060700b0c0b30003
:102b04002cf0b700120037002ed0bf00e14f500068
:102b14000e003a00110007000c0037002c70ef0083
:102b24000b0037000000000009003700000000001f
:102b34000700370000000000050037000000000017
:102b4400030037000000000001003700000000000f
:102b5400000000000080fa00000006000200fa00f5
:102b64000040eb00004f7800509380006193800098
:102b740002002000031f24001df707000000e000ee
:102b840018003d00709380008193800002002000b3
:102b9400831c240018f707000000e0001100340033
:102ba40090938000a193800002002000031f240062
:102bb40011f707000000e0000a003400b093800021
:102bc400c193800002002000031f24000af70700bd
:102bd4000000e0000300340020c0b300004f780080
:102be4009d003700d0938000e19380000200200014
:102bf400c3202400fef607000000e00018003d009a
:102c0400709380008193800002002000831c2400c4
:102c1400f9f607000000e0001100340090938000f2
:102c2400a193800002002000031f2400f2f6070095
:102c34000000e0000a003400b0938000c1938000db
:102c440002002000031f2400ebf607000000e00050
:102c54000300340020c0b300004f78007e0037002a
:102c6400d0938000e193800002002000031f240021
:102c7400e1f607000000e0001800340050938000e3
:102c84006193800002002000031f2400daf607008d
:102c94000000e000110034007093800081938000f4
:102ca40002002000831c2400d3f607000000e0008b
:102cb4000a00340090938000a19380000200200059
:102cc400031f2400caf607000000e00003003d00d3
:102cd40010c0b300004f78005f003700d09380002d
:102ce400e193800002002000031f2400c2f60700c5
:102cf4000000e000180034005093800061938000cd
:102d040002002000031f2400bbf607000000e000bf
:102d14001100340070938000819380000200200031
:102d2400831c2400b4f607000000e0000a0034000d
:102d3400b0938000c193800002002000c3202400cf
:102d4400abf607000000e00003003d0010c0b30034
:102d5400004f78004000370070938000819380001a
:102d64000200200003222400a1f607000000e00076
:102d740003003d0030c0b300004f78003600370038
:102d8400509380006193800002002000031f240000
:102d940097f607000000e0000a003d0090938000d1
:102da400a193800002002000031f240090f6070076
:102db4000000e00003003d0030c0b300004f780085
:102dc40025003700d0938000e193800002002000aa
:102dd400c320240088f607000000e0001e00340031
:102de400509380006193800002002000c3202400df
:102df40081f607000000e0001700340070938000a3
:102e04008193800002002000031f24007af607004b
:102e14000000e0001000340090938000a193800033
:102e240002002000c320240073f607000000e00025
:102e340009003400b0938000c19380000200200098
:102e4400c32024006cf607000000e00002003400f8
:102e54000040eb00004f78001e4078000004e000c2
:102e640003003a0020c0b3002df0b7001100370072
:102e74001e407800e24f500003003a0040c0b30007
:102e84002df0b7000b0037001e407800e14f5000d2
:102e940003003a0060c0b3002df0b700050037000e
:102ea4001e407800e34f500002003a0080c0b30097
:102eb4002df0b7002dd0bf000080fb00c10221001f
:102ec400914078008180fb008100e900810f50006f
:102ed400020032002dd0bf002cf0b700000000002b
:102ee4000080fa00000006000000fa0002ccbf00d7
:102ef4000000a1000010a1000020a10002ecb70016
:102f040000962000206088001061800000a0a000ce
:102f140000b0a0001061880023cca80023eca80016
:102f240030002000206188001062800000a0a00012
:102f340000b0a0001062880043cca80043eca800b5
:102f4400300020002062880001eca800000000008e
:102f54000080fa00000006000800fa00008fbe009e
:102f640022079800330798000200200003f823008a
:102f74002e009000be0090001df607000000e00047
:102f840042003a006011b8001e0078009e009000d4
:102f940019f607000000e0001e00350002002000c2
:102fa400031c24001e0078009e00900037f80700e0
:102fb40000017800010078008202780000027800a5
:102fc400d0818000e18180000001be00050078000e
:102fd400840078000000be0068f607000001780055
:102fe4000100780082017800000178000300780075
:102ff400820078000000be0022f6070030618800dd
:10300400d0818000e18180001ef607007061880095
:103014001e003700d0818000e181800019f607008e
:10302400306188001e0078009e00900001f0a2002c
:1030340002002000031c240014f80700000178009b
:10304400010078008202780000027800d0818000bc
:10305400e18180000001be00050078008400780052
:103064000000be0045f6070000017800010078006a
:103074008201780000017800030078008200780063
:103084000000be00fff50700706188006011b80001
:103094002e009000be009000d5f507000000e0006f
:1030a40001003200420037006011b8001e007800b1
:1030b4009e009000d0f507000000e0001e003500df
:1030c40002002000031c24001e0078009e009000d3
:1030d400eef7070000017800010078008202780012
:1030e40000027800d0818000e18180000001be00f0
:1030f40005007800840078000000be001ff6070079
:103104000001780001007800820178000001780055
:1031140003007800820078000000be00d9f50700a3
:1031240030628800d0818000e1818000d5f50700fd
:10313400706288001e003700d0818000e181800029
:10314400d0f50700306288001e0078009e009000d1
:1031540001f0a20002002000031c2400cbf70700aa
:1031640000017800010078008202780000027800f3
:10317400d0818000e18180000001be00050078005c
:10318400840078000000be00fcf507000001780010
:1031940001007800820178000001780003007800c3
:1031a400820078000000be00b6f507007062880057
:1031b400000000000080fa00000006000000fa0091
:1031c400889fbe00b4928000c5928000d092800097
:1031d400e19280000001be000400be0084f50700f7
:1031e4000000e00014003d00d8928000e9928000c5
:1031f400b4928000c5928000f0818000018280003a
:103204000001be000400be00dcf5070000017800e8
:103214000100780082027800000278000801be00f4
:1032240005007800840078000000be009a080700ba
:10323400b0928800c1928800b4928000c592800048
:10324400d0928000e19280000001be000400be0024
:1032540069f507000000e00014003400d8928000f3
:10326400e9928000b4928000c5928000f0818000d1
:10327400018280000001be000400be00b6f5070014
:1032840000017800010078008202780000027800d2
:103294000801be0005007800840078000000be002c
:1032a40066080700b0928800c1928800b09280003e
:1032b400c19280006011b8004ff507000000e000e3
:1032c4001e003400b0928000c192800002002000f1
:1032d400031c24006df7070000017800010078004a
:1032e4008202780000027800d0818000e1818000b1
:1032f4000001be0005007800840078000000be00d4
:103304009ef5070000017800010078008201780032
:103314000001780003007800820078000000be00fd
:1033240058f5070030618800d0818000e181800079
:1033340054f50700706188001e003700d0818000ba
:10334400e18180004ff5070030618800b092800071
:10335400c192800001f0a20002002000031c24009e
:103364004af7070000017800010078008202780023
:1033740000027800d0818000e18180000001be005d
:1033840005007800840078000000be007bf507008b
:1033940000017800010078008201780000017800c3
:1033a40003007800820078000000be0035f50700b5
:1033b400706188001493800025938000309380000e
:1033c400419380000001be000400be0008f5070020
:1033d4000000e00014003d00389380004993800011
:1033e4001493800025938000f08180000182800086
:1033f4000001be000400be0060f507000001780073
:103404000100780082027800000278000801be0002
:1034140005007800840078000000be001e08070044
:1034240010938800219388001493800025938000d2
:1034340030938000419380000001be000400be0070
:10344400edf407000000e00014003400389380001d
:10345400499380001493800025938000f0818000bc
:10346400018280000001be000400be003af507009e
:1034740000017800010078008202780000027800e0
:103484000801be0005007800840078000000be003a
:10349400ea070700109388002193880010938000a6
:1034a400219380006011b800d3f407000000e0000d
:1034b4001e0035001093800021938000020020003c
:1034c400031c2400f1f607000001780001007800d5
:1034d4008202780000027800d0818000e1818000bf
:1034e4000001be0005007800840078000000be00e2
:1034f40022f50700000178000100780082017800bd
:103504000001780003007800820078000000be000b
:10351400dcf4070030628800d0818000e181800003
:10352400d8f40700706288001e003700d081800044
:10353400e1818000d3f4070030628800109380009a
:103544002193800001f0a20002002000031c24004b
:10355400cef60700000178000100780082027800ae
:1035640000027800d0818000e18180000001be006b
:1035740005007800840078000000be00fff4070016
:1035840000017800010078008201780000017800d1
:1035940003007800820078000000be00b9f4070040
:1035a40070628800000000004f04be000080fa0032
:1035b400000006000800fa00008fbe0022079800f1
:1035c4003307980022972f00f3e023002e00900089
:1035d400be009000adf607000001780001007800fd
:1035e40082027800000278001e0178009e0190009b
:1035f40005007800840078000000be00dff40700b6
:1036040080017800010178000300780082007800ce
:103614000000be00f09288000193880022972f00da
:10362400f3e023002e009000be00900097f6070000
:103634000001780001007800820178000001780020
:1036440003007800820078000001be001e007800ac
:103654009e009000c0f4070080017800010178000a
:1036640003007800820078000000be009092880079
:10367400a1928800f0928000019380000200200053
:10368400c3202c0081f60700800178000101780036
:1036940003007800820078000000be0030938800a8
:1036a4004193880090928000a19280000200200043
:1036b400c320240075f6070080017800010178001a
:1036c40003007800820078000000be00d0928800d9
:1036d400e192880030938000419380000400200030
:1036e400852c240002002000832c2c008107070075
:1036f400d0928000e192800004002000852c2400f8
:1037040002002000832c2c007a0707000000000030
:103714000080fa00000006000000fa00c301a800bf
:10372400dca1ef00dea1ef00c1e1a8000000000071
:103734000080fa00000006000000fa00c305a8009b
:10374400dca5ef00dea5ef00c1e5a8000000000045
:103754000080fa00000006001800fa00889fbe00ee
:103764008a9fbe00c0808000d18080008080880055
:1037740091808800e0808000f1808000a080880033
:10378400b1808800300e80008000eb00008fbe0006
:10379400500e80008000eb00c000dd00000020001f
:1037a4001e0f40005e974800302e80008000eb0022
:1037b4002007980031079800502e80008000eb000d
:1037c400c000dd000000200064014700e401470060
:1037d40033194000239148001202780092029000ad
:1037e40024079800350798001e0078009e0090007a
:1037f4003ff40700c2532e007378230023f607001a
:1038040040079800510798002e009000be009000d9
:1038140037f40700c2532e0073782b001bf6070001
:103824006007980071079800808080009180800074
:103834000001be004e009000de00900046f4070038
:10384400000f9800110f9800a0808000b1808000c4
:103854000001be006e009000fe0090003ef40700e0
:10386400200f9800310f980002002000a337240095
:103874000e0890009e08900004f60700800178006e
:103884000101780003007800820078000000be0087
:10389400f09388000194880002002000a3372400dc
:1038a4002e089000be089000f8f50700800178000b
:1038b4000101780003007800820078000000be0057
:1038c4001094880021948800f4938000059480006b
:1038d40010948000219480000001be000400be000a
:1038e40026f40700000178000100780082027800c5
:1038f4000002780002002000030024000500780084
:10390400840078000000be0001f507008001780003
:103914000101780003007800820078000000be00f6
:103924003094880041948800309480004194800051
:1039340022972f00f3e82300f5f4070080017800b4
:103944000101780003007800820078000000be00c6
:103954005094880061948800d0948000e1948000a1
:103964007094880081948800f09480000195800010
:1039740090948800a194880010958000219580007f
:10398400b0948800c1948800789480008994800061
:103994003a9480004b948000b0948000c1948000dd
:1039a400caf707000001be000a00be00b7f5070011
:1039b400000178000100780082027800000278009b
:1039c40002002000a337240005007800840078005a
:1039d4000000be00adf5070000017800010078008a
:1039e40082017800000178000300780082007800ea
:1039f4000001be000800be00e0f30700800178006b
:103a04000101780003007800820078000000be0005
:103a1400d0948800e194880098948000a994800050
:103a24003a9480004b948000b0948000c19480004c
:103a3400abf807000001be000a00be0093f50700c2
:103a4400000178000100780082027800000278000a
:103a540002002000a33724000500780084007800c9
:103a64000000be0089f5070000017800010078001d
:103a74008201780000017800030078008200780059
:103a84000001be000800be00bcf3070080017800fe
:103a94000101780003007800820078000000be0075
:103aa400f09488000195880050948000619480000f
:103ab40002002000a337240095f407008001780059
:103ac4000101780003007800820078000000be0045
:103ad400109588002195880010958000219580001c
:103ae400b2fd20009304240043f307000000e0002b
:103af4000c0034001095800021958000b2fd200058
:103b0400930c240094f307008001780001017800ed
:103b140003007800820078000000be001095880041
:103b2400219588001095800021958000b2fd200029
:103b340093042c002ef307000000e0000100350080
:103b44000c0037001095800021958000b2fd200004
:103b5400930c240089f307008001780001017800a8
:103b640003007800820078000000be0010958800f1
:103b740021958800000000004f05be004f04be00e0
:103b84000080fa00000006001800fa00108080008f
:103b94002180800000017800810178008000eb0022
:103ba4000e007800d5050700d0948000e1948000d1
:103bb4000001be00410020000e007800b20507009d
:103bc400f0948000019580000001be008100200077
:103bd4000e007800ac050700109580002195800048
:103be4000001be00c10020000e007800a6050700f9
:103bf40030948000419480000001be000101200047
:103c04000e007800a00507005094800061948000a5
:103c14000001be00410120000e0078009a05070053
:103c24000e0178008101200010062000a402070084
:103c3400000000000080fa00000006006c00fa009a
:103c440010808000218080000001780081017800cc
:103c54008000eb000e007800a80507007095800036
:103c6400819580000001be00410020000e00780014
:103c74008505070090958000a19580000001be0095
:103c8400810020000e0078007f050700309480003a
:103c9400419480000001be00c10020000e007800a5
:103ca4007905070050948000619480000001be00f3
:103cb400010120000e007800730507003098800091
:103cc400419880000001be00410120000e007800f0
:103cd4006d050700b0968000c19680000001be000b
:103ce400810120000e0078006705070030958000f0
:103cf400419580000001be00c10120000e00780043
:103d04006105070050958000619580000001be00a8
:103d1400010220000e0078005b0507003097800048
:103d2400419780000001be00410220000e0078008f
:103d340055050700b0958000c19580000001be00c4
:103d4400810220000e0078004f0507005098800083
:103d5400619880000001be00c10220000e007800be
:103d640049050700d0968000e19680000001be005e
:103d7400010320000e00780043050700909780009f
:103d8400a19780000001be00410320000e007800ce
:103d94003d05070010968000219680000001be00ba
:103da400810320000e00780037050700509780003b
:103db400619780000001be00c10320000e0078005e
:103dc40031050700d0958000e19580000001be0018
:103dd400010420000e0078002b0507007098800075
:103de400819880000001be00410420000e0078008c
:103df40025050700f0968000019780000001be00b1
:103e0400810420000e0078001f050700b097800091
:103e1400c19780000001be00c10420000e0078009c
:103e24001905070030968000419680000001be000d
:103e3400010520000e00780013050700709780002c
:103e4400819780000001be00410520000e0078002b
:103e54000d050700f0958000019680000001be006a
:103e6400810520000e007800070507009098800067
:103e7400a19880000001be00c10520000e0078005a
:103e84000105070010978000219780000001be0003
:103e9400010620000e007800fb040700d097800084
:103ea400e19780000001be00410620000e0078006a
:103eb400f504070050968000619680000001be0062
:103ec400810620000e007800ef0407000e01780040
:103ed400c106200020062000f901070000000000b0
:103ee4000080fa00000006000400fa00008fbe0003
:103ef400200880000040a1000050a1002008880094
:103f04001e0178009e019000001c2e0041c6240072
:103f14007ff3070000017800010078008202780036
:103f24000002780002f02f00f377240005007800e7
:103f3400840078000000be002ff207000000e000bb
:103f44008d003400200880000040a0000050a10033
:103f5400200888001e0178009e019000001c2e009d
:103f640041c624006af307000001780001007800cc
:103f7400820278000002780002002000031024006e
:103f840005007800840078000000be0060f307009c
:103f940000017800010078008202780000027800b5
:103fa40002f02f00f37724000500780084007800e5
:103fb4000000be0010f207000000e00055003400cd
:103fc400200880000040a1000050a00020088800c4
:103fd4001e0178009e019000001c2e0041c62400a2
:103fe4004bf307000001780001007800820278009a
:103ff4000002780002002000032824000500780055
:10400400840078000000be0041f30700000178003e
:1040140001007800820278000002780002f02f008c
:10402400f377240005007800840078000000be00c7
:10403400f1f107000000e0001d00340020088000ba
:104044000040a0000050a000200888001e01780055
:104054009e019000001c2e0041c624002cf3070092
:1040640000017800010078008202780000027800e4
:104074000200200003382400050078008400780042
:104084000000be0022f30700000178000100780060
:104094008201780000017800030078008200780033
:1040a4000000be00d6f10700100888004000370069
:1040b4001e0178009e019000001c2e0041c62400c1
:1040c40013f30700000178000100780082027800f1
:1040d4000002780002002000032824000500780074
:1040e400840078000000be0009f307000001780096
:1040f4000100780082017800000178000300780054
:10410400820078000000be00bdf10700100888009e
:10411400270037001e0178009e019000001c2e002d
:1041240041c62400faf2070000017800010078007b
:1041340082027800000278000200200003102400ac
:1041440005007800840078000000be00f0f207004b
:1041540000017800010078008201780000017800f5
:1041640003007800820078000000be00a4f107007c
:10417400100888000e0037001e0178009e01900090
:10418400001c2e0041c62400e1f207000001780063
:1041940001007800820178000001780003007800b3
:1041a400820078000000be0095f107001008880026
:1041b400000000000080fa00000006000400fa007d
:1041c400008fbe00f00880000040a1000050a10054
:1041d400f00888001e0178009e019000001c2e004b
:1041e40041c62400caf207000001780001007800eb
:1041f400820278000002780002f02f00f377240096
:1042040005007800840078000000be007af1070001
:104214000000e0008d003400f00880000040a000a1
:104224000050a100f00888001e0178009e01900053
:10423400001c2e0041c62400b5f2070000017800de
:104244000100780082027800000278000200200059
:104254000310240005007800840078000000be00ec
:10426400abf20700000178000100780082027800b8
:104274000002780002f02f00f37724000500780094
:10428400840078000000be005bf107000000e0003d
:1042940055003400f00880000040a1000050a00048
:1042a400f00888001e0178009e019000001c2e007a
:1042b40041c6240096f2070000017800010078004e
:1042c4008202780000027800020020000328240003
:1042d40005007800840078000000be008cf207001e
:1042e4000001780001007800820278000002780062
:1042f40002f02f00f3772400050078008400780092
:104304000000be003cf107000000e0001d00340086
:10431400f00880000040a0000050a000f0088800d1
:104324001e0178009e019000001c2e0041c624004e
:1043340077f207000001780001007800820278001b
:1043440000027800020020000338240005007800f1
:10435400840078000000be006df2070000017800c0
:1043640001007800820178000001780003007800e1
:10437400820078000000be0021f10700d008880008
:10438400400037001e0178009e019000001c2e00a2
:1043940041c624005ef207000001780001007800a5
:1043a4008202780000027800020020000328240022
:1043b40005007800840078000000be0054f2070075
:1043c4000001780001007800820178000001780083
:1043d40003007800820078000000be0008f10700a6
:1043e400d0088800270037001e0178009e01900045
:1043f400001c2e0041c6240045f20700000178008d
:104404000100780082027800000278000200200097
:104414000310240005007800840078000000be002a
:104424003bf2070000017800010078008201780067
:104434000001780003007800820078000000be00cc
:10444400eff00700d00888000e0037001e01780046
:104454009e019000001c2e0041c624002cf207008f
:1044640000017800010078008201780000017800e2
:1044740003007800820078000000be00e0f007002e
:10448400d0088800000000000080fa000000060048
:104494000000fa0000002000a13f240092fe070063
:1044a40005e1a9000421a9000068a9002068a8006a
:1044b40005e1a800000000000080fa0000000600ea
:1044c4000000fa0000002000a14724003bff070081
:1044d4001fe1a9001e21a9000368a9002368a80000
:1044e4001fe1a800000000000080fa0000000600a0
:1044f4000000fa0013e1a90011e1a9001061a8006d
:104504001021a900800880000040a1000050a100f3
:10451400800888000a21ef000621ef007072200055
:104524007008880000e020006008880020428000b5
:104534000000a0000010a1000020a100204288007b
:104544000108a9002108a80011e1a800000000004a
:104554000080fa00000006000a00fa002007980014
:1045640031079800420798000040eb00004f7800a4
:104574009e407800e0cfb30000c06800004f780090
:104584002e0090004880de00004078009e407800b5
:1045940000c06800004f78002e00900000407800b2
:1045a4009e40780000c06800004f78003e009000f4
:1045b4004880de00004078009e40780000c068001b
:1045c400004f78003e009000004078009e40780044
:1045d40000c06800004f78000000eb00100798004e
:1045e4000c0037001e009000e80047001100400056
:1045f400104078009e40780000c06800004f7800aa
:104604000e80e8008e80e8001108e8009000780031
:10461400110798009e0090003e009000808f50008b
:10462400f0ff35001e4078000080fa00000006000c
:104634000c00fa006047980042079800530798005e
:10464400ee409000014f78004e009000de00900094
:104654004808de0001002000004078001047980060
:104664004e009000de0090004008de0001002000b3
:1046740000407800204798004e009000de00900033
:104684004809dd004800de0000007100c808de00b3
:1046940000407800304798004e00900000407800b9
:1046a400404798000e0178005100200000052000ca
:1046b40003000700000000000080fa00000006006c
:1046c4001000fa00889fbe008a1f780050079800e7
:1046d40061079800720798008f0478000f00780033
:1046e4000005780064004700ec00470062002000e9
:1046f4001108410090017800230798002e009000d3
:104704008000e900310798000000e8000000d100b3
:10471400800040000f00780081874700600040005f
:10472400400798000000eb00100798009e009000de
:104734000e80e8000108e8001001780012079800d4
:104744004e00900001004000e1cfb3000148780022
:104754005e009000c880de001e0190000e80e8001c
:104764000208e8009001780013079800814078005f
:104774004e00900002004000014878009e00900026
:104784000e80e8000108e800100178001207980084
:104794005e009000004178004e009000010040004f
:1047a400024878006e009000c880de001e01900070
:1047b4000e80e8000208e8009001780013079800d2
:1047c400814078004e0090000200400001487800cb
:1047d4009e0090000e80e8000108e80010017800b7
:1047e400120798006e009000004178004e0090007f
:1047f40001004000024878000000eb00000f780040
:104804000d0037001e007800ee00470091004000c4
:104814001e0190000e80e8000208e8009001780074
:1048240013079800914078004e0090000200400069
:10483400014878001e0fe8006e0090009e0078008a
:10484400808f5000efff35001e0490000e80e800ba
:104854000808e80090007800110798007e01900095
:10486400ee0090005e0090003bff0700804078005f
:104874004e00900008004000014878004e0090006f
:10488400ae009000dd0307008a07780000000000f6
:10489400890778004f0578004f04be000080fa00b5
:1048a400000006000200fa00004f780080818000ba
:1048b400e30f500021003200e30f500005003e00da
:1048c400e10f500010003200e10f500014003e00d0
:1048d40007003700e50f500026003200e50f5000b6
:1048e4001c003900e60f5000360032004600370045
:1048f4001e407800e24f400045003a0010002000be
:1049040080818800420037001e80fb004800dd00e3
:104914009081880020002000808188003f003700bb
:104924001e80fb009181800001004000908188007e
:104934003000200080818800380037001e80fb0092
:104944004800dd00a08188004000200080818800ac
:10495400320037001e80fb00a1818000010040006e
:10496400a08188003630ef0050002000808188004c
:104974002a003700b081800080007800f007200012
:10498400808f50000d003e00b18180000100e800de
:10499400b081880060392100010040001e48780081
:1049a400b1818000a0818000808f50001a00350002
:1049b4006000200080818800170037003030ef004d
:1049c400150037001e4178008103210082487800d9
:1049d400a18180009081800062392100defe070001
:1049e4008103210091407800814f500004003a0077
:1049f400a181800090818000623921000a000700b3
:104a04003030ef00050037003030ef00030037008e
:104a1400000000000100370000000000000000005a
:104a24000080fa00000006000600fa00000f78007b
:104a34001107980022079800100520009e007800b6
:104a4400808f500005003200200520009e00780071
:104a5400808f500005003200080037002e009000bf
:104a64001040780008000700040037002e00900072
:104a7400104078002800070000000000000000003b
:104a84000080fa00000006000200fa00004f7800df
:104a94001e80fb00e80f50000e003200e80f5000ab
:104aa40005003c000000e00008003200e20f500066
:104ab4000e00320013003700ea0f500008003200e5
:104ac400ee0f50000c0032000e0037002c70ef0087
:104ad4000e00370080c0b3002cf0b7000b00370085
:104ae400a0c0b3002cf0b7000800370020c0b3000a
:104af4002cf0b70005003700e0c0b3002cf0b7007d
:104b0400020037002c70ef000000000000000000dd
:104b14000080fa00000006000200fa00004f78004e
:104b24001e4078000004e000030032001e407800bc
:104b34000004e000030032001e417800e10221007d
:104b440082487800000000000080fa00000006009f
:104b54000e00fa00000f780012079800230798004f
:104b6400340798004507980056079800670798008f
:104b74001e0078001e019000ae0190000288be0065
:104b84001e0078003eb99700ceb9970062009800e5
:104b9400730098001e0078003e019000ce01900042
:104ba40022009800330098001e0078001eb9970078
:104bb400aeb9970002089800130898001e00780008
:104bc4005e019000ee0190004200980053009800ae
:104bd4001e0078007eb197008eb9970022089800d5
:104be400330898001e01780000002000612f240083
:104bf40000119800111198001e0178000000200097
:104c04000112240020119800311198001e0178002f
:104c140000002000011a240040119800511198004e
:104c24001e01780000002000011f2400601198007c
:104c3400711198001e017800000020000122240058
:104c440040099800510998001e01780000002000d6
:104c54008124240060099800710998000000000074
:104c64000080fa00000006001200fa00889fbe00cf
:104c74006007980072079800030f98006e00900078
:104c84007e0190008e099000021098001310980085
:104c94006e00900060029000f00290006e009000a0
:104ca40090009000100078000001be000400be00d7
:104cb40017f00700000178000100780082047800f2
:104cc400000478006e009000f000900060009000f6
:104cd40001f0a2006e019000920190001201780090
:104ce4000bf00700000178000100780082017800d1
:104cf4000001780009007800880078000002be00f6
:104d040003007800820078000001be007e0090005d
:104d14008e089000f70107006100b900f4ee070067
:104d2400008fbe006e00900090009000100078008c
:104d34001e0178009e019000d4f0070080017800e5
:104d44000101780003007800820078000001be00b1
:104d54006e00900022109800331098006e009000ae
:104d6400400c9000d00c900002002000a3372400d7
:104d74007e0090008e089000e5ef070000017800a7
:104d840001007800820178000001780003007800b7
:104d9400820078000001be000800be00f7ee0700a4
:104da4008001780001017800030078008200780017
:104db4000001be006e00900042089800530898005d
:104dc4006e009000000a9000900a90006e0090001f
:104dd400b0009000200090000001be000400be005e
:104de400cbef07000001780001007800820478000e
:104df400000478006e009000900890000008900075
:104e040001f0a2006e019000b20190002201900016
:104e1400bfef0700000178000100780082017800ec
:104e2400000178006e009000400b9000d00b9000c1
:104e340009007800880078000002be0003007800b2
:104e4400820078000001be000600be00a901070030
:104e54006100b900a6ee07000001be006e009000dc
:104e640042089800530898006e009000400a900091
:104e7400d00a90006e009000b000900020009000d6
:104e84000001be000400be0080f00700800178002d
:104e94000101780003007800820078000001be0060
:104ea4006e00900042109800531098006e0090001d
:104eb400f0089000600890000001be007e009000a1
:104ec4008e089000a4ee070000017800010078002d
:104ed400820278000002780002002000a337240038
:104ee40005007800840078000000be0067f0070029
:104ef40020079800310798006e009000200a900067
:104f0400b00a90006e009000d00090004000900025
:104f14000001be000400be007def07000001780020
:104f24000100780082047800000478006e0090008c
:104f3400b00890002008900001f0a2006e019000db
:104f4400d20190004201900071ef07000001780047
:104f540001007800820178000001780009007800df
:104f6400880078000002be00030078008200780008
:104f74000001be002e009000be0090005d010700fd
:104f84006100b9005aee07004007980051079800e5
:104f94006e0090007e0190008e09900062089800d7
:104fa400730898006e009000d000900040009000bc
:104fb4004e019000de01900034f00700800178007b
:104fc4000101780003007800820078000001be002f
:104fd4006e00900062109800731098006e009000ac
:104fe40020129000b01290006e009000d01090003b
:104ff400401090000001be000400be005fee0700f8
:105004000001780001007800820278000002780034
:105014006e009000f0109000601090000001be003f
:1050240005007800840078000000be0053ee0700fd
:105034000001780001007800820078008101780086
:105044000001780003007800820078000000be00b0
:105054004f04be000080fa00000006000000fa00c1
:105064007495800085958000309480004194800080
:105074000001be000400be0037ee07008001780086
:105084000101780003007800820078000000be006f
:10509400309888004198880094958000a5958000f8
:1050a40050948000619480000001be000400be00a2
:1050b40029ee0700800178000101780003007800e0
:1050c400820078000000be00b0968800c196880077
:1050d40030988000419880000001be00602e2100bd
:1050e400e1fe07003095880041958800b096800065
:1050f400c19680000001be00602b2100dafe07008b
:1051040050958800619588005095800061958000d5
:1051140034958000459580000001be000400be0067
:1051240024f90700000000000080fa0000000600d7
:105134000800fa002007980031079800b2fd20000b
:10514400930424002e009000be00900002ee07009d
:1051540000017800010078008202780000027800e3
:10516400b2fd2000930c2400050078008400780030
:105174000000be003ef20700b2fd200093042400ac
:10518400feed0700008fbe00b2fd20009304240052
:105194001e0078009e009000f8ed070000017800e2
:1051a400010078008202780000027800b2fd20003d
:1051b400930c240005007800840078000000be00f1
:1051c4002bf20700b2fd200093042400e2ed070057
:1051d40000017800010078008200780081017800e5
:1051e4000001780003007800820078000000be000f
:1051f4000080fa00000006000a00fa003007980058
:10520400410798004e009000e6004700110f40004f
:105214001e00780010017800900190001207980099
:10522400230798009e0090002e00900081017800d2
:105234000001780003007800820078000000be00be
:105244000080fa00000006000600fa00100798002b
:10525400210798002e0090008e80e800110f400076
:105264001e00780090007800100090008101780002
:105274000001780003007800820078000000be007e
:105284000080fa00000006000c00fa0020079800d5
:105294003107980042079800530798000e80e800f1
:1052a4006808470090007800110798000000eb00a0
:1052b400000f78000b0037001e0078008e80e80095
:1052c4009100400066004700100178001e00410074
:1052d40064014700120040009140780001487800c2
:1052e4001e0fe8001e007800e30f5000f2ff3400a8
:1052f400000000000080fa00000006000c00fa0024
:105304002007980031079800420798005307980037
:105314000e80e800680847009000780011079800a4
:105324000000eb00000f78000c0037003000200074
:105334001e0050008e80e800910040006600470087
:10534400100178001e004100640147001200400073
:1053540091407800014878001e0fe8001e00780094
:10536400e30f5000f1ff3400000000000080fa0059
:10537400000006000c00fa0020079800310798008e
:1053840042079800530798000e80e8006808470019
:1053940090007800110798000000eb00000f7800df
:1053a4000b0037001e0078008e80e800910040005a
:1053b40066004700100178001e00410064014700a8
:1053c4001200400091407800014878001e0fe80068
:1053d4001e007800e70f5000f2ff340000000000c8
:1053e4000080fa00000006000400fa00008fbe00ee
:1053f4006011b8001e0078009e009000feec0700cb
:105404000000e000030035001e0078009e009000bc
:10541400030037001e0078009e00900001f0a200f7
:105424008001780001017800030078008200780090
:105434000000be000080fa00000006000800fa0028
:10544400008fbe0022079800330798002e019000b9
:10545400be0190001e0078009e009000e6ec07005c
:105464000000e000030034009e0078001e0090005d
:1054740002003700ae0090003e00900081017800e9
:105484000001780003007800820078000000be006c
:105494000080fa00000006000800fa00008fbe0039
:1054a40022079800330798002e019000be01900057
:1054b4001e0078009e009000cdec07000000e00084
:1054c40003003d009e0078001e009000020037009b
:1054d400ae0090003e009000810178000001780049
:1054e40003007800820078000000be000080fa000b
:1054f400000006000c00fa00008fbe00220798008e
:105504003307980044079800550798004e0190000f
:10551400de0190001e0078009e009000b6ec0700ab
:105524000000e000040034004e019000de01900011
:10553400028fbe000a0037002e019000be019000c9
:105544001e0078009e009000a9ec07000000e00017
:1055540003003d002e019000be019000028fbe00aa
:105564009e0078001e009000810178000001780000
:1055740003007800820078000000be000080fa007a
:10558400000006000400fa00008fbe00b2fd2000f7
:10559400930424001e0078009e009000dced0700b8
:1055a400000178000100780082027800000278008f
:1055b40002002000433324000500780084007800b2
:1055c4000000be00b1ee0700000178000100780081
:1055d40082007800810178000001780003007800df
:1055e400820078000000be000080fa00000006007f
:1055f4000400fa00008fbe00b2fd200093042400d2
:105604001e0078009e009000a0ee070000017800c4
:105614000100780082027800000278000200200075
:105624004333240005007800840078000000be00a5
:10563400b7ed0700000178000100780082007800cf
:10564400810178000001780003007800820078006e
:105654000000be000080fa00000006000000fa000e
:105664001182800020828000808f50000400350069
:1056740011828000208280000080500005003700e5
:105684002182800010828000808050000020200051
:10569400010050000080fa00000006000000fa003b
:1056a400eeff070080007800f01f2000010050008a
:1056b4000080fa00000006000200fa001082800058
:1056c400000fe800f01f20009e007800808f50003b
:1056d400020034000000eb00000f780021828000fb
:1056e4001e0078000080680000f0a7000000ea00b7
:1056f4000000e9004f00de00004078000080fa005e
