:020000040000fa
:080000000002040000000000f2
:020000040000fa
:04000800f6030000fb
:020000040000fa
:04000c00f6030000f7
:020000040000fa
:04001000f6030000f3
:020000040000fa
:04001400f6030000ef
:020000040000fa
:04001800f6030000eb
:020000040000fa
:04001c00f6030000e7
:020000040000fa
:04002000f6030000e3
:020000040000fa
:04002400f6030000df
:020000040000fa
:04002800f6030000db
:020000040000fa
:04002c00f6030000d7
:020000040000fa
:04003000f6030000d3
:020000040000fa
:04003400fa020000cc
:020000040000fa
:04003800f6030000cb
:020000040000fa
:04003c00f6030000c7
:020000040000fa
:04004000f6030000c3
:020000040000fa
:04004400f6030000bf
:020000040000fa
:040048005003000061
:020000040000fa
:04004c00f6030000b7
:020000040000fa
:04005000f6030000b3
:020000040000fa
:04005400ac030000f9
:020000040000fa
:040058008003000021
:020000040000fa
:04005c005a03000043
:020000040000fa
:04006000f6030000a3
:020000040000fa
:04006400f60300009f
:020000040000fa
:04006800f60300009b
:020000040000fa
:04006c00f603000097
:020000040000fa
:04007000f603000093
:020000040000fa
:04007400f60300008f
:020000040000fa
:04007800f60300008b
:020000040000fa
:04007c00f603000087
:020000040000fa
:04008000f603000083
:020000040000fa
:04008400f60300007f
:020000040000fa
:04008800f60300007b
:020000040000fa
:04008c00f603000077
:020000040000fa
:04009000f603000073
:020000040000fa
:04009400360300002f
:020000040000fa
:04009800f60300006b
:020000040000fa
:04009c00f603000067
:020000040000fa
:0400a000f603000063
:020000040000fa
:0400a400f60300005f
:020000040000fa
:0400a800f60300005b
:020000040000fa
:0400ac00f603000057
:020000040000fa
:0400b000f603000053
:020000040000fa
:0400b400f60300004f
:020000040000fa
:0400b800f60300004b
:020000040000fa
:0400bc00f603000047
:020000040000fa
:0400c000f603000043
:020000040000fa
:0400c400f60300003f
:020000040000fa
:0400c800f60300003b
:020000040000fa
:0400cc00f603000037
:020000040000fa
:0400d000f603000033
:020000040000fa
:0400d400f60300002f
:020000040000fa
:0400d800f60300002b
:020000040000fa
:0400dc00f603000027
:020000040000fa
:0400e000f603000023
:020000040000fa
:0400e400f60300001f
:020000040000fa
:0400e800f60300001b
:020000040000fa
:0400ec00f603000017
:020000040000fa
:0400f000f603000013
:020000040000fa
:0400f400f60300000f
:020000040000fa
:0400f800f60300000b
:020000040000fa
:0400fc00f603000007
:020000040000fa
:04010000f603000002
:020000040000fa
:04010400f6030000fe
:020000040000fa
:04010800f6030000fa
:020000040000fa
:04010c00f6030000f6
:020000040000fa
:04011000f6030000f2
:020000040000fa
:04011400f6030000ee
:020000040000fa
:04011800f6030000ea
:020000040000fa
:04011c00f6030000e6
:020000040000fa
:04012000f6030000e2
:020000040000fa
:04012400f6030000de
:020000040000fa
:04012800f6030000da
:020000040000fa
:04012c00f6030000d6
:020000040000fa
:04013000f6030000d2
:020000040000fa
:04013400f6030000ce
:020000040000fa
:04013800f6030000ca
:020000040000fa
:04013c00f6030000c6
:020000040000fa
:04014000f6030000c2
:020000040000fa
:04014400f6030000be
:020000040000fa
:04014800f6030000ba
:020000040000fa
:04014c00f6030000b6
:020000040000fa
:04015000f6030000b2
:020000040000fa
:04015400f6030000ae
:020000040000fa
:04015800f6030000aa
:020000040000fa
:04015c00f6030000a6
:020000040000fa
:04016000f6030000a2
:020000040000fa
:04016400f60300009e
:020000040000fa
:04016800f60300009a
:020000040000fa
:04016c00f603000096
:020000040000fa
:04017000f603000092
:020000040000fa
:04017400f60300008e
:020000040000fa
:04017800f60300008a
:020000040000fa
:04017c00f603000086
:020000040000fa
:04018000f603000082
:020000040000fa
:04018400f60300007e
:020000040000fa
:04018800f60300007a
:020000040000fa
:04018c00f603000076
:020000040000fa
:04019000f603000072
:020000040000fa
:04019400f60300006e
:020000040000fa
:04019800f60300006a
:020000040000fa
:04019c00f603000066
:020000040000fa
:0401a000f603000062
:020000040000fa
:0401a400f60300005e
:020000040000fa
:0401a800f60300005a
:020000040000fa
:0401ac00f603000056
:020000040000fa
:0401b000f603000052
:020000040000fa
:0401b400f60300004e
:020000040000fa
:0401b800f60300004a
:020000040000fa
:0401bc00f603000046
:020000040000fa
:0401c000f603000042
:020000040000fa
:0401c400f60300003e
:020000040000fa
:0401c800f60300003a
:020000040000fa
:0401cc00f603000036
:020000040000fa
:0401d000f603000032
:020000040000fa
:0401d400f60300002e
:020000040000fa
:0401d800f60300002a
:020000040000fa
:0401dc00f603000026
:020000040000fa
:0401e000f603000022
:020000040000fa
:0401e400f60300001e
:020000040000fa
:0401e800f60300001a
:020000040000fa
:0401ec00f603000016
:020000040000fa
:0401f000f603000012
:020000040000fa
:0401f400f60300000e
:020000040000fa
:0401f800f60300000a
:020000040000fa
:0401fc00f603000006
:020000040000fa
:04020000f603000001
:020000040000fa
:04020400f6030000fd
:020000040000fa
:04020800f6030000f9
:020000040000fa
:04020c00f6030000f5
:020000040000fa
:04021000f6030000f1
:020000040000fa
:04021400f6030000ed
:020000040000fa
:04021800f6030000e9
:020000040000fa
:04021c00f6030000e5
:020000040000fa
:04022000f6030000e1
:020000040000fa
:04022400f6030000dd
:020000040000fa
:04022800f6030000d9
:020000040000fa
:04022c00f6030000d5
:020000040000fa
:04023000f6030000d1
:020000040000fa
:04023400f6030000cd
:020000040000fa
:04023800f6030000c9
:020000040000fa
:04023c00f6030000c5
:020000040000fa
:04024000f6030000c1
:020000040000fa
:04024400f6030000bd
:020000040000fa
:04024800f6030000b9
:020000040000fa
:04024c00f6030000b5
:020000040000fa
:04025000f6030000b1
:020000040000fa
:04025400f6030000ad
:020000040000fa
:04025800f6030000a9
:020000040000fa
:04025c00f6030000a5
:020000040000fa
:04026000f6030000a1
:020000040000fa
:04026400f60300009d
:020000040000fa
:100400002f4721000eff27000e018800000000008a
:10041000000020000000e000020032000001200087
:100420002002880014000700f20007000000e0002e
:1004300003003a0060702300010020000200370032
:100440000000200001002000810f70000100320038
:100450000f000700000020000000e0000200320052
:10046000000002000000000024150200000000004f
:100470000040da000000fe00200020000000e00044
:1004800002003200100020009001880000000600e9
:10049000a1028800800478000000eb001f003700f4
:1004a000e284440054a0b4009905ba00e2844400f8
:1004b00054a0b4009906ba00e284440054a0b400e9
:1004c0000006eb00476fde00fd07b200ae018800ba
:1004d000636ce10003003a000ad801000000eb0061
:1004e0000e003700606ce10008003a00004deb00a0
:1004f0000a05e800020039003420ec000af0a000f0
:100500008b05e900f9ff3e00040037006168e10057
:10051000010032000086eb000b00070019c7ba008b
:100520000e04e0001905ba0003003a000a00e000da
:10053000dbff3a0000000600fe07b200ae028800b2
:100540008a047800f5ff37000cd0a300e20f4d00bd
:100550001c003b0089027800354dba000a05e8000e
:10056000020039003420ec000af0a0008b05e900fd
:100570000f003200254dba000a05e80002003900dc
:100580003420ec000af0a0008b05e90008003200de
:100590000c00e0000600320015cdba000a05e800a4
:1005a000020039003420ec000af0a0008b05e900bd
:1005b0008984e80054a0b4000b00e000e2ff3a0098
:1005c000000006009902ba00055d78008b05e9007d
:1005d000f7ff3200c82ade00055d78008b05e900d0
:1005e000f3ff32000c00e000f1ff320019ddba0029
:1005f000eeff37003600f800809fbe00829fbe00ed
:10060000849fbe00869fbe000000fa000068a9001b
:100610007f0e07007d1607000b0d07004f1907001e
:10062000008080000000e80000808800751007004e
:1006300000808000f80f5000040034000030ef000c
:10064000a40f0700d00f0700e11107000000000011
:100650000080fa004f03be004f02be004f01be00f3
:100660004f00be003600f90000400600809fbe002b
:100670000000fa000368a90010808000218080003b
:1006800061004000e08048001080880021808800e0
:10069000000000000080fa004f00be00004006008d
:1006a0000000fa000108a900000000000080fa0024
:1006b00000400600801f78000000fa0001a8a90091
:1006c0000018800030a388001018800040a3880024
:1006d0002018800050a388003018800060a3880094
:1006e0004018800070a3880010c0b30051f0b7001c
:1006f000000000000080fa004f0078000040060073
:100700003600f800809fbe00829fbe00849fbe001e
:10071000869fbe000000fa000188a90021828000a7
:1007200010828000808f5000020032003e180700c7
:10073000010037004670ef00000000000080fa0062
:100740004f03be004f02be004f01be004f00be006f
:100750003600f900004006003600f800809fbe0019
:10076000829fbe00849fbe00869fbe000200fa00ea
:100770000168a900101180004200de0061406000a5
:100780000004e000010032002242a90010118000a4
:100790000000d100614060000004e000060032006b
:1007a0002222a9000400370030118000004f780099
:1007b0001e4078007d18070010118000004078006e
:1007c00061406000e14f5000f7ff32000000000080
:1007d0000080fa004f03be004f02be004f01be0072
:1007e0004f00be003600f900004006000040da006d
:1007f0000000fe000000050014002000ad033700db
:10080000f4ff2f00ab0337000001be003f000700dc
:100810000470a70003f0a1006509b10016003200c2
:100820000d0035006828e10006003500f0ff2f00bc
:10083000f1ff27000300e00013003b000100280047
:100840000000050000004000818048008502e900aa
:10085000fcff3a0008003700f88f420002003c001d
:100860008000eb00000005008100d1000080d30073
:100870008502e800fcff3a000300e00002003b00b4
:1008800060001000e0801800000006000001be00bb
:100890001e0007000470a70003f0a10003f8a300e6
:1008a00013003a006509b10010003200090035005c
:1008b0006928e10002003500010028000000050061
:1008c00000004000818048008502e900fcff3a00fa
:1008d00000000600f88f4200050035008100d100bd
:1008e0000080d3008502e800fcff3a00000006000b
:1008f0008000eb00000005004f89de0082017800d7
:10090000870337006011b80095033700c70ade007f
:10091000f107b200f50fb20008003200e1cf42004b
:10092000020032000170a00024000500810f700059
:10093000010032000408050044000500810f70002a
:1009400002003a00140005008502e90000004000a2
:1009500081c04800fcff3b000170a000240005009e
:1009600007f82700078361000638e10004003a0019
:10097000f7072000878361008703710001003a00b8
:1009800003f0a200889fbe008a9fbe008c9fbe001d
:10099000470ade000480a100c71ade000580a1001e
:1009a000070028000785600087856100f70f200099
:1009b0000720e1009e0032000728e1009c00320081
:1009c000010678000400e000b4003200f7072000c0
:1009d000878060000170a0000500e000c0003200c8
:1009e000f7072000878161000370a0000506520010
:1009f0000f003a000b50e1000b0032000308e10049
:100a000002003a000200e1007e00320002045000c1
:100a100083845800040031000001fd008101fd00c5
:100a20008402fd008a05fd006044b8002100370003
:100a30000520e10005003d000001fd008101fd00f1
:100a40008402fd008a05fd00050652007a60e1007f
:100a5000050035000170a1004722dd008480700090
:100a60008a807000630037006044b800ef026600bf
:100a700007ff2f00070666000500e00006003400af
:100a8000f08312008714dd000511de00071bdd0076
:100a9000060171008519de007060e1000500350077
:100aa0000904780082047800030178008001eb00db
:100ab000700656000b50e10003003a0002004000af
:100ac000838048000400370060041400e0841c00a8
:100ad00002005800838058000188a30006003200fd
:100ae0008100d1000080d3008984d3000884d30022
:100af0000402e800270037000178a30025003a002f
:100b00000100e000030032008186cf0069865600b4
:100b10000a0037008c0020000000e00004003a00ca
:100b200009007800880478000004eb00700252008d
:100b30008086cf000d0646000c06e9007060e100db
:100b400006003500800078000900780088047800ed
:100b50000004eb0070065600700252000c00e0002a
:100b60000c0034008c08dd00f00316000703de00e3
:100b7000868070000c00dd00074bde000600700070
:100b80008c4cdd000743de00868474000c44dd00dd
:100b90000c0252006120e10020003500610160007c
:100ba0000700280087816400f7ff2700878364001f
:100bb000070374000300e0000600320082037300a4
:100bc000040032000000e800e08048000188a30033
:100bd0000e003a00f70f20000720e1004a003d0018
:100be0000170a1004722dd00810072008a80700040
:100bf0000000be004f06be004f05be004f04be0001
:100c0000000006006000b800faff37008100d10044
:100c10000080d3000402e800eeff370004017800f2
:100c200089017400a10107008a807000f1ff37007c
:100c3000f7010700070278000001fd008101fd00b7
:100c4000f301070087027800850372000778a3008c
:100c5000040032000001fd008101fd0006020700d2
:100c6000e4ff3700850362000768a3000800320034
:100c70000b50e10003003200f0ff2f00f1ff2700ce
:100c8000dcff37000001fd008101fd00d9ff3700c6
:100c90000468a300d7ff3200faff3700f8ff2700ef
:100ca000888360000b003a000000e00009003a0071
:100cb0008303640082837300020032000200be00de
:100cc000ccff37000b50e100ceff3a000200be001f
:100cd000c8ff370014002000810064003eff370089
:100ce000f8ff27008883610004003a000200e0005a
:100cf00002003a008c007800beff3700150020008b
:100d00008301640039ff370001f82700000020004c
:100d100081007500b7ff3700889fbe008a9fbe0024
:100d20008c9fbe001b0020000202be0005866800ea
:100d300006002800060666004709de00f20fb20032
:100d4000820032000243e80080003200c729de0042
:100d5000f30fb2007d0032000343e8007b00320055
:100d6000f107b2000170a000f507b2000570a00005
:100d7000c708dd004903de00868070004700dd0003
:100d8000c72add004923de00868272004722dd008b
:100d9000030551000403500085835800030031000f
:100da00000004000818048000a05e9008c1f78009f
:100db0008a9fbe0004005000858058000402420053
:100dc00085824a0000004000818048000005eb0059
:100dd0000004be006033b8000406be000d48e10008
:100de00056003100110009004dccd8000c01b800ac
:100df0000d02b8008481410060824a008283530062
:100e000003045c0084845c0060055d000a00e0006f
:100e100025003a00800578000d40e10049003100ce
:100e20008800780007007800110009004d88d8007c
:100e30000c01b8000d02b8008481410060824a00b4
:100e40006003110083835b0004045c00e0845c00a9
:100e50000900e00021003a004f01be000300e0005d
:100e60002b003200e3016000070673008c817100e3
:100e700001003200640070004200de004e5edd00c2
:100e80000c007000c258de0001e0a00083010700e2
:100e9000cf017800818071004f06be004f05be0073
:100ea0004f04be00000006008c8343000d044c007c
:100eb000e0844c0060054d000000e9000a00e000fd
:100ec000d4ff32008c8343000d044c00e0844c00be
:100ed00060054d000000e900ceff37000c03430021
:100ee0008d834b0060044c00e0844c000000e9005e
:100ef0000900e000d8ff32000c0343008d834b0053
:100f000060044c00e0844c000000e900d2ff370090
:100f10004200de004e5edd000c007000c258de00b4
:100f200001e0a000cf0178000300e000daff32000a
:100f300060001000e0801800d7ff3700f0ff2f009e
:100f4000aaff3700f0ff2f00b9ff37000404be00ee
:100f50002f010700870678000004fd008104fd00d2
:100f60002b010700078366000678a3000300320008
:100f70000960a7000800be002c0037000d78a30010
:100f8000020032000800be00280037000778a300e6
:100f900026003a0001f0a10009f0a1000668a300b4
:100fa00003003200f1ff2700f0ff2f00baff3700e7
:100fb0000d68a300030032000800be008c807000a2
:100fc000b5ff37000768a30007003a000648a300f2
:100fd00003003200f1ff2700f0ff2f00aeff3700c3
:100fe0000d48a300030032006000b8008c80700040
:100ff000a9ff37000748a3000400320001f82700ca
:10100000000020008c807000a3ff370076010700ed
:101010000004fd008104fd00020578007201070054
:101020000802be008a01780059ff37000160a00065
:10103000120220009282880097ff37000100e00032
:10104000120032000500e00010003200889fbe0050
:101050008a9fbe008c9fbe000006eb0001f8a30033
:101060000300320060001000e08018000cf0a000c7
:1010700005f8a3000300320060021200e0821a00ab
:101080000cf0a2008005eb0041ff37006000b800c3
:1010900002000500038368000700280007036300bf
:1010a000470ade000480a100c71ade000580a10007
:1010b000f70f20000720e100420032000728e1007e
:1010c00040003200889fbe008a9fbe008c1f7800bf
:1010d000f107b200f307b2000400e0006400320040
:1010e0000170a0000500e000680032000370a0005d
:1010f00085054200eb07b1000204b8000302b80006
:101100008484440060854a00020ab8008484440054
:101110000a854a00030ab8000405450004003300ac
:101120000804d0008984d2000a85d2008b05e9002a
:101130006158e1003d003500021020000901610006
:101140000308200089816100f7072000878364007d
:1011500008867300c84cde00c853dd008784740025
:101160004855de000300e0000600320082037600ee
:10117000040032008904e80060054d000a88a300dd
:101180000c003a00f70f20000758e10044003d0032
:101190000a70a100c75ddd000a8575008a00730032
:1011a000090078004f0678004f05be004f04be00ce
:1011b000000006000a05d1008984d3008b05e800f1
:1011c000f0ff3700881f78000604780090000700c1
:1011d000070278000001fd008101fd008c0007007e
:1011e00087027800850372000778a30005003200ab
:1011f0000001fd008101fd009f0007004f04780001
:1012000000000600850372000748a30003003200b7
:10121000f0ff2f00f1ff2700f8ff3700000020004b
:1012200001f8270088807000f4ff370088017800fb
:101230004848dd00808171004848de00c850dd006c
:1012400001007000c850de00060478000b01780031
:101250001600070088807000d2ff37000500e0000c
:1012600005003200170020003a0007009dff3700fc
:1012700081037000f9ff3a00860078004f0678007d
:101280004f05be004f04be0000000500830371003f
:10129000f9ff3200270020002e00070094ff3700de
:1012a00001f8270086807000f4ff37000100e0009d
:1012b00026003200610111007810e10023003c009b
:1012c0006022b8007010e100040035008002780050
:1012d000010078008000eb00700151000200e00086
:1012e0000900340070031100062add00822ade00a6
:1012f0008603dd00878272000200de00860bdd00bf
:10130000070070008208de0084817100f4ff27006e
:1013100004826200848171000400280084826200db
:101320006102600005f0a600000006000482710062
:10133000070032000000e800e080480000000600de
:101340000002be006000b800efff37006000b80088
:1013500000000600889fbe000004eb006138e10039
:1013600016003a000100e00008003a00c800de0064
:101370004800dd00880020000100e00003003a0082
:10138000c800de004800dd00680444008184cf000e
:10139000e9845400060034008908dd00f08314005d
:1013a0008703de00878070000900dd000904440027
:1013b000610214004f04be00000006000300e000bc
:1013c00008003a00c811de004811dd008800200046
:1013d0000300e00003003a00c811de004811dd0000
:1013e000680444008384cf00e9845400060034007c
:1013f0008919dd00f08314008713de0087817100f6
:101400000911dd0009044400e1021400e9ff37007e
:101410002700200001f0a70017002000470bde0086
:10142000f60fb200040032000643e8000a00320062
:101430004702b3000000060001037800f607b2007f
:101440000603700002003a000703b3000000060024
:101450008702b3000000060001037800f607b2001f
:1014600006037000020032000770a00000000600b2
:101470000760a000000006000478a300040032000a
:101480000578a300030032000168a30001003a00c0
:101490000200be000160a000000006008101700093
:1014a000270032008002eb0001f8a30003003200a5
:1014b00060001000e080180015002000f4072000f4
:1014c0000202420020003400f7032000870360007e
:1014d00006042000000363000208200000016100f0
:1014e0004700de00c909dd0000807100c708de008a
:1014f0000600e00008003200870371000600320099
:101500001000b0000180b0000188a300020032008a
:10151000c108de000402e800f107b200f30f20006a
:101520000320e10003003d004722dd00810072003e
:101530002900370001f827000000eb0026003700e3
:101540006000b80000000600680212007f20e10081
:10155000020034006000b8001f0037006011b800be
:101560007020e1000400350080017800010078005f
:101570008000eb00700252000400e000090034001b
:10158000f00312000719dd008419de000703dd00f7
:10159000868171000400de00070bdd00060070008c
:1015a0008408de00f7ff2700838363008703710050
:1015b0000600280003036300070032000700e00074
:1015c00003003a00610160000281730002003200f2
:1015d0001000b0000180b0000500a6000000060069
:1015e00001f0a000000006004f0ade004709de00ff
:1015f000f107b200f20fb2000b003200f207b100a7
:101600000170a000c708dd00c901de008380700002
:101610004700dd000400a600000006006000100086
:10162000e080180000000600810f700001003a0001
:10163000000006008182cf000500e00010003e009f
:101640008082cf00ee8242007028e1000400390061
:1016500007003e00800078000000eb000e0037001d
:10166000708312008600de000500dd000a003700ee
:10167000708352008600dd000000eb00060037009a
:10168000e28252008508dd00708312000603de004e
:10169000868070000500dd007507b0000501ea00d6
:1016a0000400a6000000060060001000e0801800a2
:1016b00000000600889fbe008a9fbe00841f78003d
:1016c0007c0007004f00780011003300f0ff2f006e
:1016d000838f6c0006003b00040565000a00a7002c
:1016e0000800370009f0a6001000200008003700ad
:1016f000820f5400838f5c0003003900100020002b
:1017000001003e000000200009f0a7000000ea00f0
:101710004f05be004f04be000000e00000000600c0
:10172000881f7800030478000300e00007003d00f4
:1017300060001000e080180060011900e0811900cd
:1017400002003b0001f02d000300370004000700f9
:1017500008f0a70001f0a0004f0478000000060088
:10176000889fbe008a9fbe00008270000402710044
:1017700004827100260032000004be000200be0098
:101780006011b8006b092000950220000182cf0093
:101790000a0039000541b1000082cf00070039007e
:1017a0000541b1000982cf00040039000541b100b4
:1017b0000882cf00010039000541b1000542520006
:1017c000120032000a003b00828171006101640056
:1017d0008100d1000080d3008984d3000884d30025
:1017e0008b05e8000442e800f7ff3a0007003700e5
:1017f0000804440089844c000000480081804800af
:101800008b05e9000442e900f9ff3a0003000700f4
:101810004f05be004f04be000000060081002000fe
:10182000618055000b003d000b00200061fe2f0081
:101830000100e1001d00340082817100610164003b
:101840008904d1000884d3000000e800faff3a00c0
:10185000710020006100640003007000020060005d
:101860000900320061044400e0844c000988a500ae
:10187000050032008b05e8006808e10002003a002c
:101880008904d1000884d300f20f20000258e1003f
:1018900005003d00c75ddd00f907b20089807500d5
:1018a00008007800000006000bf827008b00780085
:1018b000000005000004be0014fc07000003be0089
:1018c0000405be000200be0010fc0700844f750036
:1018d000000006000400fa00889fbe008a9fbe0038
:1018e0008c9fbe0002057800830578000bf0a100f4
:1018f0000800200009f82700880f5500898f5d0037
:1019000006003e00000378008103780007f0a10084
:10191000880f5300898f5b000600360019fc070012
:101920004f06be004f05be004f04be000080fa0007
:10193000000006000800200009f82300880f51006d
:10194000898f590002003a0097000700f4ff370022
:101950004e1cde000900200088bf9f0099bf9f0039
:101960000fbe9700620466008004eb004f0ade00a1
:10197000050020000404740085847400e00f530007
:10198000e08f5b0009003a00e20f5400e08f5c003a
:101990007f003200e20f5400e08f5c00e0ff39006e
:1019a000e30f5400e08f5c005f003200e00f550051
:1019b000e08f5d0008003a00610064008000eb00e9
:1019c000e00f5000e08f580074003200b0fd20009e
:1019d00091fc2b00d2ff37000400200005f82700ff
:1019e000840f5500858f5d000f003a008a0f530069
:1019f0008b8f5b0040003a00e10f5400e08f5c00e9
:101a000058003200e00f5400e08f5c0058003200b4
:101a1000e20f5400e08f5c002b003200e30f540013
:101a2000e08f5c00310032000c0020000dd020005f
:101a30000a0246008b824e00840f5300858f5b00a4
:101a4000ddff3e000400200005f82700840f53004e
:101a5000858f5b00d8ff3200620264008002eb00d9
:101a6000e00f5200e08f5a000500320006064600e3
:101a700087864e008c0f55008d8f5d002d003e0037
:101a8000a5fc07008101070047000700e10f540093
:101a9000e08f5c0029003200e00f5400e08f5c0012
:101aa0009fff3200e20f5400e08f5c0025003200ff
:101ab000e2d22b00b33b2300b2fb0700b2fd2000b3
:101ac00093042400250037000200200003042400b2
:101ad000b0fd2000910424006efd070002002000ec
:101ae00003e823006bfd07008dff37000200200094
:101af00003042c00f6ff3700e10f5400e08f5c0078
:101b00001e003200e00f5400e08f5c001e00320027
:101b1000e20f5400e08f5c001d003200e30f540020
:101b2000e08f5c00c0ff3a00b0fd200091042c0063
:101b30007bff37006000b800d4ff370001f0a2003f
:101b400077ff3700e2d22b00b33b23008dfb070069
:101b50000001be00b0fd20009104240080fb0700be
:101b60006fff3700b0fd200091f42b006cff3700b1
:101b7000b0fd200091f4230069ff37000000200031
:101b80000100280066ff37006000b80064ff3700de
:101b9000b0fd20009104240061ff3700b0fd20005b
:101ba00091fc23005eff3700ea874700889fbe0054
:101bb0008a9fbe008c9fbe008e1f78000002be0070
:101bc0004f0dde000b002000000478008504780033
:101bd00009f0a100f0ff2f00f1c72400800f54008e
:101be000818f5c00100036000000200001f8270003
:101bf000800f5400818f5c0025003e000200200011
:101c000003382000a0fd200091fc23005dfb0700ad
:101c10000002be00e00f5500e08f5d001c003200a6
:101c200005f0a2001a003700f0ff2f00f1ed2300ad
:101c3000800f5400818f5c001c003e000087eb0089
:101c4000f0ff2f00f1972300800f5400818f5c007c
:101c500033003e006000b80003f827008580610073
:101c6000e00f5000e08f580009003a000401be0068
:101c70000400be00f4b79f0085bf9f0005fd07006c
:101c8000d0b79f00e1b79f007fb297008fba97004f
:101c90000400be004f0778004f06be004f05be008f
:101ca0004f04be00af00b100000006000400be00fb
:101cb000f60007000006be00f0ff2f0071f92300b8
:101cc000800f5400818f5c0055003e00f0ff2f0014
:101cd000f1f22300800f5400818f5c0041003e0030
:101ce0000c01be000c00be0026fb07000200200015
:101cf00003f823001afb07000004be0002002000c6
:101d0000030024000c00be001efb07000001be0003
:101d10000800be0000fc07000002be000007eb0048
:101d20000401be000400be00f4b79f0085bf9f0001
:101d3000d8fc07000006be000001be00d5fc07006d
:101d40000004be0052c22a00c3d72300d1fc070002
:101d5000d2502f0013e123000afb07000801be0048
:101d6000ccfc070092aa2a00a3ea230005fb070087
:101d70000c01be00c7fc07000006be007224210053
:101d8000a3dd2b000800be00c2fc070082a92c00c6
:101d9000c3e42300f2fa07000801be00bdfc0700ff
:101da0000001be000c00be00f6fa07007fb29700eb
:101db0008fba97000401be00b6fc07000003be0006
:101dc0007fb297008fba97000e00e00032003d000e
:101dd0000001be000400be00e1fa07000002be00e0
:101de000abff37000200200003f823000c00be0008
:101df000dbfa07000004be000200200003f8230005
:101e00000c00be00dffa07000001be000800be00a3
:101e1000c1fb07000002be001e002000c0ff37000b
:101e2000f0ff2f00b1012400800f5400818f5c006f
:101e300012003e000200200003fc23000c00be0044
:101e4000c7fa07000004be000200200003fc2300c4
:101e50000c00be008ffc07000200200003f82300e6
:101e6000c8fa07000001be000800be00aafb070078
:101e70000002be002e002000a9ff37000c01be00aa
:101e80000000200001f82b00a3fb07000002be00a9
:101e90003e002000a2ff37004277dd0068452100a8
:101ea0000e044400604421000e0740001e0178002b
:101eb0009e0190000600be00f4b79f0085bf9f0002
:101ec000a7fa07007fb297008fba97000401be00ff
:101ed000a3fa07000001be001800780098009000e7
:101ee0009ffa07004aff37000400fa00000178005b
:101ef0008101780003f0a100a4fd200095f42300e7
:101f0000840f5100858f59000e003e00f4ff2f0012
:101f1000f5972300840f5100858f59003a003e0049
:101f20000200200003b8270096fa0700e0bf9f00d8
:101f3000f1bf9f000000200001f823000080fa009c
:101f4000000006004f0ade0005002000163d2500b7
:101f5000b7072400860f5100878f59001b003e00f1
:101f600036be2c0067012400860f5100878f590070
:101f70000a003600b2fd2000930424000400e000b3
:101f8000040032007ffa0700b201070001f0a2004e
:101f9000eaff370072fa0700fbff37000400e00099
:101fa00005003200b2fd200093fc230075fa070003
:101fb00033020700e1ff37000001be00b0fd200042
:101fc00091fc230066fa0700f9ff3700561d230035
:101fd000270e2400860f5100878f590014003e0001
:101fe000f6dd2e00f70a2400860f5100878f590076
:101ff00009003600b2fd2000930c24000400e0002c
:10200000030032005ffa070092010700cbff3700a0
:1020100053fa0700fcff37000400e0000100320023
:1020200001f0a20042be2c0063092400e5ff370046
:10203000f4ff2f00f5f72700840f5100858f59001a
:10204000040036000001be000200be0044fa070092
:10205000baff370064815700b201070063016000d6
:102060006fb89700ffb89700e10f510005003200ec
:10207000e20f5100c4ff32000200e000ccff3a0042
:10208000e1ff370001f0a200c9ff3700010178002d
:1020900002f0a1008200780000000600889fbe00c8
:1020a0008a9fbe00800478000104780082057800d1
:1020b0000305780001f0a1000200200003f82700ca
:1020c000820f5000838f580012003e000b007800f2
:1020d0008a00780001f0a100820f5000838f580021
:1020e0000d003e0009027800880278004fc1de0032
:1020f000820178004fd0de0080007800800f510010
:10210000818f590009003200e00f5200e08f5a0021
:1021100001003d000a04be00090078008800780034
:102120004f05be004f04be00000006000b01780002
:102130008a0178000900780088007800aef907006d
:102140000000e000f2ff3700889fbe008a9fbe00bb
:102150000005be00820478000304780001f0a100ad
:102160000200200003f82700820f5000838f5800e0
:1021700013003e00090078008800780001f0a100fb
:10218000820f5000838f58000b003e000a00be00f3
:102190004fdade00840278004fc1de008201780051
:1021a000820f5200838f5a000a003200e00f500065
:1021b000e08f580002003d008a0478000b0478008c
:1021c00009007800880078004f05be004f04be006b
:1021d00000000600090178008801780086f90700f0
:1021e0000000e000f3ff37000400fa00889fbe0003
:1021f0008a9fbe000203410083834900e00f530021
:10220000e08f5b0010003200020278008302780049
:1022100005f0a1000800200009f82700880f5200ef
:10222000898f5a0008003e00a0bf9f00b1bf9f00e9
:10223000470dde000b002000f40f20000a056200ad
:10224000840f550007003a0092fb07000001be0012
:10225000b1fa07004f05be004f04be000080fa002f
:10226000000006000002400081824800840f5300f5
:10227000858f5b0006003900840f5300858f5b005b
:10228000f4ff3a006011b80082fb0700f1ff37004d
:102290000a00e0004c003a002fbb9700bfbb97003c
:1022a000493add00c732de00850272004932dd00a6
:1022b000e00f5200e08f5a003f003d006102150020
:1022c0002fbb9700bfbb9700040478000804e90007
:1022d000030033000603430087834b00fbff3700f6
:1022e0000602be00471bde00070020000683fb003d
:1022f0000600e0003d003a00491cdd00c714de0086
:10230000890474004914dd00e00f5400e08f5c0084
:1023100032003d00e10313000204be008703e90020
:10232000030033000804440089844c00fbff37009d
:102330000801520089815a00860f55002f003c0089
:10234000e00f5100e08f590004003500e00f51000c
:10235000e08f5900cbff32000202be004728de00aa
:1023600001002000e00f5000e08f58002e003200e6
:102370000a00e000300034000000200001f82f00c7
:1023800004024000858248006150b900c700dd00aa
:102390000000200004007000858070006022b800fa
:1023a00002002800bfb9970083026100000072009c
:1023b00081807200a7ff37000a05e900040242008d
:1023c00085824a00baff37002fba9700bfba97003c
:1023d000f507b2000570a000c2ff37000603e90050
:1023e0000804440089844c00c7ff37000204be0083
:1023f000f907b2000970a000cdff3700e00f5100cf
:10240000e08f590004003500e00f5100e08f5900c3
:102410009cff32000202be000402420085824a0094
:102420000a05e900c2ff37000402420085824a0023
:102430000a05e900c9ff3700610515000400be0068
:102440000a05e900030033008100d1000080d300b9
:10245000fbff3700d1ff37000400fa00889fbe0061
:102460000004be008900780001f0a100a4fd200056
:1024700095f42300840f5000858f58001e003e0005
:10248000f4ff2f00f5972300840f5000858f58002c
:1024900016003e006000b80003f827008980610044
:1024a000e00f5000e08f58000b003a0002002000bf
:1024b000033820000800be00f6fa07000001be0045
:1024c000c2bf9f00d3bf9f000800be004f04be00e4
:1024d0000080fa00000006000200200003b8270078
:1024e0000800be0027f90700f4ff37000800be000f
:1024f000e3000700180037004f49de00030020000a
:10250000143d2500b5072400840f5000858f580026
:102510001d003e0034be2c0065012400840f5000d5
:10252000858f58000e003e000800be000200e0004b
:10253000b2fd200093fc23000500320011f90700d2
:10254000440007000004be0009f0a200deff3700cf
:1025500003f907003f0007000004be00daff370060
:102560000800be000200e000b2fd20009304240039
:102570000300320003f9070001f0a200dcff37007e
:10258000f7f80700fcff3700541d2300250e240038
:10259000840f5000858f580017003e00f4dd2e0098
:1025a000f50a2400840f5000858f580009003e0072
:1025b0000800be000200e00042be2c0063092400b7
:1025c00002003200eff80700e2ff3700e4f80700ee
:1025d000dbff37000800be000200e000b2fd200073
:1025e000930c240002003200e6f80700c0ff370019
:1025f000dbf80700beff3700f2ff2f00f3f72700dc
:10260000820f5000838f5800050036000801be007d
:102610000800be00d2f807000004be00aaff370081
:10262000688157000800be003e000700630160009b
:102630004fb89700dfb89700e10f5100c5ff320097
:10264000e20f5100ccff32000200e000bcff3a0074
:10265000a7ff37000400fa00889fbe008a9fbe00d3
:102660008c9fbe000001be008afa07000004be0075
:102670000001be0087fa07000005be00020020002e
:1026800003f02b000800be0082fa070002002000c1
:1026900003f82300bbf807000006be00f2a92a00d9
:1026a000a3d223000a00be007afa07000001be0090
:1026b0000c00be00b3f807000002be0072a12900a2
:1026c000c37c23000800be0084bf9f0095bf9f000d
:1026d00070fa0700f243200063ab2300a0f8070064
:1026e0000006be000a01be000800be0069fa07002d
:1026f0000001be000c00be0066fa07000001be002b
:102700000fba97009fba97000400be009df807001b
:102710004f06be004f05be004f04be000080fa0009
:10272000000006000400fa00889fbe008a9fbe00d9
:102730008c9fbe0000067800810478008206780035
:1027400001f0a100a2fd200093dc2400820f5000c4
:10275000838f580023003e0032982f0023f223007d
:10276000890078004bfa07000200200003b424001f
:1027700084f807000200200003b4240078f8070062
:102780000005be0020f8070000047800a2fd20002c
:1027900093fc23000a00be003efa07000001be00c1
:1027a0000c007800890078006df807000002be0078
:1027b000325a2800832823000a00be0084bf9f00ed
:1027c00095bf9f0033fa07000001be000fba9700c3
:1027d0009fba97000400be0061f80700808ebe001b
:1027e0000b003700f2ff2f00f3f72700820f500095
:1027f000838f58000c0036000001780089017800b2
:102800008900780056f80700808ebe000004eb00b7
:10281000080078004f06be004f05be004f04be0002
:102820000080fa0000000600890078004c000700d4
:102830000005be0032982f0023f2230015fa07008e
:102840000200200003f023004ef8070055000700a7
:1028500000047800b2fb070032982f0023f2230017
:102860002df907000001be000a00be003cf8070079
:102870006000b800a0069800b1069800d7ff3700a6
:102880000400fa00889fbe008a9fbe008c9fbe0095
:102890000006be000001be00fef907000004be00f5
:1028a0000001be000c00be00faf907000005be00e2
:1028b0000801be000800be00f6f907000a01be00cc
:1028c000f4f907000002be00c2c3260063632300c0
:1028d0000800be0084bf9f0095bf9f00edf9070070
:1028e000f27c2000039523001df807000001be00c4
:1028f0000fba97009fba97000400be00e5f90700e1
:102900000002be004288280083c023000800be00e9
:1029100084bf9f0095bf9f00def90700b2aa2a007e
:10292000a3e223000ef807000a01be00d9f9070050
:102930000c01be0013f807000001be000fba97009b
:102940009fba97000400be000ef807004f06be00b5
:102950004f05be004f04be000080fa0000000600d4
:102960000400fa006011b800e2bf9f00f3bf9f00af
:102970006fbb9700ffbb97000002be00f0ff2f0067
:10298000f1ff2f00f2ff2f00f3ff2700000062008d
:102990008180620002016300838163000080fa008d
:1029a000000006000003be00d8f707006011b80061
:1029b0000470a70007f0a1006509b1001b003200f8
:1029c00012003500860220000628e10008003500cc
:1029d000f3ff2700f2ff2f006110b9000700e000ad
:1029e00018003b00030028006000b800020005004a
:1029f00000004000818048000201490083814900b5
:102a00008502e900faff3a0008003700f88f42001b
:102a100002003c008000eb00000005008100d100b6
:102a20000080d3008502e800fcff3a000700e000c8
:102a300004003b0060001000e080180060011900f5
:082a4000e0811900000006000e
:020000040000fa
:102a48000e00fa00889fbe0054100700a11007006e
:102a58002e1107009f0a0700860a0700910a07003f
:102a68005905070060050700fd0f07003f03070031
:102a7800fe08070000002400c1612400809fbe00fa
:102a880000002400c1612400809fbe0000002400d3
:102a9800c1612400809fbe006033b800040020009c
:102aa8006536240002002000030c2400a02e21001b
:102ab800350c0700ec87570000002400c161240092
:102ac800809fbe0000002400c1612400809fbe00da
:102ad80000002400c1612400809fbe006033b8005c
:102ae800040020006536240002002000030c2400a6
:102af800a02b2100240c0700ec875700349380009a
:102b080045938000b0928000c19280000001be0011
:102b18000400be0090f7070000017800010078006b
:102b2800820278000002780022972f00f3f0230039
:102b380005007800840078000000be0074f80700e3
:102b48000001780001007800820478000004780011
:102b58003493800045938000b0928000c192800039
:102b68000001be000400be0084f7070000017800e1
:102b7800010078008202780000027800020020003c
:102b88000300240005007800840078000000be00df
:102b98005ff80700000178000100780082027800e1
:102ba8000002780009007800880078000001be0063
:102bb80005007800840078000000be009e0407002d
:102bc8006000b800b0928800c19288006000b80028
:102bd80030938800419388006000b800d092880044
:102be800e19288006000b800f092880001938800a4
:102bf800040ea800052ea80095eea800054ea80012
:102c0800746ea800040037007f0f0700004f78009b
:102c18001e4078001c0b0700440f07000004e0006a
:102c2800f9ff3a0086030700d30f0700e14f500071
:102c3800f9ff3a00d40f0700cb0f070010079800e0
:102c48001e00900010007800008188000e80e800c7
:102c58001080e80010007800108188000e80e800dd
:102c6800410020001080400010007800208188007a
:102c78000e80e8006200200010004100100078007b
:102c8800308188000e80e80081002000108040001c
:102c980010007800408188000e80e8001080e8006d
:102ca800100078008000eb0014f70700323323008f
:102cb80033052400f5f807000001780001007800ca
:102cc80082027800000278000200200003582400e5
:102cd80005007800840078000000be000cf80700aa
:102ce80020079800310798002e019000be0190003f
:102cf800000020008120240005f80700000178006a
:102d080001007800820278000002780002002000aa
:102d1800030a240005007800840078000000be0043
:102d28000df70700800178000101780003007800a2
:102d3800820078000000be00b0938800c19388002c
:102d48000e80e800420020001000410010007800ca
:102d58008000eb00e9f60700323323003305240036
:102d6800caf80700000178000100780082027800a4
:102d780000027800020020000358240005007800b3
:102d8800840078000000be00e1f7070020079800e3
:102d9800310798002e019000be019000000020002d
:102da80081202400daf7070000017800010078008c
:102db800820278000002780002002000030a240042
:102dc80005007800840078000000be00e2f60700e5
:102dd8008001780001017800030078008200780003
:102de8000000be0090938800a19388000e80e80040
:102df8006100200010804000100078008000eb0087
:102e0800bef6070032332300330524009ff807007d
:102e18000001780001007800820278000002780042
:102e28000200200003582400050078008400780080
:102e38000000be00b6f70700200798003107980089
:102e48002e019000be019000000020008120240087
:102e5800aff70700000178000100780082027800cf
:102e68000002780002002000030a24000500780010
:102e7800840078000000be00b7f6070080017800e3
:102e88000101780003007800820078000000be008d
:102e980070938800819388001e00900010007800cd
:102ea8008000eb0095f60700323323003305240039
:102eb80076f80700000178000100780082027800a7
:102ec8000002780002002000035824000500780062
:102ed800840078000000be008df7070020079800e6
:102ee800310798002e019000be01900000002000dc
:102ef8008120240086f7070000017800010078008f
:102f0800820278000002780002002000030a2400f0
:102f180005007800840078000000be008ef60700e7
:102f280080017800010178000300780082007800b1
:102f38000000be00d0938800e19388000e80e8006e
:102f48008200200010004100100078008000eb0093
:102f58006af6070032332300330524004bf80700d4
:102f680000017800010078008202780000027800f1
:102f7800020020000358240005007800840078002f
:102f88000000be0062f7070020079800310798008c
:102f98002e019000be019000000020008120240036
:102fa8005bf70700000178000100780082027800d2
:102fb8000002780002002000030a240005007800bf
:102fc800840078000000be0063f6070080017800e6
:102fd8000101780003007800820078000000be003c
:102fe800f09388000194880070938000819380009a
:102ff80002002000031f2400fdf507000000e00088
:1030080002003c00856ea80001003700856ea9000b
:1030180090938000a193800002002000031f2400e9
:10302800f3f507000000e00002003c00848ea800d1
:1030380001003700848ea900b0938000c1938000fe
:1030480002002000031f2400e9f507000000e0004b
:1030580002003c0084aea8000100370084aea9003d
:10306800d0938000e193800002002000031f240019
:10307800dff507000000e00002003c0084cea80055
:103088000100370084cea900f093800001948000ed
:1030980002002000031f2400d5f507000000e0000f
:1030a80002003c00754ea80001003700754ea900cb
:1030b800508180008000e80051818800a100200034
:1030c80001017800110009000200d8008000fd000d
:1030d8000000e000d0fe3a00b0938000c193800069
:1030e800e8f507008040780080002000017778002c
:1030f80090938000a1938000e2f50700804078005b
:10310800800020000000e8000177780070938000bc
:1031180081938000dbf50700804078008000200064
:103128000080e80001777800680047000001780017
:1031380031002000000320005a090700d0928000c7
:10314800e1928000cff5070080407800b0002000b1
:1031580001777800f092800001938000c9f507009c
:1031680080407800b00020000000e8000177780077
:103178006b004700000178002100200000042000b7
:1031880048090700a4fe37000000fa002cd0bf0051
:103198000080fb006100b900b2002000030020009d
:1031a800820f5000838f58007d003e00000601000a
:1031b8000b00370016003700220037002d003700bb
:1031c800310037003d003700410037004d0037001f
:1031d800510037005c003700600037006b00370093
:1031e8000230ef000430ef006011b8006000b80052
:1031f8006603070010c0b3002cf0b70010808000f1
:10320800218080000001be000040eb00010907009a
:103218002ed0bf00e14f500063003a0012808000ba
:1032280023808000803e200001002000800f510094
:10323800818f59005c00360020c0b3002cf0b70025
:1032480059003700c2f02500532d2c006000b8004b
:103258004e03070010808000218080000001be001e
:1032680020c0b300eb08070030c0b3002cf0b70053
:10327800580037002ed0bf00e14f50004c003a00f4
:10328800570007004a00370092bf2e00831b2c000e
:1032980000002000010d2c003c0307001080800076
:1032a800218080000001be0040c0b300d90807009b
:1032b80050c0b3002cf0b700460037002ed0bf0036
:1032c800e14f50003c003a00450007003a00370043
:1032d80092bf2e00831b2c0000002000010d24004b
:1032e8002a03070010808000218080000001be00b2
:1032f80060c0b300c708070070c0b3002cf0b70067
:10330800340037002ed0bf00e14f50002c003a00a7
:10331800330007002a0037006011b80000002000c1
:103328000115240019030700108080002180800007
:103338000001be0080c0b300b608070090c0b3000b
:103348002cf0b700230037002ed0bf00e14f50000b
:103358001d003a00220007001b0037006011b8006a
:103368000000200001152c000803070010808000d1
:10337800218080000001be00a0c0b300a50807009e
:10338800b0c0b3002cf0b700120037002ed0bf0039
:10339800e14f50000e003a00110007000c00370002
:1033a8002c70ef000b003700000000000900370008
:1033b800000000000700370000000000050037008b
:1033c8000000000003003700000000000100370083
:1033d80000000000000000000080fa000000060065
:1033e8000200fa000040eb00004f78007093800064
:1033f8008193800002002000031f2400fcf40700d2
:103408000000e00018003d0090938000a193800028
:1034180002002000831c2400f7f407000000e000ed
:1034280011003400b0938000c19380000200200096
:10343800031f2400f0f407000000e0000a00340035
:10344800d0938000e193800002002000031f240035
:10345800e9f407000000e0000300340020c0b300d6
:10346800004f78009d003700f093800001948000a1
:1034780002002000c3202400ddf407000000e00063
:1034880018003d0090938000a19380000200200066
:10349800831c2400d8f407000000e0001100340069
:1034a800b0938000c193800002002000031f240015
:1034b800d1f407000000e0000a003400d093800037
:1034c800e193800002002000031f2400caf40700d3
:1034d8000000e0000300340020c0b300004f780073
:1034e8007e003700f09380000194800002002000e5
:1034f800031f2400c0f407000000e0001800340097
:10350800709380008193800002002000031f240034
:10351800b9f407000000e000110034009093800027
:10352800a193800002002000831c2400b2f407004d
:103538000000e0000a003400b0938000c1938000ce
:1035480002002000031f2400a9f407000000e00087
:1035580003003d0010c0b300004f78005f00370043
:10356800f09380000194800002002000031f2400d3
:10357800a1f407000000e0001800340070938000f8
:103588008193800002002000031f24009af40700a2
:103598000000e0001100340090938000a1938000a7
:1035a80002002000831c240093f407000000e000c0
:1035b8000a003400d0938000e193800002002000cc
:1035c800c32024008af407000000e00003003d0047
:1035d80010c0b300004f780040003700909380007f
:1035e800a1938000020020000322240080f4070039
:1035f8000000e00003003d0030c0b300004f780039
:10360800360037007093800081938000020020000c
:10361800031f240076f407000000e0000a003d00c4
:10362800b0938000c193800002002000031f240093
:103638006ff407000000e00003003d0030c0b30055
:10364800004f780025003700f09380000194800037
:1036580002002000c320240067f407000000e000f7
:103668001e003400709380008193800002002000c7
:10367800c320240060f407000000e00017003400b5
:1036880090938000a193800002002000031f240073
:1036980059f407000000e00010003400b0938000e7
:1036a800c193800002002000c320240052f40700c8
:1036b8000000e00009003400d0938000e19380000e
:1036c80002002000c32024004bf407000000e000a3
:1036d800020034000040eb00004f78001e407800e4
:1036e8000004e00003003a0020c0b3002df0b7004a
:1036f800110037001e407800e24f500003003a00e6
:1037080040c0b3002df0b7000b0037001e40780012
:10371800e14f500003003a0060c0b3002df0b7003d
:10372800050037001e407800e34f500002003a00c1
:1037380080c0b3002df0b7002dd0bf000080fb0083
:10374800c1022100914078008180fb008100e900de
:10375800810f5000020032002dd0bf002cf0b700be
:10376800000000000080fa00000006000000fa00d7
:1037780002ccbf000000a1000010a1000020a100a1
:1037880002ecb700009620002060880010618000dd
:1037980000a0a00000b0a0001061880023cca80001
:1037a80023eca8003000200020618800106280000f
:1037b80000a0a00000b0a0001062880043cca800c0
:1037c80043eca800300020002062880001eca8002b
:1037d800000000000080fa00000006000800fa005f
:1037e800008fbe00220798003307980002002000cf
:1037f80003f823002e009000be009000fcf30700a1
:103808000000e00042003a006011b8001e00780095
:103818009e009000f8f307000000e0001e0035004d
:1038280002002000031c24001e0078009e00900067
:1038380016f607000001780001007800820278007f
:1038480000027800d0818000e18180000001be0084
:1038580005007800840078000000be0047f40700e7
:1038680000017800010078008201780000017800ea
:1038780003007800820078000000be0001f4070011
:1038880030618800d0818000e1818000fdf307006d
:10389800706188001e003700d0818000e1818000bf
:1038a800f8f30700306188001e0078009e00900041
:1038b80001f0a20002002000031c2400f3f5070019
:1038c8000001780001007800820278000002780088
:1038d800d0818000e18180000001be0005007800f1
:1038e800840078000000be0024f40700000178007e
:1038f8000100780082017800000178000300780058
:10390800820078000000be00def3070070618800c6
:103918006011b8002e009000be009000b4f30700bc
:103928000000e00001003200420037006011b800da
:103938001e0078009e009000aff307000000e00032
:103948001e00350002002000031c24001e00780021
:103958009e009000cdf50700000178000100780076
:103968008202780000027800d0818000e181800026
:103978000001be0005007800840078000000be0049
:10398800fef307000001780001007800820178004a
:103998000001780003007800820078000000be0073
:1039a800b8f3070030628800d0818000e181800090
:1039b800b4f30700706288001e003700d0818000d1
:1039c800e1818000aff30700306288001e007800b4
:1039d8009e00900001f0a20002002000031c2400b9
:1039e800aaf507000001780001007800820278003b
:1039f80000027800d0818000e18180000001be00d3
:103a080005007800840078000000be00dbf30700a2
:103a18000001780001007800820178000001780038
:103a280003007800820078000000be0095f30700cc
:103a380070628800000000000080fa0000000600a4
:103a48000000fa00889fbe00d4928000e5928000b2
:103a580010938000219380000001be000400be0086
:103a680063f307000000e00014003d001893800095
:103a780029938000d4928000e5928000f081800034
:103a8800018280000001be000400be00bbf30700f5
:103a980000017800010078008202780000027800b6
:103aa8000801be0005007800840078000000be0010
:103ab800920a0700d0928800e1928800d492800090
:103ac800e592800010938000219380000001be00e1
:103ad8000400be0048f307000000e00014003400b2
:103ae8001893800029938000d4928000e59280008a
:103af800f0818000018280000001be000400be0049
:103b080095f3070000017800010078008202780030
:103b1800000278000801be000500780084007800e3
:103b28000000be005e0a0700d0928800e19288007b
:103b3800d0928000e19280006011b8002ef3070057
:103b48000000e0001e003400d0928000e192800066
:103b580002002000031c24004cf507000001780037
:103b6800010078008202780000027800d08180008d
:103b7800e18180000001be00050078008400780023
:103b88000000be007df30700000178000100780006
:103b98008201780000017800030078008200780034
:103ba8000000be0037f3070030618800d081800034
:103bb800e181800033f30700706188001e00370040
:103bc800d0818000e18180002ef3070030618800f9
:103bd800d0928000e192800001f0a2000200200053
:103be800031c240029f50700000178000100780073
:103bf8008202780000027800d0818000e181800094
:103c08000001be0005007800840078000000be00b6
:103c18005af307000001780001007800820178005b
:103c28000001780003007800820078000000be00e0
:103c380014f3070070618800f492800005938000f7
:103c480050938000619380000001be000400be0014
:103c5800e7f207000000e00014003d0058938000e0
:103c680069938000f492800005938000f0818000c1
:103c7800018280000001be000400be003ff307007f
:103c880000017800010078008202780000027800c4
:103c98000801be0005007800840078000000be001e
:103ca800160a0700f092880001938800f4928000b9
:103cb8000593800050938000619380000001be004e
:103cc8000400be00ccf207000000e000140034003d
:103cd8005893800069938000f492800005938000d7
:103ce800f0818000018280000001be000400be0057
:103cf80019f30700000178000100780082027800bb
:103d0800000278000801be000500780084007800f1
:103d18000000be00e2090700f092880001938800c5
:103d2800f0928000019380006011b800b2f20700a1
:103d38000000e0001e003500f09280000193800032
:103d480002002000031c2400d0f4070000017800c2
:103d5800010078008202780000027800d08180009b
:103d6800e18180000001be00050078008400780031
:103d78000000be0001f30700000178000100780090
:103d88008201780000017800030078008200780042
:103d98000000be00bbf2070030628800d0818000be
:103da800e1818000b7f20700706288001e003700ca
:103db800d0818000e1818000b2f207003062880083
:103dc800f09280000193800001f0a2000200200020
:103dd800031c2400adf407000001780001007800fe
:103de8008202780000027800d0818000e1818000a2
:103df8000001be0005007800840078000000be00c5
:103e0800def20700000178000100780082017800e6
:103e18000001780003007800820078000000be00ee
:103e280098f2070070628800000000004f04be008e
:103e38000080fa00000006000800fa00008fbe00ab
:103e4800220798003307980022972f00f3e02300f9
:103e58002e009000be0090008cf40700000178004e
:103e68000100780082027800000278001e017800c4
:103e78009e01900005007800840078000000be00d4
:103e8800bef2070000017800010078008202780085
:103e98000002780002002000c3202c0005007800f2
:103ea800840078000000be0078f4070080017800e4
:103eb8000101780003007800820078000000be004d
:103ec800509388006193880022972f00f3e0230025
:103ed8002e009000be0090006cf4070000017800ee
:103ee8000100780082017800000178000300780062
:103ef800820078000001be001e0078009e0090003d
:103f080095f207000001780001007800820278002d
:103f18000002780002002000c32024000500780079
:103f2800840078000000be0058f407008001780083
:103f38000101780003007800820078000000be00cc
:103f4800109388002193880050938000619380002b
:103f580004002000852c240002002000832c2c0063
:103f68007d09070010938000219380000400200041
:103f7800852c240002002000832c2c0076090700e1
:103f8800000000000080fa00000006000800fa00a7
:103f9800008fbe0022079800330798001e017800a2
:103fa8009e01900092958800a39588002e019000ac
:103fb800be019000b2958800c395880000000000fb
:103fc8000080fa00000006000000fa00c301a80003
:103fd800dca1ef00dea1ef00c1e1a80000000000b5
:103fe8000080fa00000006000000fa00c305a800df
:103ff800dca5ef00dea5ef00c1e5a8000000000089
:104008000080fa00000006001000fa00889fbe0039
:104018008a9fbe00c0808000d18080008080880098
:1040280091808800e0808000f1808000a080880076
:10403800b1808800300e80008000eb00008fbe0049
:10404800500e80008000eb00c000dd000000200062
:104058001e0f40005e974800302e80008000eb0065
:104068002007980031079800502e80008000eb0050
:10407800c000dd000000200064014700e4014700a3
:1040880033194000239148001202780092029000f0
:1040980024079800350798001e0078009e009000bd
:1040a80013f20700c2532e0073782300f7f30700ba
:1040b8000001780001007800820178000001780092
:1040c8000300780082007800c0808800d1808800d2
:1040d8002e009000be00900005f20700c2532e008b
:1040e80073782b00e9f307000001780001007800dd
:1040f80082017800000178000300780082007800cf
:10410800e0808800f1808800c4808000d58080002d
:1041180080808000918080000001be000400be0005
:104128000df207004007980051079800e4808000ce
:10413800f5808000a0808000b18080000001be0072
:104148000400be0004f20700600798007107980099
:1041580002002000a33724004e009000de009000eb
:10416800caf3070080017800010178000300780095
:10417800820078000000be00109488002194880016
:1041880002002000a33724006e009000fe0090007b
:10419800bef3070080017800010178000300780071
:1041a800820078000000be003094880041948800a6
:1041b80014948000259480003094800041948000fd
:1041c8000001be000400be00ecf107000001780009
:1041d80001007800820278000002780002002000c6
:1041e8000300240005007800840078000000be0069
:1041f800c7f2070080017800010178000300780009
:10420800820078000000be00509488006194880005
:10421800149480002594800030948000419480009c
:104228000001be000400be00cbf1070000017800c9
:1042380001007800820278000002780022972f009f
:10424800f3e8230005007800840078000000be0031
:10425800aff20700800178000101780003007800c0
:10426800820078000000be00709488008194880065
:10427800f09480000195800090948800a1948800b3
:104288001095800021958000b0948800c194880022
:104298003095800041958000d0948800e194880092
:1042a80098948000a99480005a9480006b948000b0
:1042b800309580004195800009f707000001be0095
:1042c8000a00be0071f307000001780001007800c1
:1042d800820278000002780002002000a337240040
:1042e80005007800840078000000be0088f207000e
:1042f8000001780001007800820178000001780050
:1043080003007800820078000001be000800be00ab
:104318009af1070080017800010178000300780015
:10432800820078000000be00f094880001958800a3
:10433800b8948000c99480005a9480006b948000df
:10434800309580004195800041f807000001be00cb
:104358000a00be004df30700000178000100780054
:10436800820278000002780002002000a3372400af
:1043780005007800840078000000be0064f20700a1
:1043880000017800010078008201780000017800bf
:1043980003007800820078000001be000800be001b
:1043a80076f10700800178000101780003007800a9
:1043b800820078000000be001095880021958800d2
:1043c800d8948000e99480007094800081948000e3
:1043d80002002000a33724004df2070000017800f6
:1043e800010078008201780000017800030078005d
:1043f800820078000001be000800be005ff10700df
:1044080080017800010178000300780082007800bc
:104418000000be00309588004195880030958000e6
:1044280041958000b2fd200093042400f2f00700bb
:104438000000e0000c0034003095800041958000b9
:10444800b2fd2000930c240043f10700800178009e
:104458000101780003007800820078000000be00a7
:1044680030958800419588003095800041958000fe
:10447800b2fd200093042c00ddf007000000e000ee
:10448800010035000c003700309580004195800010
:10449800b2fd2000930c240038f107008001780059
:1044a8000101780003007800820078000000be0057
:1044b8003095880041958800000000004f05be0037
:1044c8004f04be000080fa00000006001800fa0041
:1044d8001080800021808000000178008101780030
:1044e8008000eb000e0078009d070700f094800024
:1044f800019580000001be00410020000e007800f8
:104508007a07070010958000219580000001be0001
:10451800810020000e0078007407070030958000a5
:10452800419580000001be00c10020000e00780007
:104538006e07070050948000619480000001be005f
:10454800010120000e0078006807070070948000c1
:10455800819480000001be00410120000e00780017
:10456800620707000e017800810120001006200074
:104578004c040700000000000080fa00000006005c
:104588006c00fa0010808000218080000001780013
:10459800810178008000eb000e00780070070700aa
:1045a80090958000a19580000001be004100200088
:1045b8000e0078004d070700b0958000c195800077
:1045c8000001be00810020000e00780047070700a8
:1045d80050988000619880000001be00c100200052
:1045e8000e00780041070700d0968000e196800011
:1045f8000001be00010120000e0078003b07070003
:1046080050958000619580000001be0041012000a6
:104618000e007800350707007095800081958000ae
:104628000001be00810120000e0078002f0707005e
:1046380050978000619780000001be00c1012000f2
:104648000e00780029070700d0958000e1958000ca
:104658000001be00010220000e00780023070700b9
:1046680070978000819780000001be004102200001
:104678000e0078001d070700f09580000196800065
:104688000001be00810220000e0078001707070015
:1046980090978000a19780000001be00c102200011
:1046a8000e00780011070700109680002196800000
:1046b8000001be00010320000e0078000b07070070
:1046c80070988000819880000001be00410320009e
:1046d8000e00780005070700f0968000019780001b
:1046e8000001be00810320000e007800ff060700cd
:1046f80090988000a19880000001be00c1032000ae
:104708000e007800f90607001097800021978000b6
:104718000001be00010420000e007800f306070027
:10472800b0988000c19880000001be0041042000bc
:104738000e007800ed060700309780004197800052
:104748000001be00810420000e007800e706070083
:10475800b0978000c19780000001be00c10420000e
:104768000e007800e1060700309680004196800030
:104778000001be00010520000e007800db060700de
:10478800d0978000e19780000001be00410520001d
:104798000e007800d50607005096800061968000cc
:1047a8000001be00810520000e007800cf0607003a
:1047b800f0978000019880000001be00c10520002c
:1047c8000e007800c9060700709680008196800068
:1047d8000001be00010620000e007800c306070095
:1047e8000e0178004106200020062000ad030700d6
:1047f800000000000080fa00000006000000fa0037
:10480800889fbe008a9fbe0030a1800041a1800021
:104818006011b800f6ef07000000e00015003a004c
:1048280050a1800061a180006011b800f2ef07007c
:104838000000e00005003400b0fd200091fc2300da
:1048480060828800718288000a00370050a18000c9
:1048580061a180006011b800e5ef07000000e000ea
:1048680004003d00b0fd200091fc2b006082880010
:104878007182880030a1800041a180006011b800d9
:10488800ddef07000000e0000900340030a18000df
:1048980041a1800054a1800065a180000001be00f4
:1048a8000400be0009f40700608288007182880055
:1048b800608280007182800014a1800025a18000a0
:1048c8000001be000400be00030607000002be008f
:1048d80010a1800021a180000001be000400be00dc
:1048e8001df00700000178000100780082017800bf
:1048f80000017800030078008200780070a1880029
:1049080081a1880094a18000a5a1800090a18000c9
:10491800a1a180000001be000400be00dbf1070079
:104928000001780001007800820478000004780013
:10493800b0a18000c1a180000001be000ff00700f7
:1049480000017800010078008201780000017800f9
:1049580003007800820078000001be00090078009a
:10496800880078000000be00e9f007000001780028
:1049780001007800820178000001780003007800c7
:104988008200780010a2880021a2880090a18000ef
:10499800a1a180006011b80095ef07000000e000b9
:1049a80005003d0010a2800021a2800001f0a200b5
:1049b80010a2880021a2880090a18000a1a18000f7
:1049c80002002000a3372400d1f00700000178007e
:1049d8000100780082017800000178000300780067
:1049e80082007800f0a1880001a2880010a280004f
:1049f80021a280006011b8007fef07000000e000ee
:104a08000600350070a1800081a180006011b80007
:104a180079ef07000000e0000c003d0010a28000c4
:104a280021a280006011b80071ef07000000e000cb
:104a38005d003c0070a1800081a180006011b80079
:104a48006bef07000000e00057003c0070a18000f9
:104a580081a180000002be0005f0a10010a2800024
:104a680021a2800001f0a1000001be000400be00e8
:104a780061ef07000000e0004b00350070a18000e6
:104a880081a180006011b8005bef07000000e00022
:104a98001e003400d8a18000e9a180009aa18000fe
:104aa800aba18000b0a18000c1a18000020020005d
:104ab800a337240096f00700000178000100780071
:104ac80082017800000178000300780082007800f5
:104ad8000001be000a00be00a8ef07000001780030
:104ae8000100780082027800000278000801be0008
:104af80005007800840078000000be0090f50700eb
:104b080090a18800a1a188006a00370070a18000e8
:104b180081a180006011b80035ef07000000e000b7
:104b28000100350063003700d0a18000e1a18000ba
:104b38000004be0009f0a2009aa18000aba1800089
:104b4800b0a18000c1a1800002002000a33724008a
:104b58006ff00700000178000100780082017800fa
:104b68000001780003007800820078000001be0090
:104b78000a00be0078ef0700000178000100780005
:104b880082027800000278000801be000500780063
:104b9800840078000000be003ef5070090a1880060
:104ba800a1a188004300370090a18000a1a1800046
:104bb8006011b80010ef07000000e0001c0034008e
:104bc80098a18000a9a18000b0a18000c1a18000a7
:104bd80002002000a33724004df0070000017800f0
:104be8000100780082017800000178000300780055
:104bf800820078000001be000800be0056ef0700e2
:104c08000001780001007800820278000002780034
:104c18006011b80005007800840078000000be002c
:104c28001cf5070090a18800a1a188002100370089
:104c380090a18000a1a180006011b800ecee0700ef
:104c48000000e0001b003d0098a18000a9a18000a1
:104c5800b0a18000c1a1800002002000a337240079
:104c68002bf007000001780001007800820178002d
:104c78000001780003007800820078000001be007f
:104c88000800be003def0700000178000100780031
:104c980082027800000278006011b80005007800f0
:104ca800840078000000be0025f5070090a1880068
:104cb800a1a1880090a18000a1a18000020020008d
:104cc800a337240012f007000001780001007800e3
:104cd80082017800000178000300780082007800e3
:104ce800f0a1880001a2880070a1800081a1800045
:104cf8000002be0005f0a100f0a1800001a2800022
:104d080001f0a1000001be000400be00b8ee0700db
:104d18000000e00004003d0070a1800081a1800037
:104d2800f0a1880001a2880014a1800025a18000bc
:104d3800f0a1800001a280000001be000400be00b6
:104d48000eef07000001780001007800820178006a
:104d580000017800030078008200780010a1880024
:104d680021a1880090a18000a1a180006011b80055
:104d78009fee07000000e000010032000d00370040
:104d880070a1800081a1800001f0a100a2702d0017
:104d980033c2230096ee07000000e0000100350052
:104da80004003700608280007182800010a18800b2
:104db80021a18800000000004f05be004f04be007e
:104dc8000080fa00000006000e00fa0020422100d0
:104dd80010407800004f78003042210010407800e1
:104de8001047980040422100104078002047980062
:104df800504221001040780030479800c00421003c
:104e080010407800404798004dd0bf0050479800a8
:104e18004ed0bf00604798004fd0bf007047980041
:104e28002043210010407800004f980030432100b3
:104e380010407800104f980040432100104078003f
:104e4800204f98005043210010407800304f9800c0
:104e58000e017800c100200010092000110207008f
:104e6800000000000080fa00000006000000fa00c0
:104e78006000b80010a1880021a188006000b80077
:104e880070a1880081a188006000b80010a2880085
:104e980021a288006000b800f0a1880001a2880063
:104ea8000000200001f0230090a18800a1a1880043
:104eb8000000200001f82300b0a18800c1a18800eb
:104ec800000000000080fa00000006000400fa005c
:104ed800008fbe00200880000040a1000050a10003
:104ee800200888001e0178009e019000001c2e00fa
:104ef80041c6240086ef0700000178000100780011
:104f0800820278000002780002f02f00f377240074
:104f180005007800840078000000be0036ee070027
:104f28000000e0008d003400200880000040a00050
:104f38000050a100200888001e0178009e01900002
:104f4800001c2e0041c6240071ef07000001780004
:104f58000100780082027800000278000200200038
:104f68000310240005007800840078000000be00cb
:104f780067ef0700000178000100780082027800de
:104f88000002780002f02f00f37724000500780073
:104f9800840078000000be0017ee07000000e00063
:104fa80055003400200880000040a1000050a000f7
:104fb800200888001e0178009e019000001c2e0029
:104fc80041c6240052ef0700000178000100780074
:104fd80082027800000278000200200003282400e2
:104fe80005007800840078000000be0048ef070044
:104ff8000001780001007800820278000002780041
:1050080002f02f00f3772400050078008400780070
:105018000000be00f8ed07000000e0001d003400ad
:10502800200880000040a0000050a0002008880050
:105038001e0178009e019000001c2e0041c624002d
:1050480033ef070000017800010078008202780041
:1050580000027800020020000338240005007800d0
:10506800840078000000be0029ef070000017800e6
:1050780001007800820178000001780003007800c0
:10508800820078000000be00dded070010088800ef
:10509800400037001e0178009e019000001c2e0081
:1050a80041c624001aef07000001780001007800cb
:1050b8008202780000027800020020000328240001
:1050c80005007800840078000000be0010ef07009b
:1050d8000001780001007800820178000001780062
:1050e80003007800820078000000be00c4ed0700cd
:1050f80010088800270037001e0178009e019000e4
:10510800001c2e0041c6240001ef070000017800b2
:105118000100780082027800000278000200200076
:105128000310240005007800840078000000be0009
:10513800f7ee07000001780001007800820178008e
:105148000001780003007800820078000000be00ab
:10515800abed0700100888000e0037001e0178002c
:105168009e019000001c2e0041c62400e8ee0700b6
:1051780000017800010078008201780000017800c1
:1051880003007800820078000000be009ced070054
:1051980010088800000000000080fa0000000600e7
:1051a8000400fa00008fbe00f00880000040a10053
:1051b8000050a100f00888001e0178009e019000b0
:1051c800001c2e0041c62400d1ee07000001780023
:1051d80001007800820278000002780002f02f00b7
:1051e800f377240005007800840078000000be00f2
:1051f80081ed07000000e0008d003400f008800019
:105208000040a0000050a100f00888001e017800ae
:105218009e019000001c2e0041c62400bcee070031
:10522800000178000100780082027800000278000e
:105238000200200003102400050078008400780094
:105248000000be00b2ee07000001780001007800ff
:10525800820278000002780002f02f00f377240021
:1052680005007800840078000000be0062ed0700a9
:105278000000e00055003400f00880000040a10064
:105288000050a000f00888001e0178009e019000e0
:10529800001c2e0041c624009dee07000001780086
:1052a80001007800820278000002780002002000e5
:1052b8000328240005007800840078000000be0060
:1052c80093ee070000017800010078008202780060
:1052d8000002780002f02f00f37724000500780020
:1052e800840078000000be0043ed07000000e000e5
:1052f8001d003400f00880000040a0000050a0000d
:10530800f00888001e0178009e019000001c2e0005
:1053180041c624007eee07000001780001007800f5
:10532800820278000002780002002000033824007e
:1053380005007800840078000000be0074ee0700c5
:1053480000017800010078008201780000017800ef
:1053580003007800820078000000be0028ed0700f6
:10536800d0088800400037001e0178009e01900098
:10537800001c2e0041c6240065ee070000017800dd
:105388000100780082027800000278000200200004
:105398000328240005007800840078000000be007f
:1053a8005bee0700000178000100780082017800b8
:1053b8000001780003007800820078000000be0039
:1053c8000fed0700d0088800270037001e0178007d
:1053d8009e019000001c2e0041c624004cee0700e0
:1053e800000178000100780082027800000278004d
:1053f80002002000031024000500780084007800d3
:105408000000be0042ee07000001780001007800ad
:10541800820178000001780003007800820078009b
:105428000000be00f6ec0700d00888000e00370028
:105438001e0178009e019000001c2e0041c6240029
:1054480033ee07000001780001007800820178003f
:105458000001780003007800820078000000be0098
:10546800e7ec0700d0088800000000000080fa0080
:10547800000006000000fa0000002000a137240008
:1054880092fe070005e1a9000421a9000068a9000f
:105498002068a80005e1a800000000000080fa00cc
:1054a800000006000000fa0000002000a1472400c8
:1054b8003bff07001fe1a9001e21a9000368a900fe
:1054c8002368a8001fe1a800000000000080fa007f
:1054d800000006000000fa0013e1a90011e1a9008c
:1054e8001061a8001021a900800880000040a100d8
:1054f8000050a100800888000a21ef000621ef0073
:10550800707220007008880000e0200060088800a1
:10551800204280000000a0000010a1000020a1008f
:10552800204288000108a9002108a80011e1a8006c
:10553800000000000080fa00000006000a00fa00df
:105548002007980031079800420798000040eb00b8
:10555800004f78009e407800e0cfb30000c068009c
:10556800004f78002e0090004880de000040780050
:105578009e40780000c06800004f78002e00900020
:10558800004078009e40780000c06800004f780016
:105598003e0090004880de00004078009e40780081
:1055a80000c06800004f78003e009000004078007e
:1055b8009e40780000c06800004f78000000eb00b3
:1055c800100798000c0037001e009000e800470004
:1055d80011004000104078009e40780000c068002c
:1055e800004f78000e80e8008e80e8001108e8007f
:1055f80090007800110798009e0090003e009000ef
:10560800808f5000f0ff35001e4078000080fa00bf
:10561800000006000c00fa00604798004207980056
:1056280053079800ee409000014f78004e0090001c
:10563800de0090004808de000100200000407800ed
:10564800104798004e009000de0090004008de00f1
:105658000100200000407800204798004e0090008c
:10566800de0090004809dd004800de0000007100ff
:10567800c808de0000407800304798004e009000cf
:1056880000407800404798000e0178005100200043
:105698000005200003000700000000000080fa0059
:1056a800000006001000fa00889fbe008a1f7800dc
:1056b8005007980061079800720798008f047800d7
:1056c8000f0078000005780064004700ec004700f0
:1056d800620020001108410090017800230798001b
:1056e8002e0090008000e900310798000000e800d3
