:020000040000fa
:080000000002040000000000f2
:020000040000fa
:04000800f6030000fb
:020000040000fa
:04000c00f6030000f7
:020000040000fa
:04001000f6030000f3
:020000040000fa
:04001400f6030000ef
:020000040000fa
:04001800f6030000eb
:020000040000fa
:04001c00f6030000e7
:020000040000fa
:04002000f6030000e3
:020000040000fa
:04002400f6030000df
:020000040000fa
:04002800f6030000db
:020000040000fa
:04002c00f6030000d7
:020000040000fa
:04003000f6030000d3
:020000040000fa
:04003400fa020000cc
:020000040000fa
:04003800f6030000cb
:020000040000fa
:04003c00f6030000c7
:020000040000fa
:04004000f6030000c3
:020000040000fa
:04004400f6030000bf
:020000040000fa
:040048005003000061
:020000040000fa
:04004c00f6030000b7
:020000040000fa
:04005000f6030000b3
:020000040000fa
:04005400ac030000f9
:020000040000fa
:040058008003000021
:020000040000fa
:04005c005a03000043
:020000040000fa
:04006000f6030000a3
:020000040000fa
:04006400f60300009f
:020000040000fa
:04006800f60300009b
:020000040000fa
:04006c00f603000097
:020000040000fa
:04007000f603000093
:020000040000fa
:04007400f60300008f
:020000040000fa
:04007800f60300008b
:020000040000fa
:04007c00f603000087
:020000040000fa
:04008000f603000083
:020000040000fa
:04008400f60300007f
:020000040000fa
:04008800f60300007b
:020000040000fa
:04008c00f603000077
:020000040000fa
:04009000f603000073
:020000040000fa
:04009400360300002f
:020000040000fa
:04009800f60300006b
:020000040000fa
:04009c00f603000067
:020000040000fa
:0400a000f603000063
:020000040000fa
:0400a400f60300005f
:020000040000fa
:0400a800f60300005b
:020000040000fa
:0400ac00f603000057
:020000040000fa
:0400b000f603000053
:020000040000fa
:0400b400f60300004f
:020000040000fa
:0400b800f60300004b
:020000040000fa
:0400bc00f603000047
:020000040000fa
:0400c000f603000043
:020000040000fa
:0400c400f60300003f
:020000040000fa
:0400c800f60300003b
:020000040000fa
:0400cc00f603000037
:020000040000fa
:0400d000f603000033
:020000040000fa
:0400d400f60300002f
:020000040000fa
:0400d800f60300002b
:020000040000fa
:0400dc00f603000027
:020000040000fa
:0400e000f603000023
:020000040000fa
:0400e400f60300001f
:020000040000fa
:0400e800f60300001b
:020000040000fa
:0400ec00f603000017
:020000040000fa
:0400f000f603000013
:020000040000fa
:0400f400f60300000f
:020000040000fa
:0400f800f60300000b
:020000040000fa
:0400fc00f603000007
:020000040000fa
:04010000f603000002
:020000040000fa
:04010400f6030000fe
:020000040000fa
:04010800f6030000fa
:020000040000fa
:04010c00f6030000f6
:020000040000fa
:04011000f6030000f2
:020000040000fa
:04011400f6030000ee
:020000040000fa
:04011800f6030000ea
:020000040000fa
:04011c00f6030000e6
:020000040000fa
:04012000f6030000e2
:020000040000fa
:04012400f6030000de
:020000040000fa
:04012800f6030000da
:020000040000fa
:04012c00f6030000d6
:020000040000fa
:04013000f6030000d2
:020000040000fa
:04013400f6030000ce
:020000040000fa
:04013800f6030000ca
:020000040000fa
:04013c00f6030000c6
:020000040000fa
:04014000f6030000c2
:020000040000fa
:04014400f6030000be
:020000040000fa
:04014800f6030000ba
:020000040000fa
:04014c00f6030000b6
:020000040000fa
:04015000f6030000b2
:020000040000fa
:04015400f6030000ae
:020000040000fa
:04015800f6030000aa
:020000040000fa
:04015c00f6030000a6
:020000040000fa
:04016000f6030000a2
:020000040000fa
:04016400f60300009e
:020000040000fa
:04016800f60300009a
:020000040000fa
:04016c00f603000096
:020000040000fa
:04017000f603000092
:020000040000fa
:04017400f60300008e
:020000040000fa
:04017800f60300008a
:020000040000fa
:04017c00f603000086
:020000040000fa
:04018000f603000082
:020000040000fa
:04018400f60300007e
:020000040000fa
:04018800f60300007a
:020000040000fa
:04018c00f603000076
:020000040000fa
:04019000f603000072
:020000040000fa
:04019400f60300006e
:020000040000fa
:04019800f60300006a
:020000040000fa
:04019c00f603000066
:020000040000fa
:0401a000f603000062
:020000040000fa
:0401a400f60300005e
:020000040000fa
:0401a800f60300005a
:020000040000fa
:0401ac00f603000056
:020000040000fa
:0401b000f603000052
:020000040000fa
:0401b400f60300004e
:020000040000fa
:0401b800f60300004a
:020000040000fa
:0401bc00f603000046
:020000040000fa
:0401c000f603000042
:020000040000fa
:0401c400f60300003e
:020000040000fa
:0401c800f60300003a
:020000040000fa
:0401cc00f603000036
:020000040000fa
:0401d000f603000032
:020000040000fa
:0401d400f60300002e
:020000040000fa
:0401d800f60300002a
:020000040000fa
:0401dc00f603000026
:020000040000fa
:0401e000f603000022
:020000040000fa
:0401e400f60300001e
:020000040000fa
:0401e800f60300001a
:020000040000fa
:0401ec00f603000016
:020000040000fa
:0401f000f603000012
:020000040000fa
:0401f400f60300000e
:020000040000fa
:0401f800f60300000a
:020000040000fa
:0401fc00f603000006
:020000040000fa
:04020000f603000001
:020000040000fa
:04020400f6030000fd
:020000040000fa
:04020800f6030000f9
:020000040000fa
:04020c00f6030000f5
:020000040000fa
:04021000f6030000f1
:020000040000fa
:04021400f6030000ed
:020000040000fa
:04021800f6030000e9
:020000040000fa
:04021c00f6030000e5
:020000040000fa
:04022000f6030000e1
:020000040000fa
:04022400f6030000dd
:020000040000fa
:04022800f6030000d9
:020000040000fa
:04022c00f6030000d5
:020000040000fa
:04023000f6030000d1
:020000040000fa
:04023400f6030000cd
:020000040000fa
:04023800f6030000c9
:020000040000fa
:04023c00f6030000c5
:020000040000fa
:04024000f6030000c1
:020000040000fa
:04024400f6030000bd
:020000040000fa
:04024800f6030000b9
:020000040000fa
:04024c00f6030000b5
:020000040000fa
:04025000f6030000b1
:020000040000fa
:04025400f6030000ad
:020000040000fa
:04025800f6030000a9
:020000040000fa
:04025c00f6030000a5
:020000040000fa
:04026000f6030000a1
:020000040000fa
:04026400f60300009d
:020000040000fa
:100400002f4921000eff27000e0188000000000088
:10041000000020000000e000020032000001200087
:100420002002880014000700f20007000000e0002e
:1004300003003a00e0c8230001002000020037005a
:100440000000200001002000810f70000100320038
:100450000f000700000020000000e0000200320052
:100460000000020000000000021d02000000000069
:100470000040da000000fe00200020000000e00044
:1004800002003200100020009001880000000600e9
:10049000a1028800800478000000eb001f003700f4
:1004a000e284440054a0b4009905ba00e2844400f8
:1004b00054a0b4009906ba00e284440054a0b400e9
:1004c0000006eb00476fde00fd07b200ae018800ba
:1004d000636ce10003003a000ad801000000eb0061
:1004e0000e003700606ce10008003a00004deb00a0
:1004f0000a05e800020039003420ec000af0a000f0
:100500008b05e900f9ff3e00040037006168e10057
:10051000010032000086eb000b00070019c7ba008b
:100520000e04e0001905ba0003003a000a00e000da
:10053000dbff3a0000000600fe07b200ae028800b2
:100540008a047800f5ff37000cd0a300e20f4d00bd
:100550001c003b0089027800354dba000a05e8000e
:10056000020039003420ec000af0a0008b05e900fd
:100570000f003200254dba000a05e80002003900dc
:100580003420ec000af0a0008b05e90008003200de
:100590000c00e0000600320015cdba000a05e800a4
:1005a000020039003420ec000af0a0008b05e900bd
:1005b0008984e80054a0b4000b00e000e2ff3a0098
:1005c000000006009902ba00055d78008b05e9007d
:1005d000f7ff3200c82ade00055d78008b05e900d0
:1005e000f3ff32000c00e000f1ff320019ddba0029
:1005f000eeff37003600f800809fbe00829fbe00ed
:10060000849fbe00869fbe000000fa000068a9001b
:100610006e120700631a0700fa100700ad1c0700ee
:10062000a08080000000e800a0808800a7080700e4
:10063000a0808000f80f5000040034001430ef0058
:1006400093130700bf1307004d0c070000000000c4
:100650000080fa004f03be004f02be004f01be00f3
:100660004f00be003600f90000400600809fbe002b
:100670000000fa000368a900b0808000c1808000fb
:1006800061004000e0804800b0808800c1808800a0
:10069000000000000080fa004f00be00004006008d
:1006a0000000fa000108a900000000000080fa0024
:1006b00000400600801f78000000fa0001a8a90091
:1006c0000018800020a488001018800030a4880042
:1006d0002018800040a488003018800050a48800b2
:1006e0004018800060a4880010c0b30065f0b70017
:1006f000000000000080fa004f0078000040060073
:100700003600f800809fbe00829fbe00849fbe001e
:10071000869fbe000000fa000188a900c182800007
:10072000b0828000808f5000020032009c1b0700c6
:10073000010037005a70ef00000000000080fa004e
:100740004f03be004f02be004f01be004f00be006f
:100750003600f900004006003600f800809fbe0019
:10076000829fbe00849fbe00869fbe000200fa00ea
:100770000168a900101180004200de0061406000a5
:100780000004e000010032002242a90010118000a4
:100790000000d100614060000004e000060032006b
:1007a0002222a9000400370030118000004f780099
:1007b0001e407800db1b070010118000004078000d
:1007c00061406000e14f5000f7ff32000000000080
:1007d0000080fa004f03be004f02be004f01be0072
:1007e0004f00be003600f900004006000040da006d
:1007f0000000fe000000050014002000ad033700db
:10080000f4ff2f00ab0337000001be003f000700dc
:100810000470a70003f0a1006509b10016003200c2
:100820000d0035006828e10006003500f0ff2f00bc
:10083000f1ff27000300e00013003b000100280047
:100840000000050000004000818048008502e900aa
:10085000fcff3a0008003700f88f420002003c001d
:100860008000eb00000005008100d1000080d30073
:100870008502e800fcff3a000300e00002003b00b4
:1008800060001000e0801800000006000001be00bb
:100890001e0007000470a70003f0a10003f8a300e6
:1008a00013003a006509b10010003200090035005c
:1008b0006928e10002003500010028000000050061
:1008c00000004000818048008502e900fcff3a00fa
:1008d00000000600f88f4200050035008100d100bd
:1008e0000080d3008502e800fcff3a00000006000b
:1008f0008000eb00000005004f89de0082017800d7
:10090000870337006011b80095033700c70ade007f
:10091000f107b200f50fb20008003200e1cf42004b
:10092000020032000170a00024000500810f700059
:10093000010032000408050044000500810f70002a
:1009400002003a00140005008502e90000004000a2
:1009500081c04800fcff3b000170a000240005009e
:1009600007f82700078361000638e10004003a0019
:10097000f7072000878361008703710001003a00b8
:1009800003f0a200889fbe008a9fbe008c9fbe001d
:10099000470ade000480a100c71ade000580a1001e
:1009a000070028000785600087856100f70f200099
:1009b0000720e1009e0032000728e1009c00320081
:1009c000010678000400e000b4003200f7072000c0
:1009d000878060000170a0000500e000c0003200c8
:1009e000f7072000878161000370a0000506520010
:1009f0000f003a000b50e1000b0032000308e10049
:100a000002003a000200e1007e00320002045000c1
:100a100083845800040031000001fd008101fd00c5
:100a20008402fd008a05fd006044b8002100370003
:100a30000520e10005003d000001fd008101fd00f1
:100a40008402fd008a05fd00050652007a60e1007f
:100a5000050035000170a1004722dd008480700090
:100a60008a807000630037006044b800ef026600bf
:100a700007ff2f00070666000500e00006003400af
:100a8000f08312008714dd000511de00071bdd0076
:100a9000060171008519de007060e1000500350077
:100aa0000904780082047800030178008001eb00db
:100ab000700656000b50e10003003a0002004000af
:100ac000838048000400370060041400e0841c00a8
:100ad00002005800838058000188a30006003200fd
:100ae0008100d1000080d3008984d3000884d30022
:100af0000402e800270037000178a30025003a002f
:100b00000100e000030032008186cf0069865600b4
:100b10000a0037008c0020000000e00004003a00ca
:100b200009007800880478000004eb00700252008d
:100b30008086cf000d0646000c06e9007060e100db
:100b400006003500800078000900780088047800ed
:100b50000004eb0070065600700252000c00e0002a
:100b60000c0034008c08dd00f00316000703de00e3
:100b7000868070000c00dd00074bde000600700070
:100b80008c4cdd000743de00868474000c44dd00dd
:100b90000c0252006120e10020003500610160007c
:100ba0000700280087816400f7ff2700878364001f
:100bb000070374000300e0000600320082037300a4
:100bc000040032000000e800e08048000188a30033
:100bd0000e003a00f70f20000720e1004a003d0018
:100be0000170a1004722dd00810072008a80700040
:100bf0000000be004f06be004f05be004f04be0001
:100c0000000006006000b800faff37008100d10044
:100c10000080d3000402e800eeff370004017800f2
:100c200089017400a10107008a807000f1ff37007c
:100c3000f7010700070278000001fd008101fd00b7
:100c4000f301070087027800850372000778a3008c
:100c5000040032000001fd008101fd0006020700d2
:100c6000e4ff3700850362000768a3000800320034
:100c70000b50e10003003200f0ff2f00f1ff2700ce
:100c8000dcff37000001fd008101fd00d9ff3700c6
:100c90000468a300d7ff3200faff3700f8ff2700ef
:100ca000888360000b003a000000e00009003a0071
:100cb0008303640082837300020032000200be00de
:100cc000ccff37000b50e100ceff3a000200be001f
:100cd000c8ff370014002000810064003eff370089
:100ce000f8ff27008883610004003a000200e0005a
:100cf00002003a008c007800beff3700150020008b
:100d00008301640039ff370001f82700000020004c
:100d100081007500b7ff3700889fbe008a9fbe0024
:100d20008c9fbe001b0020000202be0005866800ea
:100d300006002800060666004709de00f20fb20032
:100d4000820032000243e80080003200c729de0042
:100d5000f30fb2007d0032000343e8007b00320055
:100d6000f107b2000170a000f507b2000570a00005
:100d7000c708dd004903de00868070004700dd0003
:100d8000c72add004923de00868272004722dd008b
:100d9000030551000403500085835800030031000f
:100da00000004000818048000a05e9008c1f78009f
:100db0008a9fbe0004005000858058000402420053
:100dc00085824a0000004000818048000005eb0059
:100dd0000004be006033b8000406be000d48e10008
:100de00056003100110009004dccd8000c01b800ac
:100df0000d02b8008481410060824a008283530062
:100e000003045c0084845c0060055d000a00e0006f
:100e100025003a00800578000d40e10049003100ce
:100e20008800780007007800110009004d88d8007c
:100e30000c01b8000d02b8008481410060824a00b4
:100e40006003110083835b0004045c00e0845c00a9
:100e50000900e00021003a004f01be000300e0005d
:100e60002b003200e3016000070673008c817100e3
:100e700001003200640070004200de004e5edd00c2
:100e80000c007000c258de0001e0a00083010700e2
:100e9000cf017800818071004f06be004f05be0073
:100ea0004f04be00000006008c8343000d044c007c
:100eb000e0844c0060054d000000e9000a00e000fd
:100ec000d4ff32008c8343000d044c00e0844c00be
:100ed00060054d000000e900ceff37000c03430021
:100ee0008d834b0060044c00e0844c000000e9005e
:100ef0000900e000d8ff32000c0343008d834b0053
:100f000060044c00e0844c000000e900d2ff370090
:100f10004200de004e5edd000c007000c258de00b4
:100f200001e0a000cf0178000300e000daff32000a
:100f300060001000e0801800d7ff3700f0ff2f009e
:100f4000aaff3700f0ff2f00b9ff37000404be00ee
:100f50002f010700870678000004fd008104fd00d2
:100f60002b010700078366000678a3000300320008
:100f70000960a7000800be002c0037000d78a30010
:100f8000020032000800be00280037000778a300e6
:100f900026003a0001f0a10009f0a1000668a300b4
:100fa00003003200f1ff2700f0ff2f00baff3700e7
:100fb0000d68a300030032000800be008c807000a2
:100fc000b5ff37000768a30007003a000648a300f2
:100fd00003003200f1ff2700f0ff2f00aeff3700c3
:100fe0000d48a300030032006000b8008c80700040
:100ff000a9ff37000748a3000400320001f82700ca
:10100000000020008c807000a3ff370076010700ed
:101010000004fd008104fd00020578007201070054
:101020000802be008a01780059ff37000160a00065
:10103000120220003283880097ff37000100e00091
:10104000120032000500e00010003200889fbe0050
:101050008a9fbe008c9fbe000006eb0001f8a30033
:101060000300320060001000e08018000cf0a000c7
:1010700005f8a3000300320060021200e0821a00ab
:101080000cf0a2008005eb0041ff37006000b800c3
:1010900002000500038368000700280007036300bf
:1010a000470ade000480a100c71ade000580a10007
:1010b000f70f20000720e100420032000728e1007e
:1010c00040003200889fbe008a9fbe008c1f7800bf
:1010d000f107b200f307b2000400e0006400320040
:1010e0000170a0000500e000680032000370a0005d
:1010f00085054200eb07b1000204b8000302b80006
:101100008484440060854a00020ab8008484440054
:101110000a854a00030ab8000405450004003300ac
:101120000804d0008984d2000a85d2008b05e9002a
:101130006158e1003d003500021020000901610006
:101140000308200089816100f7072000878364007d
:1011500008867300c84cde00c853dd008784740025
:101160004855de000300e0000600320082037600ee
:10117000040032008904e80060054d000a88a300dd
:101180000c003a00f70f20000758e10044003d0032
:101190000a70a100c75ddd000a8575008a00730032
:1011a000090078004f0678004f05be004f04be00ce
:1011b000000006000a05d1008984d3008b05e800f1
:1011c000f0ff3700881f78000604780090000700c1
:1011d000070278000001fd008101fd008c0007007e
:1011e00087027800850372000778a30005003200ab
:1011f0000001fd008101fd009f0007004f04780001
:1012000000000600850372000748a30003003200b7
:10121000f0ff2f00f1ff2700f8ff3700000020004b
:1012200001f8270088807000f4ff370088017800fb
:101230004848dd00808171004848de00c850dd006c
:1012400001007000c850de00060478000b01780031
:101250001600070088807000d2ff37000500e0000c
:1012600005003200170020003a0007009dff3700fc
:1012700081037000f9ff3a00860078004f0678007d
:101280004f05be004f04be0000000500830371003f
:10129000f9ff3200270020002e00070094ff3700de
:1012a00001f8270086807000f4ff37000100e0009d
:1012b00026003200610111007810e10023003c009b
:1012c0006022b8007010e100040035008002780050
:1012d000010078008000eb00700151000200e00086
:1012e0000900340070031100062add00822ade00a6
:1012f0008603dd00878272000200de00860bdd00bf
:10130000070070008208de0084817100f4ff27006e
:1013100004826200848171000400280084826200db
:101320006102600005f0a600000006000482710062
:10133000070032000000e800e080480000000600de
:101340000002be006000b800efff37006000b80088
:1013500000000600889fbe000004eb006138e10039
:1013600016003a000100e00008003a00c800de0064
:101370004800dd00880020000100e00003003a0082
:10138000c800de004800dd00680444008184cf000e
:10139000e9845400060034008908dd00f08314005d
:1013a0008703de00878070000900dd000904440027
:1013b000610214004f04be00000006000300e000bc
:1013c00008003a00c811de004811dd008800200046
:1013d0000300e00003003a00c811de004811dd0000
:1013e000680444008384cf00e9845400060034007c
:1013f0008919dd00f08314008713de0087817100f6
:101400000911dd0009044400e1021400e9ff37007e
:101410002700200001f0a70017002000470bde0086
:10142000f60fb200040032000643e8000a00320062
:101430004702b3000000060001037800f607b2007f
:101440000603700002003a000703b3000000060024
:101450008702b3000000060001037800f607b2001f
:1014600006037000020032000770a00000000600b2
:101470000760a000000006000478a300040032000a
:101480000578a300030032000168a30001003a00c0
:101490000200be000160a000000006008101700093
:1014a000270032008002eb0001f8a30003003200a5
:1014b00060001000e080180015002000f4072000f4
:1014c0000202420020003400f7032000870360007e
:1014d00006042000000363000208200000016100f0
:1014e0004700de00c909dd0000807100c708de008a
:1014f0000600e00008003200870371000600320099
:101500001000b0000180b0000188a300020032008a
:10151000c108de000402e800f107b200f30f20006a
:101520000320e10003003d004722dd00810072003e
:101530002900370001f827000000eb0026003700e3
:101540006000b80000000600680212007f20e10081
:10155000020034006000b8001f0037006011b800be
:101560007020e1000400350080017800010078005f
:101570008000eb00700252000400e000090034001b
:10158000f00312000719dd008419de000703dd00f7
:10159000868171000400de00070bdd00060070008c
:1015a0008408de00f7ff2700838363008703710050
:1015b0000600280003036300070032000700e00074
:1015c00003003a00610160000281730002003200f2
:1015d0001000b0000180b0000500a6000000060069
:1015e00001f0a000000006004f0ade004709de00ff
:1015f000f107b200f20fb2000b003200f207b100a7
:101600000170a000c708dd00c901de008380700002
:101610004700dd000400a600000006006000100086
:10162000e080180000000600810f700001003a0001
:10163000000006008182cf000500e00010003e009f
:101640008082cf00ee8242007028e1000400390061
:1016500007003e00800078000000eb000e0037001d
:10166000708312008600de000500dd000a003700ee
:10167000708352008600dd000000eb00060037009a
:10168000e28252008508dd00708312000603de004e
:10169000868070000500dd007507b0000501ea00d6
:1016a0000400a6000000060060001000e0801800a2
:1016b00000000600889fbe008a9fbe00841f78003d
:1016c0007c0007004f00780011003300f0ff2f006e
:1016d000838f6c0006003b00040565000a00a7002c
:1016e0000800370009f0a6001000200008003700ad
:1016f000820f5400838f5c0003003900100020002b
:1017000001003e000000200009f0a7000000ea00f0
:101710004f05be004f04be000000e00000000600c0
:10172000881f7800030478000300e00007003d00f4
:1017300060001000e080180060011900e0811900cd
:1017400002003b0001f02d000300370004000700f9
:1017500008f0a70001f0a0004f0478000000060088
:10176000889fbe008a9fbe00008270000402710044
:1017700004827100260032000004be000200be0098
:101780006011b8006b092000950220000182cf0093
:101790000a0039000541b1000082cf00070039007e
:1017a0000541b1000982cf00040039000541b100b4
:1017b0000882cf00010039000541b1000542520006
:1017c000120032000a003b00828171006101640056
:1017d0008100d1000080d3008984d3000884d30025
:1017e0008b05e8000442e800f7ff3a0007003700e5
:1017f0000804440089844c000000480081804800af
:101800008b05e9000442e900f9ff3a0003000700f4
:101810004f05be004f04be000000060081002000fe
:10182000618055000b003d000b00200061fe2f0081
:101830000100e1001d00340082817100610164003b
:101840008904d1000884d3000000e800faff3a00c0
:10185000710020006100640003007000020060005d
:101860000900320061044400e0844c000988a500ae
:10187000050032008b05e8006808e10002003a002c
:101880008904d1000884d300f20f20000258e1003f
:1018900005003d00c75ddd00f907b20089807500d5
:1018a00008007800000006000bf827008b00780085
:1018b000000005000004be0014fc07000003be0089
:1018c0000405be000200be0010fc0700844f750036
:1018d000000006000400fa00889fbe008a9fbe0038
:1018e0008c9fbe0002057800830578000bf0a100f4
:1018f0000800200009f82700880f5500898f5d0037
:1019000006003e00000378008103780007f0a10084
:10191000880f5300898f5b000600360019fc070012
:101920004f06be004f05be004f04be000080fa0007
:10193000000006000800200009f82300880f51006d
:10194000898f590002003a0097000700f4ff370022
:101950004e1cde000900200088bf9f0099bf9f0039
:101960000fbe9700620466008004eb004f0ade00a1
:10197000050020000404740085847400e00f530007
:10198000e08f5b0009003a00e20f5400e08f5c003a
:101990007f003200e20f5400e08f5c00e0ff39006e
:1019a000e30f5400e08f5c005f003200e00f550051
:1019b000e08f5d0008003a00610064008000eb00e9
:1019c000e00f5000e08f580074003200b0fd20009e
:1019d00091fc2b00d2ff37000400200005f82700ff
:1019e000840f5500858f5d000f003a008a0f530069
:1019f0008b8f5b0040003a00e10f5400e08f5c00e9
:101a000058003200e00f5400e08f5c0058003200b4
:101a1000e20f5400e08f5c002b003200e30f540013
:101a2000e08f5c00310032000c0020000dd020005f
:101a30000a0246008b824e00840f5300858f5b00a4
:101a4000ddff3e000400200005f82700840f53004e
:101a5000858f5b00d8ff3200620264008002eb00d9
:101a6000e00f5200e08f5a000500320006064600e3
:101a700087864e008c0f55008d8f5d002d003e0037
:101a8000a5fc07008101070047000700e10f540093
:101a9000e08f5c0029003200e00f5400e08f5c0012
:101aa0009fff3200e20f5400e08f5c0025003200ff
:101ab000e2d22b00b33b2300b2fb0700b2fd2000b3
:101ac00093042400250037000200200003042400b2
:101ad000b0fd2000910424006efd070002002000ec
:101ae00003e823006bfd07008dff37000200200094
:101af00003042c00f6ff3700e10f5400e08f5c0078
:101b00001e003200e00f5400e08f5c001e00320027
:101b1000e20f5400e08f5c001d003200e30f540020
:101b2000e08f5c00c0ff3a00b0fd200091042c0063
:101b30007bff37006000b800d4ff370001f0a2003f
:101b400077ff3700e2d22b00b33b23008dfb070069
:101b50000001be00b0fd20009104240080fb0700be
:101b60006fff3700b0fd200091f42b006cff3700b1
:101b7000b0fd200091f4230069ff37000000200031
:101b80000100280066ff37006000b80064ff3700de
:101b9000b0fd20009104240061ff3700b0fd20005b
:101ba00091fc23005eff3700ea874700889fbe0054
:101bb0008a9fbe008c9fbe008e1f78000002be0070
:101bc0004f0dde000b002000000478008504780033
:101bd00009f0a100f0ff2f00f1c72400800f54008e
:101be000818f5c00100036000000200001f8270003
:101bf000800f5400818f5c0025003e000200200011
:101c000003382000a0fd200091fc23005dfb0700ad
:101c10000002be00e00f5500e08f5d001c003200a6
:101c200005f0a2001a003700f0ff2f00f1ed2300ad
:101c3000800f5400818f5c001c003e000087eb0089
:101c4000f0ff2f00f1972300800f5400818f5c007c
:101c500033003e006000b80003f827008580610073
:101c6000e00f5000e08f580009003a000401be0068
:101c70000400be00f4b79f0085bf9f0005fd07006c
:101c8000d0b79f00e1b79f007fb297008fba97004f
:101c90000400be004f0778004f06be004f05be008f
:101ca0004f04be00af00b100000006000400be00fb
:101cb000f60007000006be00f0ff2f0071f92300b8
:101cc000800f5400818f5c0055003e00f0ff2f0014
:101cd000f1f22300800f5400818f5c0041003e0030
:101ce0000c01be000c00be0026fb07000200200015
:101cf00003f823001afb07000004be0002002000c6
:101d0000030024000c00be001efb07000001be0003
:101d10000800be0000fc07000002be000007eb0048
:101d20000401be000400be00f4b79f0085bf9f0001
:101d3000d8fc07000006be000001be00d5fc07006d
:101d40000004be0052c22a00c3d72300d1fc070002
:101d5000d2502f0013e123000afb07000801be0048
:101d6000ccfc070092aa2a00a3ea230005fb070087
:101d70000c01be00c7fc07000006be007224210053
:101d8000a3dd2b000800be00c2fc070082a92c00c6
:101d9000c3e42300f2fa07000801be00bdfc0700ff
:101da0000001be000c00be00f6fa07007fb29700eb
:101db0008fba97000401be00b6fc07000003be0006
:101dc0007fb297008fba97000e00e00032003d000e
:101dd0000001be000400be00e1fa07000002be00e0
:101de000abff37000200200003f823000c00be0008
:101df000dbfa07000004be000200200003f8230005
:101e00000c00be00dffa07000001be000800be00a3
:101e1000c1fb07000002be001e002000c0ff37000b
:101e2000f0ff2f00b1012400800f5400818f5c006f
:101e300012003e000200200003fc23000c00be0044
:101e4000c7fa07000004be000200200003fc2300c4
:101e50000c00be008ffc07000200200003f82300e6
:101e6000c8fa07000001be000800be00aafb070078
:101e70000002be002e002000a9ff37000c01be00aa
:101e80000000200001f82b00a3fb07000002be00a9
:101e90003e002000a2ff37004277dd0048472100c6
:101ea0000e044400404621000e0740001e01780049
:101eb0009e0190000600be00f4b79f0085bf9f0002
:101ec000a7fa07007fb297008fba97000401be00ff
:101ed000a3fa07000001be001800780098009000e7
:101ee0009ffa07004aff37000400fa00000178005b
:101ef0008101780003f0a100a4fd200095f42300e7
:101f0000840f5100858f59000e003e00f4ff2f0012
:101f1000f5972300840f5100858f59003a003e0049
:101f20000200200003b8270096fa0700e0bf9f00d8
:101f3000f1bf9f000000200001f823000080fa009c
:101f4000000006004f0ade0005002000163d2500b7
:101f5000b7072400860f5100878f59001b003e00f1
:101f600036be2c0067012400860f5100878f590070
:101f70000a003600b2fd2000930424000400e000b3
:101f8000040032007ffa07005301070001f0a200ad
:101f9000eaff370072fa0700fbff37000400e00099
:101fa00005003200b2fd200093fc230075fa070003
:101fb000d4010700e1ff37000001be00b0fd2000a2
:101fc00091fc230066fa0700f9ff3700561d230035
:101fd000270e2400860f5100878f590014003e0001
:101fe000f6dd2e00f70a2400860f5100878f590076
:101ff00009003600b2fd2000930c24000400e0002c
:10200000030032005ffa070033010700cbff3700ff
:1020100053fa0700fcff37000400e0000100320023
:1020200001f0a20042be2c0063092400e5ff370046
:10203000f4ff2f00f5f72700840f5100858f59001a
:10204000040036000001be000200be0044fa070092
:10205000baff370064815700530107006301600035
:102060006fb89700ffb89700e10f510005003200ec
:10207000e20f5100c4ff32000200e000ccff3a0042
:10208000e1ff370001f0a200c9ff3700010178002d
:1020900002f0a10082007800000006000400fa00af
:1020a000889fbe000004be008900780001f0a100f6
:1020b000a4fd200095f42300840f5000858f580064
:1020c0001e003e00f4ff2f00f5972300840f500000
:1020d000858f580016003e006000b80003f8270006
:1020e00089806100e00f5000e08f58000b003a003b
:1020f00002002000033820000800be00e5fb0700b6
:102100000001be00c2bf9f00d3bf9f000800be00f9
:102110004f04be000080fa0000000600020020000c
:1021200003b827000800be0016fa0700f4ff3700c6
:102130000800be0073010700180037004f49de0099
:1021400003002000143d2500b5072400840f500033
:10215000858f58001d003e0034be2c006501240010
:10216000840f5000858f58000e003e000800be000e
:102170000200e000b2fd200093fc230005003200c5
:1021800000fa0700d40007000004be0009f0a20016
:10219000deff3700f2f90700cf0007000004be00a1
:1021a000daff37000800be000200e000b2fd2000a8
:1021b0009304240003003200f2f9070001f0a200aa
:1021c000dcff3700e6f90700fcff3700541d230051
:1021d000250e2400840f5000858f580017003e0004
:1021e000f4dd2e00f50a2400840f5000858f58007e
:1021f00009003e000800be000200e00042be2c00c4
:102200006309240002003200def90700e2ff370014
:10221000d3f90700dbff37000800be000200e00032
:10222000b2fd2000930c240002003200d5f9070013
:10223000c0ff3700caf90700beff3700f2ff2f00ca
:10224000f3f72700820f5000838f580005003600f7
:102250000801be000800be00c1f907000004be006e
:10226000aaff3700688157000800be00ce000700b3
:10227000630160004fb89700dfb89700e10f51008d
:10228000c5ff3200e20f5100ccff32000200e00037
:10229000bcff3a00a7ff3700889fbe008a9fbe00a0
:1022a0008c1f78000004be000003be006055b8001b
:1022b00004f82700890562000400200005f82700c3
:1022c000840f5500858f5d000b003a000001be00b1
:1022d00070fb07000001be000800be00a9f907005e
:1022e0000004be000800be004f0678004f05be0087
:1022f0004f04be0000000600e00f5000e08f5800c1
:1023000011003c00000278008102780005f0a10075
:10231000e00f5200e08f5a00f2ff3200e00f500051
:10232000e08f580008003d001002200080a48800c3
:102330000801be000800be0089f907000001be00c8
:1023400075fa0700e6ff370047bdde00cfbdde00af
:10235000e00f5500e08f5d000c003a0006034300db
:1023600087834b0061004500e0804d000001eb00d9
:10237000870178000308b200e00f5100e08f590098
:102380004d00320060051500e0851d00fa07b10020
:102390000b80b1000600be00f107b2000170a00082
:1023a000610165008001eb00e00f5100e08f5900f2
:1023b0000200320000004000818048008b85d1007f
:1023c0000a85d30000004000818048009c01200065
:1023d00002002000031020006044b8006033b80001
:1023e0000602410087824900800f5200818f5a0007
:1023f00006003c00040341008583490004005000ae
:10240000858058000804410089844900000040008c
:10241000818048008301d1000281d3000c06e900cd
:102420000c00e000eeff3a00e00f5000e08f580093
:10243000160032000226240023da200000002000cb
:1024400001f8230046f907000200200003f82300ea
:10245000ebf807000000e0000c0035000226240025
:1024600023da20000000200001f8230045f90700ce
:102470000200200003f82300e1f807000000e0005c
:102480000f00340062044400e0844c008984d100d1
:102490000884d3000000200001f023000800400061
:1024a00089804800c755dd000a0020000a0440006a
:1024b0008b8448008bff37000005be00a7ff370064
:1024c00061004400e0804c00000478000800a10096
:1024d00081047800edff37000400fa00889fbe00f9
:1024e0008a9fbe008c9fbe000001be00e9fa070073
:1024f0000004be000001be00e6fa07000005be00b1
:102500000200200003f02b000800be00e1fa0700e3
:102510000200200003f823001af907000006be009d
:10252000f2a92a00a3d223000a00be00d9fa0700ac
:102530000001be000c00be0012f907000002be0040
:1025400072a12900c37c23000800be0084bf9f0045
:1025500095bf9f00cffa0700f243200063ab230032
:10256000fff807000006be000a01be000800be001a
:10257000c8fa07000001be000c00be00c5fa070043
:102580000001be000fba97009fba97000400be007a
:10259000fcf807004f06be004f05be004f04be000a
:1025a0000080fa00000006000400fa00889fbe00c8
:1025b0008a9fbe008c9fbe000006780081047800d0
:1025c0008206780001f0a100a2fd200093dc240027
:1025d000820f5000838f580023003e0032982f0056
:1025e00023f2230089007800aafa070002002000e5
:1025f00003b42400e3f807000200200003b4240021
:10260000d7f807000005be007ff807000004780037
:10261000a2fd200093fc23000a00be009dfa0700e3
:102620000001be000c00780089007800ccf807009b
:102630000002be00325a2800832823000a00be0090
:1026400084bf9f0095bf9f0092fa07000001be0063
:102650000fba97009fba97000400be00c0f80700a9
:10266000808ebe000b003700f2ff2f00f3f727002b
:10267000820f5000838f58000c0036000001780054
:102680008901780089007800b5f80700808ebe00c7
:102690000004eb00080078004f06be004f05be00a6
:1026a0004f04be000080fa00000006008900780098
:1026b0004c0007000005be0032982f0023f22300d3
:1026c00074fa07000200200003f02300adf80700b1
:1026d000550007000004780011fc070032982f0015
:1026e00023f223008cf907000001be000a00be009f
:1026f0009bf807006000b800a0069800b10698009b
:10270000d7ff37000400fa00889fbe008a9fbe00f2
:102710008c9fbe000006be000001be005dfa0700ef
:102720000004be000001be000c00be0059fa070004
:102730000005be000801be000800be0055fa0700f3
:102740000a01be0053fa07000002be00c2c3260001
:10275000636323000800be0084bf9f0095bf9f00f5
:102760004cfa0700f27c2000039523007cf8070058
:102770000001be000fba97009fba97000400be0088
:1027800044fa07000002be004288280083c02300ec
:102790000800be0084bf9f0095bf9f003dfa070060
:1027a000b2aa2a00a3e223006df807000a01be00c6
:1027b00038fa07000c01be0072f807000001be00e5
:1027c0000fba97009fba97000400be006df807008b
:1027d0004f06be004f05be004f04be000080fa0049
:1027e000000006000400fa006011b800e2bf9f007c
:1027f000f3bf9f006fbb9700ffbb97000002be00b6
:10280000f0ff2f00f1ff2f00f2ff2f00f3ff270052
:102810000000620081806200020163008381630026
:102820000080fa00000006000003be0037f8070031
:102830006011b8000470a70007f0a1006509b1009d
:102840001b00320012003500860220000628e1003d
:1028500008003500f3ff2700f2ff2f006110b900d8
:102860000700e00018003b00030028006000b800eb
:10287000020005000000400081804800020149007c
:10288000838149008502e900faff3a000800370019
:10289000f88f420002003c008000eb0000000500c1
:1028a0008100d1000080d3008502e800fcff3a00df
:1028b0000700e00004003b0060001000e08018000a
:0c28c00060011900e08119000000060012
:020000040000fa
:1028cc001400fa00889fbe008a9fbe0010a38000ef
:1028dc00e10f5000120032000000e0000300320053
:1028ec00e20f5000a10132008e0337006000b800e7
:1028fc0000808800118088006000b8000083880088
:10290c00118388006000b80050a2880061a2880082
:10291c006000b800b0a28800c1a288009003370004
:10292c00d4a18000e5a1800070a1800081a180006d
:10293c000001be000400be0006f80700008fbe00b8
:10294c00f4a1800005a2800090a18000a1a18000cc
:10295c000001be000400be00fef70700200798002f
:10296c00310798001e0178009e0190002e00900007
:10297c00be009000d4fb070010a2880021a28800a2
:10298c0010a2800021a28000b4a18000c5a180000b
:10299c000001be000400be00b41107000002be001e
:1029ac00b0a18000c1a180000001be000400be00e7
:1029bc00e8f7070000017800010078008201780038
:1029cc0000017800030078008200780030a28800b3
:1029dc0041a2880004808000158080000080800067
:1029ec00118080000001be000400be00a6f90700a3
:1029fc00000178000100780082047800000478005f
:102a0c0020808000318080000001be00daf70700d2
:102a1c000001780001007800820178000001780044
:102a2c0003007800820078000001be0009007800e5
:102a3c00880078000000be00b4f8070000017800a0
:102a4c000100780082017800000178000300780012
:102a5c008200780070a2880081a28800008080002b
:102a6c00118080006011b80060f707000000e000e2
:102a7c0005003d0070a2800081a2800001f0a20040
:102a8c0070a2880081a2880070a2800081a28000c0
:102a9c006011b80057f707000000e0000600350091
:102aac0030a2800041a280006011b80051f70700ed
:102abc000000e0000c003d0070a2800081a28000ac
:102acc006011b80049f707000000e0005d003c0011
:102adc0030a2800041a280006011b80043f70700cb
:102aec000000e00057003c0030a2800041a28000b2
:102afc00300b07000004be0070a2800081a2800091
:102b0c002c0b07000001be000800be0039f70700bf
:102b1c000000e0004b00350030a2800041a2800094
:102b2c006011b80033f707000000e0001e0034000d
:102b3c004880800059808000208080003180800097
:102b4c0002002000a337240070f807000001780071
:102b5c00010078008202780000027800008080007a
:102b6c00118080000001be00050078008400780010
:102b7c000000be0080f7070000017800010078001b
:102b8c0082027800000278000801be00050078007f
:102b9c00840078000000be00320b07000080880023
:102bac00118088006a00370030a2800041a28000aa
:102bbc006011b8000df707000000e00001003500bf
:102bcc006300370040808000518080000004be000c
:102bdc0009f0a2000a8080001b8080002080800009
:102bec003180800002002000a337240047f8070042
:102bfc000001780001007800820178000001780063
:102c0c0003007800820078000001be000a00be00bc
:102c1c0050f707000001780001007800820278006c
:102c2c00000278000801be000500780084007800de
:102c3c000000be00f40a07000080880011808800a4
:102c4c004300370000808000118080006011b800c4
:102c5c00e8f607000000e0001c003400088080004b
:102c6c0019808000208080003180800002002000cc
:102c7c00a337240025f80700000178000100780034
:102c8c00820178000001780003007800820078004f
:102c9c000001be000800be002ef7070000017800fe
:102cac000100780082027800000278006011b80000
:102cbc0005007800840078000000be00d20a0700ee
:102ccc00008088001180880021003700008080007f
:102cdc00118080006011b800c4f607000000e0000d
:102cec001b003d002080800031808000020020000d
:102cfc00a337240005f807000001780001007800d4
:102d0c008202780000027800008080001180800030
:102d1c000001be0005007800840078000000be00b1
:102d2c0015f7070000017800010078008202780096
:102d3c00000278006011b80005007800840078006b
:102d4c000000be00c70a07000080880011808800c0
:102d5c00008080001180800002002000a337240036
:102d6c00eaf7070000017800010078008201780082
:102d7c0000017800030078008200780050a28800df
:102d8c0061a2880030a2800041a28000890a07005d
:102d9c000004be0050a2800061a28000850a0700da
:102dac000001be000800be0090f607000000e00025
:102dbc0004003d0030a2800041a2800050a2880097
:102dcc0061a28800b4a18000c5a1800050a280003f
:102ddc0061a280000001be000400be00e6f6070000
:102dec000001780001007800820178000001780071
:102dfc000300780082007800b0a18800c1a188008f
:102e0c00b0a18000c1a18000b2fd20009304240079
:102e1c0078f607000000e0000e003400b0a180003e
:102e2c00c1a18000b2fd2000930c2400c9f607005c
:102e3c000001780001007800820178000001780020
:102e4c000300780082007800b0a18800c1a188003e
:102e5c0014003700b0a18000c1a18000b2fd200099
:102e6c0093042c0061f607000000e0000d003d000b
:102e7c00b0a18000c1a18000b2fd2000930c240001
:102e8c00bdf607000001780001007800820178008f
:102e9c00000178000300780082007800b0a188005f
:102eac00c1a1880010a2800021a28000b4a18000e2
:102ebc00c5a180000001be000400be006b1007001d
:102ecc000002be00b0a18000c1a180000001be00c4
:102edc000400be009ff60700000178000100780096
:102eec0082017800000178000300780082007800ed
:102efc0030a2880041a288000080800011808000f0
:102f0c006011b80039f607000000e0000100320043
:102f1c001302370030a2800041a28000250a07006e
:102f2c00a2702d0033c2230030f607000000e00031
:102f3c00010035000a02370010a2800021a2800097
:102f4c00b0a18800c1a188006000b8000080880092
:102f5c00118088006000b80050a2880061a288002f
:102f6c002000200010a38800fd013700d4a18000b0
:102f7c00e5a1800070a1800081a180000001be004d
:102f8c000400be0073f60700008fbe00f4a18000a1
:102f9c0005a2800090a18000a1a180000001be00cc
:102fac000400be006bf6070020079800310798005c
:102fbc001e0178009e0190001e0078009e0090007b
:102fcc0031f80700000178000100780082047800d5
:102fdc00000478002e019000be0190002e0090009d
:102fec00be00900028f8070000017800010078006e
:102ffc0082017800000178000300780082007800dc
:10300c000001be0009007800880078000000be00b6
:10301c0059f6070000017800010078008201780061
:10302c000001780003007800820078000000be00e8
:10303c0096fc070040079800510798001e01780085
:10304c009e0190002e009000be0090001efa07001a
:10305c006007980071079800b0a18000c1a18000a2
:10306c006e019000fe019000001007000002be00ef
:10307c00b0a18000c1a180000001be000400be0010
:10308c0034f60700000f9800110f98000e099000fd
:10309c009e099000f2a2880003a38800b0a18000d2
:1030ac00c1a180008dfb07001e0178009e019000dd
:1030bc00f5f7070000017800010078008204780021
:1030cc0000047800b0a18000c1a18000f0fb0700d3
:1030dc002e019000be019000ebf707000001780074
:1030ec00010078008201780000017800030078006c
:1030fc00820078000001be0009007800880078008a
:10310c000000be001cf607000001780001007800ea
:10311c0082017800000178000300780082007800ba
:10312c0090a28800a1a288000483800015838000ef
:10313c0000838000118380000001be000400be00eb
:10314c00d1f70700000178000100780082047800b4
:10315c000004780060808000718080000001be0057
:10316c0005f6070000017800010078008201780064
:10317c000001780003007800820078000001be0096
:10318c0009007800880078000000be00dff6070018
:10319c0000017800010078008201780000017800bd
:1031ac000300780082007800d0a28800e1a2880099
:1031bc0000838000118380006011b8008bf507003c
:1031cc000000e00005003d00d0a28000e1a28000dc
:1031dc0001f0a200d0a28800e1a28800d0a2800059
:1031ec00e1a280006011b80082f507000000e00049
:1031fc000600350090a28000a1a280006011b800ea
:10320c007cf507000000e0000c003d00d0a280001f
:10321c00e1a280006011b80074f507000000e00026
:10322c005d003c0090a28000a1a280006011b8005b
:10323c006ef507000000e00057003c0090a28000f3
:10324c00a1a280005b0907000004be00d0a2800090
:10325c00e1a28000570907000001be000800be0073
:10326c0064f507000000e0004b00350090a28000e0
:10327c00a1a280006011b8005ef507000000e0001c
:10328c001e0034008880800099808000608080005f
:10329c007180800002002000a33724009bf60700f9
:1032ac0000017800010078008202780000027800aa
:1032bc0000838000118380000001be0005007800af
:1032cc00840078000000be00abf507000001780018
:1032dc000100780082027800000278000801be002c
:1032ec0005007800840078000000be005d0907002e
:1032fc0000838800118388006a00370090a2800048
:10330c00a1a280006011b80038f507000000e000b1
:10331c0001003500630037008080800091808000c0
:10332c000004be0009f0a2000a8380001b83800009
:10333c00608080007180800002002000a337240090
:10334c0072f6070000017800010078008201780015
:10335c000001780003007800820078000001be00b4
:10336c000a00be007bf50700000178000100780020
:10337c0082027800000278000801be000500780087
:10338c00840078000000be001f090700008388003d
:10339c001183880043003700008380001183800074
:1033ac006011b80013f507000000e0001c003400a9
:1033bc000883800019838000608080007180800009
:1033cc0002002000a337240050f60700000178000b
:1033dc000100780082017800000178000300780079
:1033ec00820078000001be000800be0059f50700fd
:1033fc000001780001007800820278000002780059
:10340c006011b80005007800840078000000be0050
:10341c00fd08070000838800118388002100370015
:10342c0000838000118380006011b800eff4070066
:10343c000000e0001b003d00608080007180800077
:10344c0002002000a337240030f6070000017800aa
:10345c00010078008202780000027800008380006e
:10346c00118380000001be00050078008400780004
:10347c000000be0040f50700000178000100780054
:10348c0082027800000278006011b8000500780014
:10349c00840078000000be00f2080700008388005a
:1034ac0011838800008380001183800002002000bb
:1034bc00a337240015f607000001780001007800fe
:1034cc008201780000017800030078008200780007
:1034dc00b0a28800c1a2880090a28000a1a28000a6
:1034ec00b40807000004be00b0a28000c1a2800096
:1034fc00b00807000001be000800be00bbf40700c6
:10350c000000e00004003d0090a28000a1a2800019
:10351c00b0a28800c1a2880078a1800089a1800097
:10352c00baa28000cba28000b0a18000c1a1800013
:10353c006afa07000001be000a00be00d2f60700be
:10354c000001780001007800820178000001780009
:10355c0003007800820078000001be000800be0065
:10356c0005f5070000017800010078008201780061
:10357c0000017800030078008200780070a18800b8
:10358c0081a1880098a18000a9a18000baa2800026
:10359c00cba28000b0a18000c1a18000bcfa0700c2
:1035ac000001be000a00be00b7f60700000178005b
:1035bc000100780082017800000178000300780097
:1035cc00820078000001be000800be00eaf407008b
:1035dc000001780001007800820178000001780079
:1035ec00030078008200780090a18800a1a18800d7
:1035fc00d4a18000e5a1800070a1800081a1800091
:10360c000001be000400be00d2f40700008fbe0013
:10361c00f4a1800005a2800090a18000a1a18000ef
:10362c000001be000400be00caf407002007980089
:10363c0031079800b0a18000c1a1800027fa0700d3
:10364c001e0178009e0190008ff6070000017800a3
:10365c00010078008204780000047800b0a180009a
:10366c00c1a180008afa07002e019000be019000d3
:10367c0085f60700000178000100780082017800cf
:10368c000001780003007800820078000001be0081
:10369c0009007800880078000000be00b6f407002e
:1036ac0000017800010078008201780000017800a8
:1036bc00030078008200780090a28800a1a2880004
:1036cc0000838000118380006011b80047f407006c
:1036dc000000e000010032002100370090a28000c1
:1036ec00a1a2800033080700a2702d0033c2230072
:1036fc003ef407000000e000010035001800370020
:10370c006000b80000838800118388006000b80056
:10371c00b0a28800c1a288000000eb0010a38800b2
:10372c000f0037000000eb0010a388006000b80009
:10373c0000808800118088006000b8000083880039
:10374c00118388006000b80050a2880061a2880034
:10375c006000b800b0a28800c1a288000000000080
:10376c00000000004f05be004f04be000080fa00b0
:10377c00000006002400fa00e0422100104078000e
:10378c00004f7800f042210010407800104798005c
:10379c00004321001040780020479800104321007e
:1037ac0010407800304798002043210010407800ea
:1037bc004047980030432100104078005047980053
:1037cc00404321001040780060479800504321008e
:1037dc00104078007047980060432100104078003a
:1037ec00004f98007043210010407800104f980053
:1037fc008043210010407800204f98009043210016
:10380c0010407800304f9800a04321001040780001
:10381c00404f9800b043210010407800504f980062
:10382c00c043210010407800604f9800d043210025
:10383c0010407800704f9800e04321001040780051
:10384c0000579800f0432100104078001057980062
:10385c0000442100104078002057980010442100ab
:10386c001040780030579800204421001040780018
:10387c004057980030442100104078005057980071
:10388c0040442100104078006057980050442100bb
:10389c00104078007057980000002100104078000c
:1038ac00005f980001d0bf00105f980002d0bf00ed
:1038bc00205f980003d0bf00305f98000006210005
:1038cc0010407800405f980061d0bf00505f9800b6
:1038dc0062d0bf00605f980063d0bf00705f98003b
:1038ec0020452100104078000067980030452100e9
:1038fc001040780010679800404521001040780077
:10390c0020679800504521001040780030679800df
:10391c000e0178004102200010092000430b070023
:10392c00000000000080fa00000006000000fa0011
:10393c006000b80070a1880081a188006000b80008
:10394c0090a18800a1a188006000b800b0a18800f7
:10395c00c1a188006000b800d0a18800e1a1880056
:10396c006000b800f0a1880001a288006000b800d7
:10397c0010a2880021a288006000b80030a2880044
:10398c0041a288006000b80050a2880061a28800a3
:10399c006000b80070a2880081a288006000b800a6
:1039ac0090a28800a1a288006000b800b0a2880094
:1039bc00c1a288006000b800d0a28800e1a28800f3
:1039cc006000b800f0a2880001a388006000b80075
:1039dc0000808800118088006000b8000083880097
:1039ec00118388000000eb0010a388000000000089
:1039fc000080fa00000006000e00fa00889fbe004e
:103a0c00121007005f100700aa100700930a0700a6
:103a1c007a0a0700850a07005905070060050700a8
:103a2c006c0f07003f030700c0ff070000002400d5
:103a3c00c1612400809fbe0000002400c1612400ed
:103a4c00809fbe0000002400c1612400809fbe0046
:103a5c006033b8000400200065362400020020000a
:103a6c00030c2400e02f21002c0c0700ec875700de
:103a7c0000002400c1612400809fbe0000002400cf
:103a8c00c1612400809fbe0000002400c16124009d
:103a9c00809fbe006033b80004002000653624000f
:103aac0002002000030c2400e02c21001b0c07005a
:103abc00ec875700d4938000e593800050938000ee
:103acc00619380000001be000400be00a1f307005a
:103adc000001780001007800820278000002780072
:103aec0022972f00f3f02300050078008400780063
:103afc000000be0085f4070000017800010078008a
:103b0c008204780000047800d4938000e593800050
:103b1c0050938000619380000001be000400be0041
:103b2c0095f307000001780001007800820278000c
:103b3c000002780002002000030024000500780039
:103b4c00840078000000be0070f4070000017800cb
:103b5c0001007800820278000002780009007800e9
:103b6c00880078000001be00050078008400780011
:103b7c000000be009e0407006000b800509388004f
:103b8c00619388006000b800d0938800e1938800ae
:103b9c006000b80070938800819388006000b800c2
:103bac0090938800a1938800040ea800052ea8000d
:103bbc0095eea800054ea800746ea800040037000e
:103bcc00ee0e0700004f78001e407800100b070027
:103bdc00b30e07000004e000f9ff3a00860307006b
:103bec00420f0700e14f5000f9ff3a00430f070066
:103bfc003a0f0700100798001e0090001000780084
:103c0c00a08188000e80e8001080e8001000780089
:103c1c00b08188000e80e800410020001080400038
:103c2c0010007800c08188000e80e800620020003f
:103c3c001000410010007800d08188000e80e80050
:103c4c00810020001080400010007800e081880086
:103c5c000e80e8001080e800100078008000eb0077
:103c6c0025f30700323323003305240006f5070043
:103c7c0000017800010078008202780000027800d0
:103c8c00020020000358240005007800840078000e
:103c9c000000be001df407002007980031079800b3
:103cac002e019000be019000000020008120240015
:103cbc0016f40700000178000100780082027800f9
:103ccc000002780002002000030a2400050078009e
:103cdc00840078000000be001ef30700800178000d
:103cec000101780003007800820078000000be001b
:103cfc0050948800619488000e80e80042002000f7
:103d0c0010004100100078008000eb00faf2070070
:103d1c003233230033052400dbf407000001780064
:103d2c000100780082027800000278000200200076
:103d3c000358240005007800840078000000be00c1
:103d4c00f2f3070020079800310798002e0190002d
:103d5c00be0190000000200081202400ebf307003e
:103d6c0000017800010078008202780000027800df
:103d7c0002002000030a240005007800840078006b
:103d8c000000be00f3f2070080017800010178000a
:103d9c0003007800820078000000be003094880098
:103dac00419488000e80e8006100200010804000e3
:103dbc00100078008000eb00cff2070032332300b4
:103dcc0033052400b0f407000001780001007800ee
:103ddc0082027800000278000200200003582400c0
:103dec0005007800840078000000be00c7f30700cf
:103dfc0020079800310798002e019000be0190001a
:103e0c000000200081202400c0f30700000178008e
:103e1c000100780082027800000278000200200085
:103e2c00030a240005007800840078000000be001e
:103e3c00c8f20700800178000101780003007800c7
:103e4c00820078000000be00109488002194880045
:103e5c001e009000100078008000eb00a6f2070016
:103e6c00323323003305240087f407000001780067
:103e7c000100780082027800000278000200200025
:103e8c000358240005007800840078000000be0070
:103e9c009ef3070020079800310798002e01900030
:103eac00be019000000020008120240097f3070041
:103ebc00000178000100780082027800000278008e
:103ecc0002002000030a240005007800840078001a
:103edc000000be009ff2070080017800010178000d
:103eec0003007800820078000000be007094880007
:103efc00819488000e80e8008200200010004100b0
:103f0c00100078008000eb007bf2070032332300b6
:103f1c00330524005cf407000001780001007800f0
:103f2c00820278000002780002002000035824006e
:103f3c0005007800840078000000be0073f30700d1
:103f4c0020079800310798002e019000be019000c8
:103f5c0000002000812024006cf307000001780091
:103f6c000100780082027800000278000200200034
:103f7c00030a240005007800840078000000be00cd
:103f8c0074f20700800178000101780003007800ca
:103f9c00820078000000be0090948800a1948800f4
:103fac00109480002194800002002000031f240044
:103fbc000ef207000000e00002003c00856ea80035
:103fcc0001003700856ea900309480004194800078
:103fdc0002002000031f240004f207000000e00090
:103fec0002003c00848ea80001003700848ea900da
:103ffc00509480006194800002002000031f240074
:10400c00faf107000000e00002003c0084aea800ba
:10401c000100370084aea900709480008194800068
:10402c0002002000031f2400f0f107000000e00054
:10403c0002003c0084cea8000100370084cea90009
:10404c0090948000a194800002002000031f2400a3
:10405c00e6f107000000e00002003c00754ea800ed
:10406c0001003700754ea900f08180008000e80047
:10407c00f1818800a10020000101780011000900e5
:10408c000200d8008000fd000000e000d0fe3a00e5
:10409c005094800061948000f9f107008040780012
:1040ac0080002000017778003094800041948000db
:1040bc00f3f1070080407800800020000000e80049
:1040cc00017778001094800021948000ecf10700b7
:1040dc0080407800800020000080e80001777800a4
:1040ec006800470000017800310020000003200028
:1040fc004e0907007093800081938000e0f1070067
:10410c0080407800b0002000017778009093800008
:10411c00a1938000daf1070080407800b000200005
:10412c000000e800017778006b0047000001780080
:10413c0021002000000420003c090700a4fe3700e9
:10414c000000fa0040d0bf000080fb006100b90005
:10415c00b200200003002000820f5000838f580013
:10416c007d003e00000601000b00370016003700f2
:10417c00220037002d003700310037003d0037009a
:10418c00410037004d003700510037005c0037000c
:10419c00600037006b0037001630ef001830ef006e
:1041ac006011b8006000b8006603070010c0b300cf
:1041bc0040f0b700b0808000c18080000001be00dc
:1041cc000040eb00f508070042d0bf00e14f500063
:1041dc0063003a00b2808000c3808000803e2000e3
:1041ec0001002000800f5100818f59005c003600c7
:1041fc0020c0b30040f0b70059003700c2f02500d2
:10420c00532d2c006000b8004e030700b0808000d6
:10421c00c18080000001be0020c0b300df08070091
:10422c0030c0b30040f0b7005800370042d0bf0098
:10423c00e14f50004c003a00570007004a0037008d
:10424c0092bf2e00831b2c0000002000010d2c00bf
:10425c003c030700b0808000c18080000001be00dc
:10426c0040c0b300cd08070050c0b30040f0b70009
:10427c004600370042d0bf00e14f50003c003a00ee
:10428c00450007003a00370092bf2e00831b2c001c
:10429c0000002000010d24002a030700b0808000dc
:1042ac00c18080000001be0060c0b300bb080700e5
:1042bc0070c0b30040f0b7003400370042d0bf00ec
:1042cc00e14f50002c003a00330007002a00370061
:1042dc006011b8000000200001152400190307002c
:1042ec00b0808000c18080000001be0080c0b3009f
:1042fc00aa08070090c0b30040f0b70023003700b5
:10430c0042d0bf00e14f50001d003a0022000700d0
:10431c001b0037006011b8000000200001152c00b4
:10432c0008030700b0808000c18080000001be003f
:10433c00a0c0b30099080700b0c0b30040f0b700ac
:10434c001200370042d0bf00e14f50000e003a007f
:10435c00110007000c0037004070ef000b00370015
:10436c0000000000090037000000000007003700c3
:10437c0000000000050037000000000003003700bb
:10438c0000000000010037000000000000000000e9
:10439c000080fa00000006000200fa000040eb006a
:1043ac00004f7800109480002194800002002000bf
:1043bc00031f24000df107000000e00018003d0071
:1043cc00309480004194800002002000831c240063
:1043dc0008f107000000e000110034005094800048
:1043ec006194800002002000031f240001f10700eb
:1043fc000000e0000a00340070948000819480007a
:10440c0002002000031f2400faf007000000e00067
:10441c000300340020c0b300004f78009d0037002b
:10442c0090948000a194800002002000c3202400fe
:10443c00eef007000000e00018003d003094800012
:10444c004194800002002000831c2400e9f0070046
:10445c000000e00011003400509480006194800052
:10446c0002002000031f2400e2f007000000e0001f
:10447c000a003400709480008194800002002000b7
:10448c00031f2400dbf007000000e00003003400f1
:10449c0020c0b300004f78007e003700909480005d
:1044ac00a194800002002000031f2400d1f007001b
:1044bc000000e0001800340010948000219480006b
:1044cc0002002000031f2400caf007000000e000d7
:1044dc0011003400309480004194800002002000d0
:1044ec00831c2400c3f007000000e0000a00340025
:1044fc00509480006194800002002000031f24006f
:10450c00baf007000000e00003003d0010c0b3004b
:10451c00004f78005f00370090948000a1948000d9
:10452c0002002000031f2400b2f007000000e0008e
:10453c0018003400109480002194800002002000a8
:10454c00031f2400abf007000000e0001100340052
:10455c00309480004194800002002000831c2400d1
:10456c00a4f007000000e0000a0034007094800002
:10457c008194800002002000c32024009bf00700df
:10458c000000e00003003d0010c0b300004f7800b5
:10459c0040003700309480004194800002002000dd
:1045ac000322240091f007000000e00003003d000e
:1045bc0030c0b300004f78003600370010948000f4
:1045cc002194800002002000031f240087f00700c4
:1045dc000000e0000a003d005094800061948000cf
:1045ec0002002000031f240080f007000000e00000
:1045fc0003003d0030c0b300004f780025003700a9
:10460c0090948000a194800002002000c32024001c
:10461c0078f007000000e0001e00340010948000c9
:10462c002194800002002000c320240071f00700b8
:10463c000000e000170034003094800041948000aa
:10464c0002002000031f24006af007000000e000b5
:10465c00100034005094800061948000020020000f
:10466c00c320240063f007000000e00009003400c0
:10467c00709480008194800002002000c3202400ec
:10468c005cf007000000e000020034000040eb008a
:10469c00004f78001e4078000004e00003003a0050
:1046ac0020c0b30041f0b700110037001e40780065
:1046bc00e24f500003003a0040c0b30041f0b70095
:1046cc000b0037001e407800e14f500003003a0009
:1046dc0060c0b30041f0b700050037001e40780001
:1046ec00e34f500002003a0080c0b30041f0b70025
:1046fc0041d0bf000080fb000104210091407800f4
:10470c008180fb008100e900810f50000200320023
:10471c0041d0bf0040f0b700000000000080fa005c
:10472c00000006000000fa0002ccbf000000a1004f
:10473c000010a1000020a10002ecb70000962000a0
:10474c00206088001061800000a0a00000b0a000d4
:10475c001061880023cca80023eca80030002000b6
:10476c00206188001062800000a0a00000b0a000b2
:10477c001062880043cca80043eca8003000200055
:10478c002062880001eca800000000000080fa0004
:10479c00000006000800fa00008fbe0022079800f7
:1047ac00330798000200200003f823002e0090002d
:1047bc00be0090000df007000000e00042003a003f
:1047cc006011b8001e0078009e00900009f00700f0
:1047dc000000e0001e00350002002000031c240035
:1047ec001e0078009e00900027f207000001780060
:1047fc00010078008202780000027800708280004c
:10480c00818280000001be000500780084007800e1
:10481c000000be0058f0070000017800010078008d
:10482c008201780000017800030078008200780093
:10483c000000be0012f0070030618800708280001a
:10484c00818280000ef00700706188001e00370026
:10485c00708280008182800009f00700306188003e
:10486c001e0078009e00900001f0a20002002000c3
:10487c00031c240004f207000001780001007800fa
:10488c0082027800000278007082800081828000b1
:10489c000001be0005007800840078000000be0016
:1048ac0035f00700000178000100780082017800e3
:1048bc000001780003007800820078000000be0040
:1048cc00efef0700706188006011b8002e009000b7
:1048dc00be009000c5ef07000000e00001003200b0
:1048ec00420037006011b8001e0078009e00900056
:1048fc00c0ef07000000e0001e00350002002000a1
:10490c00031c24001e0078009e009000def10700be
:10491c000001780001007800820278000002780023
:10492c0070828000818280000001be00050078004a
:10493c00840078000000be000ff007000001780032
:10494c0001007800820178000001780003007800f3
:10495c00820078000000be00c9ef070030628800ba
:10496c007082800081828000c5ef07007062880031
:10497c001e0037007082800081828000c0ef07002b
:10498c00306288001e0078009e00900001f0a200aa
:10499c0002002000031c2400bbf10700000178007a
:1049ac00010078008202780000027800708280009a
:1049bc00818280000001be00050078008400780030
:1049cc000000be00ecef0700000178000100780049
:1049dc0082017800000178000300780082007800e2
:1049ec000000be00a6ef0700706288000000000007
:1049fc000080fa00000006000000fa00889fbe004c
:104a0c007493800085938000b0938000c1938000e4
:104a1c000001be000400be0074ef07000000e000bf
:104a2c0014003d00b8938000c993800074938000fb
:104a3c008593800090828000a18280000001be00de
:104a4c000400be00ccef07000001780001007800e4
:104a5c0082027800000278000801be000500780090
:104a6c00840078000000be007e030700709388006d
:104a7c00819388007493800085938000b0938000ac
:104a8c00c19380000001be000400be0059ef070076
:104a9c000000e00014003400b8938000c99380003b
:104aac00749380008593800090828000a1828000a6
:104abc000001be000400be00a6ef07000001780054
:104acc000100780082027800000278000801be0024
:104adc0005007800840078000000be004a0307003f
:104aec00709388008193880070938000819380007c
:104afc006011b8003fef07000000e0001e0034001a
:104b0c00709380008193800002002000031c24001d
:104b1c005df1070000017800010078008202780046
:104b2c000002780070828000818280000001be004b
:104b3c0005007800840078000000be008eef0700ae
:104b4c0000017800010078008201780000017800f3
:104b5c0003007800820078000000be0048ef0700d8
:104b6c0030618800708280008182800044ef0700f1
:104b7c00706188001e003700708280008182800086
:104b8c003fef0700306188007093800081938000b4
:104b9c0001f0a20002002000031c24003af10700df
:104bac000001780001007800820278000002780091
:104bbc0070828000818280000001be0005007800b8
:104bcc00840078000000be006bef07000001780045
:104bdc000100780082017800000178000300780061
:104bec00820078000000be0025ef0700706188008d
:104bfc0094938000a5938000f09380000194800032
:104c0c000001be000400be00f8ee07000000e0004a
:104c1c0014003d00f8938000099480009493800068
:104c2c00a593800090828000a18280000001be00cc
:104c3c000400be0050ef070000017800010078006e
:104c4c0082027800000278000801be00050078009e
:104c5c00840078000000be000203070090938800d7
:104c6c00a193880094938000a5938000f09380001a
:104c7c00019480000001be000400be00ddee0700c0
:104c8c000000e00014003400f893800009948000c8
:104c9c0094938000a593800090828000a182800074
:104cac000001be000400be002aef070000017800de
:104cbc000100780082027800000278000801be0032
:104ccc0005007800840078000000be00ce020700ca
:104cdc0090938800a193880090938000a19380000a
:104cec006011b800c3ee07000000e0001e003500a4
:104cfc0090938000a193800002002000031c2400ec
:104d0c00e1f00700000178000100780082027800d1
:104d1c000002780070828000818280000001be0059
:104d2c0005007800840078000000be0012ef070038
:104d3c000001780001007800820178000001780001
:104d4c0003007800820078000000be00ccee070063
:104d5c00306288007082800081828000c8ee07007b
:104d6c00706288001e003700708280008182800093
:104d7c00c3ee07003062880090938000a1938000fe
:104d8c0001f0a20002002000031c2400bef007006a
:104d9c00000178000100780082027800000278009f
:104dac0070828000818280000001be0005007800c6
:104dbc00840078000000be00efee070000017800d0
:104dcc00010078008201780000017800030078006f
:104ddc00820078000000be00a9ee07007062880017
:104dec00000000004f04be000080fa000000060026
:104dfc000800fa00008fbe002207980033079800c5
:104e0c0022972f00f3e023002e009000be009000ac
:104e1c009df0070000017800010078008202780004
:104e2c00000278001e0178009e01900005007800b9
:104e3c00840078000000be00cfee0700000178006f
:104e4c000100780082027800000278000200200045
:104e5c00c3202c0005007800840078000000be0000
:104e6c0089f00700800178000101780003007800c8
:104e7c00820078000000be00f09388000194880046
:104e8c0022972f00f3e023002e009000be0090002c
:104e9c007df00700000178000100780082017800a5
:104eac000001780003007800820078000001be0049
:104ebc001e0078009e009000a6ee0700000178000e
:104ecc0001007800820278000002780002002000c5
:104edc00c320240005007800840078000000be0088
:104eec0069f0070080017800010178000300780068
:104efc00820078000000be00b0938800c193880047
:104f0c00f09380000194800004002000852c240084
:104f1c0002002000832c2c0069020700b093800053
:104f2c00c193800004002000852c24000200200086
:104f3c00832c2c0062020700000000000080fa00a5
:104f4c00000006000800fa00008fbe00220798003f
:104f5c00330798001e0178009e019000329688005d
:104f6c00439688002e019000be0190005296880056
:104f7c0063968800000000000080fa000000060024
:104f8c000000fa00c301a800dca1ef00dea1ef00d5
:104f9c00c1e1a800000000000080fa00000006003b
:104fac000000fa00c305a800dca5ef00dea5ef00a9
:104fbc00c1e5a800000000000080fa000000060017
:104fcc001000fa00889fbe008a9fbe00608180009e
:104fdc00718180002081880031818800808180006f
:104fec00918180004081880051818800300e8000c2
:104ffc008000eb00008fbe00500e80008000eb00a4
:10500c00c000dd00000020001e0f40005e9748002d
:10501c00302e80008000eb002007980031079800ac
:10502c00502e80008000eb00c000dd00000020004e
:10503c0064014700e4014700331940002391480004
:10504c00120278009202900024079800350798000d
:10505c001e0078009e00900024ee0700c2532e0024
:10506c007378230008f00700000178000100780035
:10507c00820178000001780003007800820078003b
:10508c0060818800718188002e009000be00900025
:10509c0016ee0700c2532e0073782b00faef0700b0
:1050ac00000178000100780082017800000178008e
:1050bc00030078008200780080818800918188004c
:1050cc0064818000758180002081800031818000a6
:1050dc000001be000400be001eee07004007980051
:1050ec005107980084818000958180004081800068
:1050fc00518180000001be000400be0015ee0700c7
:10510c00600798007107980002002000a337240064
:10511c004e009000de009000dbef0700800178006d
:10512c000101780003007800820078000000be00c6
:10513c00b0948800c194880002002000a33724009a
:10514c006e009000fe009000cfef07008001780009
:10515c000101780003007800820078000000be0096
:10516c00d0948800e1948800b4948000c5948000a9
:10517c00d0948000e19480000001be000400be00c9
:10518c00fded070000017800010078008202780034
:10519c0000027800020020000300240005007800c3
:1051ac00840078000000be00d8ee07008001780073
:1051bc000101780003007800820078000000be0036
:1051cc00f094880001958800b4948000c594800008
:1051dc00d0948000e19480000001be000400be0069
:1051ec00dced0700000178000100780082027800f5
:1051fc000002780022972f00f3e8230005007800c6
:10520c00840078000000be00c0ee0700800178002a
:10521c000101780003007800820078000000be00d5
:10522c00109588002195880090958000a1958000ac
:10523c003095880041958800b0958000c19580001c
:10524c005095880061958800d0958000e19580008c
:10525c00709588008195880038958000499580006c
:10526c00fa9480000b958000d0958000e195800029
:10527c001af307000001be000a00be0082ef07000f
:10528c0000017800010078008202780000027800aa
:10529c0002002000a3372400050078008400780069
:1052ac000000be0099ee07000001780001007800b4
:1052bc0082017800000178000300780082007800f9
:1052cc000001be000800be00abed070080017800b5
:1052dc000101780003007800820078000000be0015
:1052ec0090958800a195880058958000699580005c
:1052fc00fa9480000b958000d0958000e195800099
:10530c0063f307000001be000a00be005eef070059
:10531c000001780001007800820278000002780019
:10532c0002002000a33724000500780084007800d8
:10533c000000be0075ee0700000178000100780047
:10534c008201780000017800030078008200780068
:10535c000001be000800be0087ed07008001780048
:10536c000101780003007800820078000000be0084
:10537c00b0958800c195880078958000899580004b
:10538c00109580002195800002002000a337240096
:10539c005eee0700000178000100780082017800c1
:1053ac000001780003007800820078000001be0044
:1053bc000800be0070ed0700800178000101780044
:1053cc0003007800820078000000be00d0958800b1
:1053dc00e1958800d0958000e1958000b2fd200019
:1053ec009304240003ed07000000e0000c003400df
:1053fc00d0958000e1958000b2fd2000930c240034
:10540c0054ed07008001780001017800030078005a
:10541c00820078000000be00d0958800e1958800dd
:10542c00d0958000e1958000b2fd200093042c0003
:10543c00eeec07000000e000010035000c00370026
:10544c00d0958000e1958000b2fd2000930c2400e3
:10545c0049ed070080017800010178000300780015
:10546c00820078000000be00d0958800e19588008d
:10547c00000000004f05be004f04be000080fa0083
:10548c00000006001800fa00b0808000c180800087
:10549c0000017800810178008000eb000e0078009c
:1054ac00a907070090958000a19580000001be001f
:1054bc00410020000e00780065070700b0958000c1
:1054cc00c19580000001be00810020000e00780014
:1054dc005f070700d0958000e19580000001be00b9
:1054ec00c10020000e00780059070700f0948000de
:1054fc00019580000001be00010120000e00780023
:10550c005307070010958000219580000001be0014
:10551c00410120000e0078004d0707000e017800b5
:10552c00810120001006200040040700000000004c
:10553c000080fa00000006006c00fa00b0808000c9
:10554c00c180800000017800810178008000eb00b0
:10555c000e0078007c070700309680004196800092
:10556c000001be00410020000e0078003807070043
:10557c0050968000619680000001be0081002000e2
:10558c000e00780032070700f09880000199800027
:10559c000001be00c10020000e0078002c0707009f
:1055ac0070978000819780000001be0001012000ef
:1055bc000e00780026070700f09580000196800009
:1055cc000001be00410120000e00780020070700fa
:1055dc0010968000219680000001be008101200001
:1055ec000e0078001a070700f097800001988000e1
:1055fc000001be00c10120000e0078001407070056
:10560c0070968000819680000001be00010220008f
:10561c000e0078000e07070010988000219880007b
:10562c000001be00410220000e00780008070700b0
:10563c0090968000a19680000001be00810220009f
:10564c000e00780002070700309880004198800017
:10565c000001be00c10220000e007800fc0607000d
:10566c00b0968000c19680000001be0001032000ae
:10567c000e007800f6060700109980002199800032
:10568c000001be00410320000e007800f006070068
:10569c0090978000a19780000001be00810320003c
:1056ac000e007800ea0607003099800041998000ce
:1056bc000001be00c10320000e007800e4060700c4
:1056cc00b0978000c19780000001be00010420004b
:1056dc000e007800de06070050998000619980006a
:1056ec000001be00410420000e007800d80607001f
