:020000040000fa
:080000000002040000000000f2
:020000040000fa
:04000800ee03000003
:020000040000fa
:04000c00ee030000ff
:020000040000fa
:04001000ee030000fb
:020000040000fa
:04001400ee030000f7
:020000040000fa
:04001800ee030000f3
:020000040000fa
:04001c00ee030000ef
:020000040000fa
:04002000ee030000eb
:020000040000fa
:04002400ee030000e7
:020000040000fa
:04002800ee030000e3
:020000040000fa
:04002c00ee030000df
:020000040000fa
:04003000ee030000db
:020000040000fa
:04003400fa020000cc
:020000040000fa
:04003800ee030000d3
:020000040000fa
:04003c00ee030000cf
:020000040000fa
:04004000ee030000cb
:020000040000fa
:04004400ee030000c7
:020000040000fa
:040048004803000069
:020000040000fa
:04004c00ee030000bf
:020000040000fa
:04005000ee030000bb
:020000040000fa
:04005400a403000001
:020000040000fa
:040058007803000029
:020000040000fa
:04005c00520300004b
:020000040000fa
:04006000ee030000ab
:020000040000fa
:04006400ee030000a7
:020000040000fa
:04006800ee030000a3
:020000040000fa
:04006c00ee0300009f
:020000040000fa
:04007000ee0300009b
:020000040000fa
:04007400ee03000097
:020000040000fa
:04007800ee03000093
:020000040000fa
:04007c00ee0300008f
:020000040000fa
:04008000ee0300008b
:020000040000fa
:04008400ee03000087
:020000040000fa
:04008800ee03000083
:020000040000fa
:04008c00ee0300007f
:020000040000fa
:04009000ee0300007b
:020000040000fa
:040094001c03000049
:020000040000fa
:04009800ee03000073
:020000040000fa
:04009c00ee0300006f
:020000040000fa
:0400a000ee0300006b
:020000040000fa
:0400a400ee03000067
:020000040000fa
:0400a800ee03000063
:020000040000fa
:0400ac00ee0300005f
:020000040000fa
:0400b000ee0300005b
:020000040000fa
:0400b400ee03000057
:020000040000fa
:0400b800ee03000053
:020000040000fa
:0400bc00ee0300004f
:020000040000fa
:0400c000ee0300004b
:020000040000fa
:0400c400ee03000047
:020000040000fa
:0400c800ee03000043
:020000040000fa
:0400cc00ee0300003f
:020000040000fa
:0400d000ee0300003b
:020000040000fa
:0400d400ee03000037
:020000040000fa
:0400d800ee03000033
:020000040000fa
:0400dc00ee0300002f
:020000040000fa
:0400e000ee0300002b
:020000040000fa
:0400e400ee03000027
:020000040000fa
:0400e800ee03000023
:020000040000fa
:0400ec00ee0300001f
:020000040000fa
:0400f000ee0300001b
:020000040000fa
:0400f400ee03000017
:020000040000fa
:0400f800ee03000013
:020000040000fa
:0400fc00ee0300000f
:020000040000fa
:04010000ee0300000a
:020000040000fa
:04010400ee03000006
:020000040000fa
:04010800ee03000002
:020000040000fa
:04010c00ee030000fe
:020000040000fa
:04011000ee030000fa
:020000040000fa
:04011400ee030000f6
:020000040000fa
:04011800ee030000f2
:020000040000fa
:04011c00ee030000ee
:020000040000fa
:04012000ee030000ea
:020000040000fa
:04012400ee030000e6
:020000040000fa
:04012800ee030000e2
:020000040000fa
:04012c00ee030000de
:020000040000fa
:04013000ee030000da
:020000040000fa
:04013400ee030000d6
:020000040000fa
:04013800ee030000d2
:020000040000fa
:04013c00ee030000ce
:020000040000fa
:04014000ee030000ca
:020000040000fa
:04014400ee030000c6
:020000040000fa
:04014800ee030000c2
:020000040000fa
:04014c00ee030000be
:020000040000fa
:04015000ee030000ba
:020000040000fa
:04015400ee030000b6
:020000040000fa
:04015800ee030000b2
:020000040000fa
:04015c00ee030000ae
:020000040000fa
:04016000ee030000aa
:020000040000fa
:04016400ee030000a6
:020000040000fa
:04016800ee030000a2
:020000040000fa
:04016c00ee0300009e
:020000040000fa
:04017000ee0300009a
:020000040000fa
:04017400ee03000096
:020000040000fa
:04017800ee03000092
:020000040000fa
:04017c00ee0300008e
:020000040000fa
:04018000ee0300008a
:020000040000fa
:04018400ee03000086
:020000040000fa
:04018800ee03000082
:020000040000fa
:04018c00ee0300007e
:020000040000fa
:04019000ee0300007a
:020000040000fa
:04019400ee03000076
:020000040000fa
:04019800ee03000072
:020000040000fa
:04019c00ee0300006e
:020000040000fa
:0401a000ee0300006a
:020000040000fa
:0401a400ee03000066
:020000040000fa
:0401a800ee03000062
:020000040000fa
:0401ac00ee0300005e
:020000040000fa
:0401b000ee0300005a
:020000040000fa
:0401b400ee03000056
:020000040000fa
:0401b800ee03000052
:020000040000fa
:0401bc00ee0300004e
:020000040000fa
:0401c000ee0300004a
:020000040000fa
:0401c400ee03000046
:020000040000fa
:0401c800ee03000042
:020000040000fa
:0401cc00ee0300003e
:020000040000fa
:0401d000ee0300003a
:020000040000fa
:0401d400ee03000036
:020000040000fa
:0401d800ee03000032
:020000040000fa
:0401dc00ee0300002e
:020000040000fa
:0401e000ee0300002a
:020000040000fa
:0401e400ee03000026
:020000040000fa
:0401e800ee03000022
:020000040000fa
:0401ec00ee0300001e
:020000040000fa
:0401f000ee0300001a
:020000040000fa
:0401f400ee03000016
:020000040000fa
:0401f800ee03000012
:020000040000fa
:0401fc00ee0300000e
:020000040000fa
:04020000ee03000009
:020000040000fa
:04020400ee03000005
:020000040000fa
:04020800ee03000001
:020000040000fa
:04020c00ee030000fd
:020000040000fa
:04021000ee030000f9
:020000040000fa
:04021400ee030000f5
:020000040000fa
:04021800ee030000f1
:020000040000fa
:04021c00ee030000ed
:020000040000fa
:04022000ee030000e9
:020000040000fa
:04022400ee030000e5
:020000040000fa
:04022800ee030000e1
:020000040000fa
:04022c00ee030000dd
:020000040000fa
:04023000ee030000d9
:020000040000fa
:04023400ee030000d5
:020000040000fa
:04023800ee030000d1
:020000040000fa
:04023c00ee030000cd
:020000040000fa
:04024000ee030000c9
:020000040000fa
:04024400ee030000c5
:020000040000fa
:04024800ee030000c1
:020000040000fa
:04024c00ee030000bd
:020000040000fa
:04025000ee030000b9
:020000040000fa
:04025400ee030000b5
:020000040000fa
:04025800ee030000b1
:020000040000fa
:04025c00ee030000ad
:020000040000fa
:04026000ee030000a9
:020000040000fa
:04026400ee030000a5
:020000040000fa
:100400002f1f21000eff27000e01880000000000b2
:10041000000020000000e000020032000001200087
:100420002002880014000700ee0007000000e00032
:1004300003003a00000422000100200002003700ff
:100440000000200001002000810f70000100320038
:100450000f000700000020000000e0000200320052
:1004600000000200000000003c0c02000000000040
:100470000040da000000fe00200020000000e00044
:1004800002003200100020009001880000000600e9
:10049000a1028800800478000000eb001f003700f4
:1004a000e284440054a0b4009905ba00e2844400f8
:1004b00054a0b4009906ba00e284440054a0b400e9
:1004c0000006eb00476fde00fd07b200ae018800ba
:1004d000636ce10003003a000ad801000000eb0061
:1004e0000e003700606ce10008003a00004deb00a0
:1004f0000a05e800020039003420ec000af0a000f0
:100500008b05e900f9ff3e00040037006168e10057
:10051000010032000086eb000b00070019c7ba008b
:100520000e04e0001905ba0003003a000a00e000da
:10053000dbff3a0000000600fe07b200ae028800b2
:100540008a047800f5ff37000cd0a300e20f4d00bd
:100550001c003b0089027800354dba000a05e8000e
:10056000020039003420ec000af0a0008b05e900fd
:100570000f003200254dba000a05e80002003900dc
:100580003420ec000af0a0008b05e90008003200de
:100590000c00e0000600320015cdba000a05e800a4
:1005a000020039003420ec000af0a0008b05e900bd
:1005b0008984e80054a0b4000b00e000e2ff3a0098
:1005c000000006009902ba00055d78008b05e9007d
:1005d000f7ff3200c82ade00055d78008b05e900d0
:1005e000f3ff32000c00e000f1ff320019ddba0029
:1005f000eeff37003600f800809fbe00829fbe00ed
:10060000849fbe00869fbe000000fa000068a9001b
:10061000f60a0700b50d0700000000000080fa0090
:100620004f03be004f02be004f01be004f00be0090
:100630003600f900004006003600f800809fbe003a
:10064000829fbe00849fbe00869fbe000000fa000d
:100650000368a900708080008180800061004000f4
:10066000e0804800708088008180880000060700d4
:10067000000000000080fa004f03be004f02be00e1
:100680004f01be004f00be003600f90000400600da
:100690000000fa000108a900000000000080fa0034
:1006a00000400600801f78000000fa0001a8a900a1
:1006b00000188000308f880010188000408f88005c
:1006c00020188000508f880030188000608f8800cc
:1006d00040188000708f880010c0b3003bf0b70056
:1006e000000000000080fa004f0078000040060083
:1006f0003600f800809fbe00829fbe00849fbe002f
:10070000869fbe000000fa000188a9009181800048
:1007100080818000808f500002003200a60c07000c
:10072000010037003470ef00000000000080fa0084
:100730004f03be004f02be004f01be004f00be007f
:100740003600f900004006003600f800809fbe0029
:10075000829fbe00849fbe00869fbe000200fa00fa
:100760000168a900101180004200de0061406000b5
:100770000004e000010032002242a90010118000b4
:100780000000d100614060000004e000060032007b
:100790002222a9000400370030118000004f7800a9
:1007a0001e407800e50c0700101180000040780022
:1007b00061406000e14f5000f7ff32000000000090
:1007c0000080fa004f03be004f02be004f01be0082
:1007d0004f00be003600f900004006000040da007d
:1007e0000000fe000000050014002000aa033700ee
:1007f000f4ff2f00a80337000001be003c000700f3
:100800000470a70003f0a1006509b10016003200d2
:100810000d0035006828e10006003500f0ff2f00cc
:10082000f1ff27000300e00013003b000100280057
:100830000000050000004000818048008502e900ba
:10084000fcff3a0008003700f88f420002003c002d
:100850008000eb00000005008100d1000080d30083
:100860008502e800fcff3a000300e00002003b00c4
:1008700060001000e0801800000006000001be00cb
:100880001b0007000470a70003f0a10003f8a300f9
:1008900013003a006509b10010003200090035006c
:1008a0006928e10002003500010028000000050071
:1008b00000004000818048008502e900fcff3a000a
:1008c00000000600f88f4200050035008100d100cd
:1008d0000080d3008502e800fcff3a00000006001b
:1008e0008000eb00000005006011b80085033700b0
:1008f000c70ade00f107b200f50fb20008003200af
:10090000e1cf4200020032000170a0002400050087
:10091000810f70000100320004080500440005004a
:10092000810f700002003a00140005008502e90002
:100930000000400081c04800fcff3b000170a000a7
:100940002400050007f82700078361000638e1004e
:1009500004003a00f70720008783610087037100d5
:1009600001003a0003f0a200889fbe008a9fbe00eb
:100970008c9fbe00470ade000480a100c71ade007b
:100980000580a100070028000785600087856100b9
:10099000f70f20000720e1009e0032000728e10049
:1009a0009c003200010678000400e000b400320030
:1009b000f7072000878060000170a0000500e000bc
:1009c000c0003200f7072000878161000370a0009b
:1009d000050652000f003a000b50e1000b003200f8
:1009e0000308e10002003a000200e1007e0032004c
:1009f0000204500083845800040031000001fd000f
:100a00008101fd008402fd008a05fd006044b800fc
:100a1000210037000520e10005003d000001fd0038
:100a20008101fd008402fd008a05fd0005065200db
:100a30007a60e100050035000170a1004722dd0069
:100a4000848070008a807000630037006044b800c2
:100a5000ef02660007ff2f00070666000500e000b2
:100a600006003400f08312008714dd000511de005b
:100a7000071bdd00060171008519de007060e100d2
:100a8000050035000904780082047800030178002d
:100a90008001eb00700656000b50e10003003a00a5
:100aa0000200400083804800040037006004140006
:100ab000e0841c0002005800838058000188a300d5
:100ac000060032008100d1000080d3008984d30069
:100ad0000884d3000402e800270037000178a3004f
:100ae00025003a000100e000030032008186cf00bb
:100af000698656000a0037008c0020000000e000e4
:100b000004003a0009007800880478000004eb0033
:100b1000700252008086cf000d0646000c06e900e8
:100b20007060e10006003500800078000900780060
:100b3000880478000004eb00700656007002520032
:100b40000c00e0000c0034008c08dd00f0031600ff
:100b50000703de00868070000c00dd00074bde001e
:100b6000060070008c4cdd000743de0086847400b4
:100b70000c44dd000c0252006120e1002000350031
:100b8000610160000700280087816400f7ff2700eb
:100b900087836400070374000300e000060032004e
:100ba00082037300040032000000e800e080480087
:100bb0000188a3000e003a00f70f20000720e10093
:100bc0004a003d000170a1004722dd008100720053
:100bd0008a8070000000be004f06be004f05be00b8
:100be0004f04be00000006006000b800faff3700a6
:100bf0008100d1000080d3000402e800eeff37003e
:100c00000401780089017400a10107008a80700046
:100c1000f1ff3700f7010700070278000001fd002f
:100c20008101fd00f301070087027800850372004f
:100c30000778a300040032000001fd008101fd00df
:100c400006020700e4ff3700850362000768a3007f
:100c5000080032000b50e10003003200f0ff2f00cb
:100c6000f1ff2700dcff37000001fd008101fd00de
:100c7000d9ff37000468a300d7ff3200faff37001e
:100c8000f8ff2700888360000b003a000000e000b6
:100c900009003a008303640082837300020032007b
:100ca0000200be00ccff37000b50e100ceff3a003f
:100cb0000200be00c8ff370014002000810064005d
:100cc0003eff3700f8ff27008883610004003a00e8
:100cd0000200e00002003a008c007800beff3700fe
:100ce000150020008301640039ff370001f8270058
:100cf0000000200081007500b7ff3700889fbe000c
:100d00008a9fbe008c9fbe001b0020000202be0016
:100d10000586680006002800060666004709de0012
:100d2000f20fb200820032000243e800800032007d
:100d3000c729de00f30fb2007d0032000343e80054
:100d40007b003200f107b2000170a000f507b2008d
:100d50000570a000c708dd004903de008680700032
:100d60004700dd00c72add004923de0086827200cd
:100d70004722dd000305510004035000858358001d
:100d80000300310000004000818048000a05e900ae
:100d90008c1f78008a9fbe00040050008580580098
:100da0000402420085824a00000040008180480021
:100db0000005eb000004be006033b8000406be006e
:100dc0000d48e10056003100110009004dccd8005b
:100dd0000c01b8000d02b8008481410060824a0015
:100de0008283530003045c0084845c0060055d0022
:100df0000a00e00025003a00800578000d40e1007f
:100e000049003100880078000700780011000900cf
:100e10004d88d8000c01b8000d02b8008481410053
:100e200060824a006003110083835b0004045c005d
:100e3000e0845c000900e00021003a004f01be00a0
:100e40000300e0002b003200e3016000070673009e
:100e50008c81710001003200640070004200de00ed
:100e60004e5edd000c007000c258de0001e0a00004
:100e700083010700cf017800818071004f06be001a
:100e80004f05be004f04be00000006008c834300e7
:100e90000d044c00e0844c0060054d000000e900aa
:100ea0000a00e000d4ff32008c8343000d044c00a4
:100eb000e0844c0060054d000000e900ceff3700e3
:100ec0000c0343008d834b0060044c00e0844c0015
:100ed0000000e9000900e000d8ff32000c034300e5
:100ee0008d834b0060044c00e0844c000000e9005e
:100ef000d2ff37004200de004e5edd000c007000c5
:100f0000c258de0001e0a000cf0178000300e0003d
:100f1000daff320060001000e0801800d7ff3700d1
:100f2000f0ff2f00aaff3700f0ff2f00b9ff3700b6
:100f30000404be002f010700870678000004fd00ae
:100f40008104fd002b010700078366000678a300db
:100f5000030032000960a7000800be002c00370023
:100f60000d78a300020032000800be002800370000
:100f70000778a30026003a0001f0a10009f0a100c3
:100f80000668a30003003200f1ff2700f0ff2f00e6
:100f9000baff37000d68a300030032000800be004e
:100fa0008c807000b5ff37000768a30007003a0087
:100fb0000648a30003003200f1ff2700f0ff2f00d6
:100fc000aeff37000d48a300030032006000b800f8
:100fd0008c807000a9ff37000748a300040032008e
:100fe00001f82700000020008c807000a3ff37006c
:100ff000760107000004fd008104fd000205780071
:10100000720107000802be008a01780059ff37000c
:101010000160a00012022000f281880097ff3700d3
:101020000100e000120032000500e0001000320074
:10103000889fbe008a9fbe008c9fbe000006eb000a
:1010400001f8a3000300320060001000e0801800e7
:101050000cf0a00005f8a3000300320060021200ab
:10106000e0821a000cf0a2008005eb0041ff37007f
:101070006000b80002000500038368000700280034
:1010800007036300470ade000480a100c71ade00e0
:101090000580a100f70f20000720e1004200320088
:1010a0000728e10040003200889fbe008a9fbe00f2
:1010b0008c1f7800f107b200f307b2000400e000d3
:1010c000640032000170a0000500e00068003200fa
:1010d0000370a00085054200eb07b1000204b800d0
:1010e0000302b8008484440060854a00020ab80004
:1010f000848444000a854a00030ab80004054500b8
:10110000040033000804d0008984d2000a85d2008c
:101110008b05e9006158e1003d0035000210200018
:10112000090161000308200089816100f7072000a0
:101130008783640008867300c84cde00c853dd0056
:10114000878474004855de000300e000060032008a
:1011500082037600040032008904e80060054d0037
:101160000a88a3000c003a00f70f20000758e1009e
:1011700044003d000a70a100c75ddd000a857500ce
:101180008a007300090078004f0678004f05be0002
:101190004f04be00000006000a05d1008984d30078
:1011a0008b05e800f0ff3700881f78000604780000
:1011b00090000700070278000001fd008101fd009a
:1011c0008c00070087027800850372000778a3006f
:1011d000050032000001fd008101fd009f000700b5
:1011e0004f04780000000600850372000748a30042
:1011f00003003200f0ff2f00f1ff2700f8ff370057
:101200000000200001f8270088807000f4ff3700fc
:10121000880178004848dd00808171004848de0080
:10122000c850dd0001007000c850de0006047800e0
:101230000b0178001600070088807000d2ff37008d
:101240000500e00005003200170020003a0007000a
:101250009dff370081037000f9ff3a008600780097
:101260004f0678004f05be004f04be000000050089
:1012700083037100f9ff3200270020002e000700d1
:1012800094ff370001f8270086807000f4ff3700d4
:101290000100e00026003200610111007810e10039
:1012a00023003c006022b8007010e100040035000b
:1012b00080027800010078008000eb00700151008e
:1012c0000200e0000900340070031100062add006e
:1012d000822ade008603dd00878272000200de00c3
:1012e000860bdd00070070008208de00848171003b
:1012f000f4ff27000482620084817100040028004a
:10130000848262006102600005f0a6000000060011
:1013100004827100070032000000e800e08048000d
:10132000000006000002be006000b800efff3700ba
:101330006000b80000000600889fbe000004eb00bb
:101340006138e10016003a000100e00008003a00b0
:10135000c800de004800dd00880020000100e00039
:1013600003003a00c800de004800dd0068044400c5
:101370008184cf00e9845400060034008908dd0030
:10138000f08314008703de00878070000900dd0011
:1013900009044400610214004f04be00000006006e
:1013a0000300e00008003a00c811de004811dd002b
:1013b000880020000300e00003003a00c811de00ae
:1013c0004811dd00680444008384cf00e9845400a0
:1013d000060034008919dd00f08314008713de0055
:1013e000878171000911dd0009044400e102140045
:1013f000e9ff37002700200001f0a70017002000b8
:10140000470bde00f60fb200040032000643e8008e
:101410000a0032004702b300000006000103780012
:10142000f607b2000603700002003a000703b3009b
:10143000000006008702b3000000060001037800e8
:10144000f607b20006037000020032000770a00029
:10145000000006000760a000000006000478a3005a
:10146000040032000578a300030032000168a300e5
:1014700001003a000200be000160a000000006006a
:1014800081017000270032008002eb0001f8a30008
:101490000300320060001000e080180015002000fa
:1014a000f40720000202420020003400f70320006d
:1014b0008703600006042000000363000208200088
:1014c000000161004700de00c909dd0000807100f5
:1014d000c708de000600e000080032008703710044
:1014e000060032001000b0000180b0000188a300a7
:1014f00002003200c108de000402e800f107b20079
:10150000f30f20000320e10003003d004722dd002f
:10151000810072002900370001f827000000eb006d
:10152000260037006000b8000000060068021200c4
:101530007f20e100020034006000b8001f00370087
:101540006011b8007020e1000400350080017800cf
:10155000010078008000eb00700252000400e000ff
:1015600009003400f00312000719dd008419de00c1
:101570000703dd00868171000400de00070bdd003b
:10158000060070008408de00f7ff270083836300f5
:101590008703710006002800030363000700320080
:1015a0000700e00003003a0061016000028173005f
:1015b000020032001000b0000180b0000500a6005b
:1015c0000000060001f0a000000006004f0ade0047
:1015d0004709de00f107b200f20fb2000b00320043
:1015e000f207b1000170a000c708dd00c901de00ec
:1015f000838070004700dd000400a60000000600a4
:1016000060001000e080180000000600810f7000ec
:1016100001003a00000006008182cf000500e000d2
:1016200010003e008082cf00ee8242007028e10070
:101630000400390007003e00800078000000eb0045
:101640000e003700708312008600de000500dd000a
:101650000a003700708352008600dd000000eb00b6
:1016600006003700e28252008508dd007083120018
:101670000603de00868070000500dd007507b000ff
:101680000501ea000400a60000000600600010004a
:10169000e080180000000600889fbe008a9fbe0000
:1016a000841f78006c0007004f00780011003300a1
:1016b000f0ff2f00838f6c0006003b0004056500df
:1016c0000a00a7000800370009f0a600100020005b
:1016d00008003700820f5400838f5c00030039003c
:1016e0001000200001003e000000200009f0a700cb
:1016f0000000ea004f05be004f04be000000e000fd
:1017000000000600889fbe008a9fbe000082700015
:101710000402710004827100260032000004be0041
:101720000200be006011b8006b0920009502200085
:101730000182cf000a0039000541b1000082cf00cc
:10174000070039000541b1000982cf0004003900cb
:101750000541b1000882cf00010039000541b10008
:1017600005425200120032000a003b0082817100e3
:10177000610164008100d1000080d3008984d3001e
:101780000884d3008b05e8000442e800f7ff3a0024
:10179000070037000804440089844c00000048001a
:1017a000818048008b05e9000442e900f9ff3a0016
:1017b000030007004f05be004f04be0000000600f6
:1017c00081002000618055000b003d000b002000cf
:1017d00061fe2f000100e1001d00340082817100d4
:1017e000610164008904d1000884d3000000e8008e
:1017f000faff3a00710020006100640003007000ed
:10180000020060000900320061044400e0844c00e2
:101810000988a500050032008b05e8006808e10092
:1018200002003a008904d1000884d300f20f20009e
:101830000258e10005003d00c75ddd00f907b20078
:101840008980750008007800000006000bf827006a
:101850008b007800000005000004be0024fc070097
:101860000003be000405be000200be0020fc07000d
:08187000844f75000000060022
:020000040000fa
:101878000e00fa002d0907007a090700c5090700bc
:101888008a040700710407007c040700d8080700d1
:101898001b0607006000b800108e8800218e8800a3
:1018a8006000b800508e8800618e88006000b80023
:1018b800308e8800418e88006000b800708e8800e5
:1018c800818e8800040ea800052ea80095eea800b9
:1018d800054ea800746ea80004003700ae08070083
:1018e800004f78001e4078005d0507007308070068
:1018f8000004e000f9ff3a003a0607005a01070021
:1019080001090700e14f5000f8ff3a0002090700fb
:10191800f9080700100798001e00900010007800d2
:10192800008088000e80e8001080e8001000780031
:10193800108088000e80e8004100200010804000e0
:1019480010007800208088000e80e80062002000e7
:101958001000410010007800308088000e80e800f8
:10196800810020001080400010007800408088002e
:101978000e80e8001080e800100078008000eb007e
:10198800d7fb07003233230033052400b8fd0700d6
:1019980000017800010078008202780000027800d7
:1019a8000200200003582400050078008400780015
:1019b8000000be00cffc0700200798003107980000
:1019c8002e019000be01900000002000812024001c
:1019d800c8fc070000017800010078008202780046
:1019e8000002780002002000030a240005007800a5
:1019f800840078000000be00d0fb0700800178005a
:101a08000101780003007800820078000000be0021
:101a1800d08e8800e18e88000e80e8004200200009
:101a280010004100100078008000eb00acfb0700bc
:101a380032332300330524008dfd070000017800b0
:101a4800010078008202780000027800020020007d
:101a58000358240005007800840078000000be00c8
:101a6800a4fc070020079800310798002e01900079
:101a7800be01900000002000812024009dfc07008a
:101a880000017800010078008202780000027800e6
:101a980002002000030a2400050078008400780072
:101aa8000000be00a5fb0700800178000101780056
:101ab80003007800820078000000be00b08e880025
:101ac800c18e88000e80e800610020001080400070
:101ad800100078008000eb0081fb07003233230000
:101ae8003305240062fd070000017800010078003a
:101af80082027800000278000200200003582400c7
:101b080005007800840078000000be0079fc07001a
:101b180020079800310798002e019000be01900020
:101b2800000020008120240072fc070000017800da
:101b3800010078008202780000027800020020008c
:101b4800030a240005007800840078000000be0025
:101b58007afb070080017800010178000300780013
:101b6800820078000000be00908e8800a18e880058
:101b78001e009000100078008000eb0058fb070062
:101b8800323323003305240039fd070000017800b3
:101b9800010078008202780000027800020020002c
:101ba8000358240005007800840078000000be0077
:101bb80050fc070020079800310798002e0190007c
:101bc800be019000000020008120240049fc07008d
:101bd8000001780001007800820278000002780095
:101be80002002000030a2400050078008400780021
:101bf8000000be0051fb0700800178000101780059
:101c080003007800820078000000be00f08e880093
:101c1800018f88000e80e80082002000100041003b
:101c2800100078008000eb002dfb07003233230002
:101c3800330524000efd070000017800010078003c
:101c48008202780000027800020020000358240075
:101c580005007800840078000000be0025fc07001d
:101c680020079800310798002e019000be019000cf
:101c780000002000812024001efc070000017800dd
:101c8800010078008202780000027800020020003b
:101c9800030a240005007800840078000000be00d4
:101ca80026fb070080017800010178000300780016
:101cb800820078000000be00108f8800218f880005
:101cc800908e8000a18e800002002000031f240057
:101cd800c3fa07000000e00002003c00856ea8007f
:101ce80001003700856ea900b08e8000c18e80008b
:101cf80002002000031f2400b9fa07000000e000da
:101d080002003c00848ea80001003700848ea900e0
:101d1800d08e8000e18e800002002000031f240086
:101d2800affa07000000e00002003c0084aea80003
:101d38000100370084aea900f08e8000018f80007a
:101d480002002000031f2400a5fa07000000e0009d
:101d580002003c0084cea8000100370084cea90010
:101d6800108f8000218f800002002000031f2400b4
:101d78009bfa07000000e00002003c00754ea80036
:101d880001003700754ea900508080008000e800ef
:101d980051808800a100200001017800110009008d
:101da8000200d8008000fd000000e000cffe3a00ed
:101db800d08e8000e18e8000aefa07008040780067
:101dc8008000200001777800b08e8000c18e8000ee
:101dd800a8fa070080407800800020000000e80092
:101de80001777800908e8000a18e8000a1fa07000c
:101df80080407800800020000080e80001777800ab
:101e0800680047000001780031002000000320002e
:101e18009a030700308e8000418e800074fa070014
:101e28000040780080407800b000200001777800fa
:101e3800708e8000818e80006dfa07000040780067
:101e480080407800b00020000000e80001777800aa
:101e58006b004700000178002100200000042000ea
:101e680086030700a1fe37000000fa000cd0bf006f
:101e78000080fb006100b900b200200003002000d0
:101e8800820f5000838f580093003e000006010027
:101e98000b0037001a0037002300370033003700e3
:101ea80037003700460037004a003700590037002e
:101eb8005d0037006d003700710037008100370082
:101ec8000e30ef001030ef000200200003f823006e
:101ed8006000b800a60407006011b8006000b800f0
:101ee800a304070010c0b3000cf0b7007080800096
:101ef800818080000001be000040eb003b0307002a
:101f08007280800083808000803e200001002000d5
:101f1800800f5100818f59007100360020c0b30036
:101f28000cf0b7006e0037000200200003f8230011
:101f380000002000011f2c008d0407006011b8006c
:101f480000002000011f2400890407007080800021
:101f5800818080000001be0020c0b3002303070079
:101f680030c0b3000cf0b700680037003cd0bf00a9
:101f7800e14f50005c003a00670007005a00370044
:101f88000200200003f823000000200001152c00a7
:101f9800770407006011b8006000b80074040700f7
:101fa80070808000818080000001be0040c0b300c6
:101fb8000e03070050c0b3000cf0b7005300370001
:101fc8003cd0bf00e14f500049003a0052000700e2
:101fd800470037000200200003f823006000b80023
:101fe800630407006011b8000000200001152400f8
:101ff8005f04070070808000818080000001be00bf
:1020080060c0b300f902070070c0b3000cf0b7005d
:102018003e0037003cd0bf00e14f500036003a0088
:102028003d000700340037000200200003f82300b9
:1020380000002000011524004d0407006011b800bd
:10204800000020000115240049040700708080006a
:10205800818080000001be0080c0b300e302070059
:1020680090c0b3000cf0b700280037003cd0bf0088
:10207800e14f500022003a002700070020003700f7
:102088000200200003f823000000200001152c00a6
:10209800370407006011b8000000200001152c006b
:1020a8003304070070808000818080000001be003a
:1020b800a0c0b300cd020700b0c0b3000cf0b70059
:1020c800120037003cd0bf00e14f50000e003a002c
:1020d800110007000c0037000c70ef000b003700f0
:1020e800000000000900370000000000070037006a
:1020f8000000000005003700000000000300370062
:10210800000000000100370000000000000000008f
:102118000080fa00000006000200fa000040eb0010
:10212800004f7800908e8000a18e80000200200071
:10213800031f2400aaf907000000e00018003d0072
:10214800b08e8000c18e800002002000831c240015
:10215800a5f907000000e00011003400d08e8000cf
:10216800e18e800002002000031f24009ef9070072
:102178000000e0000a003400f08e8000018f80002b
:1021880002002000031f240097f907000000e00068
:102198000300340020c0b300004f78009d003700d2
:1021a800108f8000218f800002002000c3202400af
:1021b8008bf907000000e00018003d00b08e800099
:1021c800c18e800002002000831c240086f90700cd
:1021d8000000e00011003400d08e8000e18e800005
:1021e80002002000031f24007ff907000000e00020
:1021f8000a003400f08e8000018f80000200200069
:10220800031f240078f907000000e00003003400f1
:1022180020c0b300004f78007e003700108f800088
:10222800218f800002002000031f24006ef90700a0
:102238000000e00018003400908e8000a18e80001d
:1022480002002000031f240067f907000000e000d7
:1022580011003400b08e8000c18e80000200200082
:10226800831c240060f907000000e0000a00340025
:10227800d08e8000e18e800002002000031f240021
:1022880057f907000000e00003003d0010c0b3004c
:10229800004f78005f003700108f8000218f80008a
:1022a80002002000031f24004ff907000000e0008f
:1022b80018003400908e8000a18e8000020020005b
:1022c800031f240048f907000000e0001100340053
:1022d800b08e8000c18e800002002000831c240084
:1022e80041f907000000e0000a003400f08e800089
:1022f800018f800002002000c320240038f9070065
:102308000000e00003003d0010c0b300004f78005b
:1023180040003700b08e8000c18e8000020020008f
:10232800032224002ef907000000e00003003d000e
:1023380030c0b300004f780036003700908e800020
:10234800a18e800002002000031f240024f907004a
:102358000000e0000a003d00d08e8000e18e800081
:1023680002002000031f24001df907000000e00000
:1023780003003d0030c0b300004f7800250037004f
:10238800108f8000218f800002002000c3202400cd
:1023980015f907000000e0001e003400908e800050
:1023a800a18e800002002000c32024000ef907003f
:1023b8000000e00017003400b08e8000c18e80005d
:1023c80002002000031f240007f907000000e000b6
:1023d80010003400d08e8000e18e800002002000c2
:1023e800c320240000f907000000e00009003400c1
:1023f800f08e8000018f800002002000c32024009e
:10240800f9f807000000e000020034000040eb008b
:10241800004f78001e4078000004e00003003a00f6
:1024280020c0b3000df0b700110037001e4078003f
:10243800e24f500003003a0040c0b3000df0b7006f
:102448000b0037001e407800e14f500003003a00af
:1024580060c0b3000df0b700050037001e407800db
:10246800e34f500002003a0080c0b3000df0b700ff
:102478000dd0bf000080fb00c10021009140780012
:102488008180fb008100e900810f500002003200ca
:102498000dd0bf000cf0b700000000000080fa006b
:1024a800000006000400fa00008fbe00200880002b
:1024b8000040a1000050a100200888001e017800fb
:1024c8009e019000001c2e0041c6240009fa070056
:1024d800000178000100780082027800000278008c
:1024e80002f02f00f37724000500780084007800bc
:1024f8000000be00bcf807000000e0008d003400ba
:10250800200880000040a0000050a100200888009a
:102518001e0178009e019000001c2e0041c6240078
:10252800f4f90700000178000100780082027800c1
:102538000002780002002000031024000500780043
:10254800840078000000be00eaf907000001780066
:1025580001007800820278000002780002f02f0063
:10256800f377240005007800840078000000be009e
:102578009df807000000e0005500340020088000a6
:102588000040a1000050a000200888001e0178002b
:102598009e019000001c2e0041c62400d5f90700ba
:1025a80000017800010078008202780000027800bb
:1025b8000200200003282400050078008400780029
:1025c8000000be00cbf90700000178000100780088
:1025d800820278000002780002f02f00f3772400ce
:1025e80005007800840078000000be007ef807002f
:1025f8000000e0001d003400200880000040a0001a
:102608000050a000200888001e0178009e0190005c
:10261800001c2e0041c62400b6f90700000178000e
:102628000100780082027800000278000200200091
:102638000338240005007800840078000000be00fc
:10264800acf90700000178000100780082017800e9
:102658000001780003007800820078000000be00c6
:1026680063f8070010088800400037001e01780052
:102678009e019000001c2e0041c624009df9070011
:1026880000017800010078008202780000027800da
:102698000200200003282400050078008400780048
:1026a8000000be0093f907000001780001007800df
:1026b8008201780000017800030078008200780029
:1026c8000000be004af807001008880027003700fd
:1026d8001e0178009e019000001c2e0041c62400b7
:1026e80084f9070000017800010078008202780070
:1026f8000002780002002000031024000500780082
:10270800840078000000be007af907000001780014
:102718000100780082017800000178000300780049
:10272800820078000000be0031f807001008880019
:102738000e0037001e0178009e019000001c2e003c
:1027480041c624006bf907000001780001007800f9
:102758008201780000017800030078008200780088
:102768000000be0022f807001008880000000000e2
:102778000080fa00000006000400fa00008fbe0086
:10278800f00880000040a1000050a100f008880077
:102798001e0178009e019000001c2e0041c62400f6
:1027a80054f90700000178000100780082027800df
:1027b8000002780002f02f00f3772400050078006b
:1027c800840078000000be0007f807000000e00061
:1027d8008d003400f00880000040a0000050a100e7
:1027e800f00888001e0178009e019000001c2e0051
:1027f80041c624003ff90700000178000100780075
:1028080082027800000278000200200003102400f1
:1028180005007800840078000000be0035f9070044
:102828000001780001007800820278000002780038
:1028380002f02f00f3772400050078008400780068
:102848000000be00e8f707000000e0005500340073
:10285800f00880000040a1000050a000f0088800a7
:102868001e0178009e019000001c2e0041c6240025
:1028780020f9070000017800010078008202780042
:1028880000027800020020000328240005007800d8
:10289800840078000000be0016f9070000017800e7
:1028a80001007800820278000002780002f02f0010
:1028b800f377240005007800840078000000be004b
:1028c800c9f707000000e0001d003400f008800090
:1028d8000040a0000050a000f00888001e01780009
:1028e8009e019000001c2e0041c6240001f907003b
:1028f8000001780001007800820278000002780068
:1029080002002000033824000500780084007800c5
:102918000000be00f7f80700000178000100780009
:1029280082017800000178000300780082007800b6
:102938000000be00aef70700d0088800400037004e
:102948001e0178009e019000001c2e0041c6240044
:10295800e8f807000001780001007800820278009a
:1029680000027800020020000328240005007800f7
:10297800840078000000be00def80700000178003f
:1029880001007800820178000001780003007800d7
:10299800820078000000be0095f70700d008880084
:1029a800270037001e0178009e019000001c2e00b1
:1029b80041c62400cff80700000178000100780024
:1029c8008202780000027800020020000310240030
:1029d80005007800840078000000be00c5f80700f4
:1029e8000001780001007800820178000001780079
:1029f80003007800820078000000be007cf7070022
:102a0800d00888000e0037001e0178009e01900053
:102a1800001c2e0041c62400b6f80700000178000b
:102a28000100780082017800000178000300780036
:102a3800820078000000be006df70700d00888000b
:102a4800000000000080fa00000006000000fa0004
:102a580000002000a13f240092fe070005e1a90024
:102a68000421a9000068a9002068a80005e1a800c1
:102a7800000000000080fa00000006000000fa00d4
:102a880000002000a14724003bff07001fe1a90028
:102a98001e21a9000368a9002368a8001fe1a80057
:102aa800000000000080fa00000006000000fa00a4
:102ab80013e1a90011e1a9001061a8001021a900e3
:102ac800800880000040a1000050a1008008880014
:102ad8000a21ef000621ef007072200070088800bc
:102ae80000e0200060088800204280000000a0006c
:102af8000010a1000020a100204288000108a900c0
:102b08002108a80011e1a800000000000080fa00d8
:102b1800000006000a00fa00200798003107980014
:102b2800420798000040eb00004f78009e40780074
:102b3800e0cfb30000c06800004f78002e0090007e
:102b48004880de00004078009e40780000c06800a1
:102b5800004f78002e009000004078009e407800da
:102b680000c06800004f78003e0090004880de00fa
:102b7800004078009e40780000c06800004f780050
:102b88003e009000004078009e40780000c0680039
:102b9800004f78000000eb00100798000c00370089
:102ba8001e009000e8004700110040001040780027
:102bb8009e40780000c06800004f78000e80e80052
:102bc8008e80e8001108e80090007800110798004e
:102bd8009e0090003e009000808f5000f0ff35006e
:102be8001e4078000080fa00000006000c00fa0081
:102bf800604798004207980053079800ee409000fd
:102c0800014f78004e009000de0090004808de007a
:102c18000100200000407800104798004e00900006
:102c2800de0090004008de0001002000004078002f
:102c3800204798004e009000de0090004809dd0013
:102c48004800de0000007100c808de00004078007f
:102c5800304798004e0090000040780040479800a8
:102c68000e01780051002000100520000300070025
:102c7800000000000080fa00000006001000fa00c2
:102c8800889fbe008a1f7800500798006107980047
:102c9800720798008f0478000f007800000578000c
:102ca80064004700ec004700620020001108410062
:102cb80090017800230798002e0090008000e9001a
:102cc800310798000000e8000000d10080004000b3
:102cd8000f00780081874700600040004007980097
:102ce8000000eb00100798009e0090000e80e8009e
:102cf8000108e80010017800120798004e009000c3
:102d080001004000e1cfb300014878005e00900068
:102d1800c880de001e0190000e80e8000208e8006e
:102d28009001780013079800814078004e009000c9
:102d380002004000014878009e0090000e80e800e4
:102d48000108e80010017800120798005e00900062
:102d5800004178004e0090000100400002487800d1
:102d68006e009000c880de001e0190000e80e80012
:102d78000208e80090017800130798008140780065
:102d88004e00900002004000014878009e0090002c
:102d98000e80e8000108e80010017800120798008a
:102da8006e009000004178004e0090000100400045
:102db800024878000000eb00000f78000d00370093
:102dc8001e007800ee004700910040001e019000b0
:102dd8000e80e8000208e8009001780013079800c8
:102de800914078004e0090000200400001487800b1
:102df8001e0fe8006e0090009e007800808f500043
:102e0800efff35001e0490000e80e8000808e80077
:102e180090007800110798007e019000ee00900065
:102e28005e0090003bff0700804078004e00900055
:102e380008004000014878004e009000ae00900065
:102e4800eb0207008a077800000000008907780075
:102e58004f0578004f04be000080fa00000006000d
:102e68000200fa00004f7800f0808000e30f500065
:102e780021003200e30f500005003e00e10f500032
:102e880010003200e10f500014003e000700370028
:102e9800e50f500026003200e50f50001c003900f5
:102ea800e60f500036003200460037001e4078001a
:102eb800e24f400045003a0010002000f0808800f2
:102ec800420037001e80fb004800dd0000818800ba
:102ed80020002000f08088003f0037001e80fb00a3
:102ee800018180000100400000818800300020003e
:102ef800f0808800380037001e80fb004800dd00a5
:102f08001081880040002000f080880032003700df
:102f18001e80fb00118180000100400010818800a4
:102f28002430ef0050002000f08088002a0037008d
:102f38002081800080007800f0072000808f5000fa
:102f48000d003e00218180000100e80020818800fa
:102f580000142100010040001e48780021818000f3
:102f680010818000808f50001a003500600020001a
:102f7800f0808800170037001e30ef00150037007a
:102f88001e4178006102210082487800118180008a
:102f98000081800002142100defe0700610221008a
:102fa80091407800814f500004003a001181800060
:102fb80000818000021421000a0007001e30ef0083
:102fc800050037001e30ef00030037000000000046
:102fd8000100370000000000000000000080fa0037
:102fe800000006000600fa00000f7800110798009c
:102ff80022079800100520009e007800808f50005e
:1030080005003200200520009e007800808f5000c7
:1030180005003200080037002e00900010407800ac
:1030280008000700040037002e00900010407800c8
:103038002500070000000000000000000080fa00e2
:10304800000006000200fa00004f78001e80fb0016
:10305800e80f50000a003200e80f500003003c005f
:10306800e20f50000c00320011003700ea0f500048
:1030780006003200ee0f50000a0032000c00370044
:1030880080c0b300004f78000c003700a0c0b30028
:10309800004f78000900370020c0b300004f7800c7
:1030a80006003700e0c0b300004f78000300370087
:1030b8000040eb00004f7800000000000000000016
:1030c8000080fa00000006000200fa00004f7800b5
:1030d8001e4078000004e000030032001e40780023
:1030e8000004e000030032001e417800c103210003
:1030f80082487800000000000080fa000000060006
:103108000000fa0002ccbf000000a1000010a100de
:103118000020a10002ecb700009620002060880083
:103128001061800000a0a00000b0a000106188001d
:1031380023cca80023eca8003000200020618800e0
:103148001062800000a0a00000b0a00010628800fb
:1031580043cca80043eca80030002000206288007f
:1031680001eca800000000000080fa000000060042
:103178000800fa00008fbe00220798003307980065
:103188006011b8002e009000be00900094f5070072
:103198000000e00004003a001e0178009e01900043
:1031a800128e8800238e88000200200003f8230076
:1031b8002e009000be00900089f507000000e00096
:1031c80001003200040037001e0178009e019000c3
:1031d800528e8800638e8800000000000080fa008c
:1031e800000006000000fa00889fbe00348e8000b0
:1031f800458e8000108e8000218e80000001be0068
:103208000400be0076f507000000e00014003d0051
:10321800188e8000298e8000348e8000458e8000b4
:1032280060818000718180000001be000400be0042
:10323800cbf50700000178000100780082027800d1
:10324800000278000801be000500780084007800bc
:103258000000be000d010700308e8800418e8800f6
:10326800348e8000458e8000108e8000218e800074
:103278000001be000400be005bf507000000e0008e
:1032880014003400188e8000298e8000348e80004f
:10329800458e800060818000718180000001be0041
:1032a8000400be00a5f507000001780001007800c1
:1032b80082027800000278000801be00050078004c
:1032c800840078000000be00d9000700308e880016
:1032d800418e8800308e8000418e80006011b800d9
:1032e80041f507000000e0001e003400308e800029
:1032f800418e800002002000031c24005cf70700b8
:10330800000178000100780082027800000278004d
:1033180040818000518180000001be0005007800d6
:10332800840078000000be008df5070000017800d9
:10333800010078008201780000017800030078001d
:10334800820078000000be004af50700306188005e
:10335800408180005181800046f507007061880037
:103368001e003700408180005181800041f5070030
:1033780030618800308e8000418e800001f0a2000c
:1033880002002000031c240039f707000001780020
:1033980001007800820278000002780040818000f5
:1033a800518180000001be0005007800840078008b
:1033b8000000be006af507000001780001007800ef
:1033c800820178000001780003007800820078000c
:1033d8000000be0027f5070070618800748e800029
:1033e800858e8000508e8000618e80000001be00b6
:1033f8000400be00faf407000000e00014003d00dd
:10340800588e8000698e8000748e8000858e8000c2
:1034180060818000718180000001be000400be0050
:103428004ff507000001780001007800820278005b
:10343800000278000801be000500780084007800ca
:103448000000be0091000700708e8800818e880001
:10345800748e8000858e8000508e8000618e800082
:103468000001be000400be00dff407000000e00019
:1034780014003400588e8000698e8000748e80009d
:10348800858e800060818000718180000001be000f
:103498000400be0029f5070000017800010078004b
:1034a80082027800000278000801be00050078005a
:1034b800840078000000be005d000700708e880060
:1034c800818e8800708e8000818e80006011b80027
:1034d800c5f407000000e0001e003500708e800073
:1034e800818e800002002000031c2400e0f6070003
:1034f800000178000100780082027800000278005c
:1035080040818000518180000001be0005007800e4
:10351800840078000000be0011f507000001780063
:10352800010078008201780000017800030078002b
:10353800820078000000be00cef4070030628800e8
:103548004081800051818000caf4070070628800c1
:103558001e0037004081800051818000c5f40700bb
:1035680030628800708e8000818e800001f0a20099
:1035780002002000031c2400bdf6070000017800ab
:103588000100780082027800000278004081800003
:10359800518180000001be00050078008400780099
:1035a8000000be00eef4070000017800010078007a
:1035b800820178000001780003007800820078001a
:1035c8000000be00abf40700706288000000000035
:1035d8004f04be000080fa00000006000400fa0054
:1035e800008fbe006011b8001e0078009e00900099
:1035f8007df407000000e000030035001e0078009d
:103608009e009000030037001e0078009e00900086
:1036180001f0a20080017800010178000300780021
:10362800820078000000be000080fa00000006005a
:103638000800fa00008fbe002207980033079800a0
:103648002e019000be0190001e0078009e009000a0
:1036580065f407000000e000030034009e007800d5
:103668001e00900002003700ae0090003e0090005f
:10367800810178000001780003007800820078005a
:103688000000be000080fa00000006000800fa00f2
:10369800008fbe0022079800330798002e01900083
:1036a800be0190001e0078009e0090004cf40700b8
:1036b8000000e00003003d009e0078001e0090001e
:1036c80002003700ae0090003e00900081017800b3
:1036d8000001780003007800820078000000be0036
:1036e8000080fa00000006000c00fa00008fbe00ff
:1036f8002207980033079800440798005507980058
:103708004e019000de0190001e0078009e0090009f
:1037180035f407000000e000040034004e0190007a
:10372800de019000028fbe000a0037002e019000d3
:10373800be0190001e0078009e00900028f407004b
:103748000000e00003003d002e019000be01900043
:10375800028fbe009e0078001e0090008101780054
:103768000001780003007800820078000000be00a5
:103778000080fa00000006000400fa00008fbe0076
:10378800b2fd2000930424001e0078009e009000e3
:1037980058f50700000178000100780082027800df
:1037a800000278000200200043332400050078005e
:1037b800840078000000be002df6070000017800a4
:1037c800010078008200780081017800000178000b
:1037d80003007800820078000000be000080fa0034
:1037e800000006000400fa00008fbe00b2fd2000b1
:1037f800930424001e0078009e0090001cf6070029
:103808000001780001007800820278000002780048
:10381800020020004333240005007800840078006b
:103828000000be0033f507000001780001007800b1
:103838008200780081017800000178000300780098
:10384800820078000000be000080fa000000060038
:103858000000fa008181800090818000808f5000f4
:103868000400350081818000908180000080500034
:1038780005003700918180008081800080805000a1
:1038880000082000010050000080fa000000060037
:103898000000fa00eeff070080007800f007200023
:1038a800010050000080fa00000006000200fa0043
:1038b80080818000000fe800f00720009e0078005b
:1038c800808f5000020034000000eb00000f7800e9
:1038d800918180001e0078000080680000f0a70039
:1038e8000000ea000000e9004f00de000040780018
:1038f8000080fa00000006000000fa0034d0bf0083
:103908000080fa00000006000400fa002047980032
:1039180080818000000fe800f00720009e007800fa
:10392800808f5000020034000000eb00000f780088
:10393800908180009e007800808f500002003a003d
:103948000040eb000800370081818000000421005e
:1039580001004000ae409000014878009e007800c9
:103968008181880010c0b3000080fa0000000600c2
:103978000200fa009181800000042100010040004b
:10398800104f7800908180000000e8009081880046
:1039980091818000f0072000808f500001003400e2
:1039a8003230ef001e4078000080fa000000060068
:1039b8000200fa0000000000101180004900de003b
:1039c800614060000004e000fbff3a0010c0b30053
:1039d80034f0b700e6ff0700004f78001e80fb00b8
:1039e80020118800000000000080fa000000060096
:1039f8000600fa001007980021079800a4ff0700a6
:103a0800ae009000808f500012003c000000eb00d8
:103a1800000f7800060037001e0078008e80e8004e
:103a28001100400010407800b7ff07001e0fe800a3
:103a38002e0090009e007800808f5000f6ff350021
:103a4800adff07000004e00003003a00d8ff0700bc
:103a580001003700000000000080fa0000000600a6
:103a68000000fa00b1818000c0818000808f500082
:103a780004003500b1818000c081800000805000c2
:103a880005003700c1818000b0818000808050002f
:103a980000082000010050000080fa000000060025
:103aa8000000fa00eeff070080007800f007200011
:103ab800010050000080fa00000006000000fa0033
:103ac800b1818000c08180000080680000f0a700fc
:103ad8000000ea000000ea004f00de000040780025
:103ae8000080fa00000006000200fa00b0818000a1
:103af800000fe800f00720009e007800808f50003b
:103b0800020034000000eb00000f7800c181800043
:103b18001e0078000080680000f0a7000000ea009e
:103b28000000e9004f00de00004078000080fa0045
:103b3800000006000400fa0020479800b0818000c9
:103b4800000fe800f00720009e007800808f5000ea
:103b5800020034000000eb00000f7800c0818000f4
:103b68009e007800808f500008003200b1818000ec
:103b7800000c210001004000ae4090000148780090
:103b88009e007800b1818800010037000000000025
:103b98000080fa00000006000200fa00b1818000ef
:103ba800c0818000808f500002003a000040eb0086
:103bb8000d003700c1818000000c21000100400089
:103bc800104f7800c08180000000e800c0818800a4
:103bd800c1818000f0072000808f50000100340070
:103be8003830ef001e4078000080fa000000060020
:103bf8000000fa0021e3a9002143a8000019800071
:103c08000080a1000090a100001988002043a900ad
:103c1800001980000050a0000060a0000070a00003
:103c2800001988001019800000d0a10000e0a10050
:103c380000f0a100101988002343a8001019800083
:103c48000080a1000090a1001019880011198000bf
:103c580030f82f00008060000040a0001019880094
:103c68002203a9002223a90025e3a900f0c0b3007c
:103c780024e3b70021198000f00f2e008080600037
:103c880000f0200001007000201988003303a9000b
:103c98001e0ea8001f0ea8001f2ea8001f4ea80069
:103ca8001f6ea8003003a8003103a8003123a80024
:103cb8003143a8003163a8004119800000fe2f009d
:103cc800008060004019880028e3a90001a8a90025
:103cd80021a8a80021e3a800000000000080fa0045
:103ce800000006000000fa002023a80000000000e1
:103cf8000080fa00000006000000fa00601e2100a3
:103d08000080fa00000006000000fa003bd0bf0067
:103d18000080fa00000006000000fa003b70ef0087
:103d2800000000000080fa00000006000000fa0011
:103d3800817420009140780000ccb30000c060007e
:103d48007041b30048e7b700313a800000e02f0027
:103d5800808060008005200001007000303a8800f3
:103d6800203a80000060a1000070a100203a88007d
:103d7800213a800000fe2f00008060000000a000b3
:103d8800203a880012c0b30080c7b300a1c9b300ad
:103d9800337420008049780081497800824978008e
:103da800103a800000407800004178000204a0002a
:103db80060c4b30071c5b300237420008049780043
:103dc800814978008249780000000000103a80009c
:103dd8004c00de0067406000e14f5000fbff3a00f6
:103de8005927a800c03a80000000a0000010a100d8
:103df8000020a100c03a88005ac7bf000000a000f8
:103e08000010a0000020a0005ae7b700c03a8000c8
:103e18000050a1000060a0000070a000c03a880017
:103e280059a7a80059e7a80000000000c03a800080
:103e38004e00de0061406000e14f5000fbff3a0099
:103e480000000000103a80004500de00614060007c
:103e5800e14f5000fbff3a00000000000080fa002c
:103e6800000006000000fa000e2eef001e2eef00e4
:103e78003e2eef002e2eef004e2eef006e2eef009e
:103e8800808ea90080cea90080aea900816ea9000d
:103e9800714ea90091eea900000ea900012ea900fb
:103ea800014ea900706ea9000136800000f82f00ad
:103eb8008080600010062000010070000036880035
:103ec80001368000f00f2800808060000000260086
:103ed8000100700000368800e135800000f82f00ee
:103ee800808060006004200001007000e0358800d8
:103ef800e1358000f00f2800808060000050240029
:103f080001007000e03588001800070021368000a5
:103f180000f82f00008060002001b30020368800e0
:103f28008134800000fc2f00008060000000a000a9
:103f38008034880003000700000000000080fa00b9
:103f4800000006000000fa0021742000620420002e
:103f580073052000824878008348780042c7a8008b
:103f6800000000000080fa00000006000000fa00cf
:103f78002174200062042000730520008248780024
:103f88008348780042c7a900000000000080fa00ba
:103f9800000006000000fa002002a90000118000bd
:103fa8000010a1000020a1000011880020a2a90093
:103fb8002062a800100820004011880023a2a90050
:103fc80023e2a9000188a9002188a8001011800017
:103fd8000060a1000070a100101188000168a9000c
:103fe8002168a80021e2a8002342a80000000000e0
:103ff8000080fa00000006000600fa00100798008a
:10400800210798000040eb00004f78000040eb00cb
:10401800004f7800110037000000000010118000e8
:104028004900de00614060000004e000fbff3a0048
:104038009e0090000e80e8000108e800100178005a
:1040480012079800114078000080fb0020118800ba
:104058001e4078000040e800004f78001e80fb00fa
:10406800ae009000808f5000ebff3c000000000085
:084078000080fa0000000600c0
:020000040000fa
:10408000001000000e000000800000000e10000074
:104090000e00000080000000c0110000260000009b
:1040a00080000000281000000800000082000000ce
:1040b0000000480042804f00c3470000e6110000a6
:1040c0000c000000800000003a1000000200000018
:1040d0008000000040100000800000008000000010
:1040e000301000000600000080000000c01000003a
:1040f0008000000080000000361000000400000076
:1041000080000000401100008000000080000000de
:104110003c100000020000008200000001000000ce
:104120001c1000000c000000800000003e10000089
:0c41300002000000800000000000000001
:020000040000fa
:0200000401f009
:04000800cfffff0027
:020000040000fa
:0200000401f009
:04000c00f9ffff00f9
:020000040000fa
:0200000401f009
:040010005bffff0093
:020000040000fa
:0200000401f009
:040014007fffff006b
:020000040000fa
:0200000401f009
:04001800cfffff0017
:020000040000fa
:0200000401f009
:04001c00deffff0004
:020000040000fa
:0200000401f009
:04002000cfffff000f
:00000001FF
