:020000040000fa
:080000000002040000000000f2
:020000040000fa
:0400080004040000ec
:020000040000fa
:04000c0004040000e8
:020000040000fa
:0400100004040000e4
:020000040000fa
:0400140004040000e0
:020000040000fa
:0400180004040000dc
:020000040000fa
:04001c0004040000d8
:020000040000fa
:0400200004040000d4
:020000040000fa
:0400240004040000d0
:020000040000fa
:0400280004040000cc
:020000040000fa
:04002c0004040000c8
:020000040000fa
:0400300004040000c4
:020000040000fa
:04003400fa020000cc
:020000040000fa
:0400380004040000bc
:020000040000fa
:04003c0004040000b8
:020000040000fa
:0400400004040000b4
:020000040000fa
:0400440004040000b0
:020000040000fa
:040048005e03000053
:020000040000fa
:04004c0004040000a8
:020000040000fa
:0400500004040000a4
:020000040000fa
:04005400ba030000eb
:020000040000fa
:040058008e03000013
:020000040000fa
:04005c006803000035
:020000040000fa
:040060000404000094
:020000040000fa
:040064000404000090
:020000040000fa
:04006800040400008c
:020000040000fa
:04006c000404000088
:020000040000fa
:040070000404000084
:020000040000fa
:040074000404000080
:020000040000fa
:04007800040400007c
:020000040000fa
:04007c000404000078
:020000040000fa
:040080000404000074
:020000040000fa
:040084000404000070
:020000040000fa
:04008800040400006c
:020000040000fa
:04008c000404000068
:020000040000fa
:040090000404000064
:020000040000fa
:040094003203000033
:020000040000fa
:04009800040400005c
:020000040000fa
:04009c000404000058
:020000040000fa
:0400a0000404000054
:020000040000fa
:0400a4000404000050
:020000040000fa
:0400a800040400004c
:020000040000fa
:0400ac000404000048
:020000040000fa
:0400b0000404000044
:020000040000fa
:0400b4000404000040
:020000040000fa
:0400b800040400003c
:020000040000fa
:0400bc000404000038
:020000040000fa
:0400c0000404000034
:020000040000fa
:0400c4000404000030
:020000040000fa
:0400c800040400002c
:020000040000fa
:0400cc000404000028
:020000040000fa
:0400d0000404000024
:020000040000fa
:0400d4000404000020
:020000040000fa
:0400d800040400001c
:020000040000fa
:0400dc000404000018
:020000040000fa
:0400e0000404000014
:020000040000fa
:0400e4000404000010
:020000040000fa
:0400e800040400000c
:020000040000fa
:0400ec000404000008
:020000040000fa
:0400f0000404000004
:020000040000fa
:0400f4000404000000
:020000040000fa
:0400f80004040000fc
:020000040000fa
:0400fc0004040000f8
:020000040000fa
:0401000004040000f3
:020000040000fa
:0401040004040000ef
:020000040000fa
:0401080004040000eb
:020000040000fa
:04010c0004040000e7
:020000040000fa
:0401100004040000e3
:020000040000fa
:0401140004040000df
:020000040000fa
:0401180004040000db
:020000040000fa
:04011c0004040000d7
:020000040000fa
:0401200004040000d3
:020000040000fa
:0401240004040000cf
:020000040000fa
:0401280004040000cb
:020000040000fa
:04012c0004040000c7
:020000040000fa
:0401300004040000c3
:020000040000fa
:0401340004040000bf
:020000040000fa
:0401380004040000bb
:020000040000fa
:04013c0004040000b7
:020000040000fa
:0401400004040000b3
:020000040000fa
:0401440004040000af
:020000040000fa
:0401480004040000ab
:020000040000fa
:04014c0004040000a7
:020000040000fa
:0401500004040000a3
:020000040000fa
:04015400040400009f
:020000040000fa
:04015800040400009b
:020000040000fa
:04015c000404000097
:020000040000fa
:040160000404000093
:020000040000fa
:04016400040400008f
:020000040000fa
:04016800040400008b
:020000040000fa
:04016c000404000087
:020000040000fa
:040170000404000083
:020000040000fa
:04017400040400007f
:020000040000fa
:04017800040400007b
:020000040000fa
:04017c000404000077
:020000040000fa
:040180000404000073
:020000040000fa
:04018400040400006f
:020000040000fa
:04018800040400006b
:020000040000fa
:04018c000404000067
:020000040000fa
:040190000404000063
:020000040000fa
:04019400040400005f
:020000040000fa
:04019800040400005b
:020000040000fa
:04019c000404000057
:020000040000fa
:0401a0000404000053
:020000040000fa
:0401a400040400004f
:020000040000fa
:0401a800040400004b
:020000040000fa
:0401ac000404000047
:020000040000fa
:0401b0000404000043
:020000040000fa
:0401b400040400003f
:020000040000fa
:0401b800040400003b
:020000040000fa
:0401bc000404000037
:020000040000fa
:0401c0000404000033
:020000040000fa
:0401c400040400002f
:020000040000fa
:0401c800040400002b
:020000040000fa
:0401cc000404000027
:020000040000fa
:0401d0000404000023
:020000040000fa
:0401d400040400001f
:020000040000fa
:0401d800040400001b
:020000040000fa
:0401dc000404000017
:020000040000fa
:0401e0000404000013
:020000040000fa
:0401e400040400000f
:020000040000fa
:0401e800040400000b
:020000040000fa
:0401ec000404000007
:020000040000fa
:0401f0000404000003
:020000040000fa
:0401f40004040000ff
:020000040000fa
:0401f80004040000fb
:020000040000fa
:0401fc0004040000f7
:020000040000fa
:0402000004040000f2
:020000040000fa
:0402040004040000ee
:020000040000fa
:0402080004040000ea
:020000040000fa
:04020c0004040000e6
:020000040000fa
:0402100004040000e2
:020000040000fa
:0402140004040000de
:020000040000fa
:0402180004040000da
:020000040000fa
:04021c0004040000d6
:020000040000fa
:0402200004040000d2
:020000040000fa
:0402240004040000ce
:020000040000fa
:0402280004040000ca
:020000040000fa
:04022c0004040000c6
:020000040000fa
:0402300004040000c2
:020000040000fa
:0402340004040000be
:020000040000fa
:0402380004040000ba
:020000040000fa
:04023c0004040000b6
:020000040000fa
:0402400004040000b2
:020000040000fa
:0402440004040000ae
:020000040000fa
:0402480004040000aa
:020000040000fa
:04024c0004040000a6
:020000040000fa
:0402500004040000a2
:020000040000fa
:04025400040400009e
:020000040000fa
:04025800040400009a
:020000040000fa
:04025c000404000096
:020000040000fa
:040260000404000092
:020000040000fa
:04026400040400008e
:020000040000fa
:100400008f3b21000eff27000e0188000000000036
:10041000000020000000e000020032000001200087
:100420002002880014000700f90007000000e00027
:1004300003003a0040d822000100200002003700eb
:100440000000200001002000810f70000100320038
:100450000f000700000020000000e0000200320052
:1004600000000200000000007a11020000000000fd
:100470000040da000000fe00200020000000e00044
:1004800002003200100020009001880000000600e9
:10049000a1028800800478000000eb001f003700f4
:1004a000e284440054a0b4009905ba00e2844400f8
:1004b00054a0b4009906ba00e284440054a0b400e9
:1004c0000006eb00476fde00fd07b200ae018800ba
:1004d000636ce10003003a000ad801000000eb0061
:1004e0000e003700606ce10008003a00004deb00a0
:1004f0000a05e800020039003420ec000af0a000f0
:100500008b05e900f9ff3e00040037006168e10057
:10051000010032000086eb000b00070019c7ba008b
:100520000e04e0001905ba0003003a000a00e000da
:10053000dbff3a0000000600fe07b200ae028800b2
:100540008a047800f5ff37000cd0a300e20f4d00bd
:100550001c003b0089027800354dba000a05e8000e
:10056000020039003420ec000af0a0008b05e900fd
:100570000f003200254dba000a05e80002003900dc
:100580003420ec000af0a0008b05e90008003200de
:100590000c00e0000600320015cdba000a05e800a4
:1005a000020039003420ec000af0a0008b05e900bd
:1005b0008984e80054a0b4000b00e000e2ff3a0098
:1005c000000006009902ba00055d78008b05e9007d
:1005d000f7ff3200c82ade00055d78008b05e900d0
:1005e000f3ff32000c00e000f1ff320019ddba0029
:1005f000eeff37003600f800809fbe00829fbe00ed
:10060000849fbe00869fbe000000fa000068a9001b
:10061000770d070057140700008080000000e800f5
:100620000080880001808000301f2000808f5000f3
:10063000040034000030ef006e0b07009e0b070033
:10064000310a0700000000000080fa004f03be00de
:100650004f02be004f01be004f00be003600f90041
:10066000004006003600f800809fbe00829fbe005a
:10067000849fbe00869fbe000000fa000368a900a8
:10068000108080002180800061004000e0804800f0
:100690001080880021808800920807000000000078
:1006a0000080fa004f03be004f02be004f01be00a3
:1006b0004f00be003600f900004006000000fa00be
:1006c0000108a900000000000080fa0000400600b8
:1006d000801f78000000fa0001a8a900001880001f
:1006e000609d880010188000709d88002018800090
:1006f000809d880030188000909d88004018800000
:10070000a09d880010c0b30051f0b70000000000a9
:100710000080fa004f007800004006003600f80024
:10072000809fbe00829fbe00849fbe00869fbe0049
:100730000000fa000188a900218280001082800058
:10074000808f5000020032003d1307000100370087
:100750004670ef00000000000080fa004f03be006a
:100760004f02be004f01be004f00be003600f90030
:10077000004006003600f800809fbe00829fbe0049
:10078000849fbe00869fbe000200fa000168a90097
:10079000101180004200de00614060000004e000b3
:1007a000010032002242a900101180000000d10097
:1007b000614060000004e000060032002222a9002f
:1007c0000400370030118000004f78001e40780090
:1007d0007c13070010118000004078006140600029
:1007e000e14f5000f7ff3200000000000080fa00e7
:1007f0004f03be004f02be004f01be004f00be00bf
:100800003600f900004006000040da000000fe005b
:100810000000050014002000ad033700f4ff2f0096
:10082000ab0337000001be003f0007000470a700c3
:1008300003f0a1006509b100160032000d0035007b
:100840006828e10006003500f0ff2f00f1ff2700c7
:100850000300e00013003b00010028000000050039
:1008600000004000818048008502e900fcff3a005a
:1008700008003700f88f420002003c008000eb00c7
:10088000000005008100d1000080d3008502e8004f
:10089000fcff3a000300e00002003b006000100093
:1008a000e0801800000006000001be001e000700e6
:1008b0000470a70003f0a10003f8a30013003a009e
:1008c0006509b10010003200090035006928e10017
:1008d0000200350001002800000005000000400073
:1008e000818048008502e900fcff3a000000060014
:1008f000f88f4200050035008100d1000080d30050
:100900008502e800fcff3a00000006008000eb00d2
:10091000000005004f89de00820178008703370060
:100920006011b80095033700c70ade00f107b20076
:10093000f50fb20008003200e1cf420002003200a1
:100940000170a00024000500810f7000010032003a
:100950000408050044000500810f700002003a0001
:10096000140005008502e9000000400081c0480035
:10097000fcff3b000170a0002400050007f82700e1
:10098000078361000638e10004003a00f707200001
:10099000878361008703710001003a0003f0a20021
:1009a000889fbe008a9fbe008c9fbe00470ade0063
:1009b0000480a100c71ade000580a10007002800fe
:1009c0000785600087856100f70f20000720e100a0
:1009d0009e0032000728e1009c00320001067800ea
:1009e0000400e000b4003200f707200087806000b8
:1009f0000170a0000500e000c0003200f7072000f1
:100a0000878161000370a000050652000f003a00c4
:100a10000b50e1000b0032000308e10002003a0035
:100a20000200e1007e00320002045000838458007e
:100a3000040031000001fd008101fd008402fd0081
:100a40008a05fd006044b800210037000520e10060
:100a500005003d000001fd008101fd008402fd0054
:100a60008a05fd00050652007a60e10005003500a8
:100a70000170a1004722dd00848070008a80700030
:100a8000630037006044b800ef02660007ff2f00e4
:100a9000070666000500e00006003400f08312003f
:100aa0008714dd000511de00071bdd000601710063
:100ab0008519de007060e10005003500090478004a
:100ac00082047800030178008001eb007006560074
:100ad0000b50e10003003a00020040008380480010
:100ae0000400370060041400e0841c000200580079
:100af000838058000188a300060032008100d100e5
:100b00000080d3008984d3000884d3000402e80065
:100b1000270037000178a30025003a000100e0001b
:100b2000030032008186cf00698656000a00370034
:100b30008c0020000000e00004003a00090078006a
:100b4000880478000004eb00700252008086cf0019
:100b50000d0646000c06e9007060e1000600350055
:100b60008000780009007800880478000004eb0019
:100b700070065600700252000c00e0000c003400b9
:100b80008c08dd00f00316000703de00868070008d
:100b90000c00dd00074bde00060070008c4cdd0011
:100ba0000743de00868474000c44dd000c02520012
:100bb0006120e1002000350061016000070028008d
:100bc00087816400f7ff27008783640007037400b0
:100bd0000300e000060032008203730004003200cc
:100be0000000e800e08048000188a3000e003a0001
:100bf000f70f20000720e1004a003d000170a1002e
:100c00004722dd00810072008a8070000000be0073
:100c10004f06be004f05be004f04be000000060098
:100c20006000b800faff37008100d1000080d300d7
:100c30000402e800eeff3700040178008901740027
:100c4000a10107008a807000f1ff3700f70107005b
:100c5000070278000001fd008101fd00f30107009b
:100c600087027800850372000778a3000400320031
:100c70000001fd008101fd0006020700e4ff3700ce
:100c8000850362000768a300080032000b50e100f2
:100c900003003200f0ff2f00f1ff2700dcff3700d8
:100ca0000001fd008101fd00d9ff37000468a300a9
:100cb000d7ff3200faff3700f8ff27008883600073
:100cc0000b003a000000e00009003a0083036400d2
:100cd00082837300020032000200be00ccff3700a6
:100ce0000b50e100ceff3a000200be00c8ff370003
:100cf00014002000810064003eff3700f8ff270049
:100d00008883610004003a000200e00002003a001b
:100d10008c007800beff37001500200083016400be
:100d200039ff370001f8270000002000810075001e
:100d3000b7ff3700889fbe008a9fbe008c9fbe0011
:100d40001b0020000202be00058668000600280085
:100d5000060666004709de00f20fb200820032008c
:100d60000243e80080003200c729de00f30fb20022
:100d70007d0032000343e8007b003200f107b2003f
:100d80000170a000f507b2000570a000c708dd00e3
:100d90004903de00868070004700dd00c72add00c1
:100da0004923de00868272004722dd0003055100e0
:100db0000403500085835800030031000000400008
:100dc000818048000a05e9008c1f78008a9fbe00d8
:100dd00004005000858058000402420085824a00c9
:100de00000004000818048000005eb000004be00c8
:100df0006033b8000406be000d48e1005600310023
:100e0000110009004dccd8000c01b8000d02b8004b
:100e10008481410060824a008283530003045c00a5
:100e200084845c0060055d000a00e00025003a0053
:100e3000800578000d40e10049003100880078000d
:100e400007007800110009004d88d8000c01b80097
:100e50000d02b8008481410060824a0060031100e5
:100e600083835b0004045c00e0845c000900e00014
:100e700021003a004f01be000300e0002b003200c9
:100e8000e3016000070673008c81710001003200ed
:100e9000640070004200de004e5edd000c00700059
:100ea000c258de0001e0a00083010700cf017800f6
:100eb000818071004f06be004f05be004f04be008a
:100ec000000006008c8343000d044c00e0844c00bd
:100ed00060054d000000e9000a00e000d4ff320088
:100ee0008c8343000d044c00e0844c0060054d00f1
:100ef0000000e900ceff37000c0343008d834b0058
:100f000060044c00e0844c000000e9000900e000af
:100f1000d8ff32000c0343008d834b0060044c006b
:100f2000e0844c000000e900d2ff37004200de0000
:100f30004e5edd000c007000c258de0001e0a00033
:100f4000cf0178000300e000daff320060001000fb
:100f5000e0801800d7ff3700f0ff2f00aaff37000e
:100f6000f0ff2f00b9ff37000404be002f01070077
:100f7000870678000004fd008104fd002b010700b6
:100f8000078366000678a300030032000960a7000b
:100f90000800be002c0037000d78a30002003200cc
:100fa0000800be00280037000778a30026003a009a
:100fb00001f0a10009f0a1000668a30003003200bf
:100fc000f1ff2700f0ff2f00baff37000d68a300e4
:100fd000030032000800be008c807000b5ff3700af
:100fe0000768a30007003a000648a3000300320088
:100ff000f1ff2700f0ff2f00aeff37000d48a300e0
:10100000030032006000b8008c807000a9ff370038
:101010000748a3000400320001f827000000200068
:101020008c807000a3ff3700760107000004fd00ec
:101030008104fd0002057800720107000802be006d
:101040008a01780059ff37000160a00012022000d9
:10105000a282880097ff37000100e00012003200f2
:101060000500e00010003200889fbe008a9fbe008d
:101070008c9fbe000006eb0001f8a30003003200c5
:1010800060001000e08018000cf0a00005f8a3003c
:101090000300320060021200e0821a000cf0a2008d
:1010a0008005eb0041ff37006000b800020005003a
:1010b000038368000700280007036300470ade0077
:1010c0000480a100c71ade000580a100f70f2000f0
:1010d0000720e100420032000728e1004000320012
:1010e000889fbe008a9fbe008c1f7800f107b20067
:1010f000f307b2000400e000640032000170a000b9
:101100000500e000680032000370a0008505420081
:10111000eb07b1000204b8000302b8008484440065
:1011200060854a00020ab800848444000a854a00a7
:10113000030ab80004054500040033000804d00089
:101140008984d2000a85d2008b05e9006158e1004c
:101150003d00350002102000090161000308200055
:1011600089816100f7072000878364000886730087
:10117000c84cde00c853dd00878474004855de008b
:101180000300e00006003200820376000400320013
:101190008904e80060054d000a88a3000c003a00ad
:1011a000f70f20000758e10044003d000a70a1003d
:1011b000c75ddd000a8575008a00730009007800ac
:1011c0004f0678004f05be004f04be000000060029
:1011d0000a05d1008984d3008b05e800f0ff3700b1
:1011e000881f780006047800900007000702780046
:1011f0000001fd008101fd008c00070087027800de
:10120000850372000778a300050032000001fd008d
:101210008101fd009f0007004f04780000000600d8
:10122000850372000748a30003003200f0ff2f007f
:10123000f1ff2700f8ff37000000200001f8270029
:1012400088807000f4ff3700880178004848dd008e
:10125000808171004848de00c850dd000100700048
:10126000c850de00060478000b0178001600070065
:1012700088807000d2ff37000500e00005003200d2
:10128000170020003a0007009dff3700810370001f
:10129000f9ff3a00860078004f0678004f05be003f
:1012a0004f04be000000050083037100f9ff320007
:1012b000270020002e00070094ff370001f82700c8
:1012c00086807000f4ff37000100e0002600320045
:1012d000610111007810e10023003c006022b80099
:1012e0007010e100040035008002780001007800f1
:1012f0008000eb00700151000200e00009003400a2
:1013000070031100062add00822ade008603dd005c
:10131000878272000200de00860bdd00070070008d
:101320008208de0084817100f4ff270004826200dd
:1013300084817100040028008482620061026000e0
:1013400005f0a600000006000482710007003200cc
:101350000000e800e0804800000006000002be0037
:101360006000b800efff37006000b8000000060022
:10137000889fbe000004eb006138e10016003a00cf
:101380000100e00008003a00c800de004800dd006f
:10139000880020000100e00003003a00c800de00e1
:1013a0004800dd00680444008184cf00e9845400d3
:1013b000060034008908dd00f08314008703de0096
:1013c000878070000900dd000904440061021400f8
:1013d0004f04be00000006000300e00008003a00d1
:1013e000c811de004811dd00880020000300e00085
:1013f00003003a00c811de004811dd006804440013
:101400008384cf00e9845400060034008919dd008c
:10141000f08314008713de00878171000911dd005d
:1014200009044400e1021400e9ff3700270020000e
:1014300001f0a70017002000470bde00f60fb200f6
:10144000040032000643e8000a0032004702b300fd
:101450000000060001037800f607b20006037000e2
:1014600002003a000703b300000006008702b30041
:101470000000060001037800f607b20006037000c2
:10148000020032000770a000000006000760a00004
:10149000000006000478a300040032000578a300d1
:1014a000030032000168a30001003a000200be0000
:1014b0000160a000000006008101700027003200da
:1014c0008002eb0001f8a30003003200600010006e
:1014d000e080180015002000f407200002024200fe
:1014e00020003400f703200087036000060420007a
:1014f0000003630002082000000161004700de00d5
:10150000c909dd0000807100c708de000600e000a8
:101510000800320087037100060032001000b0009e
:101520000180b0000188a30002003200c108de0083
:101530000402e800f107b200f30f20000320e100ed
:1015400003003d004722dd008100720029003700c2
:1015500001f827000000eb00260037006000b8000b
:1015600000000600680212007f20e1000200340043
:101570006000b8001f0037006011b8007020e10063
:101580000400350080017800010078008000eb0045
:10159000700252000400e00009003400f003120061
:1015a0000719dd008419de000703dd008681710064
:1015b0000400de00070bdd00060070008408de007a
:1015c000f7ff27008383630087037100060028006c
:1015d00003036300070032000700e00003003a0045
:1015e0006101600002817300020032001000b0004f
:1015f0000180b0000500a6000000060001f0a00078
:10160000000006004f0ade004709de00f107b200c5
:10161000f20fb2000b003200f207b1000170a0001f
:10162000c708dd00c901de00838070004700dd00cf
:101630000400a6000000060060001000e080180012
:1016400000000600810f700001003a000000060053
:101650008182cf000500e00010003e008082cf00b4
:10166000ee8242007028e1000400390007003e00cd
:10167000800078000000eb000e003700708312003d
:101680008600de000500dd000a003700708352008e
:101690008600dd000000eb0006003700e282520009
:1016a0008508dd00708312000603de00868070006e
:1016b0000500dd007507b0000501ea000400a60082
:1016c0000000060060001000e08018000000060026
:1016d000889fbe008a9fbe00841f78007c000700a0
:1016e0004f00780011003300f0ff2f00838f6c0053
:1016f00006003b00040565000a00a700080037004b
:1017000009f0a6001000200008003700820f5400e6
:10171000838f5c00030039001000200001003e00b0
:101720000000200009f0a7000000ea004f05be00fd
:101730004f04be000000e00000000600881f780093
:10174000030478000300e00007003d006000100083
:10175000e080180060011900e081190002003b00e0
:1017600001f02d00030037000400070008f0a70077
:1017700001f0a0004f04780000000600889fbe0022
:101780008a9fbe0000827000040271000482710012
:10179000260032000004be000200be006011b80046
:1017a0006b092000950220000182cf000a00390059
:1017b0000541b1000082cf00070039000541b100aa
:1017c0000982cf00040039000541b1000882cf0032
:1017d000010039000541b1000542520012003200fb
:1017e0000a003b0082817100610164008100d10028
:1017f0000080d3008984d3000884d3008b05e800df
:101800000442e800f7ff3a000700370008044400ec
:1018100089844c0000004800818048008b05e90065
:101820000442e900f9ff3a00030007004f05be003b
:101830004f04be00000006008100200061805500ba
:101840000b003d000b00200061fe2f000100e100b5
:101850001d00340082817100610164008904d1009f
:101860000884d3000000e800faff3a00710020006d
:101870006100640003007000020060000900320093
:1018800061044400e0844c000988a5000500320092
:101890008b05e8006808e10002003a008904d100e5
:1018a0000884d300f20f20000258e10005003d003b
:1018b000c75ddd00f907b200898075000800780077
:1018c000000006000bf827008b00780000000500e0
:1018d0000004be0014fc07000003be000405be00a7
:1018e0000200be0010fc0700844f750000000600d7
:1018f0000400fa00000178008101780003f0a100e3
:10190000a4fd200095f42300840f5100858f590019
:101910000e003e00f4ff2f00f5972300840f5100c6
:10192000858f59003a003e000200200003b82700ce
:101930001bfc0700e0bf9f00f1bf9f0000002000dc
:1019400001f823000080fa00000006004f0ade00c4
:1019500005002000163d2500b7072400860f510022
:10196000878f59001b003e0036be2c006701240003
:10197000860f5100878f59000a003600b2fd200003
:10198000930424000400e0000400320004fc07007b
:101990005b01070001f0a200eaff3700f7fb070038
:1019a000fbff37000400e00005003200b2fd20001c
:1019b00093fc2300fafb0700dc010700e1ff37007e
:1019c0000001be00b0fd200091fc2300ebfb0700ee
:1019d000f9ff3700561d2300270e2400860f510003
:1019e000878f590014003e00f6dd2e00f70a240010
:1019f000860f5100878f590009003600b2fd200084
:101a0000930c24000400e00003003200e4fb070014
:101a10003b010700cbff3700d8fb0700fcff370076
:101a20000400e0000100320001f0a20042be2c00e0
:101a300063092400e5ff3700f4ff2f00f5f72700c6
:101a4000840f5100858f5900040036000001be004c
:101a50000200be00c9fb0700baff370064815700cf
:101a60005b010700630160006fb89700ffb8970043
:101a7000e10f510005003200e20f5100c4ff3200b7
:101a80000200e000ccff3a00e1ff370001f0a200c5
:101a9000c9ff37000400fa00889fbe008a9fbe007d
:101aa0000203410083834900e00f5300e08f5b0095
:101ab00010003200020278008302780005f0a100d5
:101ac0000800200009f82700880f5200898f5a006b
:101ad00008003e00a0bf9f00b1bf9f00470dde0081
:101ae0000b002000f40f20000a056200840f55004f
:101af00007003a006efd07000001be008dfc0700e4
:101b00004f05be004f04be000080fa000000060032
:101b10000002400081824800840f5300858f5b00e3
:101b200006003900840f5300858f5b00f4ff3a00f4
:101b30006011b8005efd0700f1ff37000a00e00009
:101b40004c003a002fbb9700bfbb9700493add001d
:101b5000c732de00850272004932dd00e00f52001c
:101b6000e08f5a003f003d00610215002fbb970037
:101b7000bfbb9700040478000804e90003003300a9
:101b80000603430087834b00fbff37000602be00bd
:101b9000471bde00070020000683fb000600e00074
:101ba0003d003a00491cdd00c714de0089047400c2
:101bb0004914dd00e00f5400e08f5c0032003d006e
:101bc000e10313000204be008703e90003003300b1
:101bd0000804440089844c00fbff370008015200d0
:101be00089815a00860f55002f003c00e00f5100fc
:101bf000e08f590004003500e00f5100e08f5900dc
:101c0000cbff32000202be004728de0001002000a8
:101c1000e00f5000e08f58002e0032000a00e00074
:101c2000300034000000200001f82f0004024000c2
:101c3000858248006150b900c700dd000000200027
:101c400004007000858070006022b8000200280047
:101c5000bfb99700830261000000720081807200aa
:101c6000a7ff37000a05e9000402420085824a0006
:101c7000baff37002fba9700bfba9700f507b20036
:101c80000570a000c2ff37000603e9000804440005
:101c900089844c00c7ff37000204be00f907b20078
:101ca0000970a000cdff3700e00f5100e08f590010
:101cb00004003500e00f5100e08f59009cff320016
:101cc0000202be000402420085824a000a05e900c1
:101cd000c2ff37000402420085824a000a05e9007b
:101ce000c9ff3700610515000400be000a05e900c0
:101cf000030033008100d1000080d300fbff3700d8
:101d0000d1ff37000400fa00889fbe000004be0027
:101d10008900780001f0a100a4fd200095f42300c3
:101d2000840f5000858f58001e003e00f4ff2f00e6
:101d3000f5972300840f5000858f580016003e0051
:101d40006000b80003f8270089806100e00f5000b0
:101d5000e08f58000b003a000200200003382000fa
:101d60000800be00d2fc07000001be00c2bf9f00f9
:101d7000d3bf9f000800be004f04be000080fa00e1
:101d8000000006000200200003b827000800be0083
:101d900003fb0700f4ff37000800be00e300070064
:101da000180037004f49de0003002000143d2500d5
:101db000b5072400840f5000858f58001d003e0099
:101dc00034be2c0065012400840f5000858f58001c
:101dd0000e003e000800be000200e000b2fd200040
:101de00093fc230005003200edfa070044000700d1
:101df0000004be0009f0a200deff3700dffa070092
:101e00003f0007000004be00daff37000800be00f4
:101e10000200e000b2fd2000930424000300320021
:101e2000dffa070001f0a200dcff3700d3fa070059
:101e3000fcff3700541d2300250e2400840f5000a2
:101e4000858f580017003e00f4dd2e00f50a2400af
:101e5000840f5000858f580009003e000800be0026
:101e60000200e00042be2c006309240002003200a0
:101e7000cbfa0700e2ff3700c0fa0700dbff3700ac
:101e80000800be000200e000b2fd2000930c240018
:101e900002003200c2fa0700c0ff3700b7fa07009d
:101ea000beff3700f2ff2f00f3f72700820f50002c
:101eb000838f5800050036000801be000800be00f0
:101ec000aefa07000004be00aaff37006881570081
:101ed0000800be003e000700630160004fb8970095
:101ee000dfb89700e10f5100c5ff3200e20f51004b
:101ef000ccff32000200e000bcff3a00a7ff370031
:101f00000400fa00889fbe008a9fbe008c9fbe001e
:101f10000001be0066fc07000004be000001be0018
:101f200063fc07000005be000200200003f02b0048
:101f30000800be005efc07000200200003f823003a
:101f400097fa07000006be00f2a92a00a3d22300d8
:101f50000a00be0056fc07000001be000c00be00d7
:101f60008ffa07000002be0072a12900c37c230083
:101f70000800be0084bf9f0095bf9f004cfc070077
:101f8000f243200063ab23007cfa07000006be008a
:101f90000a01be000800be0045fc07000001be00ab
:101fa0000c00be0042fc07000001be000fba970003
:101fb0009fba97000400be0079fa07004f06be00e2
:101fc0004f05be004f04be000080fa00000006006e
:101fd0000400fa00889fbe008a9fbe008c9fbe004e
:101fe00000067800810478008206780001f0a100e4
:101ff000a2fd200093dc2400820f5000838f580044
:1020000023003e0032982f0023f22300890078003d
:1020100027fc07000200200003b4240060fa070038
:102020000200200003b4240054fa07000005be009b
:10203000fcf9070000047800a2fd200093fc2300b7
:102040000a00be001afc07000001be000c00780068
:102050008900780049fa07000002be00325a2800c1
:10206000832823000a00be0084bf9f0095bf9f0005
:102070000ffc07000001be000fba97009fba97003f
:102080000400be003dfa0700808ebe000b00370042
:10209000f2ff2f00f3f72700820f5000838f5800c4
:1020a0000c00360000017800890178008900780072
:1020b00032fa0700808ebe000004eb0008007800b2
:1020c0004f06be004f05be004f04be000080fa0060
:1020d00000000600890078004c0007000005be00e3
:1020e00032982f0023f22300f1fb070002002000aa
:1020f00003f023002afa07005500070000047800c7
:102100008efd070032982f0023f2230009fb070001
:102110000001be000a00be0018fa07006000b80007
:10212000a0069800b1069800d7ff37000400fa0017
:10213000889fbe008a9fbe008c9fbe000006be0026
:102140000001be00dafb07000004be000001be0073
:102150000c00be00d6fb07000005be000801be0053
:102160000800be00d2fb07000a01be00d0fb07003a
:102170000002be00c2c32600636323000800be0045
:1021800084bf9f0095bf9f00c9fb0700f27c200021
:1021900003952300f9f907000001be000fba97006c
:1021a0009fba97000400be00c1fb07000002be00fa
:1021b0004288280083c023000800be0084bf9f001f
:1021c00095bf9f00bafb0700b2aa2a00a3e2230032
:1021d000eaf907000a01be00b5fb07000c01be00ca
:1021e000eff907000001be000fba97009fba9700f1
:1021f0000400be00eaf907004f06be004f05be000e
:102200004f04be000080fa00000006000400fa003f
:102210006011b800e2bf9f00f3bf9f006fbb970043
:10222000ffbb97000002be00f0ff2f00f1ff2f0060
:10223000f2ff2f00f3ff27000000620081806200a0
:1022400002016300838163000080fa000000060041
:102250000003be00b4f907006011b8000470a700c5
:1022600007f0a1006509b1001b0032001200350023
:10227000860220000628e10008003500f3ff270051
:10228000f2ff2f006110b9000700e00018003b00ca
:10229000030028006000b8000200050000004000b4
:1022a0008180480002014900838149008502e900dc
:1022b000faff3a0008003700f88f420002003c00a5
:1022c0008000eb00000005008100d1000080d300f9
:1022d0008502e800fcff3a000700e00004003b0034
:1022e00060001000e080180060011900e081190012
:0422f00000000600e4
:020000040000fa
:1022f4000e00fa00300d07007d0d0700c80d070021
:1023040013090700fa08070005090700db0c07009a
:10231400810507006000b800c09a8800d19a88003f
:102324006000b800009b8800119b88006000b80022
:10233400e09a8800f19a88006000b800209b880029
:10234400319b8800040ea800052ea80095eea80075
:10235400054ea800746ea80004003700b10c0700f5
:10236400004f78001e407800e6090700760c07004d
:102374000004e000f9ff3a001c06070058010700ba
:10238400040d0700e14f5000f8ff3a00050d070067
:10239400fc0c0700100798001e0090001000780045
:1023a400008188000e80e8001080e80010007800aa
:1023b400108188000e80e800410020001080400059
:1023c40010007800208188000e80e8006200200060
:1023d4001000410010007800308188000e80e80071
:1023e40081002000108040001000780040818800a7
:1023f4000e80e8001080e800100078008000eb00f8
:1024040046f90700323323003305240027fb070075
:102414000001780001007800820278000002780050
:10242400020020000358240005007800840078008e
:102434000000be003efa070020079800310798000c
:102444002e019000be019000000020008120240095
:1024540037fa070000017800010078008202780052
:102464000002780002002000030a2400050078001e
:10247400840078000000be003ff907008001780066
:102484000101780003007800820078000000be009b
:10249400809b8800919b88000e80e8004200200009
:1024a40010004100100078008000eb001bf90700c9
:1024b4003233230033052400fcfa070000017800be
:1024c40001007800820278000002780002002000f7
:1024d4000358240005007800840078000000be0042
:1024e40013fa070020079800310798002e01900086
:1024f400be01900000002000812024000cfa070097
:10250400000178000100780082027800000278005f
:1025140002002000030a24000500780084007800eb
:102524000000be0014f90700800178000101780062
:1025340003007800820078000000be00609b8800e1
:10254400719b88000e80e80061002000108040002c
:10255400100078008000eb00f0f80700323323000d
:1025640033052400d1fa0700000178000100780047
:102574008202780000027800020020000358240040
:1025840005007800840078000000be00e8f9070028
:1025940020079800310798002e019000be0190009a
:1025a4000000200081202400e1f9070000017800e8
:1025b4000100780082027800000278000200200006
:1025c400030a240005007800840078000000be009f
:1025d400e9f8070080017800010178000300780021
:1025e400820078000000be00409b8800519b880058
:1025f4001e009000100078008000eb00c7f8070070
:102604003233230033052400a8fa070000017800c0
:1026140001007800820278000002780002002000a5
:102624000358240005007800840078000000be00f0
:10263400bff9070020079800310798002e01900089
:10264400be0190000000200081202400b8f907009a
:10265400000178000100780082027800000278000e
:1026640002002000030a240005007800840078009a
:102674000000be00c0f80700800178000101780066
:1026840003007800820078000000be00a09b880050
:10269400b19b88000e80e8008200200010004100f9
:1026a400100078008000eb009cf807003233230010
:1026b400330524007dfa070000017800010078004a
:1026c40082027800000278000200200003582400ef
:1026d40005007800840078000000be0094f907002b
:1026e40020079800310798002e019000be01900049
:1026f40000002000812024008df9070000017800eb
:1027040001007800820278000002780002002000b4
:10271400030a240005007800840078000000be004d
:1027240095f8070080017800010178000300780023
:10273400820078000000be00c09b8800d19b880006
:10274400409b8000519b800002002000031f240056
:102754002ff807000000e00002003c00856ea8008e
:1027640001003700856ea900609b8000719b80008a
:1027740002002000031f240025f807000000e000e9
:1027840002003c00848ea80001003700848ea9005a
:10279400809b8000919b800002002000031f240086
:1027a4001bf807000000e00002003c0084aea80013
:1027b4000100370084aea900a09b8000b19b80007b
:1027c40002002000031f240011f807000000e000ad
:1027d40002003c0084cea8000100370084cea9008a
:1027e400c09b8000d19b800002002000031f2400b6
:1027f40007f807000000e00002003c00754ea80046
:1028040001003700754ea900508180008000e80067
:1028140051818800a1002000010178001100090005
:102824000200d8008000fd000000e000cffe3a0066
:10283400809b8000919b80001af8070080407800fc
:102844008000200001777800609b8000719b8000ed
:1028540014f8070080407800800020000000e800a1
:1028640001777800409b8000519b80000df80700a1
:1028740080407800800020000080e8000177780024
:1028840068004700000178003100200000032000a8
:1028940023080700e09a8000f19a800001f80700fd
:1028a40080407800b000200001777800209b8000f1
:1028b400319b8000fbf7070080407800b0002000c7
:1028c4000000e800017778006b0047000001780001
:1028d400210020000004200011080700a3fe370097
:1028e4000000fa002cd0bf000080fb006100b9009a
:1028f400b200200003002000820f5000838f580094
:102904007d003e00000601000b0037001600370072
:10291400220037002d003700310037003d0037001a
:10292400410037004d003700510037005c0037008c
:10293400600037006b0037000230ef000430ef0016
:102944008000eb000000eb00a605070010c0b300f8
:102954002cf0b70010808000218080000001be00b0
:102964000040eb00ca07070052d0bf00e14f5000ff
:1029740063003a001280800023808000803e2000a3
:1029840001002000800f5100818f59005c00360047
:1029940020c0b3002cf0b70059003700c2f0250066
:1029a400532d2c006000b8008e05070010808000b5
:1029b400218080000001be0020c0b300b4070700de
:1029c40030c0b3002cf0b7005800370052d0bf001d
:1029d400e14f50004c003a00570007004a0037000e
:1029e40092bf2e00831b2c0000002000010d2c0040
:1029f4007c05070010808000218080000001be005b
:102a040040c0b300a207070050c0b3002cf0b700c9
:102a14004600370052d0bf00e14f50003c003a005e
:102a2400450007003a00370092bf2e00831b2c009c
:102a340000002000010d24006a05070010808000ba
:102a4400218080000001be0060c0b3009007070031
:102a540070c0b3002cf0b7003400370052d0bf0070
:102a6400e14f50002c003a00330007002a003700e1
:102a74006011b8000000200001152400590507006a
:102a840010808000218080000001be0080c0b3005f
:102a94007f07070090c0b3002cf0b7002300370075
:102aa40052d0bf00e14f50001d003a002200070041
:102ab4001b0037006011b8000000200001152c0035
:102ac4004805070010808000218080000001be00be
:102ad400a0c0b3006e070700b0c0b3002cf0b7006d
:102ae4001200370052d0bf00e14f50000e003a00f0
:102af400110007000c0037002c70ef000b003700aa
:102b04000000000009003700000000000700370043
:102b1400000000000500370000000000030037003b
:102b24000000000001003700000000000000000069
:102b34000080fa00000006000200fa000040eb00ea
:102b4400004f7800409b8000519b800002002000d1
:102b5400031f24002ef707000000e00018003d00ca
:102b6400609b8000719b800002002000831c240075
:102b740029f707000000e00011003400809b80006a
:102b8400919b800002002000031f240022f707000d
:102b94000000e0000a003400a09b8000b19b80008c
:102ba40002002000031f24001bf707000000e000c0
:102bb4000300340020c0b300004f78009d003700ac
:102bc400c09b8000d19b800002002000c320240011
:102bd4000ff707000000e00018003d00609b800034
:102be400719b800002002000831c24000af7070068
:102bf4000000e00011003400809b8000919b800065
:102c040002002000031f240003f707000000e00077
:102c14000a003400a09b8000b19b800002002000c9
:102c2400031f2400fcf607000000e000030034004a
:102c340020c0b300004f78007e003700c09b8000a6
:102c4400d19b800002002000031f2400f2f607003d
:102c54000000e00018003400409b8000519b80007d
:102c640002002000031f2400ebf607000000e00030
:102c740011003400609b8000719b800002002000e2
:102c8400831c2400e4f607000000e0000a0034007e
:102c9400809b8000919b800002002000031f240081
:102ca400dbf607000000e00003003d0010c0b300a5
:102cb400004f78005f003700c09b8000d19b8000ec
:102cc40002002000031f2400d3f607000000e000e8
:102cd40018003400409b8000519b800002002000bb
:102ce400031f2400ccf607000000e00011003400ac
:102cf400609b8000719b800002002000831c2400e4
:102d0400c5f607000000e0000a003400a09b800024
:102d1400b19b800002002000c3202400bcf6070001
:102d24000000e00003003d0010c0b300004f780035
:102d340040003700609b8000719b800002002000ef
:102d440003222400b2f607000000e00003003d0067
:102d540030c0b300004f780036003700409b80003d
:102d6400519b800002002000031f2400a8f60700e6
:102d74000000e0000a003d00809b8000919b8000e1
:102d840002002000031f2400a1f607000000e00059
:102d940003003d0030c0b300004f78002500370029
:102da400c09b8000d19b800002002000c32024002f
:102db40099f607000000e0001e003400409b8000ec
:102dc400519b800002002000c320240092f60700db
:102dd4000000e00017003400609b8000719b8000bd
:102de40002002000031f24008bf607000000e0000f
:102df40010003400809b8000919b80000200200022
:102e0400c320240084f607000000e0000900340019
:102e1400a09b8000b19b800002002000c3202400fe
:102e24007df607000000e000020034000040eb00e3
:102e3400004f78001e4078000004e00003003a00d0
:102e440020c0b3002df0b700110037001e407800f9
:102e5400e24f500003003a0040c0b3002df0b70029
:102e64000b0037001e407800e14f500003003a0089
:102e740060c0b3002df0b700050037001e40780095
:102e8400e34f500002003a0080c0b3002df0b700b9
:102e94002dd0bf000080fb00c102210091407800ca
:102ea4008180fb008100e900810f500002003200a4
:102eb4002dd0bf002cf0b700000000000080fa0005
:102ec400000006000000fa00c301a800dca1ef0026
:102ed400dea1ef00c1e1a800000000000080fa00bc
:102ee400000006000000fa00c305a800dca5ef00fe
:102ef400dea5ef00c1e5a800000000000080fa0094
:102f0400000006001800fa00889fbe008a9fbe00d9
:102f1400c0808000d18080008080880091808800fb
:102f2400e0808000f1808000a0808800b18088006b
:102f3400300e80008000eb00008fbe00500e800039
:102f44008000eb00c000dd00000020001e0f4000e8
:102f54005e974800302e80008000eb002007980028
:102f640031079800502e80008000eb00c000dd0087
:102f74000000200064014700e401470033194000c9
:102f840023914800120278009202900024079800ce
:102f9400350798001e0078009e0090005cf607003c
:102fa400c2532e007378230040f8070040079800ae
:102fb400510798002e009000be00900054f60700c0
:102fc400c2532e0073782b0038f80700600798006e
:102fd4007107980080808000918080000001be000d
:102fe4004e009000de00900063f60700000f98008a
:102ff400110f9800a0808000b18080000001be0005
:103004006e009000fe0090005bf60700200f980011
:10301400310f980060828000718280000e09900058
:103024009e09900021f807008001780001017800d2
:1030340003007800820078000000be00e09b880056
:10304400f19b880060828000718280002e099000cc
:10305400be09900015f8070080017800010178008e
:1030640003007800820078000000be00009c880005
:10307400119c8800e49b8000f59b8000009c8000ec
:10308400119c80000001be000400be0043f607004e
:1030940000017800010078008202780000027800c4
:1030a400020020000300240005007800840078005a
:1030b4000000be001ef707008001780001017800bf
:1030c40003007800820078000000be00209c880085
:1030d400319c8800209c8000319c800022972f0026
:1030e400f3e8230012f7070080017800010178005b
:1030f40003007800820078000000be00409c880035
:10310400519c8800c09c8000d19c8000609c8800f9
:10311400719c8800e09c8000f19c8000809c880069
:10312400919c8800009d8000119d8000a09c8800d7
:10313400b19c8800689c8000799c80002a9c800057
:103144003b9c8000a09c8000b19c8000e7f90700b4
:103154000001be000a00be00d4f707000001780099
:10316400010078008202780000027800608280000a
:10317400718280000001be000500780084007800a0
:103184000000be00c9f707000001780001007800c4
:103194008201780000017800030078008200780042
:1031a4000001be000800be00fcf5070080017800a5
:1031b4000101780003007800820078000000be005e
:1031c400c09c8800d19c8800889c8000999c8000c9
:1031d4002a9c80003b9c8000a09c8000b19c8000c5
:1031e400c7fa07000001be000a00be00aff70700df
:1031f4000001780001007800820278000002780063
:1032040060828000718280000001be0005007800a9
:10321400840078000000be00a4f7070000017800d5
:103224000100780082017800000178000300780032
:10323400820078000001be000800be00d7f5070038
:103244008001780001017800030078008200780092
:103254000000be00e09c8800f19c8800449c800033
:10326400559c800060828000718280000001be0055
:103274000400be00aef6070080017800010178006a
:1032840003007800820078000000be00009d8800e2
:10329400119d8800009d8000119d8000b2fd2000da
:1032a400930424005cf507000000e0000c003400e7
:1032b400009d8000119d8000b2fd2000930c24002d
:1032c400adf5070080017800010178000300780063
:1032d400820078000000be00009d8800119d8800d7
:1032e400009d8000119d8000b2fd200093042c00fd
:1032f40047f507000000e000010035000c0037002e
:10330400009d8000119d8000b2fd2000930c2400dc
:10331400a2f507008001780001017800030078001d
:10332400820078000000be00009d8800119d880086
:10333400000000004f05be004f04be000080fa00ec
:10334400000006001800fa00600798007107980052
:10335400020f9800130f9800240f9800350f98005f
:103364006e00900000407800004f78006e009000de
:10337400fe0090004809dd004800de0000007100f6
:10338400c808de0000407800104798006e009000e6
:10339400fe0090004008de0001002000004078009c
:1033a400204798006e009000fe0090004808de0060
:1033b4000100200000407800304798000e0990007a
:1033c4009e099000410020000e007800ce06070000
:1033d4002e099000be099000810020000e007800a4
:1033e400c9060700000000000080fa000000060083
:1033f4001800fa001080800021808000000178000d
:10340400810178008000eb000e007800db060700e5
:10341400c09c8000d19c80000001be0041002000bf
:103424000e007800b8060700e09c8000f19c800044
:103434000001be00810020000e007800b2060700e3
:10344400009d8000119d80000001be00c10020008d
:103454000e007800ac060700209c8000319c8000a0
:103464000001be00010120000e007800a60607003e
:10347400409c8000519c80000001be00410120005e
:103484000e007800a00607000e01780081012000dc
:103494001006200022050700000000000080fa004a
:1034a400000006000000fa00000000000080fa009e
:1034b40000000600d400fa000000200001f82300f8
:1034c400008fbe00000020000100240020079800a7
:1034d40031079800000020000104240040079800f0
:1034e400510798000000200001082400600798009c
:1034f4007107980000002000010a2400000f9800c2
:10350400110f980000002000010c2400200f9800e7
:10351400310f980000002000010e2400400f980095
:10352400510f98000000200001102400600f980043
:10353400710f98000000200001112400001798006a
:103544001117980000002000011224002017980091
:103554003117980000002000011324004017980040
:1035640051179800000020000114240060179800ef
:10357400711798000000200001152400001f980016
:10358400111f98000000200001162400201f98003d
:10359400311f98000000200001172400401f9800ec
:1035a400511f98000000200001182400601f98009b
:1035b400711f980000002000811824000027980043
:1035c40011279800000020000119240020279800ea
:1035d400312798000000200081192400402798001a
:1035e4005127980000002000011a24006027980049
:1035f4007127980000002000811a2400002f9800f1
:10360400112f980000002000011b2400202f980097
:10361400312f980000002000811b2400402f9800c7
:10362400512f980000002000011c2400602f9800f6
:10363400712f980000002000811c2400003798009e
:103644001137980000002000011d24002037980045
:10365400313798001180800020808000800178003c
:10366400800620000e004000010178008000eb007d
:1036740042060700800620000e0040001e0178006c
:103684009e019000410020001f06070080062000d4
:103694000e0040002e019000be0190008100200029
:1036a40019060700209c8000319c800084062000bd
:1036b4000e0242000001be00c10020000400780098
:1036c40011060700409c8000519c80008406200065
:1036d4000e0242000001be00010120000400780037
:1036e40009060700800620000e0040000e09900025
:1036f4009e09900041012000030607008006200077
:103704000e0040002e099000be09900081012000a7
:10371400fd050700800620000e0040004e099000c1
:10372400de099000c1012000f70507008006200093
:103734000e0040006e099000fe0990000102200076
:10374400f1050700800620000e0040000e119000d5
:103754009e11900041022000eb0507008006200026
:103764000e0040002e119000be1190008102200036
:10377400e5050700800620000e0040004e11900071
:10378400de119000c1022000df0507008006200042
:103794000e0040006e119000fe1190000103200005
:1037a400d9050700800620000e0040000e19900085
:1037b4009e19900041032000d305070080062000d5
:1037c4000e0040002e199000be19900081032000c5
:1037d400cd050700800620000e0040004e19900021
:1037e400de199000c1032000c705070080062000f1
:1037f4000e0040006e199000fe1990000104200094
:10380400c1050700800620000e0040000e21900034
:103814009e21900041042000bb0507008006200083
:103824000e0040002e219000be2190008104200053
:10383400b5050700800620000e0040004e219000d0
:10384400de219000c1042000af050700800620009f
:103854000e0040006e219000fe2190000105200022
:10386400a9050700800620000e0040000e299000e4
:103874009e29900041052000a30507008006200032
:103884000e0040002e299000be29900081052000e2
:103894009d050700800620000e0040004e29900080
:1038a400de299000c105200097050700800620004e
:1038b4000e0040006e299000fe29900001062000b1
:1038c40091050700800620000e0040000e31900094
:1038d4009e319000410620008b05070080062000e1
:1038e4000e0040002e319000be3190008106200071
:1038f40085050700800620000e00400000017800c6
:10390400c106200020062000050407000000000076
:103914000080fa00000006000000fa0002ccbf009c
:103924000000a1000010a1000020a10002ecb700db
:1039340000962000206088001061800000a0a00094
:1039440000b0a0001061880023cca80023eca800dc
:1039540030002000206188001062800000a0a000d8
:1039640000b0a0001062880043cca80043eca8007b
:10397400300020002062880001eca8000000000054
:103984000080fa00000006000800fa00008fbe0064
:1039940022079800330798000200200003f8230050
:1039a4002e009000be00900099f307000000e00094
:1039b40042003a006011b8001e0078009e0090009a
:1039c40095f307000000e0001e003500020020000f
:1039d400031c24001e0078009e009000b3f507002d
:1039e400000178000100780082027800000278006b
:1039f400d0818000e18180000001be0005007800d4
:103a0400840078000000be00e4f3070000017800a1
:103a1400010078008201780000017800030078003a
:103a2400820078000000be009ef307003061880029
:103a3400d0818000e18180009af3070070618800e2
:103a44001e003700d0818000e181800095f30700db
:103a5400306188001e0078009e00900001f0a200f2
:103a640002002000031c240090f5070000017800e8
:103a7400010078008202780000027800d081800082
:103a8400e18180000001be00050078008400780018
:103a94000000be00c1f307000001780001007800b7
:103aa4008201780000017800030078008200780029
:103ab4000000be007bf30700706188006011b8004d
:103ac4002e009000be00900051f307000000e000bb
:103ad40001003200420037006011b8001e00780077
:103ae4009e0090004cf307000000e0001e0035002b
:103af40002002000031c24001e0078009e00900099
:103b04006af507000001780001007800820278005d
:103b140000027800d0818000e18180000001be00b5
:103b240005007800840078000000be009bf30700c5
:103b3400000178000100780082017800000178001b
:103b440003007800820078000000be0055f30700ef
:103b540030628800d0818000e181800051f3070049
:103b6400706288001e003700d0818000e1818000ef
:103b74004cf30700306288001e0078009e0090001d
:103b840001f0a20002002000031c240047f50700f6
:103b940000017800010078008202780000027800b9
:103ba400d0818000e18180000001be000500780022
:103bb400840078000000be0078f30700000178005c
:103bc4000100780082017800000178000300780089
:103bd400820078000000be0032f3070070628800a3
:103be400000000000080fa00000006000000fa0057
:103bf400889fbe00e49a8000f59a8000c09a8000f5
:103c0400d19a80000001be000400be0000f307004a
:103c14000000e00014003d00c89a8000d99a80009a
:103c2400e49a8000f59a8000f0818000018280008f
:103c34000001be000400be0058f307000001780034
:103c44000100780082027800000278000801be00ba
:103c540005007800840078000000be002e050700ef
:103c6400e09a8800f19a8800e49a8000f59a80002e
:103c7400c09a8000d19a80000001be000400be00fa
:103c8400e5f207000000e00014003400c89a800048
:103c9400d99a8000e49a8000f59a8000f08180002f
:103ca400018280000001be000400be0032f3070060
:103cb4000001780001007800820278000002780098
:103cc4000801be0005007800840078000000be00f2
:103cd400fa040700e09a8800f19a8800e09a8000cc
:103ce400f19a80006011b800cbf207000000e000f8
:103cf4001e003400e09a8000f19a80000200200047
:103d0400031c2400e9f40700000178000100780096
:103d14008202780000027800d0818000e181800076
:103d24000001be0005007800840078000000be0099
:103d34001af307000001780001007800820178007e
:103d44000001780003007800820078000000be00c3
:103d5400d4f2070030618800d0818000e1818000c6
:103d6400d0f20700706188001e003700d081800007
:103d7400e1818000cbf2070030618800e09a800086
:103d8400f19a800001f0a20002002000031c24002c
:103d9400c6f4070000017800010078008202780070
:103da40000027800d0818000e18180000001be0023
:103db40005007800840078000000be00f7f20700d8
:103dc4000001780001007800820178000001780089
:103dd40003007800820078000000be00b1f2070002
:103de40070618800249b8000359b8000009b8000cc
:103df400119b80000001be000400be0084f2070095
:103e04000000e00014003d00089b8000199b800026
:103e1400249b8000359b8000f0818000018280001b
:103e24000001be000400be00dcf2070000017800bf
:103e34000100780082027800000278000801be00c8
:103e440005007800840078000000be00b20407007a
:103e5400209b8800319b8800249b8000359b800038
:103e6400009b8000119b80000001be000400be0086
:103e740069f207000000e00014003400089b800091
:103e8400199b8000249b8000359b8000f08180007a
:103e9400018280000001be000400be00b6f20700eb
:103ea40000017800010078008202780000027800a6
:103eb4000801be0005007800840078000000be0000
:103ec4007e040700209b8800319b8800209b800093
:103ed400319b80006011b8004ff207000000e00041
:103ee4001e003500209b8000319b800002002000d2
:103ef400031c24006df40700000178000100780021
:103f04008202780000027800d0818000e181800084
:103f14000001be0005007800840078000000be00a7
:103f24009ef2070000017800010078008201780009
:103f34000001780003007800820078000000be00d1
:103f440058f2070030628800d0818000e18180004f
:103f540054f20700706288001e003700d081800090
:103f6400e18180004ff2070030628800209b8000ce
:103f7400319b800001f0a20002002000031c2400f9
:103f84004af40700000178000100780082027800fa
:103f940000027800d0818000e18180000001be0031
:103fa40005007800840078000000be007bf2070062
:103fb4000001780001007800820178000001780097
:103fc40003007800820078000000be0035f207008c
:103fd40070628800000000004f04be000080fa00f8
:103fe400000006000800fa00008fbe0022079800b7
:103ff4003307980022972f00f3e023002e0090004f
:10400400be00900029f40700000178000100780048
:1040140082027800000278001e0178009e01900060
:1040240005007800840078000000be005bf2070001
:104034008001780001017800030078008200780094
:104044000000be00009b8800119b880022972f006f
:10405400f3e023002e009000be00900013f407004c
:1040640000017800010078008201780000017800e6
:1040740003007800820078000001be001e00780072
:104084009e0090003cf20700800178000101780056
:1040940003007800820078000000be00c09a880007
:1040a400d19a8800009b8000119b800002002000b0
:1040b40003122c00fdf30700800178000101780051
:1040c40003007800820078000000be00209d880074
:1040d400319d8800c09a8000d19a8000020020009f
:1040e40003122400f1f30700800178000101780035
:1040f40003007800820078000000be00409d880024
:10410400519d8800209d8000319d80000400200086
:10411400852c240002002000832c2c0015040700a9
:10412400409d8000519d800004002000852c2400c7
:1041340002002000832c2c000e0407000000000065
:104144000080fa00000006000400fa00008fbe00a0
:10415400200880000040a1000050a1002008880031
:104164001e0178009e019000001c2e0041c6240010
:10417400eff2070000017800010078008202780065
:104184000002780002f02f00f37724000500780085
:10419400840078000000be009ff107000000e000ea
:1041a4008d003400200880000040a0000050a100d1
:1041b400200888001e0178009e019000001c2e003b
:1041c40041c62400daf207000001780001007800fb
:1041d400820278000002780002002000031024000c
:1041e40005007800840078000000be00d0f20700cb
:1041f4000001780001007800820278000002780053
:1042040002f02f00f3772400050078008400780082
:104214000000be0080f107000000e00055003400fb
:10422400200880000040a1000050a0002008880061
:104234001e0178009e019000001c2e0041c624003f
:10424400bbf20700000178000100780082027800c8
:1042540000027800020020000328240005007800f2
:10426400840078000000be00b1f20700000178006d
:1042740001007800820278000002780002f02f002a
:10428400f377240005007800840078000000be0065
:1042940061f107000000e0001d00340020088000e8
:1042a4000040a0000050a000200888001e017800f3
:1042b4009e019000001c2e0041c624009cf20700c1
:1042c4000001780001007800820278000002780082
:1042d40002002000033824000500780084007800e0
:1042e4000000be0092f2070000017800010078008f
:1042f40082017800000178000300780082007800d1
:104304000000be0046f10700100888004000370096
:104314001e0178009e019000001c2e0041c624005e
:1043240083f207000001780001007800820278001f
:104334000002780002002000032824000500780011
:10434400840078000000be0079f2070000017800c4
:1043540001007800820178000001780003007800f1
:10436400820078000000be002df1070010088800cc
:10437400270037001e0178009e019000001c2e00cb
:1043840041c624006af207000001780001007800a9
:10439400820278000002780002002000031024004a
:1043a40005007800840078000000be0060f2070079
:1043b4000001780001007800820178000001780093
:1043c40003007800820078000000be0014f10700aa
:1043d400100888000e0037001e0178009e0190002e
:1043e400001c2e0041c6240051f207000001780091
:1043f4000100780082017800000178000300780051
:10440400820078000000be0005f107001008880053
:10441400000000000080fa00000006000400fa001a
:10442400008fbe00f00880000040a1000050a100f1
:10443400f00888001e0178009e019000001c2e00e8
:1044440041c624003af20700000178000100780018
:10445400820278000002780002f02f00f377240033
:1044640005007800840078000000be00eaf0070030
:104474000000e0008d003400f00880000040a0003f
:104484000050a100f00888001e0178009e019000f1
:10449400001c2e0041c6240025f20700000178000c
:1044a40001007800820278000002780002002000f7
:1044b4000310240005007800840078000000be008a
:1044c4001bf20700000178000100780082027800e6
:1044d4000002780002f02f00f37724000500780032
:1044e400840078000000be00cbf007000000e0006c
:1044f40055003400f00880000040a1000050a000e6
:10450400f00888001e0178009e019000001c2e0017
:1045140041c6240006f2070000017800010078007b
:1045240082027800000278000200200003282400a0
:1045340005007800840078000000be00fcf107004c
:1045440000017800010078008202780000027800ff
:1045540002f02f00f377240005007800840078002f
:104564000000be00acf007000000e0001d003400b5
:10457400f00880000040a0000050a000f00888006f
:104584001e0178009e019000001c2e0041c62400ec
:10459400e7f107000001780001007800820278004a
:1045a400000278000200200003382400050078008f
:1045b400840078000000be00ddf1070000017800ef
:1045c400010078008201780000017800030078007f
:1045d400820078000000be0091f00700d008880037
:1045e400400037001e0178009e019000001c2e0040
:1045f40041c62400cef107000001780001007800d4
:1046040082027800000278000200200003282400bf
:1046140005007800840078000000be00c4f10700a3
:104624000001780001007800820178000001780020
:1046340003007800820078000000be0078f00700d4
:10464400d0088800270037001e0178009e019000e2
:10465400001c2e0041c62400b5f1070000017800bb
:104664000100780082027800000278000200200035
:104674000310240005007800840078000000be00c8
:10468400abf1070000017800010078008201780096
:104694000001780003007800820078000000be006a
:1046a4005ff00700d00888000e0037001e01780074
:1046b4009e019000001c2e0041c624009cf10700be
:1046c4000001780001007800820178000001780080
:1046d40003007800820078000000be0050f007005c
:1046e400d0088800000000000080fa0000000600e6
:1046f4000000fa0000002000a13f240092fe070001
:1047040005e1a9000421a9000068a9002068a80007
:1047140005e1a800000000000080fa000000060087
:104724000000fa0000002000a14724003bff07001e
:104734001fe1a9001e21a9000368a9002368a8009d
:104744001fe1a800000000000080fa00000006003d
:104754000000fa0013e1a90011e1a9001061a8000a
:104764001021a900800880000040a1000050a10091
:10477400800888000a21ef000621ef0070722000f3
:104784007008880000e02000600888002042800053
:104794000000a0000010a1000020a1002042880019
:1047a4000108a9002108a80011e1a80000000000e8
:1047b4000080fa00000006000a00fa0020079800b2
:1047c40031079800420798000040eb00004f780042
:1047d4009e407800e0cfb30000c06800004f78002e
:1047e4002e0090004880de00004078009e40780053
:1047f40000c06800004f78002e0090000040780050
:104804009e40780000c06800004f78003e00900091
:104814004880de00004078009e40780000c06800b8
:10482400004f78003e009000004078009e407800e1
:1048340000c06800004f78000000eb0010079800eb
:104844000c0037001e009000e800470011004000f3
:10485400104078009e40780000c06800004f780047
:104864000e80e8008e80e8001108e80090007800cf
:10487400110798009e0090003e009000808f500029
:10488400f0ff35001e4078000080fa0000000600aa
:104894000c00fa00604798004207980053079800fc
:1048a400ee409000014f78004e009000de00900032
:1048b4004808de00010020000040780010479800fe
:1048c4004e009000de0090004008de000100200051
:1048d40000407800204798004e009000de009000d1
:1048e4004809dd004800de0000007100c808de0051
:1048f40000407800304798004e0090000040780057
:10490400404798000e017800510020000005200067
:1049140003000700000000000080fa000000060009
:104924001000fa00889fbe008a1f78005007980084
:1049340061079800720798008f0478000f007800d0
:104944000005780064004700ec0047006200200086
:104954001108410090017800230798002e00900070
:104964008000e900310798000000e8000000d10051
:10497400800040000f0078008187470060004000fd
:10498400400798000000eb00100798009e0090007c
:104994000e80e8000108e800100178001207980072
:1049a4004e00900001004000e1cfb30001487800c0
:1049b4005e009000c880de001e0190000e80e800ba
:1049c4000208e800900178001307980081407800fd
:1049d4004e00900002004000014878009e009000c4
:1049e4000e80e8000108e800100178001207980022
:1049f4005e009000004178004e00900001004000ed
:104a0400024878006e009000c880de001e0190000d
:104a14000e80e8000208e80090017800130798006f
:104a2400814078004e009000020040000148780068
:104a34009e0090000e80e8000108e8001001780054
:104a4400120798006e009000004178004e0090001c
:104a540001004000024878000000eb00000f7800dd
:104a64000d0037001e007800ee0047009100400062
:104a74001e0190000e80e8000208e8009001780012
:104a840013079800914078004e0090000200400007
:104a9400014878001e0fe8006e0090009e00780028
:104aa400808f5000efff35001e0490000e80e80058
:104ab4000808e80090007800110798007e01900033
:104ac400ee0090005e0090003bff070080407800fd
:104ad4004e00900008004000014878004e0090000d
:104ae400ae009000650207008a077800000000000d
:104af400890778004f0578004f04be000080fa0053
:104b0400000006000200fa00004f78008081800057
:104b1400e30f500021003200e30f500005003e0077
:104b2400e10f500010003200e10f500014003e006d
:104b340007003700e50f500026003200e50f500053
:104b44001c003900e60f50003600320046003700e2
:104b54001e407800e24f400045003a00100020005b
:104b640080818800420037001e80fb004800dd0081
:104b74009081880020002000808188003f00370059
:104b84001e80fb009181800001004000908188001c
:104b94003000200080818800380037001e80fb0030
:104ba4004800dd00a081880040002000808188004a
:104bb400320037001e80fb00a1818000010040000c
:104bc400a08188003630ef005000200080818800ea
:104bd4002a003700b081800080007800f0072000b0
:104be400808f50000d003e00b18180000100e8007c
:104bf400b0818800602d2100010040001e4878002b
:104c0400b1818000a0818000808f50001a0035009f
:104c14006000200080818800170037003030ef00ea
:104c2400150037001e417800810321008248780076
:104c3400a181800090818000622d2100defe0700aa
:104c44008103210091407800814f500004003a0014
:104c5400a181800090818000622d21000a0007005c
:104c64003030ef00050037003030ef00030037002c
:104c740000000000010037000000000000000000f8
:104c84000080fa00000006000600fa00000f780019
:104c94001107980022079800100520009e00780054
:104ca400808f500005003200200520009e0078000f
:104cb400808f500005003200080037002e0090005d
:104cc4001040780008000700040037002e00900010
:104cd40010407800280007000000000000000000d9
:104ce4000080fa00000006000200fa00004f78007d
:104cf4001e80fb00e80f50000e003200e80f500049
:104d040005003c000000e00008003200e20f500003
:104d14000e00320013003700ea0f50000800320082
:104d2400ee0f50000c0032000e0037002c70ef0024
:104d34000e00370080c0b3002cf0b7000b00370022
:104d4400a0c0b3002cf0b7000800370020c0b300a7
:104d54002cf0b70005003700e0c0b3002cf0b7001a
:104d6400020037002c70ef0000000000000000007b
:104d74000080fa00000006000200fa00004f7800ec
:104d84001e4078000004e000030032001e4078005a
:104d94000004e000030032001e41780021052100d8
:104da40082487800000000000080fa00000006003d
:104db4000800fa002007980031079800b2fd20008f
:104dc400930424002e009000be009000eaee070039
:104dd4000001780001007800820278000002780067
:104de400b2fd2000930c24000500780084007800b4
:104df4000000be0026f30700b2fd20009304240047
:104e0400e6ee0700008fbe00b2fd200093042400ec
:104e14001e0078009e009000e0ee0700000178007c
:104e2400010078008202780000027800b2fd2000c0
:104e3400930c240005007800840078000000be0074
:104e440013f30700b2fd200093042400caee070008
:104e54000001780001007800820078008101780068
:104e64000001780003007800820078000000be0092
:104e74000080fa00000006000a00fa0030079800db
:104e8400410798004e009000e6004700110f4000d3
:104e94001e0078001001780090019000120798001d
:104ea400230798009e0090002e0090008101780056
:104eb4000001780003007800820078000000be0042
:104ec4000080fa00000006000600fa0010079800af
:104ed400210798002e0090008e80e800110f4000fa
:104ee4001e00780090007800100090008101780086
:104ef4000001780003007800820078000000be0002
:104f04000080fa00000006000c00fa002007980058
:104f14003107980042079800530798000e80e80074
:104f24006808470090007800110798000000eb0023
:104f3400000f78000b0037001e0078008e80e80018
:104f44009100400066004700100178001e004100f7
:104f54006401470012004000914078000148780045
:104f64001e0fe8001e007800e30f5000f2ff34002b
:104f7400000000000080fa00000006000c00fa00a7
:104f840020079800310798004207980053079800bb
:104f94000e80e80068084700900078001107980028
:104fa4000000eb00000f78000c00370030002000f8
:104fb4001e0050008e80e80091004000660047000b
:104fc400100178001e0041006401470012004000f7
:104fd40091407800014878001e0fe8001e00780018
:104fe400e30f5000f1ff3400000000000080fa00dd
:104ff400000006000c00fa00200798003107980012
:1050040042079800530798000e80e800680847009c
:1050140090007800110798000000eb00000f780062
:105024000b0037001e0078008e80e80091004000dd
:1050340066004700100178001e004100640147002b
:105044001200400091407800014878001e0fe800eb
:105054001e007800e70f5000f2ff3400000000004b
:105064000080fa00000006000400fa00008fbe0071
:105074006011b8001e0078009e009000e6ed070065
:105084000000e000030035001e0078009e00900040
:10509400030037001e0078009e00900001f0a2007b
:1050a4008001780001017800030078008200780014
:1050b4000000be000080fa00000006000800fa00ac
:1050c400008fbe0022079800330798002e0190003d
:1050d400be0190001e0078009e009000ceed0700f7
:1050e4000000e000030034009e0078001e009000e1
:1050f40002003700ae0090003e009000810178006d
:105104000001780003007800820078000000be00ef
:105114000080fa00000006000800fa00008fbe00bc
:1051240022079800330798002e019000be019000da
:105134001e0078009e009000b5ed07000000e0001e
:1051440003003d009e0078001e009000020037001e
:10515400ae0090003e0090008101780000017800cc
:1051640003007800820078000000be000080fa008e
:10517400000006000c00fa00008fbe002207980011
:105184003307980044079800550798004e01900093
:10519400de0190001e0078009e0090009eed070046
:1051a4000000e000040034004e019000de01900095
:1051b400028fbe000a0037002e019000be0190004d
:1051c4001e0078009e00900091ed07000000e000b2
:1051d40003003d002e019000be019000028fbe002e
:1051e4009e0078001e009000810178000001780084
:1051f40003007800820078000000be000080fa00fe
:10520400000006000400fa00008fbe00b2fd20007a
:10521400930424001e0078009e009000c4ee070052
:105224000001780001007800820278000002780012
:105234000200200043332400050078008400780035
:105244000000be0099ef070000017800010078001b
:105254008200780081017800000178000300780062
:10526400820078000000be000080fa000000060002
:105274000400fa00008fbe00b2fd20009304240055
:105284001e0078009e00900088ef0700000178005f
:1052940001007800820278000002780002002000f9
:1052a4004333240005007800840078000000be0029
:1052b4009fee07000001780001007800820078006a
:1052c40081017800000178000300780082007800f2
:1052d4000000be000080fa00000006000000fa0092
:1052e4001182800020828000808f500004003500ed
:1052f4001182800020828000008050000500370069
:1053040021828000108280008080500000202000d4
:10531400010050000080fa00000006000000fa00be
:10532400eeff070080007800f01f2000010050000d
:105334000080fa00000006000200fa0010828000db
:10534400000fe800f01f20009e007800808f5000be
:10535400020034000000eb00000f7800218280007e
:105364001e0078000080680000f0a7000000ea003a
:105374000000e9004f00de00004078000080fa00e1
:10538400000006000000fa0046d0bf000080fa00ca
:10539400000006000400fa002047980010828000f4
:1053a400000fe800f01f20009e007800808f50005e
:1053b400020034000000eb00000f7800208280001f
:1053c4009e007800808f500002003a000040eb00fd
:1053d40008003700118280006005210001004000b0
:1053e400ae409000014878009e0078001182880049
:1053f40010c0b3000080fa00000006000200fa00aa
:10540400218280006005210001004000104f7800d7
:10541400208280000000e800208288002182800031
:10542400f01f2000808f5000010034004430ef0052
:105434001e4078000080fa00000006000200fa0016
:1054440000000000101180004900de00614060008f
:105454000004e000fbff3a0010c0b30046f0b700c0
:10546400e6ff0700004f78001e80fb002011880033
:10547400000000000080fa00000006000600fa00a8
:105484001007980021079800a4ff0700ae009000c1
:10549400808f500012003c000000eb00000f7800e9
:1054a400060037001e0078008e80e80011004000de
:1054b40010407800b7ff07001e0fe8002e00900090
:1054c4009e007800808f5000f6ff3500adff070086
:1054d4000004e00003003a00d8ff07000100370091
:1054e400000000000080fa00000006000000fa003e
:1054f4004182800050828000808f5000040035007b
:1055040041828000508280000080500005003700f6
:10551400518280004082800080805000000820007a
:10552400010050000080fa00000006000000fa00ac
:10553400eeff070080007800f00720000100500013
:105544000080fa00000006000000fa00418280009a
:10555400508280000080680000f0a7000000ea008c
:105564000000ea004f00de00004078000080fa00ee
:10557400000006000200fa0040828000000fe800ec
:10558400f00720009e007800808f50000200340055
:105594000000eb00000f7800518280001e007800ac
:1055a4000080680000f0a7000000ea000000e900a5
:1055b4004f00de00004078000080fa000000060082
:1055c4000400fa002047980040828000000fe800a1
:1055d400f00720009e007800808f50000200340005
:1055e4000000eb00000f7800508280009e007800dd
:1055f400808f500008003200418280006025210025
:1056040001004000ae409000014878009e00780000
:105614004182880001003700000000000080fa0089
:10562400000006000200fa004182800050828000df
:10563400808f500002003a000040eb000d0037005c
:10564400518280006025210001004000104f780045
:10565400508280000000e80050828800518280005f
:10566400f0072000808f5000010034004a30ef0022
:105674001e4078000080fa00000006000000fa00d6
:1056840021e3a9002143a800001980000080a100a3
:105694000090a100001988002043a900001980008f
:1056a4000050a0000060a0000070a0000019880055
:1056b4001019800000d0a10000e0a10000f0a100ba
:1056c400101988002343a800101980000080a1004d
:1056d4000090a100101988001119800030f82f00e3
:1056e400008060000040a000101988002203a90077
:1056f4002223a90025e3a900f0c0b30024e3b700e6
