:020000040000fa
:080000000002040000000000f2
:020000040000fa
:04000800f6030000fb
:020000040000fa
:04000c00f6030000f7
:020000040000fa
:04001000f6030000f3
:020000040000fa
:04001400f6030000ef
:020000040000fa
:04001800f6030000eb
:020000040000fa
:04001c00f6030000e7
:020000040000fa
:04002000f6030000e3
:020000040000fa
:04002400f6030000df
:020000040000fa
:04002800f6030000db
:020000040000fa
:04002c00f6030000d7
:020000040000fa
:04003000f6030000d3
:020000040000fa
:04003400fa020000cc
:020000040000fa
:04003800f6030000cb
:020000040000fa
:04003c00f6030000c7
:020000040000fa
:04004000f6030000c3
:020000040000fa
:04004400f6030000bf
:020000040000fa
:040048005003000061
:020000040000fa
:04004c00f6030000b7
:020000040000fa
:04005000f6030000b3
:020000040000fa
:04005400ac030000f9
:020000040000fa
:040058008003000021
:020000040000fa
:04005c005a03000043
:020000040000fa
:04006000f6030000a3
:020000040000fa
:04006400f60300009f
:020000040000fa
:04006800f60300009b
:020000040000fa
:04006c00f603000097
:020000040000fa
:04007000f603000093
:020000040000fa
:04007400f60300008f
:020000040000fa
:04007800f60300008b
:020000040000fa
:04007c00f603000087
:020000040000fa
:04008000f603000083
:020000040000fa
:04008400f60300007f
:020000040000fa
:04008800f60300007b
:020000040000fa
:04008c00f603000077
:020000040000fa
:04009000f603000073
:020000040000fa
:04009400360300002f
:020000040000fa
:04009800f60300006b
:020000040000fa
:04009c00f603000067
:020000040000fa
:0400a000f603000063
:020000040000fa
:0400a400f60300005f
:020000040000fa
:0400a800f60300005b
:020000040000fa
:0400ac00f603000057
:020000040000fa
:0400b000f603000053
:020000040000fa
:0400b400f60300004f
:020000040000fa
:0400b800f60300004b
:020000040000fa
:0400bc00f603000047
:020000040000fa
:0400c000f603000043
:020000040000fa
:0400c400f60300003f
:020000040000fa
:0400c800f60300003b
:020000040000fa
:0400cc00f603000037
:020000040000fa
:0400d000f603000033
:020000040000fa
:0400d400f60300002f
:020000040000fa
:0400d800f60300002b
:020000040000fa
:0400dc00f603000027
:020000040000fa
:0400e000f603000023
:020000040000fa
:0400e400f60300001f
:020000040000fa
:0400e800f60300001b
:020000040000fa
:0400ec00f603000017
:020000040000fa
:0400f000f603000013
:020000040000fa
:0400f400f60300000f
:020000040000fa
:0400f800f60300000b
:020000040000fa
:0400fc00f603000007
:020000040000fa
:04010000f603000002
:020000040000fa
:04010400f6030000fe
:020000040000fa
:04010800f6030000fa
:020000040000fa
:04010c00f6030000f6
:020000040000fa
:04011000f6030000f2
:020000040000fa
:04011400f6030000ee
:020000040000fa
:04011800f6030000ea
:020000040000fa
:04011c00f6030000e6
:020000040000fa
:04012000f6030000e2
:020000040000fa
:04012400f6030000de
:020000040000fa
:04012800f6030000da
:020000040000fa
:04012c00f6030000d6
:020000040000fa
:04013000f6030000d2
:020000040000fa
:04013400f6030000ce
:020000040000fa
:04013800f6030000ca
:020000040000fa
:04013c00f6030000c6
:020000040000fa
:04014000f6030000c2
:020000040000fa
:04014400f6030000be
:020000040000fa
:04014800f6030000ba
:020000040000fa
:04014c00f6030000b6
:020000040000fa
:04015000f6030000b2
:020000040000fa
:04015400f6030000ae
:020000040000fa
:04015800f6030000aa
:020000040000fa
:04015c00f6030000a6
:020000040000fa
:04016000f6030000a2
:020000040000fa
:04016400f60300009e
:020000040000fa
:04016800f60300009a
:020000040000fa
:04016c00f603000096
:020000040000fa
:04017000f603000092
:020000040000fa
:04017400f60300008e
:020000040000fa
:04017800f60300008a
:020000040000fa
:04017c00f603000086
:020000040000fa
:04018000f603000082
:020000040000fa
:04018400f60300007e
:020000040000fa
:04018800f60300007a
:020000040000fa
:04018c00f603000076
:020000040000fa
:04019000f603000072
:020000040000fa
:04019400f60300006e
:020000040000fa
:04019800f60300006a
:020000040000fa
:04019c00f603000066
:020000040000fa
:0401a000f603000062
:020000040000fa
:0401a400f60300005e
:020000040000fa
:0401a800f60300005a
:020000040000fa
:0401ac00f603000056
:020000040000fa
:0401b000f603000052
:020000040000fa
:0401b400f60300004e
:020000040000fa
:0401b800f60300004a
:020000040000fa
:0401bc00f603000046
:020000040000fa
:0401c000f603000042
:020000040000fa
:0401c400f60300003e
:020000040000fa
:0401c800f60300003a
:020000040000fa
:0401cc00f603000036
:020000040000fa
:0401d000f603000032
:020000040000fa
:0401d400f60300002e
:020000040000fa
:0401d800f60300002a
:020000040000fa
:0401dc00f603000026
:020000040000fa
:0401e000f603000022
:020000040000fa
:0401e400f60300001e
:020000040000fa
:0401e800f60300001a
:020000040000fa
:0401ec00f603000016
:020000040000fa
:0401f000f603000012
:020000040000fa
:0401f400f60300000e
:020000040000fa
:0401f800f60300000a
:020000040000fa
:0401fc00f603000006
:020000040000fa
:04020000f603000001
:020000040000fa
:04020400f6030000fd
:020000040000fa
:04020800f6030000f9
:020000040000fa
:04020c00f6030000f5
:020000040000fa
:04021000f6030000f1
:020000040000fa
:04021400f6030000ed
:020000040000fa
:04021800f6030000e9
:020000040000fa
:04021c00f6030000e5
:020000040000fa
:04022000f6030000e1
:020000040000fa
:04022400f6030000dd
:020000040000fa
:04022800f6030000d9
:020000040000fa
:04022c00f6030000d5
:020000040000fa
:04023000f6030000d1
:020000040000fa
:04023400f6030000cd
:020000040000fa
:04023800f6030000c9
:020000040000fa
:04023c00f6030000c5
:020000040000fa
:04024000f6030000c1
:020000040000fa
:04024400f6030000bd
:020000040000fa
:04024800f6030000b9
:020000040000fa
:04024c00f6030000b5
:020000040000fa
:04025000f6030000b1
:020000040000fa
:04025400f6030000ad
:020000040000fa
:04025800f6030000a9
:020000040000fa
:04025c00f6030000a5
:020000040000fa
:04026000f6030000a1
:020000040000fa
:04026400f60300009d
:020000040000fa
:100400002f4521000eff27000e018800000000008c
:10041000000020000000e000020032000001200087
:100420002002880014000700f20007000000e0002e
:1004300003003a00004a23000100200002003700b8
:100440000000200001002000810f70000100320038
:100450000f000700000020000000e0000200320052
:100460000000020000000000121202000000000064
:100470000040da000000fe00200020000000e00044
:1004800002003200100020009001880000000600e9
:10049000a1028800800478000000eb001f003700f4
:1004a000e284440054a0b4009905ba00e2844400f8
:1004b00054a0b4009906ba00e284440054a0b400e9
:1004c0000006eb00476fde00fd07b200ae018800ba
:1004d000636ce10003003a000ad801000000eb0061
:1004e0000e003700606ce10008003a00004deb00a0
:1004f0000a05e800020039003420ec000af0a000f0
:100500008b05e900f9ff3e00040037006168e10057
:10051000010032000086eb000b00070019c7ba008b
:100520000e04e0001905ba0003003a000a00e000da
:10053000dbff3a0000000600fe07b200ae028800b2
:100540008a047800f5ff37000cd0a300e20f4d00bd
:100550001c003b0089027800354dba000a05e8000e
:10056000020039003420ec000af0a0008b05e900fd
:100570000f003200254dba000a05e80002003900dc
:100580003420ec000af0a0008b05e90008003200de
:100590000c00e0000600320015cdba000a05e800a4
:1005a000020039003420ec000af0a0008b05e900bd
:1005b0008984e80054a0b4000b00e000e2ff3a0098
:1005c000000006009902ba00055d78008b05e9007d
:1005d000f7ff3200c82ade00055d78008b05e900d0
:1005e000f3ff32000c00e000f1ff320019ddba0029
:1005f000eeff37003600f800809fbe00829fbe00ed
:10060000849fbe00869fbe000000fa000068a9001b
:10061000f60c0700f0140700820b0700e317070031
:10062000008080000000e80000808800ec0e0700d9
:1006300000808000f80f5000040034000030ef000c
:100640001b0e0700470e07005310070000000000b4
:100650000080fa004f03be004f02be004f01be00f3
:100660004f00be003600f90000400600809fbe002b
:100670000000fa000368a90010808000218080003b
:1006800061004000e08048001080880021808800e0
:10069000000000000080fa004f00be00004006008d
:1006a0000000fa000108a900000000000080fa0024
:1006b00000400600801f78000000fa0001a8a90091
:1006c0000018800030a288001018800040a2880026
:1006d0002018800050a288003018800060a2880096
:1006e0004018800070a2880010c0b3004df0b70021
:1006f000000000000080fa004f0078000040060073
:100700003600f800809fbe00829fbe00849fbe001e
:10071000869fbe000000fa000188a90021828000a7
:1007200010828000808f500002003200d216070035
:10073000010037004670ef00000000000080fa0062
:100740004f03be004f02be004f01be004f00be006f
:100750003600f900004006003600f800809fbe0019
:10076000829fbe00849fbe00869fbe000200fa00ea
:100770000168a900101180004200de0061406000a5
:100780000004e000010032002242a90010118000a4
:100790000000d100614060000004e000060032006b
:1007a0002222a9000400370030118000004f780099
:1007b0001e407800111707001011800000407800db
:1007c00061406000e14f5000f7ff32000000000080
:1007d0000080fa004f03be004f02be004f01be0072
:1007e0004f00be003600f900004006000040da006d
:1007f0000000fe000000050014002000ad033700db
:10080000f4ff2f00ab0337000001be003f000700dc
:100810000470a70003f0a1006509b10016003200c2
:100820000d0035006828e10006003500f0ff2f00bc
:10083000f1ff27000300e00013003b000100280047
:100840000000050000004000818048008502e900aa
:10085000fcff3a0008003700f88f420002003c001d
:100860008000eb00000005008100d1000080d30073
:100870008502e800fcff3a000300e00002003b00b4
:1008800060001000e0801800000006000001be00bb
:100890001e0007000470a70003f0a10003f8a300e6
:1008a00013003a006509b10010003200090035005c
:1008b0006928e10002003500010028000000050061
:1008c00000004000818048008502e900fcff3a00fa
:1008d00000000600f88f4200050035008100d100bd
:1008e0000080d3008502e800fcff3a00000006000b
:1008f0008000eb00000005004f89de0082017800d7
:10090000870337006011b80095033700c70ade007f
:10091000f107b200f50fb20008003200e1cf42004b
:10092000020032000170a00024000500810f700059
:10093000010032000408050044000500810f70002a
:1009400002003a00140005008502e90000004000a2
:1009500081c04800fcff3b000170a000240005009e
:1009600007f82700078361000638e10004003a0019
:10097000f7072000878361008703710001003a00b8
:1009800003f0a200889fbe008a9fbe008c9fbe001d
:10099000470ade000480a100c71ade000580a1001e
:1009a000070028000785600087856100f70f200099
:1009b0000720e1009e0032000728e1009c00320081
:1009c000010678000400e000b4003200f7072000c0
:1009d000878060000170a0000500e000c0003200c8
:1009e000f7072000878161000370a0000506520010
:1009f0000f003a000b50e1000b0032000308e10049
:100a000002003a000200e1007e00320002045000c1
:100a100083845800040031000001fd008101fd00c5
:100a20008402fd008a05fd006044b8002100370003
:100a30000520e10005003d000001fd008101fd00f1
:100a40008402fd008a05fd00050652007a60e1007f
:100a5000050035000170a1004722dd008480700090
:100a60008a807000630037006044b800ef026600bf
:100a700007ff2f00070666000500e00006003400af
:100a8000f08312008714dd000511de00071bdd0076
:100a9000060171008519de007060e1000500350077
:100aa0000904780082047800030178008001eb00db
:100ab000700656000b50e10003003a0002004000af
:100ac000838048000400370060041400e0841c00a8
:100ad00002005800838058000188a30006003200fd
:100ae0008100d1000080d3008984d3000884d30022
:100af0000402e800270037000178a30025003a002f
:100b00000100e000030032008186cf0069865600b4
:100b10000a0037008c0020000000e00004003a00ca
:100b200009007800880478000004eb00700252008d
:100b30008086cf000d0646000c06e9007060e100db
:100b400006003500800078000900780088047800ed
:100b50000004eb0070065600700252000c00e0002a
:100b60000c0034008c08dd00f00316000703de00e3
:100b7000868070000c00dd00074bde000600700070
:100b80008c4cdd000743de00868474000c44dd00dd
:100b90000c0252006120e10020003500610160007c
:100ba0000700280087816400f7ff2700878364001f
:100bb000070374000300e0000600320082037300a4
:100bc000040032000000e800e08048000188a30033
:100bd0000e003a00f70f20000720e1004a003d0018
:100be0000170a1004722dd00810072008a80700040
:100bf0000000be004f06be004f05be004f04be0001
:100c0000000006006000b800faff37008100d10044
:100c10000080d3000402e800eeff370004017800f2
:100c200089017400a10107008a807000f1ff37007c
:100c3000f7010700070278000001fd008101fd00b7
:100c4000f301070087027800850372000778a3008c
:100c5000040032000001fd008101fd0006020700d2
:100c6000e4ff3700850362000768a3000800320034
:100c70000b50e10003003200f0ff2f00f1ff2700ce
:100c8000dcff37000001fd008101fd00d9ff3700c6
:100c90000468a300d7ff3200faff3700f8ff2700ef
:100ca000888360000b003a000000e00009003a0071
:100cb0008303640082837300020032000200be00de
:100cc000ccff37000b50e100ceff3a000200be001f
:100cd000c8ff370014002000810064003eff370089
:100ce000f8ff27008883610004003a000200e0005a
:100cf00002003a008c007800beff3700150020008b
:100d00008301640039ff370001f82700000020004c
:100d100081007500b7ff3700889fbe008a9fbe0024
:100d20008c9fbe001b0020000202be0005866800ea
:100d300006002800060666004709de00f20fb20032
:100d4000820032000243e80080003200c729de0042
:100d5000f30fb2007d0032000343e8007b00320055
:100d6000f107b2000170a000f507b2000570a00005
:100d7000c708dd004903de00868070004700dd0003
:100d8000c72add004923de00868272004722dd008b
:100d9000030551000403500085835800030031000f
:100da00000004000818048000a05e9008c1f78009f
:100db0008a9fbe0004005000858058000402420053
:100dc00085824a0000004000818048000005eb0059
:100dd0000004be006033b8000406be000d48e10008
:100de00056003100110009004dccd8000c01b800ac
:100df0000d02b8008481410060824a008283530062
:100e000003045c0084845c0060055d000a00e0006f
:100e100025003a00800578000d40e10049003100ce
:100e20008800780007007800110009004d88d8007c
:100e30000c01b8000d02b8008481410060824a00b4
:100e40006003110083835b0004045c00e0845c00a9
:100e50000900e00021003a004f01be000300e0005d
:100e60002b003200e3016000070673008c817100e3
:100e700001003200640070004200de004e5edd00c2
:100e80000c007000c258de0001e0a00083010700e2
:100e9000cf017800818071004f06be004f05be0073
:100ea0004f04be00000006008c8343000d044c007c
:100eb000e0844c0060054d000000e9000a00e000fd
:100ec000d4ff32008c8343000d044c00e0844c00be
:100ed00060054d000000e900ceff37000c03430021
:100ee0008d834b0060044c00e0844c000000e9005e
:100ef0000900e000d8ff32000c0343008d834b0053
:100f000060044c00e0844c000000e900d2ff370090
:100f10004200de004e5edd000c007000c258de00b4
:100f200001e0a000cf0178000300e000daff32000a
:100f300060001000e0801800d7ff3700f0ff2f009e
:100f4000aaff3700f0ff2f00b9ff37000404be00ee
:100f50002f010700870678000004fd008104fd00d2
:100f60002b010700078366000678a3000300320008
:100f70000960a7000800be002c0037000d78a30010
:100f8000020032000800be00280037000778a300e6
:100f900026003a0001f0a10009f0a1000668a300b4
:100fa00003003200f1ff2700f0ff2f00baff3700e7
:100fb0000d68a300030032000800be008c807000a2
:100fc000b5ff37000768a30007003a000648a300f2
:100fd00003003200f1ff2700f0ff2f00aeff3700c3
:100fe0000d48a300030032006000b8008c80700040
:100ff000a9ff37000748a3000400320001f82700ca
:10100000000020008c807000a3ff370076010700ed
:101010000004fd008104fd00020578007201070054
:101020000802be008a01780059ff37000160a00065
:10103000120220007282880097ff37000100e00052
:10104000120032000500e00010003200889fbe0050
:101050008a9fbe008c9fbe000006eb0001f8a30033
:101060000300320060001000e08018000cf0a000c7
:1010700005f8a3000300320060021200e0821a00ab
:101080000cf0a2008005eb0041ff37006000b800c3
:1010900002000500038368000700280007036300bf
:1010a000470ade000480a100c71ade000580a10007
:1010b000f70f20000720e100420032000728e1007e
:1010c00040003200889fbe008a9fbe008c1f7800bf
:1010d000f107b200f307b2000400e0006400320040
:1010e0000170a0000500e000680032000370a0005d
:1010f00085054200eb07b1000204b8000302b80006
:101100008484440060854a00020ab8008484440054
:101110000a854a00030ab8000405450004003300ac
:101120000804d0008984d2000a85d2008b05e9002a
:101130006158e1003d003500021020000901610006
:101140000308200089816100f7072000878364007d
:1011500008867300c84cde00c853dd008784740025
:101160004855de000300e0000600320082037600ee
:10117000040032008904e80060054d000a88a300dd
:101180000c003a00f70f20000758e10044003d0032
:101190000a70a100c75ddd000a8575008a00730032
:1011a000090078004f0678004f05be004f04be00ce
:1011b000000006000a05d1008984d3008b05e800f1
:1011c000f0ff3700881f78000604780090000700c1
:1011d000070278000001fd008101fd008c0007007e
:1011e00087027800850372000778a30005003200ab
:1011f0000001fd008101fd009f0007004f04780001
:1012000000000600850372000748a30003003200b7
:10121000f0ff2f00f1ff2700f8ff3700000020004b
:1012200001f8270088807000f4ff370088017800fb
:101230004848dd00808171004848de00c850dd006c
:1012400001007000c850de00060478000b01780031
:101250001600070088807000d2ff37000500e0000c
:1012600005003200170020003a0007009dff3700fc
:1012700081037000f9ff3a00860078004f0678007d
:101280004f05be004f04be0000000500830371003f
:10129000f9ff3200270020002e00070094ff3700de
:1012a00001f8270086807000f4ff37000100e0009d
:1012b00026003200610111007810e10023003c009b
:1012c0006022b8007010e100040035008002780050
:1012d000010078008000eb00700151000200e00086
:1012e0000900340070031100062add00822ade00a6
:1012f0008603dd00878272000200de00860bdd00bf
:10130000070070008208de0084817100f4ff27006e
:1013100004826200848171000400280084826200db
:101320006102600005f0a600000006000482710062
:10133000070032000000e800e080480000000600de
:101340000002be006000b800efff37006000b80088
:1013500000000600889fbe000004eb006138e10039
:1013600016003a000100e00008003a00c800de0064
:101370004800dd00880020000100e00003003a0082
:10138000c800de004800dd00680444008184cf000e
:10139000e9845400060034008908dd00f08314005d
:1013a0008703de00878070000900dd000904440027
:1013b000610214004f04be00000006000300e000bc
:1013c00008003a00c811de004811dd008800200046
:1013d0000300e00003003a00c811de004811dd0000
:1013e000680444008384cf00e9845400060034007c
:1013f0008919dd00f08314008713de0087817100f6
:101400000911dd0009044400e1021400e9ff37007e
:101410002700200001f0a70017002000470bde0086
:10142000f60fb200040032000643e8000a00320062
:101430004702b3000000060001037800f607b2007f
:101440000603700002003a000703b3000000060024
:101450008702b3000000060001037800f607b2001f
:1014600006037000020032000770a00000000600b2
:101470000760a000000006000478a300040032000a
:101480000578a300030032000168a30001003a00c0
:101490000200be000160a000000006008101700093
:1014a000270032008002eb0001f8a30003003200a5
:1014b00060001000e080180015002000f4072000f4
:1014c0000202420020003400f7032000870360007e
:1014d00006042000000363000208200000016100f0
:1014e0004700de00c909dd0000807100c708de008a
:1014f0000600e00008003200870371000600320099
:101500001000b0000180b0000188a300020032008a
:10151000c108de000402e800f107b200f30f20006a
:101520000320e10003003d004722dd00810072003e
:101530002900370001f827000000eb0026003700e3
:101540006000b80000000600680212007f20e10081
:10155000020034006000b8001f0037006011b800be
:101560007020e1000400350080017800010078005f
:101570008000eb00700252000400e000090034001b
:10158000f00312000719dd008419de000703dd00f7
:10159000868171000400de00070bdd00060070008c
:1015a0008408de00f7ff2700838363008703710050
:1015b0000600280003036300070032000700e00074
:1015c00003003a00610160000281730002003200f2
:1015d0001000b0000180b0000500a6000000060069
:1015e00001f0a000000006004f0ade004709de00ff
:1015f000f107b200f20fb2000b003200f207b100a7
:101600000170a000c708dd00c901de008380700002
:101610004700dd000400a600000006006000100086
:10162000e080180000000600810f700001003a0001
:10163000000006008182cf000500e00010003e009f
:101640008082cf00ee8242007028e1000400390061
:1016500007003e00800078000000eb000e0037001d
:10166000708312008600de000500dd000a003700ee
:10167000708352008600dd000000eb00060037009a
:10168000e28252008508dd00708312000603de004e
:10169000868070000500dd007507b0000501ea00d6
:1016a0000400a6000000060060001000e0801800a2
:1016b00000000600889fbe008a9fbe00841f78003d
:1016c0007c0007004f00780011003300f0ff2f006e
:1016d000838f6c0006003b00040565000a00a7002c
:1016e0000800370009f0a6001000200008003700ad
:1016f000820f5400838f5c0003003900100020002b
:1017000001003e000000200009f0a7000000ea00f0
:101710004f05be004f04be000000e00000000600c0
:10172000881f7800030478000300e00007003d00f4
:1017300060001000e080180060011900e0811900cd
:1017400002003b0001f02d000300370004000700f9
:1017500008f0a70001f0a0004f0478000000060088
:10176000889fbe008a9fbe00008270000402710044
:1017700004827100260032000004be000200be0098
:101780006011b8006b092000950220000182cf0093
:101790000a0039000541b1000082cf00070039007e
:1017a0000541b1000982cf00040039000541b100b4
:1017b0000882cf00010039000541b1000542520006
:1017c000120032000a003b00828171006101640056
:1017d0008100d1000080d3008984d3000884d30025
:1017e0008b05e8000442e800f7ff3a0007003700e5
:1017f0000804440089844c000000480081804800af
:101800008b05e9000442e900f9ff3a0003000700f4
:101810004f05be004f04be000000060081002000fe
:10182000618055000b003d000b00200061fe2f0081
:101830000100e1001d00340082817100610164003b
:101840008904d1000884d3000000e800faff3a00c0
:10185000710020006100640003007000020060005d
:101860000900320061044400e0844c000988a500ae
:10187000050032008b05e8006808e10002003a002c
:101880008904d1000884d300f20f20000258e1003f
:1018900005003d00c75ddd00f907b20089807500d5
:1018a00008007800000006000bf827008b00780085
:1018b000000005000004be0014fc07000003be0089
:1018c0000405be000200be0010fc0700844f750036
:1018d000000006000400fa00000178008101780091
:1018e00003f0a100a4fd200095f42300840f510013
:1018f000858f59000e003e00f4ff2f00f59723005e
:10190000840f5100858f59003a003e0002002000ec
:1019100003b827001bfc0700e0bf9f00f1bf9f003a
:101920000000200001f823000080fa0000000600fb
:101930004f0ade0005002000163d2500b7072400f1
:10194000860f5100878f59001b003e0036be2c00c9
:1019500067012400860f5100878f59000a00360066
:10196000b2fd2000930424000400e00004003200d3
:1019700004fc0700ae01070001f0a200eaff3700f7
:10198000f7fb0700fbff37000400e0000500320012
:10199000b2fd200093fc2300fafb07002f02070092
:1019a000e1ff37000001be00b0fd200091fc2300e4
:1019b000ebfb0700f9ff3700561d2300270e24001c
:1019c000860f5100878f590014003e00f6dd2e006f
:1019d000f70a2400860f5100878f5900090036004e
:1019e000b2fd2000930c24000400e000030032004c
:1019f000e4fb07008e010700cbff3700d8fb070090
:101a0000fcff37000400e0000100320001f0a200fa
:101a100042be2c0063092400e5ff3700f4ff2f00cd
:101a2000f5f72700840f5100858f59000400360018
:101a30000001be000200be00c9fb0700baff37006c
:101a400064815700ae010700630160006fb8970022
:101a5000ffb89700e10f510005003200e20f51007e
:101a6000c4ff32000200e000ccff3a00e1ff370083
:101a700001f0a200c9ff3700889fbe008a9fbe0008
:101a8000800478000104780082057800030578005e
:101a900001f0a1000200200003f82700820f50008f
:101aa000838f580012003e000b0078008a007800f7
:101ab00001f0a100820f5000838f58000d003e00fe
:101ac00009027800880278004fc1de0082017800a8
:101ad0004fd0de0080007800800f5100818f5900c8
:101ae00009003200e00f5200e08f5a0001003d0073
:101af0000a04be0009007800880078004f05be0087
:101b00004f04be00000006000b0178008a01780037
:101b1000090078008800780037fb07000000e0002b
:101b2000f2ff3700889fbe008a9fbe000005be00fe
:101b3000820478000304780001f0a1000200200074
:101b400003f82700820f5000838f580013003e00d7
:101b5000090078008800780001f0a100820f500091
:101b6000838f58000b003e000a00be004fdade00f3
:101b7000840278004fc1de0082017800820f52009b
:101b8000838f5a000a003200e00f5000e08f5800a7
:101b900002003d008a0478000b04780009007800f8
:101ba000880078004f05be004f04be00000006000c
:101bb00009017800880178000ffb07000000e000b1
:101bc000f3ff37000400fa00889fbe008a9fbe0022
:101bd0000203410083834900e00f5300e08f5b0064
:101be00010003200020278008302780005f0a100a4
:101bf0000800200009f82700880f5200898f5a003a
:101c000008003e00a0bf9f00b1bf9f00470dde004f
:101c10000b002000f40f20000a056200840f55001d
:101c200007003a001bfd07000001be003afc070058
:101c30004f05be004f04be000080fa000000060001
:101c40000002400081824800840f5300858f5b00b2
:101c500006003900840f5300858f5b00f4ff3a00c3
:101c60006011b8000bfd0700f1ff37000a00e0002b
:101c70004c003a002fbb9700bfbb9700493add00ec
:101c8000c732de00850272004932dd00e00f5200eb
:101c9000e08f5a003f003d00610215002fbb970006
:101ca000bfbb9700040478000804e9000300330078
:101cb0000603430087834b00fbff37000602be008c
:101cc000471bde00070020000683fb000600e00043
:101cd0003d003a00491cdd00c714de008904740091
:101ce0004914dd00e00f5400e08f5c0032003d003d
:101cf000e10313000204be008703e9000300330080
:101d00000804440089844c00fbff3700080152009e
:101d100089815a00860f55002f003c00e00f5100ca
:101d2000e08f590004003500e00f5100e08f5900aa
:101d3000cbff32000202be004728de000100200077
:101d4000e00f5000e08f58002e0032000a00e00043
:101d5000300034000000200001f82f000402400091
:101d6000858248006150b900c700dd0000002000f6
:101d700004007000858070006022b8000200280016
:101d8000bfb9970083026100000072008180720079
:101d9000a7ff37000a05e9000402420085824a00d5
:101da000baff37002fba9700bfba9700f507b20005
:101db0000570a000c2ff37000603e90008044400d4
:101dc00089844c00c7ff37000204be00f907b20047
:101dd0000970a000cdff3700e00f5100e08f5900df
:101de00004003500e00f5100e08f59009cff3200e5
:101df0000202be000402420085824a000a05e90090
:101e0000c2ff37000402420085824a000a05e90049
:101e1000c9ff3700610515000400be000a05e9008e
:101e2000030033008100d1000080d300fbff3700a6
:101e3000d1ff37000400fa00889fbe000004be00f6
:101e40008900780001f0a100a4fd200095f4230092
:101e5000840f5000858f58001e003e00f4ff2f00b5
:101e6000f5972300840f5000858f580016003e0020
:101e70006000b80003f8270089806100e00f50007f
:101e8000e08f58000b003a000200200003382000c9
:101e90000800be007ffc07000001be00c2bf9f001b
:101ea000d3bf9f000800be004f04be000080fa00b0
:101eb000000006000200200003b827000800be0052
:101ec000b0fa0700f4ff37000800be00e300070087
:101ed000180037004f49de0003002000143d2500a4
:101ee000b5072400840f5000858f58001d003e0068
:101ef00034be2c0065012400840f5000858f5800eb
:101f00000e003e000800be000200e000b2fd20000e
:101f100093fc2300050032009afa070044000700f2
:101f20000004be0009f0a200deff37008cfa0700b3
:101f30003f0007000004be00daff37000800be00c3
:101f40000200e000b2fd20009304240003003200f0
:101f50008cfa070001f0a200dcff370080fa0700ce
:101f6000fcff3700541d2300250e2400840f500071
:101f7000858f580017003e00f4dd2e00f50a24007e
:101f8000840f5000858f580009003e000800be00f5
:101f90000200e00042be2c0063092400020032006f
:101fa00078fa0700e2ff37006dfa0700dbff370021
:101fb0000800be000200e000b2fd2000930c2400e7
:101fc000020032006ffa0700c0ff370064fa070012
:101fd000beff3700f2ff2f00f3f72700820f5000fb
:101fe000838f5800050036000801be000800be00bf
:101ff0005bfa07000004be00aaff370068815700a3
:102000000800be003e000700630160004fb8970063
:10201000dfb89700e10f5100c5ff3200e20f510019
:10202000ccff32000200e000bcff3a00a7ff3700ff
:102030000400fa00889fbe008a9fbe008c9fbe00ed
:102040000001be0013fc07000004be000001be003a
:1020500010fc07000005be000200200003f02b006a
:102060000800be000bfc07000200200003f823005c
:1020700044fa07000006be00f2a92a00a3d22300fa
:102080000a00be0003fc07000001be000c00be00f9
:102090003cfa07000002be0072a12900c37c2300a5
:1020a0000800be0084bf9f0095bf9f00f9fb07009a
:1020b000f243200063ab230029fa07000006be00ac
:1020c0000a01be000800be00f2fb07000001be00ce
:1020d0000c00be00effb07000001be000fba970026
:1020e0009fba97000400be0026fa07004f06be0004
:1020f0004f05be004f04be000080fa00000006003d
:102100000400fa00889fbe008a9fbe008c9fbe001c
:1021100000067800810478008206780001f0a100b2
:10212000a2fd200093dc2400820f5000838f580012
:1021300023003e0032982f0023f22300890078000c
:10214000d4fb07000200200003b424000dfa0700ae
:102150000200200003b4240001fa07000005be00bd
:10216000a9f9070000047800a2fd200093fc2300d9
:102170000a00be00c7fb07000001be000c0078008b
:1021800089007800f6f907000002be00325a2800e4
:10219000832823000a00be0084bf9f0095bf9f00d4
:1021a000bcfb07000001be000fba97009fba970062
:1021b0000400be00eaf90700808ebe000b00370065
:1021c000f2ff2f00f3f72700820f5000838f580093
:1021d0000c00360000017800890178008900780041
:1021e000dff90700808ebe000004eb0008007800d5
:1021f0004f06be004f05be004f04be000080fa002f
:1022000000000600890078004c0007000005be00b1
:1022100032982f0023f223009efb070002002000cb
:1022200003f02300d7f907005500070000047800e9
:102230003bfd070032982f0023f22300b6fa070077
:102240000001be000a00be00c5f907006000b8002a
:10225000a0069800b1069800d7ff37000400fa00e6
:10226000889fbe008a9fbe008c9fbe000006be00f5
:102270000001be0087fb07000004be000001be0095
:102280000c00be0083fb07000005be000801be0075
:102290000800be007ffb07000a01be007dfb0700af
:1022a0000002be00c2c32600636323000800be0014
:1022b00084bf9f0095bf9f0076fb0700f27c200043
:1022c00003952300a6f907000001be000fba97008e
:1022d0009fba97000400be006efb07000002be001c
:1022e0004288280083c023000800be0084bf9f00ee
:1022f00095bf9f0067fb0700b2aa2a00a3e2230054
:1023000097f907000a01be0062fb07000c01be003e
:102310009cf907000001be000fba97009fba970012
:102320000400be0097f907004f06be004f05be002f
:102330004f04be000080fa00000006000400fa000e
:102340006011b800e2bf9f00f3bf9f006fbb970012
:10235000ffbb97000002be00f0ff2f00f1ff2f002f
:10236000f2ff2f00f3ff270000006200818062006f
:1023700002016300838163000080fa000000060010
:102380000003be0061f907006011b8000470a700e7
:1023900007f0a1006509b1001b00320012003500f2
:1023a000860220000628e10008003500f3ff270020
:1023b000f2ff2f006110b9000700e00018003b0099
:1023c000030028006000b800020005000000400083
:1023d0008180480002014900838149008502e900ab
:1023e000faff3a0008003700f88f420002003c0074
:1023f0008000eb00000005008100d1000080d300c8
:102400008502e800fcff3a000700e00004003b0002
:1024100060001000e080180060011900e0811900e0
:0424200000000600b2
:020000040000fa
:102424000e00fa00889fbe0071100700be1007005e
:10243400091107009d0a0700840a07008f0a070094
:1024440059050700600507001a1007003f0307003d
:10245400fc08070000002400c1612400809fbe0026
:1024640000002400c1612400809fbe0000002400fd
:10247400c1612400809fbe006033b80004002000c6
:102484006536240002002000030c2400602e210085
:10249400310c0700ec87570000002400c1612400c0
:1024a400809fbe0000002400c1612400809fbe0004
:1024b40000002400c1612400809fbe006033b80086
:1024c400040020006536240002002000030c2400d0
:1024d400602b2100200c0700ec8757001493800028
:1024e4002593800090928000a19280000001be009c
:1024f4000400be0019f9070000017800010078000b
:10250400820278000002780022972f00f3f0230063
:1025140005007800840078000000be00fdf9070083
:10252400000178000100780082047800000478003b
:10253400149380002593800090928000a1928000e3
:102544000001be000400be000df907000001780080
:102554000100780082027800000278000200200066
:102564000300240005007800840078000000be0009
:10257400e8f9070000017800010078008202780081
:102584000002780009007800880078000001be008d
:1025940005007800840078000000be009e04070057
:1025a4006000b80090928800a19288006000b80092
:1025b40010938800219388006000b800b0928800ce
:1025c400c19288006000b800d0928800e19288002f
:1025d400040ea800052ea80095eea800054ea8003c
:1025e400746ea800040037009c0f0700004f7800a9
:1025f4001e4078001a0b0700610f07000004e0007a
:10260400f9ff3a0086030700f00f0700e14f50007e
:10261400f9ff3a00f10f0700e80f070010079800d0
:102624001e00900010007800008188000e80e800f1
:102634001080e80010007800108188000e80e80007
:1026440041002000108040001000780020818800a4
:102654000e80e800620020001000410010007800a5
:10266400308188000e80e800810020001080400046
:1026740010007800408188000e80e8001080e80097
:10268400100078008000eb009df80700323323002f
:10269400330524007efa0700000178000100780069
:1026a400820278000002780002002000035824000f
:1026b40005007800840078000000be0095f907004a
:1026c40020079800310798002e019000be01900069
:1026d40000002000812024008ef90700000178000a
:1026e40001007800820278000002780002002000d5
:1026f400030a240005007800840078000000be006e
:1027040096f8070080017800010178000300780042
:10271400820078000000be0090938800a193880096
:102724000e80e800420020001000410010007800f4
:102734008000eb0072f807003233230033052400d5
:1027440053fa070000017800010078008202780043
:1027540000027800020020000358240005007800dd
:10276400840078000000be006af907002007980082
:10277400310798002e019000be0190000000200057
:102784008120240063f9070000017800010078002b
:10279400820278000002780002002000030a24006c
:1027a40005007800840078000000be006bf8070084
:1027b400800178000101780003007800820078002d
:1027c4000000be0070938800819388000e80e800aa
:1027d4006100200010804000100078008000eb00b1
:1027e40047f80700323323003305240028fa070092
:1027f400000178000100780082027800000278006d
:1028040002002000035824000500780084007800aa
:102814000000be003ff90700200798003107980028
:102824002e019000be0190000000200081202400b1
:1028340038f907000001780001007800820278006e
:102844000002780002002000030a2400050078003a
:10285400840078000000be0040f807008001780082
:102864000101780003007800820078000000be00b7
:1028740050938800619388001e0090001000780037
:102884008000eb001ef807003233230033052400d8
:10289400fff9070000017800010078008202780047
:1028a400000278000200200003582400050078008c
:1028b400840078000000be0016f907002007980085
:1028c400310798002e019000be0190000000200006
:1028d400812024000ff9070000017800010078002e
:1028e400820278000002780002002000030a24001b
:1028f40005007800840078000000be0017f8070087
:1029040080017800010178000300780082007800db
:102914000000be00b0938800c19388000e80e800d8
:102924008200200010004100100078008000eb00bd
:10293400f3f707003233230033052400d4f90700ea
:10294400000178000100780082027800000278001b
:102954000200200003582400050078008400780059
:102964000000be00ebf8070020079800310798002c
:102974002e019000be019000000020008120240060
:10298400e4f8070000017800010078008202780072
:102994000002780002002000030a240005007800e9
:1029a400840078000000be00ecf707008001780086
:1029b4000101780003007800820078000000be0066
:1029c400d0938800e1938800509380006193800045
:1029d40002002000031f240086f707000000e00027
:1029e40002003c00856ea80001003700856ea90036
:1029f400709380008193800002002000031f240054
:102a04007cf707000000e00002003c00848ea80070
:102a140001003700848ea90090938000a193800068
:102a240002002000031f240072f707000000e000ea
:102a340002003c0084aea8000100370084aea90067
:102a4400b0938000c193800002002000031f240083
:102a540068f707000000e00002003c0084cea800f4
:102a64000100370084cea900d0938000e193800058
:102a740002002000031f24005ef707000000e000ae
:102a840002003c00754ea80001003700754ea900f5
:102a9400508180008000e80051818800a10020005e
:102aa40001017800110009000200d8008000fd0037
:102ab4000000e000d0fe3a0090938000a1938000d3
:102ac40071f70700804078008000200001777800cb
:102ad40070938000819380006bf70700804078003a
:102ae400800020000000e800017778005093800007
:102af4006193800064f70700804078008000200024
:102b04000080e80001777800680047000001780041
:102b1400310020000003200058090700b092800013
:102b2400c192800058f7070080407800b000200070
:102b340001777800d0928000e192800052f707007c
:102b440080407800b00020000000e80001777800a1
:102b54006b004700000178002100200000042000e1
:102b640046090700a4fe37000000fa002cd0bf007d
:102b74000080fb006100b900b200200003002000c7
:102b8400820f5000838f58007d003e000006010034
:102b94000b00370016003700220037002d003700e5
:102ba400310037003d003700410037004d00370049
:102bb400510037005c003700600037006b003700bd
:102bc4000230ef000430ef006011b8006000b8007c
:102bd4006603070010c0b3002cf0b700108080001b
:102be400218080000001be000040eb00ff080700c8
:102bf4002ed0bf00e14f500063003a0012808000e5
:102c040023808000803e200001002000800f5100be
:102c1400818f59005c00360020c0b3002cf0b7004f
:102c240059003700c2f02500532d2c006000b80075
:102c34004e03070010808000218080000001be0048
:102c440020c0b300e908070030c0b3002cf0b7007f
:102c5400580037002ed0bf00e14f50004c003a001e
:102c6400570007004a00370092bf2e00831b2c0038
:102c740000002000010d2c003c03070010808000a0
:102c8400218080000001be0040c0b300d7080700c7
:102c940050c0b3002cf0b700460037002ed0bf0060
:102ca400e14f50003c003a00450007003a0037006d
:102cb40092bf2e00831b2c0000002000010d240075
:102cc4002a03070010808000218080000001be00dc
:102cd40060c0b300c508070070c0b3002cf0b70093
:102ce400340037002ed0bf00e14f50002c003a00d2
:102cf400330007002a0037006011b80000002000ec
:102d04000115240019030700108080002180800031
:102d14000001be0080c0b300b408070090c0b30037
:102d24002cf0b700230037002ed0bf00e14f500035
:102d34001d003a00220007001b0037006011b80094
:102d44000000200001152c000803070010808000fb
:102d5400218080000001be00a0c0b300a3080700ca
:102d6400b0c0b3002cf0b700120037002ed0bf0063
:102d7400e14f50000e003a00110007000c0037002c
:102d84002c70ef000b003700000000000900370032
:102d940000000000070037000000000005003700b5
:102da40000000000030037000000000001003700ad
:102db40000000000000000000080fa00000006008f
:102dc4000200fa000040eb00004f780050938000ae
:102dd4006193800002002000031f240085f6070091
:102de4000000e00018003d00709380008193800093
:102df40002002000831c240080f607000000e0008d
:102e04001100340090938000a19380000200200000
:102e1400031f240079f607000000e0000a003400d4
:102e2400b0938000c193800002002000031f24009f
:102e340072f607000000e0000300340020c0b30075
:102e4400004f78009d003700d0938000e19380000c
:102e540002002000c320240066f607000000e00002
:102e640018003d00709380008193800002002000d0
:102e7400831c240061f607000000e0001100340008
:102e840090938000a193800002002000031f24007f
:102e94005af607000000e0000a003400b0938000f6
:102ea400c193800002002000031f240053f6070092
:102eb4000000e0000300340020c0b300004f78009d
:102ec4007e003700d0938000e19380000200200050
:102ed400031f240049f607000000e0001800340036
:102ee400509380006193800002002000031f24009f
:102ef40042f607000000e0001100340070938000e7
:102f04008193800002002000831c24003bf607000c
:102f14000000e0000a00340090938000a193800038
:102f240002002000031f240032f607000000e00026
:102f340003003d0010c0b300004f78005f0037006d
:102f4400d0938000e193800002002000031f24003e
:102f54002af607000000e0001800340050938000b7
:102f64006193800002002000031f240023f6070061
:102f74000000e00011003400709380008193800011
:102f840002002000831c24001cf607000000e0005f
:102f94000a003400b0938000c19380000200200036
:102fa400c320240013f607000000e00003003d00e6
:102fb40010c0b300004f78004000370070938000c9
:102fc40081938000020020000322240009f60700f8
:102fd4000000e00003003d0030c0b300004f780063
:102fe4003600370050938000619380000200200077
:102ff400031f2400fff507000000e0000a003d0065
:1030040090938000a193800002002000031f2400fd
:10301400f8f507000000e00003003d0030c0b300f5
:10302400004f780025003700d0938000e1938000a2
:1030340002002000c3202400f0f507000000e00097
:103044001e00340050938000619380000200200031
:10305400c3202400e9f507000000e0001700340055
:10306400709380008193800002002000031f2400dd
:10307400e2f507000000e0001000340090938000a7
:10308400a193800002002000c3202400dbf5070088
:103094000000e00009003400b0938000c193800078
:1030a40002002000c3202400d4f507000000e00043
:1030b400020034000040eb00004f78001e4078000e
:1030c4000004e00003003a0020c0b3002df0b70074
:1030d400110037001e407800e24f500003003a0010
:1030e40040c0b3002df0b7000b0037001e4078003d
:1030f400e14f500003003a0060c0b3002df0b70068
:10310400050037001e407800e34f500002003a00eb
:1031140080c0b3002df0b7002dd0bf000080fb00ad
:10312400c1022100914078008180fb008100e90008
:10313400810f5000020032002dd0bf002cf0b700e8
:10314400000000000080fa00000006000000fa0001
:1031540002ccbf000000a1000010a1000020a100cb
:1031640002ecb70000962000206088001061800007
:1031740000a0a00000b0a0001061880023cca8002b
:1031840023eca80030002000206188001062800039
:1031940000a0a00000b0a0001062880043cca800ea
:1031a40043eca800300020002062880001eca80055
:1031b400000000000080fa00000006000800fa0089
:1031c400008fbe00220798003307980002002000f9
:1031d40003f823002e009000be00900085f5070040
:1031e4000000e00042003a006011b8001e007800c0
:1031f4009e00900081f507000000e0001e003500ed
:1032040002002000031c24001e0078009e00900091
:103214009ff707000001780001007800820278001f
:1032240000027800d0818000e18180000001be00ae
:1032340005007800840078000000be00d0f5070087
:103244000001780001007800820178000001780014
:1032540003007800820078000000be008af50700b1
:1032640030618800d0818000e181800086f507000c
:10327400706188001e003700d0818000e1818000e9
:1032840081f50700306188001e0078009e009000e0
:1032940001f0a20002002000031c24007cf70700b8
:1032a40000017800010078008202780000027800b2
:1032b400d0818000e18180000001be00050078001b
:1032c400840078000000be00adf50700000178001e
:1032d4000100780082017800000178000300780082
:1032e400820078000000be0067f507007061880066
:1032f4006011b8002e009000be0090003df507005c
:103304000000e00001003200420037006011b80004
:103314001e0078009e00900038f507000000e000d1
:103324001e00350002002000031c24001e0078004b
:103334009e00900056f70700000178000100780015
:103344008202780000027800d0818000e181800050
:103354000001be0005007800840078000000be0073
:1033640087f50700000178000100780082017800e9
:103374000001780003007800820078000000be009d
:1033840041f5070030628800d0818000e18180002f
:103394003df50700706288001e003700d081800070
:1033a400e181800038f50700306288001e00780053
:1033b4009e00900001f0a20002002000031c2400e3
:1033c40033f70700000178000100780082027800da
:1033d40000027800d0818000e18180000001be00fd
:1033e40005007800840078000000be0064f5070042
:1033f4000001780001007800820178000001780063
:1034040003007800820078000000be001ef507006b
:1034140070628800000000000080fa0000000600ce
:103424000000fa00889fbe00b4928000c59280001c
:10343400f0928000019380000001be000400be00f1
:10344400ecf407000000e00014003d00f892800056
:1034540009938000b4928000c5928000f0818000be
:10346400018280000001be000400be0044f5070094
:1034740000017800010078008202780000027800e0
:103484000801be0005007800840078000000be003a
:10349400af0a0700b0928800c1928800b4928000fd
:1034a400c5928000f0928000019380000001be006c
:1034b4000400be00d1f407000000e0001400340052
:1034c400f892800009938000b4928000c592800035
:1034d400f0818000018280000001be000400be0073
:1034e4001ef50700000178000100780082027800d0
:1034f400000278000801be0005007800840078000e
:103504000000be007b0a0700b0928800c1928800c8
:10351400b0928000c19280006011b800b7f4070037
:103524000000e0001e003400b0928000c1928000d0
:1035340002002000031c2400d5f6070000017800d7
:10354400010078008202780000027800d0818000b7
:10355400e18180000001be0005007800840078004d
:103564000000be0006f507000001780001007800a5
:10357400820178000001780003007800820078005e
:103584000000be00c0f4070030618800d0818000d4
:10359400e1818000bcf40700706188001e003700e0
:1035a400d0818000e1818000b7f407003061880099
:1035b400b0928000c192800001f0a20002002000bd
:1035c400031c2400b2f60700000178000100780013
:1035d4008202780000027800d0818000e1818000be
:1035e4000001be0005007800840078000000be00e1
:1035f400e3f40700000178000100780082017800fc
:103604000001780003007800820078000000be000a
:103614009df4070070618800d4928000e5928000d8
:1036240030938000419380000001be000400be007e
:1036340070f407000000e00014003d00389380009f
:1036440049938000d4928000e5928000f08180004c
:10365400018280000001be000400be00c8f407001f
:1036640000017800010078008202780000027800ee
:103674000801be0005007800840078000000be0048
:10368400330a0700d0928800e1928800d492800027
:10369400e592800030938000419380000001be00d9
:1036a4000400be0055f407000000e00014003400dc
:1036b4003893800049938000d4928000e592800082
:1036c400f0818000018280000001be000400be0081
:1036d400a2f407000001780001007800820278005b
:1036e400000278000801be0005007800840078001c
:1036f4000000be00ff090700d0928800e192880014
:10370400d0928000e19280006011b8003bf4070081
:103714000000e0001e003500d0928000e19280009d
:1037240002002000031c240059f607000001780061
:10373400010078008202780000027800d0818000c5
:10374400e18180000001be0005007800840078005b
:103754000000be008af40700000178000100780030
:10376400820178000001780003007800820078006c
:103774000000be0044f4070030628800d08180005d
:10378400e181800040f40700706288001e00370069
:10379400d0818000e18180003bf407003062880022
:1037a400d0928000e192800001f0a200020020008b
:1037b400031c240036f6070000017800010078009d
:1037c4008202780000027800d0818000e1818000cc
:1037d4000001be0005007800840078000000be00ef
:1037e40067f4070000017800010078008201780086
:1037f4000001780003007800820078000000be0019
:1038040021f4070070628800000000004f04be002d
:103814000080fa00000006000800fa00008fbe00d5
:10382400220798003307980022972f00f3e0230023
:103834002e009000be00900015f6070000017800ed
:103844000100780082027800000278001e017800ee
:103854009e01900005007800840078000000be00fe
:1038640047f4070000017800010078008202780024
:103874000002780002002000c3202c00050078001c
:10388400840078000000be0001f607008001780083
:103894000101780003007800820078000000be0077
:1038a400309388004193880022972f00f3e023008f
:1038b4002e009000be009000f5f50700000178008e
:1038c400010078008201780000017800030078008c
:1038d400820078000001be001e0078009e00900067
:1038e4001ef40700000178000100780082027800cd
:1038f4000002780002002000c320240005007800a4
:10390400840078000000be00e1f507008001780023
:103914000101780003007800820078000000be00f6
:10392400f0928800019388003093800041938000d6
:1039340004002000852c240002002000832c2c008d
:103944009a090700f092800001938000040020008f
:10395400852c240002002000832c2c0093090700ee
:10396400000000000080fa00000006000800fa00d1
:10397400008fbe0022079800330798001e017800cc
:103984009e01900072958800839588002e01900016
:10399400be01900092958800a39588000000000065
:1039a4000080fa00000006000000fa00c301a8002d
:1039b400dca1ef00dea1ef00c1e1a80000000000df
:1039c4000080fa00000006000000fa00c305a80009
:1039d400dca5ef00dea5ef00c1e5a80000000000b3
:1039e4000080fa00000006001000fa00889fbe0064
:1039f4008a9fbe00c0808000d180800080808800c3
:103a040091808800e0808000f1808000a0808800a0
:103a1400b1808800300e80008000eb00008fbe0073
:103a2400500e80008000eb00c000dd00000020008c
:103a34001e0f40005e974800302e80008000eb008f
:103a44002007980031079800502e80008000eb007a
:103a5400c000dd000000200064014700e4014700cd
:103a6400331940002391480012027800920290001a
:103a740024079800350798001e0078009e009000e7
:103a84009cf30700c2532e007378230080f50700cf
:103a940000017800010078008201780000017800bc
:103aa4000300780082007800c0808800d1808800fc
:103ab4002e009000be0090008ef30700c2532e002b
:103ac40073782b0072f5070000017800010078007c
:103ad40082017800000178000300780082007800f9
:103ae400e0808800f1808800c4808000d580800058
:103af40080808000918080000001be000400be0030
:103b040096f307004007980051079800e48080006e
:103b1400f5808000a0808000b18080000001be009c
:103b24000400be008df30700600798007107980039
:103b340002002000a33724004e009000de00900015
:103b440053f5070080017800010178000300780034
:103b5400820078000000be00f09388000194880081
:103b640002002000a33724006e009000fe009000a5
:103b740047f5070080017800010178000300780010
:103b8400820078000000be00109488002194880010
:103b9400f4938000059480001094800021948000a8
:103ba4000001be000400be0075f3070000017800a8
:103bb40001007800820278000002780002002000f0
:103bc4000300240005007800840078000000be0093
:103bd40050f40700800178000101780003007800a8
:103be400820078000000be00309488004194880070
:103bf400f493800005948000109480002194800048
:103c04000001be000400be0054f307000001780068
:103c140001007800820278000002780022972f00c9
:103c2400f3e8230005007800840078000000be005b
:103c340038f407008001780001017800030078005f
:103c4400820078000000be005094880061948800cf
:103c5400d0948000e194800070948800819488005e
:103c6400f09480000195800090948800a1948800cd
:103c74001095800021958000b0948800c19488003c
:103c840078948000899480003a9480004b9480005a
:103c940010958000219580000df707000001be00fb
:103ca4000a00be00faf40700000178000100780061
:103cb400820278000002780002002000a33724006a
:103cc40005007800840078000000be0011f40700ad
:103cd400000178000100780082017800000178007a
:103ce40003007800820078000001be000800be00d6
:103cf40023f30700800178000101780003007800b5
:103d0400820078000000be00d0948800e19488000e
:103d140098948000a99480003a9480004b94800089
:103d2400109580002195800041f807000001be0035
:103d34000a00be00d6f407000001780001007800f4
:103d4400820278000002780002002000a3372400d9
:103d540005007800840078000000be00edf3070041
:103d640000017800010078008201780000017800e9
:103d740003007800820078000001be000800be0045
:103d8400fff2070080017800010178000300780049
:103d9400820078000000be00f0948800019588003d
:103da400b8948000c994800050948000619480008d
:103db40002002000a3372400d6f307000001780096
:103dc4000100780082017800000178000300780087
:103dd400820078000001be000800be00e8f207007f
:103de40080017800010178000300780082007800e7
:103df4000000be0010958800219588001095800071
:103e040021958000b2fd2000930424007bf207007a
:103e14000000e0000c003400109580002195800023
:103e2400b2fd2000930c2400ccf20700800178003e
:103e34000101780003007800820078000000be00d1
:103e440010958800219588001095800021958000a8
:103e5400b2fd200093042c0066f207000000e0008d
:103e6400010035000c00370010958000219580007a
:103e7400b2fd2000930c2400c1f2070080017800f9
:103e84000101780003007800820078000000be0081
:103e94001095880021958800000000004f05be00a1
:103ea4004f04be000080fa00000006001800fa006b
:103eb400108080002180800000017800810178005a
:103ec4008000eb000e007800ba070700d094800051
:103ed400e19480000001be00410020000e00780043
:103ee40076070700f0948000019580000001be0071
:103ef400810020000e0078007007070010958000f4
:103f0400219580000001be00c10020000e00780051
:103f14006a07070030948000419480000001be00cd
:103f2400010120000e00780064070700509480000f
:103f3400619480000001be00410120000e00780061
:103f44005e0707000e0178008101200010062000a2
:103f54004a040700000000000080fa000000060088
:103f64006c00fa001080800021808000000178003d
:103f7400810178008000eb000e0078008d070700b7
:103f840070958000819580000001be0041002000f2
:103f94000e0078004907070090958000a1958000e5
:103fa4000001be00810020000e00780043070700d6
:103fb40030988000419880000001be00c1002000bc
:103fc4000e0078003d070700b0968000c19680007f
:103fd4000001be00010120000e0078003707070031
:103fe40030958000419580000001be004101200011
:103ff4000e0078003107070050958000619580001d
:104004000001be00810120000e0078002b0707008c
:1040140030978000419780000001be00c10120005c
:104024000e00780025070700b0958000c195800038
:104034000001be00010220000e0078001f070700e7
:1040440050978000619780000001be00410220006b
:104054000e00780019070700d0958000e1958000d4
:104064000001be00810220000e0078001307070043
:1040740070978000819780000001be00c10220007b
:104084000e0078000d070700f0958000019680006f
:104094000001be00010320000e007800070707009e
:1040a40050988000619880000001be004103200008
:1040b4000e00780001070700d0968000e19680008a
:1040c4000001be00810320000e007800fb060700fb
:1040d40070988000819880000001be00c103200018
:1040e4000e007800f5060700f09680000197800026
:1040f4000001be00010420000e007800ef06070056
:1041040090988000a19880000001be004104200026
:104114000e007800e90607001097800021978000c0
:104124000001be00810420000e007800e3060700b1
:1041340090978000a19780000001be00c104200078
:104144000e007800dd06070010968000219680009e
:104154000001be00010520000e007800d70607000c
:10416400b0978000c19780000001be004105200087
:104174000e007800d106070030968000419680003a
:104184000001be00810520000e007800cb06070068
:10419400d0978000e19780000001be00c105200097
:1041a4000e007800c50607005096800061968000d6
:1041b4000001be00010620000e007800bf060700c3
:1041c4000e0178004106200020062000ab03070002
:1041d400000000000080fa00000006000000fa0061
:1041e400889fbe008a9fbe0030a1800041a180004c
:1041f4006011b8007ff107000000e00015003a00ec
:1042040050a1800061a180006011b8007bf107001b
:104214000000e00005003400b0fd200091fc230004
:1042240010a1880021a188000a00370050a1800055
:1042340061a180006011b8006ef107000000e00089
:1042440004003d00b0fd200091fc2b0010a188006b
:1042540021a1880030a1800041a180006011b80034
:1042640066f107000000e00004003400b0fd200007
:1042740091fc230010a1880021a1880010a18000d6
:1042840021a18000f4a0800005a180000001be00ef
:104294000400be00040607000002be00f0a0800077
:1042a40001a180000001be000400be00abf10700c4
:1042b4000001780001007800820178000001780094
:1042c400030078008200780070a1880081a1880032
:1042d40094a18000a5a1800090a18000a1a18000ec
:1042e4000001be000400be0069f30700000178006d
:1042f400010078008204780000047800b0a18000f6
:10430400c1a180000001be009df1070000017800fa
:104314000100780082017800000178000300780031
:10432400820078000001be0009007800880078004f
:104334000000be0077f20700000178000100780059
:104344008201780000017800030078008200780080
:1043540010a2880021a2880090a18000a1a1800061
:104364006011b80023f107000000e00005003d00e3
:1043740010a2800021a2800001f0a20010a28800f7
:1043840021a2880090a18000a1a180000200200049
:10439400a33724005ff207000001780001007800d1
:1043a4008201780000017800030078008200780020
:1043b400f0a1880001a2880010a2800021a2800040
:1043c4006011b8000df107000000e00006003500a0
:1043d40070a1800081a180006011b80007f107007e
:1043e4000000e0000c003d0010a2800021a280002b
:1043f4006011b800fff007000000e0005d003c0021
:1044040070a1800081a180006011b800f9f007005c
:104414000000e00057003c0070a1800081a18000f2
:104424000002be0005f0a10010a2800021a28000bd
:1044340001f0a1000001be000400be00eff007007f
:104444000000e0004b00350070a1800081a18000d5
:104454006011b800e9f007000000e0001e0034001d
:10446400d8a18000e9a180009aa18000aba18000be
:10447400b0a18000c1a1800002002000a337240065
:1044840024f207000001780001007800820178001e
:104494000001780003007800820078000001be006b
:1044a4000a00be0036f10700000178000100780020
:1044b40082027800000278000801be00050078003e
:1044c400840078000000be0095f5070090a18800e4
:1044d400a1a188006a00370070a1800081a180003a
:1044e4006011b800c3f007000000e00001003500cf
:1044f40063003700d0a18000e1a180000004be0069
:1045040009f0a2009aa18000aba18000b0a18000b4
:10451400c1a1800002002000a3372400fdf10700a0
:104524000001780001007800820178000001780021
:1045340003007800820078000001be000a00be007b
:1045440006f107000001780001007800820278007b
:10455400000278000801be0005007800840078009d
:104564000000be0043f5070090a18800a1a18800c7
:104574004300370090a18000a1a180006011b80021
:104584009ef007000000e0001c00340098a18000a9
:10459400a9a18000b0a18000c1a180000200200078
:1045a400a3372400dbf10700000178000100780044
:1045b400820178000001780003007800820078000e
:1045c4000001be000800be00e4f00700000178000e
:1045d4000100780082027800000278006011b800bf
:1045e40005007800840078000000be0021f5070073
:1045f40090a18800a1a188002100370090a180002b
:10460400a1a180006011b8007af007000000e0006a
:104614001b003d0098a18000a9a18000b0a18000ea
:10462400c1a1800002002000a3372400b9f10700d3
:104634000001780001007800820178000001780010
:1046440003007800820078000001be000800be006c
:10465400cbf00700000178000100780082027800a6
:10466400000278006011b80005007800840078002a
:104674000000be002af5070090a18800a1a18800cf
:1046840090a18000a1a1800002002000a337240093
:10469400a0f1070000017800010078008201780091
:1046a400000178000300780082007800f0a18800ff
:1046b40001a2880070a1800081a180000002be00d8
:1046c40005f0a100f0a1800001a2800001f0a1008a
:1046d4000001be000400be0046f007000000e00038
:1046e40004003d0070a1800081a18000f0a1880039
:1046f40001a28800f4a0800005a18000f0a1800040
:1047040001a280000001be000400be009cf007006e
:10471400000178000100780082017800000178002f
:104724000300780082007800f0a0880001a18800ce
:1047340090a18000a1a180006011b8002df00700b5
:104744000000e000010032000d00370070a180007d
:1047540081a1800001f0a100a2702d0033c22300ca
:1047640024f007000000e0000100350004003700d9
:1047740010a1800021a18000f0a0880001a1880080
:10478400000000004f05be004f04be000080fa0088
:10479400000006000e00fa00e041210010407800fd
:1047a400004f7800f0412100104078001047980035
:1047b4000042210010407800204798001042210058
:1047c40010407800304798002042210010407800c3
:1047d400404798003042210010407800504798002c
:1047e4004042210010407800604798005042210068
:1047f4001040780070479800204321001040780052
:10480400004f98003043210010407800104f98006a
:104814004043210010407800204f9800504321006d
:1048240010407800304f98000e017800c10020003d
:104834001009200011020700000000000080fa00a7
:10484400000006000000fa006000b800f0a0880034
:1048540001a188006000b80070a1880081a18800cf
:104864006000b80010a2880021a288006000b8008f
:10487400f0a1880001a288000000200001f02300bc
:1048840090a18800a1a188000000200001f8230065
:10489400b0a18800c1a18800000000000080fa00d7
:1048a400000006000400fa00008fbe00200880000b
:1048b4000040a1000050a100200888001e017800db
:1048c4009e019000001c2e0041c6240011f1070037
:1048d400000178000100780082027800000278006c
:1048e40002f02f00f377240005007800840078009c
:1048f4000000be00c1ef07000000e0008d0034009e
:10490400200880000040a0000050a100200888007a
:104914001e0178009e019000001c2e0041c6240058
:10492400fcf00700000178000100780082027800a2
:104934000002780002002000031024000500780023
:10494400840078000000be00f2f007000001780047
:1049540001007800820278000002780002f02f0043
:10496400f377240005007800840078000000be007e
:10497400a2ef07000000e00055003400200880008a
:104984000040a1000050a000200888001e0178000b
:104994009e019000001c2e0041c62400ddf007009b
:1049a400000178000100780082027800000278009b
:1049b4000200200003282400050078008400780009
:1049c4000000be00d3f00700000178000100780069
:1049d400820278000002780002f02f00f3772400ae
:1049e40005007800840078000000be0083ef070013
:1049f4000000e0001d003400200880000040a000fa
:104a04000050a000200888001e0178009e0190003c
:104a1400001c2e0041c62400bef0070000017800ef
:104a24000100780082027800000278000200200071
:104a34000338240005007800840078000000be00dc
:104a4400b4f00700000178000100780082017800ca
:104a54000001780003007800820078000000be00a6
:104a640068ef070010088800400037001e01780036
:104a74009e019000001c2e0041c62400a5f00700f2
:104a840000017800010078008202780000027800ba
:104a94000200200003282400050078008400780028
:104aa4000000be009bf007000001780001007800c0
:104ab4008201780000017800030078008200780009
:104ac4000000be004fef07001008880027003700e1
:104ad4001e0178009e019000001c2e0041c6240097
:104ae4008cf0070000017800010078008202780051
:104af4000002780002002000031024000500780062
:104b0400840078000000be0082f0070000017800f5
:104b14000100780082017800000178000300780029
:104b2400820078000000be0036ef070010088800fd
:104b34000e0037001e0178009e019000001c2e001c
:104b440041c6240073f007000001780001007800da
:104b54008201780000017800030078008200780068
:104b64000000be0027ef07001008880000000000c6
:104b74000080fa00000006000400fa00008fbe0066
:104b8400f00880000040a1000050a100f008880057
:104b94001e0178009e019000001c2e0041c62400d6
:104ba4005cf00700000178000100780082027800c0
:104bb4000002780002f02f00f3772400050078004b
:104bc400840078000000be000cef07000000e00045
:104bd4008d003400f00880000040a0000050a100c7
:104be400f00888001e0178009e019000001c2e0031
:104bf40041c6240047f00700000178000100780056
:104c040082027800000278000200200003102400d1
:104c140005007800840078000000be003df0070025
:104c24000001780001007800820278000002780018
:104c340002f02f00f3772400050078008400780048
:104c44000000be00edee07000000e0005500340057
:104c5400f00880000040a1000050a000f008880087
:104c64001e0178009e019000001c2e0041c6240005
:104c740028f0070000017800010078008202780023
:104c840000027800020020000328240005007800b8
:104c9400840078000000be001ef0070000017800c8
:104ca40001007800820278000002780002f02f00f0
:104cb400f377240005007800840078000000be002b
:104cc400ceee07000000e0001d003400f008800074
:104cd4000040a0000050a000f00888001e017800e9
:104ce4009e019000001c2e0041c6240009f007001c
:104cf4000001780001007800820278000002780048
:104d040002002000033824000500780084007800a5
:104d14000000be00ffef07000001780001007800ea
:104d24008201780000017800030078008200780096
:104d34000000be00b3ee0700d00888004000370032
:104d44001e0178009e019000001c2e0041c6240024
:104d5400f0ef07000001780001007800820278007b
:104d640000027800020020000328240005007800d7
:104d7400840078000000be00e6ef07000001780020
:104d840001007800820178000001780003007800b7
:104d9400820078000000be009aee0700d008880068
:104da400270037001e0178009e019000001c2e0091
:104db40041c62400d7ef0700000178000100780005
:104dc4008202780000027800020020000310240010
:104dd40005007800840078000000be00cdef0700d5
:104de4000001780001007800820178000001780059
:104df40003007800820078000000be0081ee070006
:104e0400d00888000e0037001e0178009e01900033
:104e1400001c2e0041c62400beef070000017800ec
:104e24000100780082017800000178000300780016
:104e3400820078000000be0072ee0700d0088800ef
:104e4400000000000080fa00000006000000fa00e4
:104e540000002000a137240092fe070005e1a9000c
:104e64000421a9000068a9002068a80005e1a800a1
:104e7400000000000080fa00000006000000fa00b4
:104e840000002000a14724003bff07001fe1a90008
:104e94001e21a9000368a9002368a8001fe1a80037
:104ea400000000000080fa00000006000000fa0084
:104eb40013e1a90011e1a9001061a8001021a900c3
:104ec400800880000040a1000050a10080088800f4
:104ed4000a21ef000621ef0070722000700888009c
:104ee40000e0200060088800204280000000a0004c
:104ef4000010a1000020a100204288000108a900a0
:104f04002108a80011e1a800000000000080fa00b8
:104f1400000006000a00fa002007980031079800f4
:104f2400420798000040eb00004f78009e40780054
:104f3400e0cfb30000c06800004f78002e0090005e
:104f44004880de00004078009e40780000c0680081
:104f5400004f78002e009000004078009e407800ba
:104f640000c06800004f78003e0090004880de00da
:104f7400004078009e40780000c06800004f780030
:104f84003e009000004078009e40780000c0680019
:104f9400004f78000000eb00100798000c00370069
:104fa4001e009000e8004700110040001040780007
:104fb4009e40780000c06800004f78000e80e80032
:104fc4008e80e8001108e80090007800110798002e
:104fd4009e0090003e009000808f5000f0ff35004e
:104fe4001e4078000080fa00000006000c00fa0061
:104ff400604798004207980053079800ee409000dd
:10500400014f78004e009000de0090004808de005a
:105014000100200000407800104798004e009000e6
:10502400de0090004008de0001002000004078000f
:10503400204798004e009000de0090004809dd00f3
:105044004800de0000007100c808de00004078005f
:10505400304798004e009000004078004047980088
:105064000e01780051002000000520000300070015
:10507400000000000080fa00000006001000fa00a2
:10508400889fbe008a1f7800500798006107980027
:10509400720798008f0478000f00780000057800ec
:1050a40064004700ec004700620020001108410042
:1050b40090017800230798002e0090008000e900fa
:1050c400310798000000e8000000d1008000400093
:1050d4000f00780081874700600040004007980077
:1050e4000000eb00100798009e0090000e80e8007e
:1050f4000108e80010017800120798004e009000a3
:1051040001004000e1cfb300014878005e00900048
:10511400c880de001e0190000e80e8000208e8004e
:105124009001780013079800814078004e009000a9
:1051340002004000014878009e0090000e80e800c4
:105144000108e80010017800120798005e00900042
:10515400004178004e0090000100400002487800b1
:105164006e009000c880de001e0190000e80e800f2
:105174000208e80090017800130798008140780045
:105184004e00900002004000014878009e0090000c
:105194000e80e8000108e80010017800120798006a
:1051a4006e009000004178004e0090000100400025
:1051b400024878000000eb00000f78000d00370073
:1051c4001e007800ee004700910040001e01900090
:1051d4000e80e8000208e8009001780013079800a8
:1051e400914078004e009000020040000148780091
:1051f4001e0fe8006e0090009e007800808f500023
:10520400efff35001e0490000e80e8000808e80057
:1052140090007800110798007e019000ee00900045
:105224005e0090003bff0700804078004e00900035
:1052340008004000014878004e009000ae00900045
:105244001c0407008a077800000000008907780022
:105254004f0578004f04be000080fa0000000600ed
:105264000200fa00004f780080818000e30f5000b4
:1052740021003200e30f500005003e00e10f500012
:1052840010003200e10f500014003e000700370008
:10529400e50f500026003200e50f50001c003900d5
:1052a400e60f500036003200460037001e407800fa
:1052b400e24f400045003a00100020008081880041
:1052c400420037001e80fb004800dd00908188000a
:1052d40020002000808188003f0037001e80fb00f2
:1052e40091818000010040009081880030002000fe
:1052f40080818800380037001e80fb004800dd00f4
:10530400a08188004000200080818800320037009e
:105314001e80fb00a181800001004000a081880064
:105324003630ef0050002000808188002a003700ca
:10533400b081800080007800f0072000808f50004a
:105344000d003e00b18180000100e800b0818800ba
:1053540060392100010040001e487800b1818000be
:10536400a0818000808f50001a003500600020006a
:1053740080818800170037003030ef0015003700b7
:105384001e4178008103210082487800a1818000b9
:105394009081800062392100defe07008103210034
:1053a40091407800814f500004003a00a1818000b0
:1053b40090818000623921000a0007003030ef003c
:1053c400050037003030ef00030037000000000014
:1053d4000100370000000000000000000080fa0017
:1053e400000006000e00fa004007980051079800dc
:1053f40062079800ce00900020052000808f5000a6
:105404000c003200ce00900000092000808f500074
:105414000c003200ce00900010052000808f500058
:1054240017003a006e009000104078001800070042
:10543400140037006e009000104078003800070018
:10544400100037000000200001f82300008fbe0088
:105454006000b80020079800310798001e0178000a
:105464009e01900032a1880043a188002e01900083
:10547400be01900052a1880063a18800010037009a
:1054840000000000000000000080fa000000060098
:105494000200fa00004f78001e80fb00e80f500065
:1054a4000e003200e80f500005003c000000e00050
:1054b40008003200e20f50000e00320013003700e3
:1054c400ea0f500008003200ee0f50000c003200ca
:1054d4000e0037002c70ef000e00370080c0b300c0
:1054e4002cf0b7000b003700a0c0b3002cf0b700bd
:1054f4000800370020c0b3002cf0b70005003700c7
:10550400e0c0b3002cf0b700020037002c70ef00ad
:1055140000000000000000000080fa000000060007
:105524000200fa00004f78001e4078000004e000fa
:10553400030032001e4078000004e0000300320043
:105544001e417800e102210082487800000000003a
:105554000080fa00000006000e00fa00000f780038
:10556400120798002307980034079800450798000d
:1055740056079800670798001e0078001e019000e7
:10558400ae0190000288be001e0078003eb997006c
:10559400ceb9970062009800730098001e0078004e
:1055a4003e019000ce019000220098003300980044
:1055b4001e0078001eb99700aeb997000208980043
:1055c400130898001e0078005e019000ee01900020
:1055d40042009800530098001e0078007eb19700a6
:1055e4008eb9970022089800330898000000000044
:1055f4000080fa00000006001200fa00889fbe0036
:105604006007980072079800030f98006e009000de
:105614007e0190008e0990000210980013109800eb
:105624006e00900060029000f00290006e00900006
:1056340090009000100078000001be000400be003d
:10564400b4ed0700000178000100780082047800be
:10565400000478006e009000f0009000600090005c
:1056640001f0a2006e0190009201900012017800f6
:10567400a8ed07000001780001007800820178009d
:105684000001780009007800880078000002be005c
:1056940003007800820078000001be007e009000c4
:1056a4008e08900041020700008fbe006e0090003b
:1056b40090009000100078001e0178009e01900078
:1056c40073ee070080017800010178000300780080
:1056d400820078000001be006e0090002210980045
:1056e400331098006e009000400c9000d00c900095
:1056f40002002000a33724007e0090008e08900052
