:020000040000fa
:080000000002040000000000f2
:020000040000fa
:04000800f2030000ff
:020000040000fa
:04000c00f2030000fb
:020000040000fa
:04001000f2030000f7
:020000040000fa
:04001400f2030000f3
:020000040000fa
:04001800f2030000ef
:020000040000fa
:04001c00f2030000eb
:020000040000fa
:04002000f2030000e7
:020000040000fa
:04002400f2030000e3
:020000040000fa
:04002800f2030000df
:020000040000fa
:04002c00f2030000db
:020000040000fa
:04003000f2030000d7
:020000040000fa
:04003400fa020000cc
:020000040000fa
:04003800f2030000cf
:020000040000fa
:04003c00f2030000cb
:020000040000fa
:04004000f2030000c7
:020000040000fa
:04004400f2030000c3
:020000040000fa
:040048004c03000065
:020000040000fa
:04004c00f2030000bb
:020000040000fa
:04005000f2030000b7
:020000040000fa
:04005400a8030000fd
:020000040000fa
:040058007c03000025
:020000040000fa
:04005c005603000047
:020000040000fa
:04006000f2030000a7
:020000040000fa
:04006400f2030000a3
:020000040000fa
:04006800f20300009f
:020000040000fa
:04006c00f20300009b
:020000040000fa
:04007000f203000097
:020000040000fa
:04007400f203000093
:020000040000fa
:04007800f20300008f
:020000040000fa
:04007c00f20300008b
:020000040000fa
:04008000f203000087
:020000040000fa
:04008400f203000083
:020000040000fa
:04008800f20300007f
:020000040000fa
:04008c00f20300007b
:020000040000fa
:04009000f203000077
:020000040000fa
:040094003203000033
:020000040000fa
:04009800f20300006f
:020000040000fa
:04009c00f20300006b
:020000040000fa
:0400a000f203000067
:020000040000fa
:0400a400f203000063
:020000040000fa
:0400a800f20300005f
:020000040000fa
:0400ac00f20300005b
:020000040000fa
:0400b000f203000057
:020000040000fa
:0400b400f203000053
:020000040000fa
:0400b800f20300004f
:020000040000fa
:0400bc00f20300004b
:020000040000fa
:0400c000f203000047
:020000040000fa
:0400c400f203000043
:020000040000fa
:0400c800f20300003f
:020000040000fa
:0400cc00f20300003b
:020000040000fa
:0400d000f203000037
:020000040000fa
:0400d400f203000033
:020000040000fa
:0400d800f20300002f
:020000040000fa
:0400dc00f20300002b
:020000040000fa
:0400e000f203000027
:020000040000fa
:0400e400f203000023
:020000040000fa
:0400e800f20300001f
:020000040000fa
:0400ec00f20300001b
:020000040000fa
:0400f000f203000017
:020000040000fa
:0400f400f203000013
:020000040000fa
:0400f800f20300000f
:020000040000fa
:0400fc00f20300000b
:020000040000fa
:04010000f203000006
:020000040000fa
:04010400f203000002
:020000040000fa
:04010800f2030000fe
:020000040000fa
:04010c00f2030000fa
:020000040000fa
:04011000f2030000f6
:020000040000fa
:04011400f2030000f2
:020000040000fa
:04011800f2030000ee
:020000040000fa
:04011c00f2030000ea
:020000040000fa
:04012000f2030000e6
:020000040000fa
:04012400f2030000e2
:020000040000fa
:04012800f2030000de
:020000040000fa
:04012c00f2030000da
:020000040000fa
:04013000f2030000d6
:020000040000fa
:04013400f2030000d2
:020000040000fa
:04013800f2030000ce
:020000040000fa
:04013c00f2030000ca
:020000040000fa
:04014000f2030000c6
:020000040000fa
:04014400f2030000c2
:020000040000fa
:04014800f2030000be
:020000040000fa
:04014c00f2030000ba
:020000040000fa
:04015000f2030000b6
:020000040000fa
:04015400f2030000b2
:020000040000fa
:04015800f2030000ae
:020000040000fa
:04015c00f2030000aa
:020000040000fa
:04016000f2030000a6
:020000040000fa
:04016400f2030000a2
:020000040000fa
:04016800f20300009e
:020000040000fa
:04016c00f20300009a
:020000040000fa
:04017000f203000096
:020000040000fa
:04017400f203000092
:020000040000fa
:04017800f20300008e
:020000040000fa
:04017c00f20300008a
:020000040000fa
:04018000f203000086
:020000040000fa
:04018400f203000082
:020000040000fa
:04018800f20300007e
:020000040000fa
:04018c00f20300007a
:020000040000fa
:04019000f203000076
:020000040000fa
:04019400f203000072
:020000040000fa
:04019800f20300006e
:020000040000fa
:04019c00f20300006a
:020000040000fa
:0401a000f203000066
:020000040000fa
:0401a400f203000062
:020000040000fa
:0401a800f20300005e
:020000040000fa
:0401ac00f20300005a
:020000040000fa
:0401b000f203000056
:020000040000fa
:0401b400f203000052
:020000040000fa
:0401b800f20300004e
:020000040000fa
:0401bc00f20300004a
:020000040000fa
:0401c000f203000046
:020000040000fa
:0401c400f203000042
:020000040000fa
:0401c800f20300003e
:020000040000fa
:0401cc00f20300003a
:020000040000fa
:0401d000f203000036
:020000040000fa
:0401d400f203000032
:020000040000fa
:0401d800f20300002e
:020000040000fa
:0401dc00f20300002a
:020000040000fa
:0401e000f203000026
:020000040000fa
:0401e400f203000022
:020000040000fa
:0401e800f20300001e
:020000040000fa
:0401ec00f20300001a
:020000040000fa
:0401f000f203000016
:020000040000fa
:0401f400f203000012
:020000040000fa
:0401f800f20300000e
:020000040000fa
:0401fc00f20300000a
:020000040000fa
:04020000f203000005
:020000040000fa
:04020400f203000001
:020000040000fa
:04020800f2030000fd
:020000040000fa
:04020c00f2030000f9
:020000040000fa
:04021000f2030000f5
:020000040000fa
:04021400f2030000f1
:020000040000fa
:04021800f2030000ed
:020000040000fa
:04021c00f2030000e9
:020000040000fa
:04022000f2030000e5
:020000040000fa
:04022400f2030000e1
:020000040000fa
:04022800f2030000dd
:020000040000fa
:04022c00f2030000d9
:020000040000fa
:04023000f2030000d5
:020000040000fa
:04023400f2030000d1
:020000040000fa
:04023800f2030000cd
:020000040000fa
:04023c00f2030000c9
:020000040000fa
:04024000f2030000c5
:020000040000fa
:04024400f2030000c1
:020000040000fa
:04024800f2030000bd
:020000040000fa
:04024c00f2030000b9
:020000040000fa
:04025000f2030000b5
:020000040000fa
:04025400f2030000b1
:020000040000fa
:04025800f2030000ad
:020000040000fa
:04025c00f2030000a9
:020000040000fa
:04026000f2030000a5
:020000040000fa
:04026400f2030000a1
:020000040000fa
:100400006f4221000eff27000e018800000000004f
:10041000000020000000e000020032000001200087
:100420002002880014000700f00007000000e00030
:1004300003003a00c0f32200010020000200370050
:100440000000200001002000810f70000100320038
:100450000f000700000020000000e0000200320052
:10046000000002000000000068110200000000000f
:100470000040da000000fe00200020000000e00044
:1004800002003200100020009001880000000600e9
:10049000a1028800800478000000eb001f003700f4
:1004a000e284440054a0b4009905ba00e2844400f8
:1004b00054a0b4009906ba00e284440054a0b400e9
:1004c0000006eb00476fde00fd07b200ae018800ba
:1004d000636ce10003003a000ad801000000eb0061
:1004e0000e003700606ce10008003a00004deb00a0
:1004f0000a05e800020039003420ec000af0a000f0
:100500008b05e900f9ff3e00040037006168e10057
:10051000010032000086eb000b00070019c7ba008b
:100520000e04e0001905ba0003003a000a00e000da
:10053000dbff3a0000000600fe07b200ae028800b2
:100540008a047800f5ff37000cd0a300e20f4d00bd
:100550001c003b0089027800354dba000a05e8000e
:10056000020039003420ec000af0a0008b05e900fd
:100570000f003200254dba000a05e80002003900dc
:100580003420ec000af0a0008b05e90008003200de
:100590000c00e0000600320015cdba000a05e800a4
:1005a000020039003420ec000af0a0008b05e900bd
:1005b0008984e80054a0b4000b00e000e2ff3a0098
:1005c000000006009902ba00055d78008b05e9007d
:1005d000f7ff3200c82ade00055d78008b05e900d0
:1005e000f3ff32000c00e000f1ff320019ddba0029
:1005f000eeff37003600f800809fbe00829fbe00ed
:10060000849fbe00869fbe000000fa000068a9001b
:10061000770c070099120700ff0a07003115070041
:10062000908080000000e80090808800908080002a
:10063000f80f5000030034001230ef00780d07006f
:10064000a40d0700000000000080fa004f03be0068
:100650004f02be004f01be004f00be003600f90041
:1006600000400600809fbe000000fa000368a90059
:10067000a0808000b180800061004000e0804800e0
:10068000a0808800b1808800000000000080fa008f
:100690004f00be00004006000000fa000108a9005b
:1006a000000000000080fa0000400600801f780073
:1006b0000000fa0001a8a90000188000d0a088005e
:1006c00010188000e0a0880020188000f0a08800aa
:1006d0003018800000a188004018800010a1880018
:1006e00010c0b30051f0b700000000000080fa0015
:1006f0004f007800004006003600f800809fbe00e2
:10070000829fbe00849fbe00869fbe000000fa004c
:100710000188a9004182800030828000808f5000d3
:100720000200320022140700010037004a70ef0077
:10073000000000000080fa004f03be004f02be0020
:100740004f01be004f00be003600f9000040060019
:100750003600f800809fbe00829fbe00849fbe00ce
:10076000869fbe000200fa000168a90010118000f7
:100770004200de00614060000004e0000100320041
:100780002242a900101180000000d10061406000e9
:100790000004e000060032002222a9000400370015
:1007a00030118000004f78001e407800611407006f
:1007b000101180000040780061406000e14f50005f
:1007c000f7ff3200000000000080fa004f03be0077
:1007d0004f02be004f01be004f00be003600f900c0
:1007e000004006000040da000000fe0000000500a6
:1007f00014002000ad033700f4ff2f00ab033700d7
:100800000001be003f0007000470a70003f0a10034
:100810006509b100160032000d0035006828e100be
:1008200006003500f0ff2f00f1ff27000300e00075
:1008300013003b00010028000000050000004000fc
:10084000818048008502e900fcff3a00080037007b
:10085000f88f420002003c008000eb000000050021
:100860008100d1000080d3008502e800fcff3a003f
:100870000300e00002003b0060001000e080180070
:10088000000006000001be001e0007000470a70063
:1008900003f0a10003f8a30013003a006509b100ba
:1008a00010003200090035006928e100020035001f
:1008b0000100280000000500000040008180480081
:1008c0008502e900fcff3a0000000600f88f4200b4
:1008d000050035008100d1000080d3008502e800ca
:1008e000fcff3a00000006008000eb00000005005d
:1008f0004f89de0082017800870337006011b8005d
:1009000095033700c70ade00f107b200f50fb20009
:1009100008003200e1cf4200020032000170a00066
:1009200024000500810f700001003200040805005a
:1009300044000500810f700002003a001400050019
:100940008502e9000000400081c04800fcff3b0038
:100950000170a0002400050007f82700078361004c
:100960000638e10004003a00f707200087836100a1
:100970008703710001003a0003f0a200889fbe00c7
:100980008a9fbe008c9fbe00470ade000480a10043
:10099000c71ade000580a100070028000785600057
:1009a00087856100f70f20000720e1009e003200dc
:1009b0000728e1009c003200010678000400e000f6
:1009c000b4003200f7072000878060000170a000ab
:1009d0000500e000c0003200f707200087816100b9
:1009e0000370a000050652000f003a000b50e10012
:1009f0000b0032000308e10002003a000200e100af
:100a00007e0032000204500083845800040031004c
:100a10000001fd008101fd008402fd008a05fd004a
:100a20006044b800210037000520e10005003d00ca
:100a30000001fd008101fd008402fd008a05fd002a
:100a4000050652007a60e100050035000170a10042
:100a50004722dd00848070008a80700063003700c8
:100a60006044b800ef02660007ff2f00070666002b
:100a70000500e00006003400f08312008714dd005a
:100a80000511de00071bdd00060171008519de007f
:100a90007060e100050035000904780082047800e8
:100aa000030178008001eb00700656000b50e10056
:100ab00003003a0002004000838048000400370031
:100ac00060041400e0841c00020058008380580079
:100ad0000188a300060032008100d1000080d3000d
:100ae0008984d3000884d3000402e800270037007b
:100af0000178a30025003a000100e0000300320065
:100b00008186cf00698656000a0037008c002000dd
:100b10000000e00004003a00090078008804780032
:100b20000004eb00700252008086cf000d064600e4
:100b30000c06e9007060e1000600350080007800d6
:100b400009007800880478000004eb007006560065
:100b5000700252000c00e0000c0034008c08dd0034
:100b6000f00316000703de00868070000c00dd0035
:100b7000074bde00060070008c4cdd000743de00f2
:100b8000868474000c44dd000c0252006120e100f8
:100b900020003500610160000700280087816400a3
:100ba000f7ff270087836400070374000300e00059
:100bb0000600320082037300040032000000e800e7
:100bc000e08048000188a3000e003a00f70f2000e3
:100bd0000720e1004a003d000170a1004722dd002e
:100be000810072008a8070000000be004f06be00c7
:100bf0004f05be004f04be00000006006000b800b4
:100c0000faff37008100d1000080d3000402e80021
:100c1000eeff37000401780089017400a10107008c
:100c20008a807000f1ff3700f701070007027800a3
:100c30000001fd008101fd00f3010700870278003b
:100c4000850372000778a300040032000001fd0054
:100c50008101fd0006020700e4ff37008503620002
:100c60000768a300080032000b50e10003003200c7
:100c7000f0ff2f00f1ff2700dcff37000001fd002f
:100c80008101fd00d9ff37000468a300d7ff3200bf
:100c9000faff3700f8ff2700888360000b003a0056
:100ca0000000e00009003a008303640082837300bf
:100cb000020032000200be00ccff37000b50e10002
:100cc000ceff3a000200be00c8ff3700140020002b
:100cd000810064003eff3700f8ff27008883610031
:100ce00004003a000200e00002003a008c007800a4
:100cf000beff3700150020008301640039ff370074
:100d000001f827000000200081007500b7ff3700c0
:100d1000889fbe008a9fbe008c9fbe001b002000e3
:100d20000202be000586680006002800060666006e
:100d30004709de00f20fb200820032000243e800f1
:100d400080003200c729de00f30fb2007d003200c0
:100d50000343e8007b003200f107b2000170a000fd
:100d6000f507b2000570a000c708dd004903de00ea
:100d7000868070004700dd00c72add004923de00c1
:100d8000868272004722dd000305510004035000f3
:100d90008583580003003100000040008180480036
:100da0000a05e9008c1f78008a9fbe0004005000ed
:100db000858058000402420085824a0000004000fd
:100dc000818048000005eb000004be006033b800dd
:100dd0000406be000d48e100560031001100090074
:100de0004dccd8000c01b8000d02b8008481410040
:100df00060824a008283530003045c0084845c00a8
:100e000060055d000a00e00025003a0080057800da
:100e10000d40e100490031008800780007007800ab
:100e2000110009004d88d8000c01b8000d02b8006f
:100e30008481410060824a006003110083835b006b
:100e400004045c00e0845c000900e00021003a003a
:100e50004f01be000300e0002b003200e301600000
:100e6000070673008c81710001003200640070007d
:100e70004200de004e5edd000c007000c258de0055
:100e800001e0a00083010700cf017800818071009c
:100e90004f06be004f05be004f04be000000060016
:100ea0008c8343000d044c00e0844c0060054d0031
:100eb0000000e9000a00e000d4ff32008c83430008
:100ec0000d044c00e0844c0060054d000000e9007a
:100ed000ceff37000c0343008d834b0060044c00b1
:100ee000e0844c000000e9000900e000d8ff320077
:100ef0000c0343008d834b0060044c00e0844c00e5
:100f00000000e900d2ff37004200de004e5edd0047
:100f10000c007000c258de0001e0a000cf01780094
:100f20000300e000daff320060001000e0801800eb
:100f3000d7ff3700f0ff2f00aaff3700f0ff2f0088
:100f4000b9ff37000404be002f01070087067800b0
:100f50000004fd008104fd002b01070007836600eb
:100f60000678a300030032000960a7000800be0055
:100f70002c0037000d78a300020032000800be00ec
:100f8000280037000778a30026003a0001f0a100ee
:100f900009f0a1000668a30003003200f1ff27005a
:100fa000f0ff2f00baff37000d68a30003003200e6
:100fb0000800be008c807000b5ff37000768a300f2
:100fc00007003a000648a30003003200f1ff2700a3
:100fd000f0ff2f00aeff37000d48a30003003200e2
:100fe0006000b8008c807000a9ff37000748a3009c
:100ff0000400320001f82700000020008c807000ff
:10100000a3ff3700760107000004fd008104fd0006
:1010100002057800720107000802be008a0178000c
:1010200059ff37000160a000120220009282880060
:1010300097ff37000100e000120032000500e000d9
:1010400010003200889fbe008a9fbe008c9fbe00a9
:101050000006eb0001f8a30003003200600010005e
:10106000e08018000cf0a00005f8a3000300320097
:1010700060021200e0821a000cf0a2008005eb0072
:1010800041ff37006000b8000200050003836800dc
:101090000700280007036300470ade000480a10060
:1010a000c71ade000580a100f70f20000720e1002d
:1010b000420032000728e10040003200889fbe0055
:1010c0008a9fbe008c1f7800f107b200f307b200c0
:1010d0000400e000640032000170a0000500e000a0
:1010e000680032000370a00085054200eb07b100e4
:1010f0000204b8000302b8008484440060854a00fa
:10110000020ab800848444000a854a00030ab80031
:1011100004054500040033000804d0008984d2008f
:101120000a85d2008b05e9006158e1003d003500d9
:10113000021020000901610003082000898161007c
:10114000f70720008783640008867300c84cde0020
:10115000c853dd00878474004855de000300e000ba
:101160000600320082037600040032008904e800a1
:1011700060054d000a88a3000c003a00f70f20001c
:101180000758e10044003d000a70a100c75ddd0082
:101190000a8575008a007300090078004f06780000
:1011a0004f05be004f04be00000006000a05d10036
:1011b0008984d3008b05e800f0ff3700881f780092
:1011c0000604780090000700070278000001fd0087
:1011d0008101fd008c000700870278008503720002
:1011e0000778a300050032000001fd008101fd0029
:1011f0009f0007004f04780000000600850372007e
:101200000748a30003003200f0ff2f00f1ff270082
:10121000f8ff37000000200001f8270088807000e8
:10122000f4ff3700880178004848dd0080817100b4
:101230004848de00c850dd0001007000c850de00e4
:10124000060478000b017800160007008880700003
:10125000d2ff37000500e000050032001700200033
:101260003a0007009dff370081037000f9ff3a0044
:10127000860078004f0678004f05be004f04be0080
:101280000000050083037100f9ff320027002000f1
:101290002e00070094ff370001f8270086807000b9
:1012a000f4ff37000100e000260032006101110068
:1012b0007810e10023003c006022b8007010e100cb
:1012c0000400350080027800010078008000eb0007
:1012d000700151000200e0000900340070031100a9
:1012e000062add00822ade008603dd008782720086
:1012f0000200de00860bdd00070070008208de00c1
:1013000084817100f4ff27000482620084817100ef
:1013100004002800848262006102600005f0a600db
:101320000000060004827100070032000000e8009f
:10133000e0804800000006000002be006000b80027
:10134000efff37006000b80000000600889fbe0075
:101350000004eb006138e10016003a000100e000f3
:1013600008003a00c800de004800dd0088002000c8
:101370000100e00003003a00c800de004800dd0084
:10138000680444008184cf00e984540006003400de
:101390008908dd00f08314008703de008780700079
:1013a0000900dd0009044400610214004f04be007e
:1013b000000006000300e00008003a00c811de004b
:1013c0004811dd00880020000300e00003003a001f
:1013d000c811de004811dd00680444008384cf009a
:1013e000e9845400060034008919dd00f0831400fc
:1013f0008713de00878171000911dd0009044400b4
:10140000e1021400e9ff37002700200001f0a700e7
:1014100017002000470bde00f60fb2000400320078
:101420000643e8000a0032004702b300000006004d
:1014300001037800f607b2000603700002003a00cc
:101440000703b300000006008702b3000000060097
:1014500001037800f607b2000603700002003200b4
:101460000770a000000006000760a0000000060052
:101470000478a300040032000578a30003003200c2
:101480000168a30001003a000200be000160a00054
:101490000000060081017000270032008002eb008e
:1014a00001f8a3000300320060001000e080180083
:1014b00015002000f4072000020242002000340042
:1014c000f703200087036000060420000003630088
:1014d00002082000000161004700de00c909dd00ac
:1014e00000807100c708de000600e000080032003e
:1014f00087037100060032001000b0000180b000c8
:101500000188a30002003200c108de000402e800e6
:10151000f107b200f30f20000320e10003003d00bb
:101520004722dd00810072002900370001f8270002
:101530000000eb00260037006000b8000000060045
:10154000680212007f20e100020034006000b80051
:101550001f0037006011b8007020e1000400350062
:1015600080017800010078008000eb0070025200da
:101570000400e00009003400f00312000719dd0048
:101580008419de000703dd00868171000400de009f
:10159000070bdd00060070008408de00f7ff27005f
:1015a0008383630087037100060028000303630040
:1015b000070032000700e00003003a00610160000c
:1015c00002817300020032001000b0000180b00000
:1015d0000500a6000000060001f0a00000000600c3
:1015e0004f0ade004709de00f107b200f20fb20039
:1015f0000b003200f207b1000170a000c708dd0047
:10160000c901de00838070004700dd000400a600f1
:101610000000060060001000e080180000000600d6
:10162000810f700001003a00000006008182cf00a7
:101630000500e00010003e008082cf00ee824200f4
:101640007028e1000400390007003e0080007800a7
:101650000000eb000e003700708312008600de00f1
:101660000500dd000a003700708352008600dd00af
:101670000000eb0006003700e28252008508dd0022
:10168000708312000603de00868070000500dd0016
:101690007507b0000501ea000400a600000006007e
:1016a00060001000e080180000000600889fbe0067
:1016b0008a9fbe00841f78007c0007004f007800de
:1016c00011003300f0ff2f00838f6c0006003b00f9
:1016d000040565000a00a7000800370009f0a6000d
:1016e0001000200008003700820f5400838f5c0038
:1016f000030039001000200001003e00000020001f
:1017000009f0a7000000ea004f05be004f04be002c
:101710000000e00000000600881f78000304780045
:101720000300e00007003d0060001000e0801800aa
:1017300060011900e081190002003b0001f02d005a
:10174000030037000400070008f0a70001f0a00024
:101750004f04780000000600889fbe008a9fbe00ec
:1017600000827000040271000482710026003200c1
:101770000004be000200be006011b8006b0920002a
:10178000950220000182cf000a0039000541b10016
:101790000082cf00070039000541b1000982cf0067
:1017a000040039000541b1000882cf000100390072
:1017b0000541b10005425200120032000a003b0010
:1017c00082817100610164008100d1000080d3003a
:1017d0008984d3000884d3008b05e8000442e80024
:1017e000f7ff3a00070037000804440089844c00e2
:1017f00000004800818048008b05e9000442e900b0
:10180000f9ff3a00030007004f05be004f04be0079
:101810000000060081002000618055000b003d00a3
:101820000b00200061fe2f000100e1001d003400cc
:1018300082817100610164008904d1000884d300b1
:101840000000e800faff3a00710020006100640027
:1018500003007000020060000900320061044400cf
:10186000e0844c000988a500050032008b05e800e3
:101870006808e10002003a008904d1000884d3001e
:10188000f20f20000258e10005003d00c75ddd00b9
:10189000f907b20089807500080078000000060092
:1018a0000bf827008b007800000005000004be0044
:1018b00014fc07000003be000405be000200be00c9
:1018c00010fc0700844f7500000006000400fa00b9
:1018d000000178008101780003f0a100a4fd200040
:1018e00095f42300840f5100858f59000e003e00af
:1018f000f4ff2f00f5972300840f5100858f5900c6
:101900003a003e000200200003b827001bfc07003d
:10191000e0bf9f00f1bf9f000000200001f82300fe
:101920000080fa00000006004f0ade0005002000db
:10193000163d2500b7072400860f5100878f5900f8
:101940001b003e0036be2c0067012400860f5100ac
:10195000878f59000a003600b2fd2000930424004e
:101960000400e0000400320004fc07005b010700f3
:1019700001f0a200eaff3700f7fb0700fbff37008a
:101980000400e00005003200b2fd200093fc2300bb
:10199000fafb0700dc010700e1ff37000001be0091
:1019a000b0fd200091fc2300ebfb0700f9ff37009e
:1019b000561d2300270e2400860f5100878f5900e3
:1019c00014003e00f6dd2e00f70a2400860f5100b9
:1019d000878f590009003600b2fd2000930c2400c7
:1019e0000400e00003003200e4fb07003b010700b5
:1019f000cbff3700d8fb0700fcff37000400e000f6
:101a00000100320001f0a20042be2c006309240054
:101a1000e5ff3700f4ff2f00f5f72700840f510092
:101a2000858f5900040036000001be000200be0090
:101a3000c9fb0700baff3700648157005b0107004c
:101a4000630160006fb89700ffb89700e10f510085
:101a500005003200e20f5100c4ff32000200e00036
:101a6000ccff3a00e1ff370001f0a200c9ff3700c8
:101a70000400fa00889fbe008a9fbe000203410056
:101a800083834900e00f5300e08f5b0010003200b9
:101a9000020278008302780005f0a100080020000f
:101aa00009f82700880f5200898f5a0008003e006d
:101ab000a0bf9f00b1bf9f00470dde000b002000bc
:101ac000f40f20000a056200840f550007003a0059
:101ad0006efd07000001be008dfc07004f05be0033
:101ae0004f04be000080fa00000006000002400023
:101af00081824800840f5300858f5b000600390007
:101b0000840f5300858f5b00f4ff3a006011b8002a
:101b10005efd0700f1ff37000a00e0004c003a00cc
:101b20002fbb9700bfbb9700493add00c732de00ec
:101b3000850272004932dd00e00f5200e08f5a004a
:101b40003f003d00610215002fbb9700bfbb97000f
:101b5000040478000804e90003003300060343008e
:101b600087834b00fbff37000602be00471bde00e9
:101b7000070020000683fb000600e0003d003a005d
:101b8000491cdd00c714de00890474004914dd001f
:101b9000e00f5400e08f5c0032003d00e1031300d1
:101ba0000204be008703e900030033000804440078
:101bb00089844c00fbff37000801520089815a00dc
:101bc000860f55002f003c00e00f5100e08f5900b8
:101bd00004003500e00f5100e08f5900cbff3200c8
:101be0000202be004728de0001002000e00f500086
:101bf000e08f58002e0032000a00e0003000340070
:101c00000000200001f82f000402400085824800f7
:101c10006150b900c700dd00000020000400700022
:101c2000858070006022b80002002800bfb99700cc
:101c3000830261000000720081807200a7ff3700fc
:101c40000a05e9000402420085824a00baff370013
:101c50002fba9700bfba9700f507b2000570a00031
:101c6000c2ff37000603e9000804440089844c00e1
:101c7000c7ff37000204be00f907b2000970a000d8
:101c8000cdff3700e00f5100e08f59000400350010
:101c9000e00f5100e08f59009cff32000202be00ad
:101ca0000402420085824a000a05e900c2ff3700ab
:101cb0000402420085824a000a05e900c9ff370094
:101cc000610515000400be000a05e90003003300a9
:101cd0008100d1000080d300fbff3700d1ff370027
:101ce0000400fa00889fbe000004be00890078004e
:101cf00001f0a100a4fd200095f42300840f500002
:101d0000858f58001e003e00f4ff2f00f59723003a
:101d1000840f5000858f580016003e006000b80008
:101d200003f8270089806100e00f5000e08f580021
:101d30000b003a0002002000033820000800be001b
:101d4000d2fc07000001be00c2bf9f00d3bf9f00ae
:101d50000800be004f04be000080fa00000006002c
:101d60000200200003b827000800be0003fb0700a4
:101d7000f4ff37000800be00e3000700180037003a
:101d80004f49de0003002000143d2500b507240064
:101d9000840f5000858f58001d003e0034be2c007b
:101da00065012400840f5000858f58000e003e000e
:101db0000800be000200e000b2fd200093fc2300fa
:101dc00005003200edfa0700440007000004be00e1
:101dd00009f0a200deff3700dffa07003f0007002e
:101de0000004be00daff37000800be000200e00079
:101df000b2fd20009304240003003200dffa070044
:101e000001f0a200dcff3700d3fa0700fcff370027
:101e1000541d2300250e2400840f5000858f580088
:101e200017003e00f4dd2e00f50a2400840f500058
:101e3000858f580009003e000800be000200e00047
:101e400042be2c006309240002003200cbfa0700d6
:101e5000e2ff3700c0fa0700dbff37000800be00d2
:101e60000200e000b2fd2000930c240002003200ca
:101e7000c2fa0700c0ff3700b7fa0700beff3700fd
:101e8000f2ff2f00f3f72700820f5000838f5800d6
:101e9000050036000801be000800be00aefa0700cb
:101ea0000004be00aaff3700688157000800be008a
:101eb0003e000700630160004fb89700dfb897004d
:101ec000e10f5100c5ff3200e20f5100ccff32009c
:101ed0000200e000bcff3a00a7ff37000400fa0050
:101ee000889fbe008a9fbe008c9fbe000001be007e
:101ef00066fc07000004be000001be0063fc070092
:101f00000005be000200200003f02b000800be0008
:101f10005efc07000200200003f8230097fa070088
:101f20000006be00f2a92a00a3d223000a00be00c8
:101f300056fc07000001be000c00be008ffa07002f
:101f40000002be0072a12900c37c23000800be006d
:101f500084bf9f0095bf9f004cfc0700f243200008
:101f600063ab23007cfa07000006be000a01be0036
:101f70000800be0045fc07000001be000c00be00ca
:101f800042fc07000001be000fba97009fba9700fd
:101f90000400be0079fa07004f06be004f05be00e0
:101fa0004f04be000080fa00000006000400fa00a2
:101fb000889fbe008a9fbe008c9fbe0000067800ee
:101fc000810478008206780001f0a100a2fd2000c3
:101fd00093dc2400820f5000838f580023003e00c2
:101fe00032982f0023f223008900780027fc070095
:101ff0000200200003b4240060fa07000200200061
:1020000003b4240054fa07000005be00fcf90700e1
:1020100000047800a2fd200093fc23000a00be000b
:102020001afc07000001be000c007800890078004f
:1020300049fa07000002be00325a28008328230014
:102040000a00be0084bf9f0095bf9f000ffc0700e1
:102050000001be000fba97009fba97000400be00af
:102060003dfa0700808ebe000b003700f2ff2f0004
:10207000f3f72700820f5000838f58000c003600c2
:1020800000017800890178008900780032fa0700a1
:10209000808ebe000004eb00080078004f06be00f2
:1020a0004f05be004f04be000080fa00000006008d
:1020b000890078004c0007000005be0032982f0010
:1020c00023f22300f1fb07000200200003f02300ad
:1020d0002afa070055000700000478008efd07006b
:1020e00032982f0023f2230009fb07000001be00f5
:1020f0000a00be0018fa07006000b800a0069800a9
:10210000b1069800d7ff37000400fa00889fbe0090
:102110008a9fbe008c9fbe000006be000001be006c
:10212000dafb07000004be000001be000c00be0088
:10213000d6fb07000005be000801be000800be0077
:10214000d2fb07000a01be00d0fb07000002be0060
:10215000c2c32600636323000800be0084bf9f0043
:1021600095bf9f00c9fb0700f27c20000395230068
:10217000f9f907000001be000fba97009fba970057
:102180000400be00c1fb07000002be004288280018
:1021900083c023000800be0084bf9f0095bf9f003e
:1021a000bafb0700b2aa2a00a3e22300eaf907005b
:1021b0000a01be00b5fb07000c01be00eff90700e5
:1021c0000001be000fba97009fba97000400be003e
:1021d000eaf907004f06be004f05be004f04be00df
:1021e0000080fa00000006000400fa006011b80048
:1021f000e2bf9f00f3bf9f006fbb9700ffbb97003c
:102200000002be00f0ff2f00f1ff2f00f2ff2f00b1
:10221000f3ff27000000620081806200020163007a
:10222000838163000080fa00000006000003be0006
:10223000b4f907006011b8000470a70007f0a1000e
:102240006509b1001b003200120035008602200033
:102250000628e10008003500f3ff2700f2ff2f00f9
:102260006110b9000700e00018003b0003002800df
:102270006000b800020005000000400081804800b6
:1022800002014900838149008502e900faff3a0012
:1022900008003700f88f420002003c008000eb008d
:1022a000000005008100d1000080d3008502e80015
:1022b000fcff3a000700e00004003b006000100053
:1022c000e080180060011900e0811900000006009c
:020000040000fa
:1022d0000e00fa00150e0700620e0700ad0e070093
:1022e000a9080700900807009b08070030050700b1
:1022f00037050700be0d070012030700000020008d
:10230000812c2400809fbe0000002000812c24002e
:10231000809fbe0000002000812c2400809fbe0012
:102320006033b8006022b8006011b800a02e210010
:102330002d0a0700ec87570000002000812c2400a4
:10234000809fbe0000002000812c2400809fbe00e2
:1023500000002000812c2400809fbe006033b80064
:102360006022b8006011b800a02b21001e0a0700ef
:10237000ec8757006011b8000000200001f823002e
:10238000a30407006000b800b0928800c1928800e2
:102390006000b80030938800419388006000b80066
:1023a000d0928800e19288006000b800f092880026
:1023b00001938800040ea800052ea80095eea80041
:1023c000054ea800746ea80004003700720d0700c7
:1023d000004f78001e40780058090700370d0700ad
:1023e0000004e000f9ff3a008b030700c60d070068
:1023f000e14f5000f9ff3a00c70d0700be0d07007e
:10240000100798001e0090001000780000808800df
:102410000e80e8001080e80010007800108088002e
:102420000e80e8004100200010804000100078007d
:10243000208088000e80e80062002000100041002b
:1024400010007800308088000e80e80081002000b5
:102450001080400010007800408088000e80e80066
:102460001080e800100078008000eb0023f90700de
:10247000323323003305240004fb070000017800f9
:10248000010078008202780000027800020020003b
:102490000358240005007800840078000000be0086
:1024a0001bfa070020079800310798002e019000c2
:1024b000be019000000020008120240014fa0700d3
:1024c00000017800010078008202780000027800a4
:1024d00002002000030a2400050078008400780030
:1024e0000000be001cf9070080017800010178009f
:1024f00003007800820078000000be00b0938800de
:10250000c19388000e80e8004200200010004100c6
:10251000100078008000eb00f8f807003233230049
:1025200033052400d9fa0700000178000100780083
:102530008202780000027800020020000358240084
:1025400005007800840078000000be00f0f9070064
:1025500020079800310798002e019000be019000de
:102560000000200081202400e9f907000001780024
:10257000010078008202780000027800020020004a
:10258000030a240005007800840078000000be00e3
:10259000f1f807008001780001017800030078005d
:1025a000820078000000be0090938800a19388000c
:1025b0000e80e800610020001080400010007800cc
:1025c0008000eb00cdf807003233230033052400f0
:1025d000aefa07000001780001007800820278005e
:1025e0000002780002002000035824000500780053
:1025f000840078000000be00c5f90700200798009d
:10260000310798002e019000be01900000002000cc
:1026100081202400bef90700000178000100780045
:10262000820278000002780002002000030a2400e1
:1026300005007800840078000000be00c6f807009e
:1026400080017800010178000300780082007800a2
:102650000000be0070938800819388001e009000e7
:10266000100078008000eb00a4f80700323323004c
:102670003305240085fa0700000178000100780086
:102680008202780000027800020020000358240033
:1026900005007800840078000000be009cf9070067
:1026a00020079800310798002e019000be0190008d
:1026b000000020008120240095f907000001780027
:1026c00001007800820278000002780002002000f9
:1026d000030a240005007800840078000000be0092
:1026e0009df8070080017800010178000300780060
:1026f000820078000000be00d0938800e19388003b
:102700000e80e800820020001000410010007800d8
:102710008000eb0079f807003233230033052400f2
:102720005afa070000017800010078008202780060
:102730000002780002002000035824000500780001
:10274000840078000000be0071f90700200798009f
:10275000310798002e019000be019000000020007b
:10276000812024006af90700000178000100780048
:10277000820278000002780002002000030a240090
:1027800005007800840078000000be0072f80700a1
:102790008001780001017800030078008200780051
:1027a0000000be00f09388000194880070938000c0
:1027b0008193800002002000031f24000cf8070012
:1027c0000000e00002003c00856ea8000100370018
:1027d000856ea90090938000a193800002002000e4
:1027e000031f240002f807000000e00002003c0084
:1027f000848ea80001003700848ea900b093800069
:10280000c193800002002000031f2400f8f7070096
:102810000000e00002003c0084aea8000100370088
:1028200084aea900d0938000e193800002002000d4
:10283000031f2400eef707000000e00002003c0048
:1028400084cea8000100370084cea900f093800058
:102850000194800002002000031f2400e4f7070019
:102860000000e00002003c00754ea80001003700a7
:10287000754ea900508080008000e80051808800db
:10288000a100200001017800110009000200d80019
:102890008000fd000000e000d0fe3a00b093800010
:1028a000c1938000f7f70700804078008000200087
:1028b0000177780090938000a1938000f1f70700e2
:1028c00080407800800020000000e8000177780058
:1028d0007093800081938000eaf7070080407800c1
:1028e000800020000080e800017778006800470041
:1028f0000001780031002000000320009607070047
:10290000d0928000e1928000def7070080407800de
:10291000b000200001777800f092800001938000e1
:10292000d8f7070080407800b00020000000e800e1
:10293000017778006b00470000017800210020003b
:102940000004200084070700a4fe37000000fa00fe
:10295000708080000000e000880032000cd0bf00d2
:102960000080fb006100b900b200200003002000dd
:10297000820f5000838f58007d003e00000601004a
:102980000b00370016003700220037002d003700fb
:10299000310037003d003700410037004d0037005f
:1029a000510037005c003700600037006b003700d3
:1029b0001430ef001630ef006011b8006000b8006e
:1029c0006c03070010c0b3000cf0b700a0808000bb
:1029d000b18080000001be000040eb003a07070014
:1029e00032d0bf00e14f500066003a00a280800064
:1029f000b3808000803e200001002000800f510045
:102a0000818f59005f00360020c0b3000cf0b70082
:102a10005c003700c2f02500532d2c006000b80088
:102a200054030700a0808000b18080000001be0038
:102a300020c0b3002407070030c0b3000cf0b7007b
:102a40005b00370032d0bf00e14f50004f003a002a
:102a5000590007004d00370092bf2e00831b2c0049
:102a600000002000010d2c0042030700a080800020
:102a7000b18080000001be0040c0b3001207070013
:102a800050c0b3000cf0b7004900370032d0bf008f
:102a9000e14f50003f003a00470007003d0037007b
:102aa00092bf2e00831b2c0000002000010d24008b
:102ab00030030700a0808000b18080000001be00cc
:102ac00060c0b3000007070070c0b3000cf0b7008f
:102ad0003700370032d0bf00e14f50002f003a00de
:102ae000350007002d0037006011b80000002000fd
:102af000011524001f030700a0808000b180800022
:102b00000001be0080c0b300ef06070090c0b30014
:102b10000cf0b7002600370032d0bf00e14f500064
:102b200020003a00240007001e0037006011b800a2
:102b30000000200001152c000e030700a08080007b
:102b4000b18080000001be00a0c0b300de06070017
:102b5000b0c0b3000cf0b7001500370032d0bf0092
:102b6000e14f500011003a00130007000f0037003a
:102b70000c70ef00000000000d00370000000000a6
:102b80000b003700000000000900370000000000c3
:102b900007003700000000000500370000000000bb
:102ba00003003700000000000100370000000000b3
:102bb0000080fa00000006000200fa000040eb006e
:102bc000004f780070938000819380000200200005
:102bd000031f240006f707000000e00018003d0076
:102be00090938000a193800002002000831c2400a9
:102bf00001f707000000e00011003400b0938000ee
:102c0000c193800002002000031f2400faf6070091
:102c10000000e0000a003400d0938000e1938000bf
:102c200002002000031f2400f3f607000000e0006c
:102c30000300340020c0b300004f78009d0037002f
:102c4000f09380000194800002002000c320240043
:102c5000e7f607000000e00018003d0090938000b8
:102c6000a193800002002000831c2400e2f60700ec
:102c70000000e00011003400b0938000c193800098
:102c800002002000031f2400dbf607000000e00024
:102c90000a003400d0938000e193800002002000fd
:102ca000031f2400d4f607000000e00003003400f6
:102cb00020c0b300004f78007e003700f093800002
:102cc0000194800002002000031f2400caf60700c0
:102cd0000000e000180034007093800081938000b1
:102ce00002002000031f2400c3f607000000e000dc
:102cf0001100340090938000a19380000200200016
:102d0000831c2400bcf607000000e0000a00340029
:102d1000b0938000c193800002002000031f2400b4
:102d2000b3f607000000e00003003d0010c0b30050
:102d3000004f78005f003700f0938000019480001e
:102d400002002000031f2400abf607000000e00093
:102d500018003400709380008193800002002000ee
:102d6000031f2400a4f607000000e0001100340057
:102d700090938000a193800002002000831c240017
:102d80009df607000000e0000a003400d0938000a8
:102d9000e193800002002000c320240094f6070085
:102da0000000e00003003d0010c0b300004f7800b9
:102db0004000370090938000a19380000200200023
:102dc000032224008af607000000e00003003d0013
:102dd00030c0b300004f7800360037007093800099
:102de0008193800002002000031f240080f607006a
:102df0000000e0000a003d00b0938000c193800015
:102e000002002000031f240079f607000000e00004
:102e100003003d0030c0b300004f780025003700ac
:102e2000f09380000194800002002000c320240061
:102e300071f607000000e0001e003400709380006f
:102e40008193800002002000c32024006af607005e
:102e50000000e0001700340090938000a1938000f0
:102e600002002000031f240063f607000000e000ba
:102e700010003400b0938000c19380000200200055
:102e8000c32024005cf607000000e00009003400c5
:102e9000d0938000e193800002002000c320240032
:102ea00055f607000000e000020034000040eb008f
:102eb000004f78001e4078000004e00003003a0054
:102ec00020c0b30010f0b700110037001e4078009a
:102ed000e24f500003003a0040c0b30010f0b700ca
:102ee0000b0037001e407800e14f500003003a000d
:102ef00060c0b30010f0b700050037001e40780036
:102f0000e34f500002003a0080c0b30010f0b70059
:102f100010d0bf000080fb00c1002100914078006c
:102f20008180fb008100e900810f50000200320027
:102f300010d0bf000cf0b700000000000080fa00c5
:102f4000000006000000fa0002ccbf000000a10053
:102f50000010a1000020a10002ecb70000962000a4
:102f6000206088001061800000a0a00000b0a000d8
:102f70001061880023cca80023eca80030002000ba
:102f8000206188001062800000a0a00000b0a000b6
:102f90001062880043cca80043eca8003000200059
:102fa0002062880001eca800000000000080fa0008
:102fb000000006000800fa00008fbe0022079800fb
:102fc000330798000200200003f823002e00900031
:102fd000be00900006f607000000e00042003a0044
:102fe0006011b8001e0078009e00900002f60700f5
:102ff0000000e0001e00350002002000031c240039
:103000001e0078009e00900020f807000001780064
:10301000010078008202780000027800f0818000d0
:10302000018280000001be00050078008400780065
:103030000000be0051f60700000178000100780092
:103040008201780000017800030078008200780097
:103050000000be000bf6070030618800f0818000a0
:103060000182800007f60700706188001e003700ab
:10307000f08180000182800002f607003061880044
:103080001e0078009e00900001f0a20002002000c7
:10309000031c2400fdf70700000178000100780000
:1030a0008202780000027800f081800001828000b6
:1030b0000001be0005007800840078000000be001a
:1030c0002ef60700000178000100780082017800e8
:1030d0000001780003007800820078000000be0044
:1030e000e8f50700706188006011b8002e009000bc
:1030f000be009000bef507000000e00001003200b5
:10310000420037006011b8001e0078009e00900059
:10311000b9f507000000e0001e00350002002000a5
:10312000031c24001e0078009e009000d7f70700c3
:103130000001780001007800820278000002780027
:10314000f0818000018280000001be00050078004f
:10315000840078000000be0008f607000001780037
:1031600001007800820178000001780003007800f7
:10317000820078000000be00c2f5070030628800bf
:10318000f081800001828000bef507007062880037
:103190001e003700f081800001828000b9f5070031
:1031a000306288001e0078009e00900001f0a200ae
:1031b00002002000031c2400b4f70700000178007f
:1031c000010078008202780000027800f08180001f
:1031d000018280000001be000500780084007800b4
:1031e0000000be00e5f5070000017800010078004e
:1031f00082017800000178000300780082007800e6
:103200000000be009ff5070070628800000000000b
:103210000080fa00000006000000fa00889fbe004f
:10322000d4928000e592800010938000219380006a
:103230000001be000400be006df507000000e000c4
:1032400014003d001893800029938000d4928000e0
:10325000e592800010828000218280000001be0083
:103260000400be00c5f507000001780001007800e9
:1032700082027800000278000801be000500780094
:10328000840078000000be0080080700d09288000b
:10329000e1928800d4928000e59280001093800033
:1032a000219380000001be000400be0052f507001b
:1032b0000000e0001400340018938000299380007f
:1032c000d4928000e59280001082800021828000ec
:1032d0000001be000400be009ff507000001780059
:1032e0000100780082027800000278000801be0028
:1032f00005007800840078000000be004c0807003c
:10330000d0928800e1928800d0928000e192800003
:103310006011b80038f507000000e0001e0034001e
:10332000d0928000e192800002002000031c240063
:1033300056f707000001780001007800820278004b
:1033400000027800f0818000018280000001be0050
:1033500005007800840078000000be0087f50700b3
:1033600000017800010078008201780000017800f7
:1033700003007800820078000000be0041f50700dd
:1033800030618800f0818000018280003df50700f7
:10339000706188001e003700f0818000018280008b
:1033a00038f5070030618800d0928000e1928000fb
:1033b00001f0a20002002000031c240033f70700e4
:1033c0000001780001007800820278000002780095
:1033d000f0818000018280000001be0005007800bd
:1033e000840078000000be0064f50700000178004a
:1033f0000100780082017800000178000300780065
:10340000820078000000be001ef507007061880091
:10341000f4928000059380005093800061938000b7
:103420000001be000400be00f1f407000000e0004f
:1034300014003d005893800069938000f49280004e
:103440000593800010828000218280000001be0070
:103450000400be0049f50700000178000100780073
:1034600082027800000278000801be0005007800a2
:10347000840078000000be0004080700f092880075
:1034800001938800f492800005938000509380009f
:10349000619380000001be000400be00d6f4070066
:1034a0000000e0001400340058938000699380000d
:1034b000f4928000059380001082800021828000b9
:1034c0000001be000400be0023f5070000017800e3
:1034d0000100780082027800000278000801be0036
:1034e00005007800840078000000be00d0070700c7
:1034f000f092880001938800f09280000193800090
:103500006011b800bcf407000000e0001e003500a8
:10351000f09280000193800002002000031c240030
:10352000daf60700000178000100780082027800d6
:1035300000027800f0818000018280000001be005e
:1035400005007800840078000000be000bf507003d
:103550000001780001007800820178000001780005
:1035600003007800820078000000be00c5f4070068
:1035700030628800f081800001828000c1f4070081
:10358000706288001e003700f08180000182800098
:10359000bcf4070030628800f09280000193800044
:1035a00001f0a20002002000031c2400b7f607006f
:1035b00000017800010078008202780000027800a3
:1035c000f0818000018280000001be0005007800cb
:1035d000840078000000be00e8f4070000017800d5
:1035e0000100780082017800000178000300780073
:1035f000820078000000be00a2f40700706288001c
:10360000000000004f04be000080fa000000060029
:103610000800fa00008fbe002207980033079800c8
:1036200022972f00f3e023002e009000be009000b0
:1036300096f6070000017800010078008202780009
:10364000000278001e0178009e01900005007800bd
:10365000840078000000be00c8f4070080017800f4
:103660000101780003007800820078000000be00ad
:10367000309388004193880022972f00f3e02300c5
:103680002e009000be00900080f607000001780038
:1036900001007800820178000001780003007800c2
:1036a000820078000001be001e0078009e0090009d
:1036b000a9f4070080017800010178000300780078
:1036c000820078000000be00b0928800c19288009d
:1036d000309380004193800002002000c3202c0022
:1036e0006af6070080017800010178000300780085
:1036f000820078000000be0050938800619388002b
:10370000b0928000c192800002002000c3202400fb
:103710005ef6070080017800010178000300780060
:10372000820078000000be0010938800219388007a
:10373000509380006193800004002000852c2400b9
:1037400002002000832c2c006707070010938000e4
:103750002193800004002000852c2400020020001a
:10376000832c2c0060070700000000000080fa0096
:10377000000006000800fa00008fbe002207980033
:10378000330798001e0178009e01900092958800f2
:10379000a39588002e019000be019000b29588008c
:1037a000c3958800000000000080fa0000000600b9
:1037b0000000fa00c301a800dca1ef00dea1ef00c9
:1037c000c1e1a800000000000080fa00000006002f
:1037d0000000fa00c305a800dca5ef00dea5ef009d
:1037e000c1e5a800000000000080fa00000006000b
:1037f0001800fa00889fbe008a9fbe00300e80002d
:103800008000eb00008fbe00500e80008000eb00b7
:10381000c000dd00000020001e0f40005e97480041
:10382000302e80008000eb002007980031079800c0
:10383000502e80008000eb00c000dd000000200062
:1038400064014700e4014700331940002391480018
:103850001202780092029000240798003507980021
:103860001e0078009e00900021f40700c2532e0035
:103870007378230005f60700400798005107980069
:103880002e009000be00900019f40700c2532e00d5
:1038900073782b00fdf5070060079800710798000a
:1038a00010818000218180000001be004e00900048
:1038b000de00900028f40700000f9800110f980018
:1038c00030818000418180000001be006e009000c8
:1038d000fe00900020f40700200f9800310f9800a0
:1038e0004e019000de019000128188002381880043
:1038f0006e029000fe0290003481880045818800ad
:1039000002002000a33724000e0890009e089000bb
:10391000def50700800178000101780003007800df
:10392000820078000000be00109488002194880076
:1039300002002000a33724002e089000be0890004b
:10394000d2f50700800178000101780003007800bb
:10395000820078000000be00309488004194880006
:10396000149480002594800030948000419480005d
:103970000001be000400be0000f407000001780052
:103980000100780082027800000278000200200026
:103990000300240005007800840078000000be00c9
:1039a000dbf4070080017800010178000300780053
:1039b000820078000000be00509488006194880066
:1039c000509480006194800022972f00f3e8230038
:1039d000cff407008001780001017800030078002f
:1039e000820078000000be007094880081948800f6
:1039f000f09480000195800090948800a194880044
:103a00001095800021958000b0948800c1948800b2
:103a10003095800041958000d0948800e194880022
:103a200098948000a99480005a9480006b94800040
:103a3000d0948000e1948000a4f707000001be004c
:103a40000a00be0091f5070000017800010078002f
:103a5000820278000002780002002000a3372400d0
:103a600005007800840078000000be0087f507009c
:103a700000017800010078008201780000017800e0
:103a800003007800820078000001be000800be003c
:103a9000baf3070080017800010178000300780084
:103aa000820078000000be00f09488000195880034
:103ab000b8948000c99480005a9480006b94800070
:103ac000d0948000e194800085f807000001be00da
:103ad0000a00be006df507000001780001007800c3
:103ae000820278000002780002002000a337240040
:103af00005007800840078000000be0063f5070030
:103b0000000178000100780082017800000178004f
:103b100003007800820078000001be000800be00ab
:103b200096f3070080017800010178000300780017
:103b3000820078000000be00109588002195880062
:103b4000709480008194800002002000a33724003c
:103b50006ff407008001780001017800030078000d
:103b6000820078000000be003095880041958800f2
:103b70003095800041958000b2fd20009304240020
:103b80001df307000000e0000c00340030958000b9
:103b900041958000b2fd2000930c24006ef30700d5
:103ba000800178000101780003007800820078002d
:103bb0000000be0030958800419588003095800057
:103bc00041958000b2fd200093042c0008f307000b
:103bd0000000e000010035000c0037003095800047
:103be00041958000b2fd2000930c240063f3070090
:103bf00080017800010178000300780082007800dd
:103c00000000be003095880041958800000000004b
:103c10004f05be004f04be000080fa000000060001
:103c20001800fa00a0808000b180800000017800b8
:103c3000810178008000eb000e007800ac050700e1
:103c4000f0948000019580000001be00410020003a
:103c50000e007800890507001095800021958000ee
:103c60000001be00810020000e00780083050700df
:103c700030958000419580000001be00c100200009
:103c80000e0078007d05070050948000619480004c
:103c90000001be00010120000e007800770507003a
:103ca00070948000819480000001be0041012000da
:103cb0000e007800710507000e01780081012000d8
:103cc00010062000a4020700000000000080fa0097
:103cd000000006006c00fa00a0808000b180800027
:103ce00000017800810178008000eb000e00780070
:103cf0007f05070090958000a19580000001be001f
:103d0000410020000e0078005c050700b09580009f
:103d1000c19580000001be00810020000e007800e7
:103d20005605070050948000619480000001be0099
:103d3000c10020000e00780050050700709480003c
:103d4000819480000001be00010120000e00780077
:103d50004a05070050988000619880000001be006d
:103d6000410120000e00780044050700d096800035
:103d7000e19680000001be00810120000e00780065
:103d80003e05070050958000619580000001be004f
:103d9000c10120000e0078003805070070958000f2
:103da000819580000001be00010220000e00780015
:103db0003205070050978000619780000001be0027
:103dc000410220000e0078002c050700d0958000ed
:103dd000e19580000001be00810220000e00780005
:103de0002605070070988000819880000001be00c1
:103df000c10220000e00780020050700f096800028
:103e0000019780000001be00010320000e00780031
:103e10001a050700b0978000c19780000001be001e
:103e2000410320000e007800140507003096800042
:103e3000419680000001be00810320000e00780042
:103e40000e05070070978000819780000001be007a
:103e5000c10320000e00780008050700f0958000df
:103e6000019680000001be00010420000e007800d1
:103e70000205070090988000a19880000001be0014
:103e8000410420000e007800fc0407001097800019
:103e9000219780000001be00810420000e00780000
:103ea000f6040700d0978000e19780000001be0073
:103eb000c10420000e007800f00407005096800036
:103ec000619680000001be00010520000e00780010
:103ed000ea04070090978000a19780000001be00cf
:103ee000410520000e007800e404070010968000d1
:103ef000219680000001be00810520000e007800a0
:103f0000de040700b0988000c19880000001be0068
:103f1000c10520000e007800d8040700309780000b
:103f2000419780000001be00010620000e007800cd
:103f3000d2040700f0978000019880000001be00c5
:103f4000410620000e007800cc0407007096800027
:103f5000819680000001be00810620000e007800de
:103f6000c60407000e017800c106200020062000cc
:103f7000f9010700000000000080fa0000000600c0
:103f80000400fa00008fbe00200880000040a1005d
:103f90000050a100200888001e0178009e019000ba
:103fa000001c2e0041c6240059f3070000017800d0
:103fb00001007800820278000002780002f02f00f1
:103fc000f377240005007800840078000000be002c
:103fd00009f207000000e0008d0034002008800096
:103fe0000040a0000050a100200888001e017800b9
:103ff0009e019000001c2e0041c6240044f30700df
:104000000001780001007800820278000002780048
:1040100002002000031024000500780084007800ce
:104020000000be003af307000001780001007800ac
:10403000820278000002780002f02f00f37724005b
:1040400005007800840078000000be00eaf1070057
:104050000000e00055003400200880000040a1006e
:104060000050a000200888001e0178009e019000ea
:10407000001c2e0041c6240025f307000001780033
:10408000010078008202780000027800020020001f
:104090000328240005007800840078000000be009a
:1040a0001bf307000001780001007800820278000d
:1040b0000002780002f02f00f3772400050078005a
:1040c000840078000000be00cbf107000000e00093
:1040d0001d003400200880000040a0000050a00017
:1040e000200888001e0178009e019000001c2e0010
:1040f00041c6240006f307000001780001007800a3
:1041000082027800000278000200200003382400b8
:1041100005007800840078000000be00fcf2070073
:104120000001780001007800820178000001780029
:1041300003007800820078000000be00b0f10700a4
:1041400010088800400037001e0178009e01900092
:10415000001c2e0041c62400edf20700000178008b
:10416000010078008202780000027800020020003e
:104170000328240005007800840078000000be00b9
:10418000e3f2070000017800010078008201780066
:104190000001780003007800820078000000be0073
:1041a00097f1070010088800270037001e017800eb
:1041b0009e019000001c2e0041c62400d4f207008e
:1041c0000001780001007800820278000002780087
:1041d000020020000310240005007800840078000d
:1041e0000000be00caf2070000017800010078005c
:1041f00082017800000178000300780082007800d6
:104200000000be007ef10700100888000e00370095
:104210001e0178009e019000001c2e0041c6240063
:10422000bbf20700000178000100780082017800ed
:104230000001780003007800820078000000be00d2
:104240006ff1070010088800000000000080fa00ed
:10425000000006000400fa00008fbe00f008800095
:104260000040a1000050a100f00888001e01780065
:104270009e019000001c2e0041c62400a4f20700fd
:1042800000017800010078008202780000027800c6
:1042900002f02f00f37724000500780084007800f6
:1042a0000000be0054f107000000e0008d00340063
:1042b000f00880000040a0000050a100f008880035
:1042c0001e0178009e019000001c2e0041c62400b3
:1042d0008ff2070000017800010078008202780068
:1042e000000278000200200003102400050078007e
:1042f000840078000000be0085f20700000178000d
:1043000001007800820278000002780002f02f009d
:10431000f377240005007800840078000000be00d8
:1043200035f107000000e00055003400f00880007f
:104330000040a1000050a000f00888001e01780095
:104340009e019000001c2e0041c6240070f2070060
:1043500000017800010078008202780000027800f5
:104360000200200003282400050078008400780063
:104370000000be0066f2070000017800010078002e
:10438000820278000002780002f02f00f377240008
:1043900005007800840078000000be0016f10700d8
:1043a0000000e0001d003400f00880000040a00084
:1043b0000050a000f00888001e0178009e019000c7
:1043c000001c2e0041c6240051f2070000017800b5
:1043d00001007800820278000002780002002000cc
:1043e0000338240005007800840078000000be0037
:1043f00047f2070000017800010078008201780090
:104400000001780003007800820078000000be0000
:10441000fbf00700d0088800400037001e0178003c
:104420009e019000001c2e0041c6240038f20700b7
:104430000001780001007800820278000002780014
:104440000200200003282400050078008400780082
:104450000000be002ef20700000178000100780085
:104460008201780000017800030078008200780063
:104470000000be00e2f00700d008880027003700e7
:104480001e0178009e019000001c2e0041c62400f1
:104490001ff2070000017800010078008202780016
:1044a00000027800020020000310240005007800bc
:1044b000840078000000be0015f2070000017800bb
:1044c0000100780082017800000178000300780084
:1044d000820078000000be00c9f00700d008880004
:1044e0000e0037001e0178009e019000001c2e0077
:1044f00041c6240006f207000001780001007800a0
:1045000082017800000178000300780082007800c2
:104510000000be00baf00700d008880000000000cc
:104520000080fa00000006000000fa0000002000f1
:10453000a137240092fe070005e1a9000421a9008b
:104540000068a9002068a80005e1a800000000009c
:104550000080fa00000006000000fa0000002000c1
:10456000a14724003bff07001fe1a9001e21a9006d
:104570000368a9002368a8001fe1a800000000004c
:104580000080fa00000006000000fa0013e1a90014
:1045900011e1a9001061a8001021a9008008800085
:1045a0000040a1000050a100800888000a21ef000f
:1045b0000621ef00707220007008880000e02000e3
:1045c00060088800204280000000a0000010a100c8
:1045d0000020a100204288000108a9002108a800ad
:1045e00011e1a800000000000080fa0000000600b1
:1045f0000a00fa0020079800310798004207980047
:104600000040eb00004f78009e407800e0cfb30000
:1046100000c06800004f78002e0090004880de0047
:10462000004078009e40780000c06800004f78008d
:104630002e009000004078009e40780000c0680086
:10464000004f78003e0090004880de000040780077
:104650009e40780000c06800004f78003e00900047
:10466000004078009e40780000c06800004f78004d
:104670000000eb00100798000c0037001e009000af
:10468000e800470011004000104078009e4078008c
:1046900000c06800004f78000e80e8008e80e800bf
:1046a0001108e80090007800110798009e00900023
:1046b0003e009000808f5000f0ff35001e407800d3
:1046c0000080fa00000006000c00fa006047980025
:1046d0004207980053079800ee409000014f780081
:1046e0004e009000de0090004808de00010020002f
:1046f00000407800104798004e009000de009000c7
:104700004008de00010020000040780020479800ab
:104710004e009000de0090004809dd004800de00f9
:1047200000007100c808de000040780030479800a3
:104730004e00900000407800404798000e0178003d
:1047400051002000000520000300070000000000c9
:104750000080fa00000006001000fa00889fbe00ea
:104760008a1f780050079800610798007207980028
:104770008f0478000f00780000057800640047007f
:10478000ec00470062002000110841009001780011
:10479000230798002e0090008000e9003107980060
:1047a0000000e8000000d100800040000f00780009
:1047b0008187470060004000400798000000eb0040
:1047c000100798009e0090000e80e8000108e800a5
:1047d00010017800120798004e0090000100400080
:1047e000e1cfb300014878005e009000c880de0091
:1047f0001e0190000e80e8000208e8009001780099
:1048000013079800814078004e009000020040009d
:10481000014878009e0090000e80e8000108e80042
:1048200010017800120798005e00900000417800a7
:104830004e00900001004000024878006e00900099
:10484000c880de001e0190000e80e8000208e8002b
:104850009001780013079800814078004e00900086
:1048600002004000014878009e0090000e80e800a1
:104870000108e80010017800120798006e0090000f
:10488000004178004e00900001004000024878008e
:104890000000eb00000f78000d0037001e007800cc
:1048a000ee004700910040001e0190000e80e800dd
:1048b0000208e80090017800130798009140780002
:1048c0004e00900002004000014878001e0fe800f2
:1048d0006e0090009e007800808f5000efff350042
:1048e0001e0490000e80e8000808e80090007800a0
:1048f000110798007e019000ee0090005e0090008d
:104900003bff0700804078004e0090000800400008
:10491000014878004e009000ae009000b4030700fc
:104920008a07780000000000890778004f057800aa
:104930004f04be000080fa00000006000200fa00ea
:10494000004f7800a0818000e30f5000210032006a
:10495000e30f500005003e00e10f50001000320050
:10496000e10f500014003e0007003700e50f500033
:1049700026003200e50f50001c003900e60f500001
:1049800036003200460037001e407800e24f4000fb
:1049900045003a0010002000a08188004200370046
:1049a0001e80fb004800dd00b08188002000200050
:1049b000a08188003f0037001e80fb00b18180008d
:1049c00001004000b081880030002000a0818800f4
:1049d000380037001e80fb004800dd00c0818800e1
:1049e00040002000a0818800320037001e80fb00bc
:1049f000c181800001004000c08188003a30ef0092
:104a000050002000a08188002a003700d08180005b
:104a100080007800f0072000808f50000d003e00dd
:104a2000d18180000100e800d0818800a0392100f8
:104a3000010040001e487800d1818000c0818000c4
:104a4000808f50001a00350060002000a08188008f
:104a5000170037003430ef00150037001e41780092
:104a6000c103210082487800c1818000b0818000ac
:104a7000a2392100defe0700c10321009140780029
:104a8000814f500004003a00c1818000b081800055
:104a9000a23921000a0007003430ef00050037007a
:104aa0003430ef0003003700000000000100370041
:104ab00000000000000000000080fa000000060076
:104ac0000600fa00000f78001107980022079800ee
:104ad000100520009e007800808f500005003200f5
:104ae000200520009e007800808f500005003200d5
:104af000080037002e0090001040780008000700e2
:104b0000040037002e0090001040780028000700b5
:104b100000000000000000000080fa000000060015
:104b20000200fa00004f78001e80fb00e80f5000e2
:104b30000e003200e80f500005003c000000e000cd
:104b400008003200e20f50000e0032001300370060
:104b5000ea0f500008003200ee0f50000c00320047
:104b60000e0037000c70ef000e00370080c0b3005d
:104b70000cf0b7000b003700a0c0b3000cf0b7007a
:104b80000800370020c0b3000cf0b7000500370064
:104b9000e0c0b3000cf0b700020037000c70ef006b
:104ba00000000000000000000080fa000000060085
:104bb0000200fa00004f78001e4078000004e00078
:104bc000030032001e4078000004e00003003200c1
:104bd0001e41780021032100824878000000000077
:104be0000080fa00000006000e00fa00000f7800b6
:104bf000120798002307980034079800450798008b
:104c000056079800670798001e0078001e01900064
:104c1000ae0190000288be001e0078003eb99700e9
:104c2000ceb9970062009800730098001e007800cb
:104c30003e019000ce0190002200980033009800c1
:104c40001e0078001eb99700aeb9970002089800c0
:104c5000130898001e0078005e019000ee0190009d
:104c600042009800530098001e0078007eb1970023
:104c70008eb99700220898003308980000000000c1
:104c80000080fa00000006001200fa00889fbe00b3
:104c90006007980072079800030f98006e0090005c
:104ca0007e0190008e099000021098001310980069
:104cb0006e00900060029000f00290006e00900084
:104cc00090009000100078000001be000400be00bb
:104cd0000ff00700000178000100780082047800de
:104ce000000478006e009000f000900060009000da
:104cf00001f0a2006e019000920190001201780074
:104d000003f00700000178000100780082017800bc
:104d10000001780009007800880078000002be00d9
:104d200003007800820078000001be007e00900041
:104d30008e089000ec0107006100b900ecee07005e
:104d4000008fbe006e009000900090001000780070
:104d50001e0178009e019000ccf0070080017800d1
:104d60000101780003007800820078000001be0095
:104d70006e00900022109800331098006e00900092
:104d8000400c9000d00c900002002000a3372400bb
:104d90007e0090008e089000ddef07000001780093
:104da000010078008201780000017800030078009b
:104db000820078000001be000800be00efee070090
:104dc00080017800010178000300780082007800fb
:104dd0000001be006e009000420898005308980041
:104de0006e009000000a9000900a90006e00900003
:104df000b0009000200090000001be000400be0042
:104e0000c3ef0700000178000100780082047800f9
:104e1000000478006e009000900890000008900058
:104e200001f0a2006e019000b201900022019000fa
:104e3000b7ef0700000178000100780082017800d8
:104e4000000178006e009000400b9000d00b9000a5
:104e500009007800880078000002be000300780096
:104e6000820078000001be000600be009e0107001f
:104e70006100b9009eee07000001be006e009000c8
:104e800042089800530898006e009000400a900075
:104e9000d00a90006e009000b000900020009000ba
:104ea0000001be000400be0078f007008001780019
:104eb0000101780003007800820078000001be0044
:104ec0006e00900042109800531098006e00900001
:104ed000f0089000600890000001be007e00900085
:104ee0008e0890009cee0700000178000100780019
:104ef000820278000002780002002000a33724001c
:104f000005007800840078000000be005ff0070014
:104f100020079800310798006e009000200a90004a
:104f2000b00a90006e009000d00090004000900009
:104f30000001be000400be0075ef0700000178000c
:104f40000100780082047800000478006e00900070
:104f5000b00890002008900001f0a2006e019000bf
:104f6000d20190004201900069ef07000001780033
:104f700001007800820178000001780009007800c3
:104f8000880078000002be000300780082007800ec
:104f90000001be002e009000be00900052010700ec
:104fa0006100b90052ee07004007980051079800d1
:104fb0006e0090007e0190008e09900062089800bb
:104fc000730898006e009000d000900040009000a0
:104fd0004e019000de0190002cf007008001780067
:104fe0000101780003007800820078000001be0013
:104ff0006e00900062109800731098006e00900090
:1050000020129000b01290006e009000d01090001e
:10501000401090000001be000400be0057ee0700e3
:105020000001780001007800820278000002780018
:105030006e009000f0109000601090000001be0023
:1050400005007800840078000000be004bee0700e9
:10505000000178000100780082007800810178006a
:105060000001780003007800820078000000be0094
:105070004f04be000080fa00000006000000fa00a5
:105080006000b8005098880061988800b49580004e
:10509000c595800070948000819480000001be005e
:1050a0000400be002cee07008001780001017800aa
:1050b00003007800820078000000be00d0968800cf
:1050c000e196880050988000619880000001be0041
:1050d000a02e2100ecfe0700509588006195880005
:1050e000d0968000e19680000001be00a02b210038
:1050f000e5fe070070958800819588007095800016
:105100008195800054958000659580000001be0067
:105110000400be003ef90700000000000080fa0015
:10512000000006000800fa002007980031079800e8
:10513000b2fd2000930424002e009000be009000d9
:1051400005ee070000017800010078008202780077
:1051500000027800b2fd2000930c240005007800c6
:10516000840078000000be0041f20700b2fd20007c
:105170009304240001ee0700008fbe00b2fd200062
:10518000930424001e0078009e009000fbed0700b1
:1051900000017800010078008202780000027800a7
:1051a000b2fd2000930c24000500780084007800f4
:1051b0000000be002ef20700b2fd20009304240080
:1051c000e5ed07000001780001007800820078001a
:1051d00081017800000178000300780082007800e7
:1051e0000000be000080fa00000006000a00fa007d
:1051f00030079800410798004e009000e6004700f5
:10520000110f40001e0078001001780090019000fe
:1052100012079800230798009e0090002e0090002f
:105220008101780000017800030078008200780096
:105230000000be000080fa00000006000600fa0030
:1052400010079800210798002e0090008e80e8003b
:10525000110f40001e0078009000780010009000b0
:105260008101780000017800030078008200780056
:105270000000be000080fa00000006000c00fa00ea
:1052800020079800310798004207980053079800bc
:105290000e80e80068084700900078001107980029
:1052a0000000eb00000f78000b0037001e007800b4
:1052b0008e80e800910040006600470010017800f1
:1052c0001e00410064014700120040009140780038
:1052d000014878001e0fe8001e007800e30f500020
:1052e000f2ff3400000000000080fa000000060019
:1052f0000c00fa0020079800310798004207980038
:10530000530798000e80e800680847009000780076
:10531000110798000000eb00000f78000c00370028
:10532000300020001e0050008e80e80091004000f8
:1053300066004700100178001e004100640147002c
:105340001200400091407800014878001e0fe800ec
:105350001e007800e30f5000f1ff34000000000051
:105360000080fa00000006000c00fa0020079800f8
:105370003107980042079800530798000e80e80014
:105380006808470090007800110798000000eb00c3
:10539000000f78000b0037001e0078008e80e800b8
:1053a0009100400066004700100178001e00410097
:1053b00064014700120040009140780001487800e5
:1053c0001e0fe8001e007800e70f5000f2ff3400c7
:1053d000000000000080fa00000006000400fa004f
:1053e000008fbe006011b8001e0078009e00900083
:1053f00001ed07000000e000030035001e0078000a
:105400009e009000030037001e0078009e00900070
:1054100001f0a2008001780001017800030078000b
:10542000820078000000be000080fa000000060044
:105430000800fa00008fbe0022079800330798008a
:105440002e019000be0190001e0078009e0090008a
:10545000e9ec07000000e000030034009e00780043
:105460001e00900002003700ae0090003e00900049
:105470008101780000017800030078008200780044
:105480000000be000080fa00000006000800fa00dc
:10549000008fbe0022079800330798002e0190006d
:1054a000be0190001e0078009e009000d0ec070026
:1054b0000000e00003003d009e0078001e00900008
:1054c00002003700ae0090003e009000810178009d
:1054d0000001780003007800820078000000be0020
:1054e0000080fa00000006000c00fa00008fbe00e9
:1054f0002207980033079800440798005507980042
:105500004e019000de0190001e0078009e00900089
:10551000b9ec07000000e000040034004e019000e8
:10552000de019000028fbe000a0037002e019000bd
:10553000be0190001e0078009e009000acec0700b9
:105540000000e00003003d002e019000be0190002d
:10555000028fbe009e0078001e009000810178003e
:105560000001780003007800820078000000be008f
:105570000080fa00000006000400fa00008fbe0060
:10558000b2fd2000930424001e0078009e009000cd
:10559000dfed07000001780001007800820278004a
:1055a0000002780002002000433324000500780048
:1055b000840078000000be00b4ee0700000178000f
:1055c00001007800820078008101780000017800f5
:1055d00003007800820078000000be000080fa001e
:1055e000000006000400fa00008fbe00b2fd20009b
:1055f000930424001e0078009e009000a3ee070094
:105600000001780001007800820278000002780032
:105610000200200043332400050078008400780055
:105620000000be00baed070000017800010078001c
:105630008200780081017800000178000300780082
:10564000820078000000be000080fa000000060022
:105650000000fa003182800040828000808f50007c
:1056600004003500318280004082800000805000bc
:105670000500370041828000308280008080500029
:1056800000202000010050000080fa000000060009
:105690000000fa00eeff070080007800f01f2000f5
:1056a000010050000080fa00000006000200fa002d
:1056b00030828000000fe800f01f20009e0078007c
:1056c000808f5000020034000000eb00000f7800d3
:1056d000418280001e0078000080680000f0a70072
:1056e0000000ea000000e9004f00de000040780002
:1056f0000080fa00000006000000fa004ad0bf0057
